:020000040000fa
:080000000001040000000000f3
:020000040000fa
:100008009a0100009a0100009a0100009a0100007c
:100018009a0100009a0100009a0100009a0100006c
:100028009a0100009a0100009a0100002274000061
:100038009a0100009a0100009a0100009a0100004c
:100048009a0100009a0100009a0100009a0100003c
:100058009a0100009a0100009a0100009a0100002c
:100068009a0100009a0100009a0100009a0100001c
:100078009a0100009a0100009a0100009a0100000c
:100088009a0100009a0100009a01000090390000ce
:100098009a0100009a0100009a0100009a010000ec
:1000a8009a0100009a0100009a0100009a010000dc
:1000b8009a0100009a0100009a0100009a010000cc
:1000c8009a0100009a0100009a0100009a010000bc
:1000d8009a0100009a0100009a0100009a010000ac
:1000e8009a0100009a0100009a0100009a0100009c
:0800f8009a0100009a010000ca
:020000040000fa
:100108009a0100009a0100009a0100009a0100007b
:100118009a0100009a0100009a0100009a0100006b
:100128009a0100009a0100009a0100002274000060
:100138009a0100009a0100009a0100009a0100004b
:100148009a0100009a0100009a0100009a0100003b
:100158009a0100009a0100009a0100009a0100002b
:100168009a0100009a0100009a0100009a0100001b
:100178009a0100009a0100009a0100009a0100000b
:100188009a0100009a0100009a01000090390000cd
:100198009a0100009a0100009a0100009a010000eb
:1001a8009a0100009a0100009a0100009a010000db
:1001b8009a0100009a0100009a0100009a010000cb
:1001c8009a0100009a0100009a0100009a010000bb
:1001d8009a0100009a0100009a0100009a010000ab
:1001e8009a0100009a0100009a0100009a0100009b
:0801f8009a0100009a010000c9
:020000040000fa
:10020000ef7221000e7f22000e0188000000000026
:10021000000020000000e000020032000001200089
:10022000200288000c0007008068270001002000e1
:1002300011000700000020000000e0000200320072
:1002400000000200000000003e74020000000000f8
:100250000040da000000fe004440a90060012000d8
:100260000000e0000300320000002000a001880030
:100270004440a8000000060091018800800078003a
:100280000000eb0015003700e280400032a0b4000f
:100290009101ba00e280400032a0b4009102ba009d
:1002a000e280400032a0b4000002eb00472bde00e9
:1002b000f507b200602ce10004003a000059eb00a1
:1002c0008301e900fdff3e00040037006128e100e2
:1002d000010032000082eb00040007001101ba00a7
:1002e0000200e000e8ff3a00000006003159ba00c1
:1002f0008301e9000c0032002159ba008301e900b2
:10030000080032000400e00003003a00e2804000f0
:1003100032a0b400f5ff370011d9ba008301e9001b
:10032000faff3a008100e800e180400032a0b4000a
:10033000000006000040da000000fe006022b80065
:10034000060220000000d0008180d2000482d2008a
:100350008582d2000000a0000202520083825a006f
:10036000030031000202420083824a000000a10023
:100370000603e900f3ff3a0000000600889fbe0074
:100380008a9fbe003004be002005be000404440065
:1003900085844c0006054d0087854d000898be00f9
:1003a0000a90be000440e10005c8e10006d0e1006b
:1003b00007d8e10002003100680040001008e800a2
:1003c0004f05be004f04be00000006001000fa00fa
:1003d000889fbe008a9fbe00110020000605be0057
:1003e0000404be003002be002003be00c4b79f005c
:1003f000d5b79f00e6b79f00f7b79f0008025200ed
:1004000089825a000a035b008b835b0084bf9f00d4
:1004100095bf9f00a6bf9f00b7bf9f000498be0076
:100420000698be004fb29700dfb297006fb39700f7
:10043000ffb397000820e10009a8e1000ab0e1003d
:100440000bb8e100010039008000eb004f05be0051
:10045000108810004f04be000080fa000000060063
:100460001400fa00889fbe008a9fbe008c9fbe00c9
:100470000006eb003e000700ccb79f00bcb79f0012
:10048000acb79f009cb79f008cb79f000605be00cd
:100490000404be000d0420004fb39700bfb29700c4
:1004a000860343002fb29700e00f530004003d0085
:1004b0003d0007000f004000b0ff070003003700b9
:1004c000390007000f004000c0ff0700cfb29700bf
:1004d00095bf9f00e08f5200090035002b000700f8
:1004e00014002000050020006033b80000007200f6
:1004f0008180720002017300838173001c00070079
:100500000c06e8008d0f5600e3ff3a001fba970073
:10051000e00f520005003d000802be000a03be00c5
:1005200000fe2f000f00400094ff07004faa970025
:10053000e00f520008003a000fb497009fb49700f4
:100540002fb59700bfb59700d8b79f00e9b79f00b8
:10055000fab79f008bbf9f000c0007004f06be003c
:100560004f05be004f04be000080fa0000000600e8
:10057000010007000000060090b79f00a1b79f0090
:10058000b2b79f00c3b79f0000000600010007003c
:10059000000006001fb09700afb097003fb1970072
:1005a000cfb19700000006004f2bde00f9ff0700d7
:1005b00086837300858242004f23de00a7b79f0029
:1005c000868272000402420095b79f00ffaa97003e
:1005d0004f2bde00858242000602720084b79f0026
:1005e0006faa97004f23de00040242008682720049
:1005f000f5af9f004f18de0000027200e5ff070014
:10060000e4af9f00000040008180480002014900e3
:10061000838149000802be000a03be00d6ff07001e
:1006200000fe2f0000000600881f78001800200040
:10063000881f78008aff07008f87e9004f04780041
:1006400000000600801feb0085ff07008f87e90090
:1006500000000600889fbe008a9fbe00e00f500089
:10066000e08f5800e00f5900e08f59000c003d006a
:100670006044b8006055b8000000540081805c0000
:1006800002015d0083815d00180020001500070055
:1006900008003d00180007000004eb0005003700cb
:1006a0000004eb000f00070002003d0012000700ed
:1006b00018002000dcff0700e00f540006003200a5
:1006c0006022b8006033b8000000520081805a00f8
:1006d00002015b0083815b004f05be004f04be003a
:1006e00000000600e00f5200e08f5a00e00f5b00b0
:1006f000e08f5b00000006006044b8006055b80061
:100700000402540085825c0006035d0087835d005f
:1007100000000600889fbe008a9fbe008c1f7800e4
:10072000e00f5000e08f5800e00f5900e08f5900b3
:100730000d003d006044b8006055b8001c0020006a
:100740000000540081805c0002015d0083815d0037
:100750000820e10009a8e1000ab0e1000bb8e100bf
:100760000d003d00080037000006eb00e00f5200ce
:10077000e08f5a00e00f5b00e08f5b0006003d0059
:100780006044b8006055b8000402540085825c00e3
:1007900006035d0087835d00aaff0700e00f560097
:1007a000060032006022b8006033b800000052003a
:1007b00081805a0002015b0083815b004f06780054
:1007c0004f05be004f04be00000006000002780086
:1007d00002003700315a78000201e900e00f5100b1
:1007e000fcff3a000000060000027800020037001b
:1007f000015a78000201e900e00f5100fcff3a00c5
:1008000000000600000278008042eb00b4cf120026
:10081000fdff3a000080ea000000420000000600f0
:100820000002780006003700314378000201e90039
:10083000065a780084027800e04f53000600320028
:1008400084027800e00f5100f7ff3a000200370001
:10085000805aeb000201e900e00f5100fcff3a0072
:04086000000006008e
:020000040000fa
:1008640000500000c2b40000200000004554000005
:100874004d4200004f4100005244000000000000bf
:0c0884000c0000007d000000640000007b
:020000040000fa
:100890000200fa00004f78008472210014427800b0
:1008a0009e4f52001f0032008472210014427800d3
:1008b000e24f42000b0032008472210014427800a3
:1008c0000482fb007e22b900840278008458210053
:1008d00004824200e2012000a160210004007800af
:1008e000baff07001e40780028f7b7001e427800c4
:1008f000e24f42000d0032009e4278000582fb006c
:100900007e22b900840278008458210004824200cb
:10091000e201200084007800a0602100abff070006
:100920000300370000000000010037000000000055
:100930000080fa00000006000000fa009572210015
:1009400095427800847221001442780084cf5200ce
:100950002f0032009472210014427800e24f4200ce
:100960001a003200675a2100947221001442780064
:100970000482fb007e22b90004027800fc024200df
:1009800084582100048242001443780094722100ac
:10099000144278000482fb007e22b90084027800b1
:1009a00084582100048242001402780085fd2f0043
:1009b000848242008402200013c0b3000701780043
:1009c000864078000500780030110700847221000d
:1009d000144278000400780029f7b700656221000e
:1009e0009542780054b0800087fd2f008483430037
:1009f000665a2100840220008541780007017800b2
:100a000011c0b30006007800201107000100370074
:100a1000000000000080fa00000006000c00fa0050
:100a2000b4d221001407980034b98000e00f5200be
:100a300008003a00c12a07000002be0084027800c4
:100a4000f47f20008482620004402000048242007f
:100a500034b98800c20320008000eb00e05c210074
:100a600061ff07000042eb00444798000042eb00a2
:100a7000044f78004e0037001e40780084ff0700c6
:100a80001e4078000082fb006622b90084027800d4
:100a90002444280004824200944290005547980064
:100aa0001e4078000082fb006622b9000402780034
:100ab0008482e800244428000482420094027800e2
:100ac000350798001e4078000082fb006622b900be
:100ad00004027800e4024200244428000482420018
:100ae00094027800450798005e4290000482fb0063
:100af000e00f5200010032002c0037001e00900071
:100b000050079800be0290004e029000848242007e
:100b10001e02900004824200a402b0001407980054
:100b20009e029000c4ff2100848f5200fcff3e0013
:100b30005e40900026f6b7005e0290008402b0008e
:100b400054b0880055b080003e02900004824200fc
:100b50000402e80064b0880065b080004e02900096
:100b60000482420074b08800d400200004b18800e0
:100b70002276a90070ff07009e4278000582fb00e4
:100b80006622b900840278002444280004824200ce
:100b9000144278000002fd00cdf5b7000002fd0010
:100ba0000c0b07001e4fe80001003700ffff370065
:100bb0001e427800e04f5200afff32000080fa0082
:100bc000000006000c00fa001007980021079800aa
:100bd0006247980043079800244f98000042eb00ba
:100be000044f78009d0037001e40780028ff070062
:100bf00004b18000ed0f520094003a004eff070050
:100c0000d55c2100954278002e4a900084cf520096
:100c100090003a008421200054ae88006e4290007b
:100c2000e04f520008003a004e029000b4ad880038
:100c30002276a8004400200004b18800ce02900073
:100c400025b188007f00370035b98000f43f2000cf
:100c5000848f52000400360035b9800084382100aa
:100c6000848f5200020036000440200034b988000e
:100c700034b98000b4ad88000402e80034b98800bb
:100c8000ce039000a7ad88008d3607000002be009d
:100c9000c4b08800d5b088002296a8006e429000ab
:100ca0000482fb006123b9000082eb008082eb002c
:100cb0000602420087824a0036002000070020001a
:100cc000860f5200878f5a005e003e0004600100cc
:100cd0000300370002003700160037002e003700ef
:100ce0001e029000ae029000e4ad8800f5ad8800d1
:100cf0006e4290000414a2000482fb000402e9008a
:100d00004f22de00044278000482fb006102620090
:100d10004222dd0046ae8000b5ff2f008502630051
:100d20000502720044ae88000002eb0004b18800a6
:100d3000440037000e82e800940290000e82e80022
:100d400014027800848242004e02900084824200a5
:100d5000b4ad800004826a0024b188001e029000b5
:100d6000ae029000e4ad8800f5ad88000042eb00d3
:100d70000002fd00ccf5b7000002fd00c404200015
:100d80000500200034ad880045ad88002400200017
:100d900004b188002b0037001e029000ae029000c4
:100da0000402780084027800254290000483fb004e
:100db000354290000482fb004822dd008602780064
:100dc0008482720005027800040378001e029000fd
:100dd000ae02900004027800944378008782fb0002
:100de000144290000482fb004822dd008503780055
:100df0008483730007027800840243004e0290004f
:100e000084824200b4ad800004826a0024b188006c
:100e10001e029000ae02900004027800a2002000a2
:100e200084007800c05b210068fe070054002000a9
:100e300004b1880011c0b30020c0b3002007070030
:100e4000000000001e42780008003700000000008b
:100e500001003700000000001e4fe8001e4278002d
:100e6000e04f520060ff3200e4cfb300044078004e
:100e70000080fa00000006000200fa00004f78002f
:100e80001e427800e04f52000200320014002000a1
:100e90000b0037001e4078007dfe070015b1800072
:100ea0000400210004826200e00f520003003200bf
:100eb0002396a90014002000010037000002eb0077
:100ec000040078000080fa00000006000200fa002a
:100ed000004f78001e427800e04f520002003200be
:100ee0000002eb00080037001e40780068fe070093
:100ef00004b1800067026a0004f0a7000402ea005f
:100f00000402e9004f22de00040078000080fa00ad
:100f1000000006000200fa00004f78001e42780030
:100f2000e04f520047003a001e40780058fe07008c
:100f3000a4b08000b4b0880004b180000500200097
:100f4000e600200007002000860f5200878f5a001d
:100f500036003e0004600100110037000d0037002c
:100f60000f0037000e003700300037000c0037004c
:100f70000d0037000c0037002c0037002b00370025
:100f80002a003700170037002800370027003700f5
:100f900023003700212507000e0a07002a0037002a
:100fa0000c0a07002800370011c0b30010c1b300bd
:100fb000c3060700c4ad8000e00f520005003200f8
:100fc00085b0800094ad8000848f5200f6ff3a0017
:100fd00001003700000000008400200004b18800f8
:100fe0001900370011c0b30010c1b300b4060700e8
:100ff000c4ad8000e00f52000500320085b08000d3
:1010000094ad8000848f5200f6ff3a000100370053
:1010100000000000c400200004b188000a0037006e
:10102000d400200004b18800070037008040eb00a6
:1010300040c1b300a2060700e60907000000000057
:1010400001003700000000000080fa0000000600e8
:101050000200fa00004f78001e427800e04f520074
:1010600006003a001e40780009fe07002276a9001b
:101070001e407800a7ff07000100370000000000b5
:101080000080fa00000006000200fa00004f78001d
:101090001e427800e04f5200020032000002eb00d6
:1010a0000a0037001e407800f9fd070022fe070005
:1010b000a2002000c15b210080622100c3fd070067
:1010c000a4ad800094b188008462210004007800ff
:1010d0000080fa00000006000200fa00004f7800cd
:1010e0001e427800e04f52000b003a001e4078008c
:1010f000e7fd070010fe070085b0800094ad80007a
:10110000848f52000500320011c0b30000c1b3004b
:101110006b06070001003700000000000080fa00a5
:10112000000006000400fa00204798002e429000bc
:10113000e04f5200020032000002eb001d003700b9
:101140002e409000d2fd070004b18000044f7800cb
:101150001e427800e74f5200050032001e42780020
:10116000eb4f5200020032000002eb00110037008a
:1011700085b0800094b08000848f5200090039004f
:1011800065b0800054b080008482520096b0800028
:1011900084b0800004025300048242000402e9008b
:1011a0000400370095b0800084b0800004825200b3
:1011b0000402e900040078000080fa000000060044
:1011c0000400fa0020479800314798002e42900012
:1011d000e04f5200020032000002eb0043003700f3
:1011e0002e409000aafd07002e409000cdff070082
:1011f00000027800040f78001e027800e00f520011
:1012000002003a000002eb00380037001e027800ae
:10121000e10f520002003a002e409000aeff07009e
:1012200015b180000410200004826200e00f52001b
:1012300009003a0065b0800054b08000048252007a
:101240000402d1009e0f5200030039002e4090008e
:10125000a1ff07002316a800e303470065622100f1
:101260009542780086b080001400200013c0b300bf
:10127000070178008540780006007800030f07001a
:1012800084b080000402e80084b0880085b080004b
:1012900064b08000848f52000200390054b0800096
:1012a00084b088001e027800e10f520003003a006b
:1012b0002e40900088ff07000b00370015b180001a
:1012c0000402200004826200e00f520006003a008f
:1012d00022b6a800133507000002be000402780001
:1012e0006c024200e4b08800140020000400780082
:1012f0000080fa00000006000c00fa006047980029
:1013000041079800520798000002eb00140798006c
:101310006e429000e04f5200020032000002eb00eb
:10132000600037006e40900059fd07006e4090004d
:101330007cff070000027800240798002e0290002e
:10134000e00f520004003a006e40900062ff070078
:101350000002eb00530037002e029000040f7800cb
:10136000ae0290005e029000848f520002003600b0
:101370005e029000040f780015b180000410200078
:1013800004826200e00f52000a003a0065b080005b
:1013900054b08000048252008402d1002e029000da
:1013a000848f5200030039006e4090004aff07000e
:1013b0002316a80084b080009e02420064b0800022
:1013c000848f52001600390065b0800084b0800020
:1013d0000482520014079800ce0390006562210039
:1013e0009542780086b080001e02900013c0b300c2
:1013f000070178008540780006007800a30e0700fa
:10140000ce0290001e029000048242004407980021
:101410001e0290001e0f120054b0800084b088009d
:10142000ce039000656221009542780086b080006e
:101430001e02780013c0b3000701780085407800d1
:1014400006007800910e070084b080001e02420062
:1014500084b08800ae0290005e029000848f52003b
:1014600003003e006e4090001bff07000b0037009a
:1014700015b180000402200004826200e00f5200d7
:1014800006003a0022b6a800a63407000002be00fb
:10149000040278006c024200e4b088001e02900052
:1014a0001e024200040078000080fa0000000600de
:1014b0000400fa00004f7800110798001e02900007
:1014c00004007800cffc07000002780004017800d7
:1014d0009e0090001e40780087ff07000002780001
:1014e0009e02900004824200040078000080fa000e
:1014f000000006000600fa00404798004e429000a7
:10150000e04f5200020032000002eb000c003700f6
:101510004e409000defc070065b0800054b08000b3
:1015200004825200040fe9004e409000fdfe0700c7
:1015300000027800140798001e0290001e0212009c
:10154000040078000080fa00000006000200fa00a3
:10155000004f78001e4078000c0007000002780061
:10156000e00f5200070032001e407800c8fc070060
:10157000a4b08000b4b0880011c0b30000c1b300b3
:101580004f0507000080fa00000006000200fa0084
:10159000004f78001e427800e04f520002003200f7
:1015a0000002eb00120037001e407800b8fc070074
:1015b000a5b08000b4b08000848f520004003900d0
:1015c000a5b08000b4b0800004825200080037004b
:1015d00075b08000b4b0800084825200a6b0800054
:1015e00064b0800004025300048242000402e80058
:1015f000040078000080fa00000006000600fa00ef
:1016000020479800210798002e409000dfff070038
:1016100000027800040f78001e027800e00f5200ec
:1016200002003a000002eb00290037002e40900033
:1016300097fc07002e029000e00f52000a003200d3
:101640006562210095427800b7b080002e039000bb
:1016500014002000854178000701780011c0b30014
:1016600006007800090e0700b4b080000402e8000c
:10167000b4b08800b5b0800074b08000848f520090
:101680000200360064b08000b4b088001e0278000a
:10169000e10f520002003a002356a8000b00370069
:1016a00015b180000402200004826200e00f5200a5
:1016b00006003a0022b6a8001a3407000002be0055
:1016c00004027800d403b000e4b0880014002000c5
:1016d000040078000080fa00000006000a00fa000a
:1016e0004047980031079800420798000002eb003d
:1016f000040f78004e409000a4ff0700000278001d
:10170000140798001e029000e00f520002003a00f9
:101710000002eb004f0037004e4090005cfc0700d9
:10172000ce0290001e029000848f5200020036000c
:101730001e02900044079800b5b080004e02900051
:101740008482420074b08000848f520019003600f9
:1017500075b08000b4b0800004825200040fe8002d
:101760003e029000e00f52000d0032006562210041
:1017700095427800b7b080003e0390001e027800ca
:10178000854178000701780011c0b3000600780099
:10179000be0d07003e0290001e0242003407980072
:1017a0004e0290001e0252004407980064b0800070
:1017b000b4b088003e029000e00f52000a003200f0
:1017c0006562210095427800b7b080003e0390002a
:1017d0004e029000854178000701780011c0b300e7
:1017e00006007800a90d0700b5b080004e029000f9
:1017f00004824200b4b088004e0290001e024200f3
:10180000440798009e0290004e029000848252008d
:101810004e029000848f520002003e002356a80022
:101820000b00370015b18000040220000482620022
:10183000e00f520006003a0022b6a800b9330700b4
:101840000002be0004027800d403b000e4b08800b7
:101850004e029000040078000080fa0000000600ac
:101860000600fa00404798004e429000e04f5200b8
:10187000020032000002eb000b0037004e409000e7
:1018800003fc070075b0800064b08000048f520034
:101890004e4090003dff07000002780014079800ba
:1018a0001e0290001e021200040078000080fa0060
:1018b000000006000e00fa006047980041079800fb
:1018c00052079800630798006e429000e04f520064
:1018d00003003a005e029000e00f520002003a005e
:1018e0000002eb00450037006e409000e8fb070067
:1018f0006e40900025ff0700000278001407980052
:10190000ee0290005e029000848242001e0290006f
:10191000848f5200040036009e0290006e029000f8
:101920000482520054079800b5b080006e02900007
:10193000048f420074b080009e0f520005003100f9
:1019400075b0800064b08000048252000482ea0016
:101950001e0f420074b080001e0252000402e80014
:1019600024079800de0290002e029000848f52001f
:101970000a003e0065622100954278004e03900007
:101980005e029000854178001e01780011c0b3000e
:10199000060078003d0d0700170037006562210042
:1019a000954278004e0390002e0290008541780009
:1019b0001e01780011c0b30006007800330d070047
:1019c000de0290002e029000048252006562210027
:1019d0009542780067b080004e0090002e03900082
:1019e00006034000854178000701780011c0b3006c
:1019f00006007800250d07005e02900004007800c4
:101a00000080fa00000006000600fa002047980057
:101a100021079800ae019000120020008e0078008f
:101a20002e409000a3ff07001e427800044078007b
:101a30000080fa00000006003e00fa0020779800bf
:101a4000211f9800321f9800431f9800541f9800d0
:101a5000651f98002e729000e04f520003003a007c
:101a60003e1a9000e00f520002003a000002eb0024
:101a7000260137002e70900085fb07002e70900025
:101a8000c2fe070000027800ce1a90000502520044
:101a9000140798009e0290003e1a9000848f520016
:101aa000020031000082eb00180137005e1a90003e
:101ab000e00f5200060032009e0290005e1a900075
:101ac000848f5200020036005e1a900014079800be
:101ad000b5b080004e1a900004824200340798008e
:101ae00075b080003e029000848f520007003100e4
:101af00075b0800064b08000048252000482ea0065
:101b0000be0290000482420034079800be0290009a
:101b1000050f780075b080003e02900004825200ec
:101b20000402e800240798004e1a90003407980039
:101b3000be1a9000750798002e1a9000040f9800a6
:101b40002e1a900094427800154f98002e1a90009b
:101b50000402e800241f98000002eb0064079800cc
:101b60006e1a9000e00f52000c0032009e4a900066
:101b700004c6b30084cf5200080036009e4a90008d
:101b8000a4c7b30084cf520004003e009e4a9000d8
:101b900004ceb30004c24200144f980004c2b30044
:101ba000244f98002e4a90008482fb002e02900061
:101bb000848f5200020036002e029000244f9800bd
:101bc0002e4a90008482fb001e029000848f5200f7
:101bd000020036001e029000244f98002e4a90000a
:101be0000482fb0065622100954278007203470081
:101bf000854178001e01780011c0b300060078000e
:101c0000a20c07002e4a90000482fb001e0f420027
:101c10002e4a90000482fb00ae0290000482520023
:101c2000240798002e029000e00f520004003a00b2
:101c300064b08000040f78000082eb002407980055
:101c40006e1a9000e00f5200680032000042eb0074
:101c5000044f9800600037000e4a90000482fb0099
:101c600004024700a452900004c6b30084cf52007f
:101c7000110036000e4a90000482fb000402470067
:101c8000a4529000a4c7b30084cf52000a003e00c3
:101c90000e4a90000483fb000e4a90000482fb0071
:101ca00004024700a452900004ceb30004c24200d4
:101cb00086024700a45298000e4a90000482fb005e
:101cc00004024700a45290001e4a900084cf5200a4
:101cd00023003a003e1a90000402e900341f9800e5
:101ce0003e1a9000e00f520008003a00be02900039
:101cf0007e029000848252000e4a90000482fb0013
:101d0000048242000402e800800037002e1a90008e
:101d100094427800154f98002e1a90000402e800b3
:101d2000241f980014002000640798009e4a900029
:101d300004c6b30084cf5200240036009e4a9000af
:101d4000a4c7b30084cf520020003e009e4a9000fa
:101d500004ceb30004c24200144f98001b003700a9
:101d60007e029000341f98006e029000e00f520037
:101d7000160032008e0a9000251f98002e1a90003f
:101d800094427800154f98002e1a90000402e80043
:101d9000241f98009e4a900004c6b30084cf5200ce
:101da000080036009e4a9000a4c7b30084cf5200ba
:101db00004003e009e4a900004ceb30004c24200dc
:101dc000144f98000002eb00640798000e4a900040
:101dd0000442e800044f98008e4a90002e4a90007a
:101de00084cf52009cff3900370037000042eb00df
:101df000044f9800300037000e4a90000482fb0028
:101e000004024700a45290001e4a900084cf520062
:101e100017003a003e1a90000402e900341f9800af
:101e20003e1a9000e00f520008003a00be029000f7
:101e30007e029000848252000e4a90000482fb00d1
:101e4000048242000402e800300037002e1a90009d
:101e500094427800154f98002e1a90000402e80072
:101e6000241f980014002000640798000f0037001a
:101e70007e029000341f98006e029000e00f520026
:101e80000a0032008e0a9000251f98002e1a90003a
:101e900094427800154f98002e1a90000402e80032
:101ea000241f98000002eb00640798000e4a90007f
:101eb0000442e800044f98008e4a90002e4a900099
:101ec00084cf5200ccff39002e4a90000482fb00e0
:101ed0009e02900004825200140798009e02900017
:101ee0003e1a9000848f5200020031000082eb0005
:101ef000060037002e4a90000482fb00be029000cc
:101f0000048242003407980024ff37000400780060
:101f10000080fa00000006000800fa00004f780078
:101f2000114798001207980023079800340798007b
:101f30000e03e800be0290002e0290009e01900069
:101f400012002000860078001e407800bafe0700cc
:101f500000027800040078000080fa00000006000b
:101f60000e00fa00881f78000042eb00044f780052
:101f70002e0237001e40780045fa07000042eb00b1
:101f8000644798000002eb00140798000002eb0081
:101f90002407980015b1800004202000048262000c
:101fa000e00f520005003a0015b180000440200007
:101fb00004826200e00f52000b003200a90c0700ff
:101fc00000027800e00f52000700320004c1b300a5
:101fd0006447980014b180004a22de00614262002a
:101fe0000482fb001407980015b180000402200051
:101ff00004826200e00f520009003200e8b0800065
:10200000c83107000002be00040278000402540038
:10201000e00f520002003c0004c1b3006447980086
:1020200015b180000404200004826200e00f520019
:1020300009003200f8b08000ba3107000002be008b
:102040000402780004025400e00f520002003c0039
:1020500004c1b3006447980004b18000eb0f520044
:102060000b003a00f8b08000ae3107000002be005d
:102070000402780004025400e00f520004003c0007
:1020800014c1b30064479800c400200004b1880064
:1020900004b18000e40f520063003a000002eb003c
:1020a000440798005b0037004e0290007422b9008c
:1020b00004027800f0024200e45c21000482420045
:1020c00014027800e00f5200560032004e029000d9
:1020d0007422b90004027800f0024200e45c21009e
:1020e000048242009402780024b18000848f520060
:1020f00045003a0010fa07004e0290007422b90021
:1021000084027800e45c210004824200a2002000e6
:1021100084007800c05b2100acf907004e029000fb
:102120007422b90004027800ea024200e45c210053
:102130000482420014027800a4ad88004e02900090
:102140007422b90004027800ec024200e45c210031
:10215000048242001402be0061024200e0824a0092
:1021600074ad880085ad8800f5ad8000e4ad8000d9
:1021700084824200a4ad800084824200b4ad80001d
:1021800004826a0024b1880024c1b3006447980027
:102190006400200004b18800ce029000c4fe2f002d
:1021a00004aab90004027800870220008483430057
:1021b0004e0290000402e8007422b9008402780004
:1021c000e45c210004824200040378004e02900087
:1021d0007422b90084027800e45c21000482420089
:1021e000840278000702780013c0b300060178006b
:1021f00011c0b30005007800240b07000002eb00bb
:1022000034b08800080037004e0290000402e80055
:10221000440798004e029000e20f5200a2ff3600e1
:1022200001003700000000006e429000e04f5200b5
:10223000090032001e02900004f0a7000402ea0028
:102240000402e9004f22de00044278008440780056
:102250006e4090001a02070014b180007002620004
:10226000e00f52002b003a0004b18000e70f52004b
:1022700066013a00123107000003be00c4b08000be
:10228000d5b080000402530085825b00e00f52004d
:10229000e08f5a005f01350014b1800067026200d0
:1022a000e60f52000e003a0014b180004322de0017
:1022b00061426200644798001e40780015fb0700e9
:1022c0001e40780013fb07006e429000e04f520062
:1022d00052013a00e400200004b1880052013700a6
:1022e00095f9070021c0b30000c1b300f401070055
:1022f000f33007000003be0024bc2e00b500200010
:102300000602420087824a00c4b08800d5b0880027
:1023100045013700ea3007000003be00c4b080006a
:10232000d5b080000402530085825b00e00f5200ac
:10233000e08f5a003b0135007ff9070004b18000af
:1023400005002000c600200007002000860f520074
:10235000878f5a00e8003e00046001000c0037003f
:10236000230037004e00370056003700e4003700e6
:102370007e0037008e003700a2003700af00370024
:10238000bc003700c00037009e003700cc0037008b
:102390001520070000027800e00f5200da0032003a
:1023a0001400200004b1880044ae80006402620082
:1023b000e00f520007003200e4ad8000f5ad800070
:1023c0000402780011c0b300040078002b2007003d
:1023d000d4003700e4ad8000f5ad80000402780041
:1023e00011c0b3000400780024200700cd0037009e
:1023f0006a024700040078003820070000027800d5
:10240000e00f5200c20032000420070000027800f2
:10241000e00f5200170032005e029000ee029000c2
:10242000e4ad8800f5ad88002400200004b18800e8
:10243000f5ad8000e4ad800084824200a4ad800050
:1024400084824200b4ad800004826a0024b1880016
:102450000042eb000002fd00ccf5b7000002fd00d9
:10246000c40420000500200034ad880045ad88007c
:10247000ac003700923007000003be0024bc2e00e1
:10248000b50020000602420087824a00c4b08800de
:10249000d5b088000002eb0004b18800a10037002d
:1024a000a03007000002be0004027800e4b08800fb
:1024b000c05b2100a42a07003400200004b188007a
:1024c00098003700015c2100c05b21000b2b070046
:1024d00000027800e00f52001d003a009130070022
:1024e0000002be0084027800e4b080000483520041
:1024f00034ad800045ad800004027800840f5300a5
:1025000085003600c45c210014427800e54f52007b
:102510000c003e00c45c2100144278000442e80034
:102520000002fd00ccf5b7000002fd0034ad8000d4
:1025300045ad80000402420085824a0034ad880027
:1025400045ad88002400200004b1880075003700e4
:1025500024c0b300644798000002eb001407980001
:102560005400200004b188006e00370024c0b3007e
:10257000644798001400200014079800c45c2100f0
:1025800014427800e34f52006500360044c0b300a7
:102590000002fd00ccf5b7000002fd00042d210073
:1025a0003501200034ad880045ad88005d0037005e
:1025b000c45c210014427800e14f520005003e0047
:1025c00024c1b30064479800140020001407980049
:1025d0005400370014b1800068026200e00f52001e
:1025e0000500320044c1b300644798001400200085
:1025f000240798004b00370024c0b30064479800bc
:1026000048003700c45c210014427800e44f5200b7
:1026100005003e0004c1b300644798001400200088
:10262000140798003f0037008400200004b18800a0
:1026300014c1b300644798003a003700c45c21001d
:1026400014427800e44f520005003e0014c1b3006c
:1026500064479800140020001407980031003700e8
:1026600044c1b30064479800140020002407980078
:102670002c00370044c1b3006447980014002000c8
:102680002407980027003700c45c2100144278001a
:10269000e44f520005003e0004c1b30064479800b7
:1026a00014002000140798001e00370044c1b30036
:1026b0006447980014002000240798001900370090
:1026c000c45c210014427800e44f520005003e0033
:1026d00014c1b30064479800140020001407980048
:1026e0001000370044c1b300644798001400200074
:1026f000240798000b003700000000000900370095
:10270000000000000700370000000000050037004f
:102710000000000003003700000000000100370047
:10272000000000006e429000e04f52003200320084
:102730001e029000e00f52002c003200c45c210009
:10274000144278000442e8000002fd00ccf5b70016
:102750000002fd0034ad800045ad8000040242005f
:1027600085824a0034ad880045ad880095ad800073
:1027700094b08000048252004407980095ad800018
:1027800094b08000848f52000600310065b0800054
:1027900054b0800004825200ce02900004824200b5
:1027a0004407980056ad800067ad80004e0290004f
:1027b000050020000402530085825b0054ad8800b0
:1027c00065ad8800c5ad80004e02900004824200d5
:1027d000c4ad880094b0800094ad88008040eb00c8
:1027e0006e409000b60007000300370011c0b30030
:1027f0006e409000b20007002e029000e00f5200e1
:1028000009003200f3030700070037000000000052
:102810000500370000000000030037000000000042
:1028200001003700000000001e4fe8001e42780043
:10283000e04f5200cffd32000002eb004407980049
:10284000380037004e0290007422b900040278006c
:10285000f0024200e45c210004824200140278008d
:10286000e00f520033003200ae2f07000002be001e
:10287000040378004e0290007422b900040278002c
:10288000f2024200e45c210004824200140278005b
:102890008402530034392000848f52001e00360019
:1028a000ce029000c4fe2f0004aab90004027800f2
:1028b00087022000848343004e0290000402e80057
:1028c0007422b90084027800e45c21000482420092
:1028d000040378004e0290007422b900840278004c
:1028e000e45c210004824200840278000702780040
:1028f00013c0b3000601780011c0b30005007800d2
:10290000620907000002eb0034b088004e0290001c
:102910000402e900440798004e0290000402e80017
:10292000440798004e029000e20f5200c5ff3600a7
:1029300001003700000000004f0478000080fa001a
:10294000000006002c00fa0030179800411798008c
:10295000521798003e139000964078000180fb00cb
:10296000964390008783fb00c83bdd00000278009f
:10297000070272008403780007027800a6439000e3
:102980008783fb00364390000683fb004833dd005d
:102990008700780086807000010378008602780046
:1029a000340f9800450f98004e1290001403be009b
:1029b000560f9800670f98000042eb00645f980084
:1029c00064c0b300745f9800de139000071798008e
:1029d0000e12900004007800fd2407000002780029
:1029e0000417980076024700c10020000400780018
:1029f00035250700000278000482ea0014179800c9
:102a00005e1090003b0c070000027800241798002d
:102a10009e1290002e129000848f5200030032000c
:102a20001c0a070014002000220037000000eb0001
:102a3000e52d07000e82e800410120000400780027
:102a4000af0d07000e82e80004007800280307009d
:102a50007e0290004422de006f42620025002000ca
:102a60000522dd00744f52009e4078000182fb0079
:102a7000de12900004825200740252005417980033
:102a80000e82e800be10900004007800ea01070002
:102a900000027800e00f5200040032000e82e800cd
:102aa000de10900004007800ee030700f90907002b
:102ab00014002000040078000080fa0000000600e6
:102ac0002a00fa00006f9800116f98009af707002b
:102ad0000e6a90000482fb006102620004427800ea
:102ae000e04f5200050032002376a8008e6a900065
:102af000e4cfb30004c26200046f980022b6a900bc
:102b000022d6a90022f6a9002336a9002356a9003f
:102b10002316a90000000000d20907000002780077
:102b2000e00f5200fcff32000e6a90000482fb00ae
:102b300066026200e00f5200030032000002eb0068
:102b4000040f78007700370085b0800094ad8000d6
:102b5000848f520003003a000002eb00040f78005b
:102b60006200370085b0800094ad8000848f5200f1
:102b70001b00360085b0800094ad8000048f5200a9
:102b8000c4ad80009e0f520002003100c1ad800034
:102b9000010f780054ae80009e0f520003003100f8
:102ba00054ae8000040f78002356a800656221000f
:102bb0009542780096ad80001e027800854178002d
:102bc000060178008040eb0000772100af08070085
:102bd00094ad80001e02420094ad8800430037008f
:102be00065b0800094ad80000482520034179800d4
:102bf000be12900084b080008482420054b08000f5
:102c0000048f5200c4ad80009e0f520002003100bc
:102c1000c5ad8000050f780054ae80009e0f5200b5
:102c20000300310051ae8000010f78002356a80048
:102c30003e1290009e0f5200020036001e027800e5
:102c4000341798003e12900065622100954278008a
:102c500096ad800085417800060178008040eb0049
:102c600000772100890807003e1290001e02120022
:102c7000341798003e129000e00f52000e00320010
:102c80003e129000656221009542780057b08000a6
:102c900060b0800096ad80000600500006772100ed
:102ca0000603400085417800070178008040eb0072
:102cb000060078007508070094ad80001e024200ef
:102cc00094ad880095ad800064b08000848f520080
:102cd0000600390095ad800056b0800064b08000d9
:102ce000040253000482420094ad880015b18000b4
:102cf0000480200004826200e00f520009003200cc
:102d0000c4ad80009e0f52000600320054ae800019
:102d10009e0f5200030032000e6a90000404a000cf
:102d2000046f98001e027800e00f520005003a0080
:102d30000e6a90000482fb0063026200e00f520002
:102d400021003200c4ad80001e025200c4ad8800d4
:102d50001e027800e00f5200030032000e6a90005d
:102d60000434a000046f98001e6a90000482fb00e7
:102d70006102620004427800e04f52000800320015
:102d80000042eb000002fd00ccf5b7000002fd00a0
:102d9000d41223001500200034ad880045ad880012
:102da000472e07000003be0034ad800045ad800013
:102db0000602420087824a00c4b08800d5b088006d
:102dc0002296a8003a0037001e6a90000482fb0099
:102dd00062026200e00f52001400320014b1800061
:102de000674262000442e800674262000482fb001e
:102df0006702620016b1800085ff2f008502630024
:102e00000502720014b1880054ad800065ad8000e9
:102e100061025200e0825a0054ad880065ad88001e
:102e200014002000040f78002100370014b1800046
:102e300070026200e00f52001d0032001e6a900016
:102e40000482fb0061026200e00f520010003a00b1
:102e5000c45c210014427800e04f52000c003200a4
:102e6000c45c2100144278000442e9000002fd0025
:102e7000ccf5b7000002fd0034ad800045ad800008
:102e80008502d1000482d30034ad880045ad8800ae
:102e90000b2e07000003be0034ad800045ad80005e
:102ea0000602420087824a00c4b08800d5b088007c
:102eb000b4ad800024079800a4ad800034079800ca
:102ec00054ad800065ad8000440798005507980018
:102ed00074ad800085ad8000640798007507980088
:102ee0000e0a900004e0a10004f0a100040f980075
:102ef0000e0a90000400a1000410a1000420a1000b
:102f00000430a100040f98008e6a900015579800b5
:102f10000002eb00340f980056ad800067ad8000d2
:102f20001e027800050020000602420087824a0047
:102f300054ad880065ad88000e6a90000482fb00e5
:102f400062026200e00f52001a0032000e6a900026
:102f50000482fb0070026200e00f520003003a009e
:102f60006022b800640798007507980044ae80009e
:102f700062026200e00f5200070032004e02900031
:102f8000de02900061025200e0825a00440798007d
:102f9000550798000700370054ad800065ad8000ec
:102fa00061024200e0824a0054ad880065ad8800ad
:102fb000c835a8000e6a90000482fb00610262001e
:102fc00004427800e04f520001003200c815a8000a
:102fd000a5b08000b4b08000848f52000900390091
:102fe00075b0800064b0800084825200b6b080006a
:102ff000a4b080000402530004824200140f980021
:1030000005003700b5b08000a4b0800004825200f3
:103010000402e900140f9800bc08070000027800c1
:10302000140798009e029000f4032000848f520041
:1030300003003e000002eb00140798000300370075
:103040001e0290000404b100140798009e0a90002c
:103050001e029000848f5200020036001e02900073
:10306000140f98006402470004007800a0010700d4
:103070009e007800748f40000e0a90000440a0006b
:103080000450a1000460a0000470a100040f980087
:103090000e6a90000482fb0062026200e00f5200a0
:1030a000150032001e027800640f420024c0b300f5
:1030b000045f980044c0b300145f9800248021008e
:1030c000540f98000e0a90004422de006f42620006
:1030d0000442e8006f4262000482fb006f0262005b
:1030e0004422dd000e0b9000f5f02f0085026300f6
:1030f00005027200040f980086e220001643780053
:103100008683fb0096e22000164378000683fb00ce
:103110004833dd008702780086827200050378005c
:1031200006027800a6e22000164378008683fb00a2
:10313000b6e22000164378000683fb004833dd002a
:10314000870078008680700001037800860278008e
:10315000640f9800750f9800e4ad8000f5ad800015
:1031600004179800151798000042eb004467980078
:1031700064c0b300546798009e0278003517980029
:103180003e1290000400780011230700000278002e
:10319000341798007c024700c1002000040078002a
:1031a00049230700000278000482ea00240f9800f7
:1031b00080742100e60907001e01780061c0b30099
:1031c000c05b2100a22b07006402470041012000e0
:1031d00004007800550c07000e6a90000482fb0082
:1031e00062026200e00f52000400320078024700e1
:1031f00041002000040078004c0c0700c07521003d
:10320000ee0907001e0078003a0a07000002780065
:1032100014079800c0762100cd0907000e82e8004f
:103220002100200004007800400c07000e09070070
:103230000080fa00000006000a00fa00300798003b
:10324000410798003e02900014029000e00f5200e7
:1032500002003a000002eb0022013700e4cfb30085
:1032600014479800ce029000254290000483fb0092
:10327000354290000482fb004822dd008600780081
:103280008480700001027800840278004e02900071
:10329000144178000283fb00144290000482fb007a
:1032a0004822dd00860378008483730007027800db
:1032b000848242003e029000140278008482420020
:1032c0003e0290001402900004826a0024079800d5
:1032d0000042eb00044f78003f0037001e407800aa
:1032e0006bf5070004b18000ed0f5200340032008e
:1032f00004b18000e40f520008003a0025b18000bc
:103300003e02900014029000848f52002e003a007a
:103310009e407800114798002e00370025b18000ac
:103320002e029000848f520029003a0082f5070097
:103330003e02900094029000b4ad8000848f520051
:1033400024003a003e02900094027800a4ad800070
:10335000848f52001f003a004e03900016417800ff
:103360000280fb00964390008783fb00c83bdd0092
:1033700000027800070272008403780007027800d8
:10338000a64390008783fb00364390000683fb0032
:103390004833dd00870078008680700001037800e4
:1033a00086027800e6ad8000f7ad8000860f5200ff
:1033b000878f5a0007003a0014002000c900370028
:1033c000000000000300370000000000010037008b
:1033d000000000001e4fe8001e427800e04f52003f
:1033e000beff32001e429000e24f42001600320043
:1033f0001e40900026f507004ff507001e42900082
:10340000e24f4200100032002e01900022b18800ed
:10341000a2002000ce009000c05b2100ebf407006a
:103420003e02900014027800a4ad88003e02900095
:1034300014029000b4ad880054b0800094ad8800b0
:1034400014002000a70037003e029000e402900024
:103450000420200004826200e00f520002003a00c3
:103460000002eb009f00370034b08000e00f5200f4
:10347000020032000002eb009a0037000002eb006d
:10348000140798004e0037001e0290007422b90005
:1034900004027800f0024200e45c21000482420051
:1034a00014027800e00f5200490032001e02900022
:1034b0007422b90004027800f0024200e45c2100aa
:1034c00004824200940278003e02900014029000b0
:1034d000848f520032003a001e0290007422b9001c
:1034e00004027800ea024200e45c21000482420007
:1034f000940278003e02900014027800848f5200fb
:1035000029003a001e0290007422b900840278005b
:10351000e45c2100048242001403be004e009000cf
:10352000104278000481fb00904090008180fb00f5
:10353000c808dd0082027800818272008500780070
:1035400001027800a04090008180fb003040900094
:103550000080fb004800dd000101780000017100df
:103560000200780080027800840f5300858f5b0092
:103570000f003a006b2c07000002be000403780025
:103580001e0290007422b90084027800045e2100bb
:1035900004824200060a78000002eb005100370066
:1035a00000000000030037000000000001003700a9
:1035b000000000001e0290000402e80014079800ba
:1035c0001e029000e20f5200afff360001003700ec
:1035d000000000000042eb00044f78003d0037007f
:1035e0001e407800aaf4070014b18000680262004f
:1035f000e00f520033003200cff40700b5ad800079
:103600003e02900014029000848f52002f003a0076
:103610001e0290007422b90084027800e45c21004c
:1036200004824200a2002000ce0090000400780036
:1036300066f407003e029000140378001e0290001a
:103640007422b90084027800845d21000482420063
:10365000060a78003e029000b40290002402900016
:103660001e0390007433b90086037800a65d210024
:1036700006834300048bbe003e02900014039000ba
:103680001e0290007422b90084027800e45d2100db
:1036900004824200060a7800222c07000002be00c5
:1036a000040378001e0290007422b900840278009e
:1036b000045e210004824200060a78000002eb004a
:1036c0000800370000000000010037000000000083
:1036d0001e4fe8001e427800e04f5200c0ff32004b
:1036e0000002eb00040078000080fa0000000600f1
:1036f0000200fa00000f78001e0278001402780021
:1037000004007800b2210700000278009e027800d1
:10371000840a78001e0278001402900004007800e9
:10372000ab210700000278009e0278009402980006
:103730001e027800b4029000240290000400be0033
:10374000b12107000002be001e0378002403980088
:10375000350398001e027800d402900044029000c5
:103760000400be00a82107000002be001e0378006e
:1037700044039800550398001e02780074029000dc
:103780000400780092210700000278009e02780071
:10379000f40298001e027800040a900004007800e9
:1037a0008b210700000278009e027800840a9800ae
:1037b0001e027800140a900004007800842107009b
:1037c000000278009e027800940a98000080fa00b7
:1037d000000006000000fa00881f780056f4070079
:1037e000b4ad800024b1880054b0800084b088005b
:1037f00054b0800094b0880064b08000a4b0880009
:1038000064b08000b4b0880014b180006802620027
:10381000e00f520002003200440020000100370097
:10382000d400200004b188002216a9002236a90085
:103830002256a9002296a90022b6a90022d6a900e4
:1038400022f6a9002316a9002336a9002356a900b1
:103850002376a9002396a800c815a900c835a90099
:10386000c875a900c895a90054b0800094ad88001f
:10387000a85a2100f91e070000027800040c780005
:10388000a85a2100f51e07000002780014049800d1
:103890000082eb0034ae880014002000c4ad880024
:1038a0004f0478000080fa00000006000400fa00cf
:1038b000881f7800c0002000432a0700f70907008e
:1038c00000427800044f78001e4278008482fb009a
:1038d000040f20000482620042a2de00044278004d
:1038e000744f52001e427800e04f520002003a002e
:1038f0008421200057003700710020000000eb00f9
:10390000ff09070040003700e40907000042780083
:10391000144798001e429000e04f520043003200ce
:103920001e429000e14f5200360032001e429000cd
:10393000e24f520020003a001e427800e24f52004f
:103940003c0036000002eb0014079800d309070082
:1039500000427800144798001e429000e44f520045
:1039600009003a000e82e8000404e800cb090700d1
:1039700000427800044c78000e84e800c709070074
:1039800000427800044c78009e02900074212000d0
:10399000848f5200290036009e029000445b200074
:1039a000848f520002003600445b2000290037005b
:1039b0001e029000270037001e427800e14f52009f
:1039c00020003600b509070000427800144798002f
:1039d0001e4290009e42780084cf52001b003900a6
:1039e0001e4290000482fb00840078000000eb007f
:1039f000c30907009e4278001e42900004cf520087
:103a000001003700000000009e4278000582fb00a4
:103a10000402ea004f22de00044278001e4fe90053
:103a2000e04f5200b8ff3a000900370000000000e4
:103a3000070037000000000005003700000000000c
:103a40000300370000000000010037000000000004
:103a500084212000040078004f0478000080fa00e0
:103a6000000006002200fa00700f9800011798006d
:103a70007e0a9000d44a9000055798007e0a900074
:103a800044039000d403900046079800570798001d
:103a90007e0a900024039000b4039000160f980053
:103aa000270f98002216a9002236a9002256a90045
:103ab00014b1800070026200e00f520008003a006a
:103ac000ff2a07000003be0024bc2e00b500200022
:103ad0000602420087824a00c4b08800d5b0880040
:103ae00004b18000e40f520003003200e50f5200e1
:103af0002c003200770037000e5290000482fb0049
:103b000064026200e00f52000200320031ff070041
:103b1000270437000e5290000482fb0070026200fe
:103b2000e00f5200090032004e029000de029000c9
:103b300054ad880065ad88008040eb0040c0b30004
:103b4000dffb070023ff0700190437000e52900027
:103b50000482fb0062026200e00f52000f0032009c
:103b60001e0a9000ae0a900061024200e0824a0004
:103b700074ad880085ad88004cff07000002780016
:103b800054ae880011c0b30020c1b300ccfb0700c5
:103b90006400200004b18800050437000dff070011
:103ba000030437000e5290000482fb00640262009e
:103bb000e00f5200eb033a000e5290000482fb002b
:103bc00070026200e00f52001700320056ad800014
:103bd00067ad80004e029000de029000840f53001b
:103be000858f5b001000320056ad800067ad80000d
:103bf000160f9800270f98004e029000de029000ea
:103c000054ad880065ad880011c0b30040c0b3005a
:103c1000abfb07001e0b9000ae0b900056ad88006a
:103c200067ad8800e20337000e5290000482fb006b
:103c300062026200e00f5200cc0332001e0a9000c4
:103c4000ae0a900061024200e0824a0074ad880032
:103c500085ad88007e0a900074029000c4ad880093
:103c600012ff07000002780054ae88000e52900048
:103c70000482fb0070026200e00f52000f0032006d
:103c800011c0b30000c1b3008dfb07007400200019
:103c900004b188008a2a07000003be0024bc2e005d
:103ca000b50020000602420087824a00c4b08800a6
:103cb000d5b088002296a900bd03370011c0b3001b
:103cc00020c1b3007efb07006400200004b188001f
:103cd000b70337008e139000670798000e529000cc
:103ce0000482fb006102620004427800e04f52004f
:103cf000030032006e0290000402e800640798009e
:103d00000e5290000482fb0062026200e00f52003b
:103d1000030032006e0290000402e800640798007d
:103d2000a5b08000b4b08000848f52000900390033
:103d300075b0800064b0800084825200b6b080000c
:103d4000a4b08000040253000482420034079800ab
:103d500005003700b5b08000a4b080000482520096
:103d60000402e9003407980074ad800085ad80003e
:103d70001e0b9000ae0b90000402530085825b0086
:103d8000340f9800450f98003e0a9000540f980099
:103d90000002eb00740798006e029000e00f5200e2
:103da000350032003e029000e00f52004800320021
:103db0003e0a9000ce0a9000e00f5200e08f5a00b9
:103dc0000a0035003e0290006123b8003e0a9000d0
:103dd000ce0a9000840f5300858f5b0003003600ed
:103de0001400200074079800140037006e02900041
:103df0006123b8003e0a9000ce0a900006024200fd
:103e000087824a00e00f5200e08f5a000b00340016
:103e1000be0290006e029000048252006123b9003d
:103e20003e0a9000ce0a9000840f5300858f5b00fd
:103e30000200350014002000740798003e02900034
:103e40006123b8003e0a9000ce0a9000840f530010
:103e5000858f5b001e003400de0a90006e02900029
:103e600004824200e00f52001900340014002000c8
:103e700074079800160037003e0a9000ce0a9000a2
:103e8000e00f5200e08f5a0003003a0014002000b7
:103e9000740798000e0037003e0a9000ce0a90008a
:103ea000e00f5200e08f5a00090035003e029000fa
:103eb0006123b8003e0a9000ce0a9000840f5300a0
:103ec000858f5b0002003600140020007407980004
:103ed0007e029000e00f520009003a000e5290005e
:103ee0000482fb0064026200e00f520021033a00ea
:103ef00011c0b30000c1b300f1fa07002c03370072
:103f00000e5290000482fb0066026200e00f520035
:103f1000020032002ffe0700250337000e529000ea
:103f20000482fb0070026200e00f520013033200b3
:103f300004b180006123b800a4ff2f00f5ff2f001b
:103f40000602420087824a00660020000700200027
:103f5000860f5200878f5a0059013e00046001000d
:103f6000060037001e0037001d0037001c00370018
:103f70001b0037001a0037004601370056ad80009d
:103f800067ad80004e029000de029000840f530067
:103f9000858f5b001000320056ad800067ad800059
:103fa000160f9800270f98004e029000de02900036
:103fb00054ad880065ad880011c0b30040c0b300a7
:103fc000bffa07001e0b9000ae0b900056ad8800a4
:103fd00067ad8800f60237007400200004b1880045
:103fe00085b0800094ad80000482520024079800c0
:103ff0002e029000e00f520006003d0065b08000e8
:1040000054b0800004825200ae029000048242004c
:104010002407980056ad800067ad80002e02900006
:1040200005002000041f430005974b004e0390003d
:10403000de0390001e02be000402530085825b0076
:10404000048fbe001e02be00e00f5200e08f5a0037
:104050001400340044ae800061026200e00f5200a0
:10406000060032001e03be001400200005002000e0
:10407000840f5300858f5b00040032008040eb000a
:1040800000c1b3008efa0700c90237004e0290004b
:10409000de02900061025200e0825a00440798005c
:1040a0005507980056ad800067ad800095ad800043
:1040b00094b0800004825200cfa2de00041f53009f
:1040c00005975b0095ad800094b08000848f52000e
:1040d0000600310065b0800054b0800004825200b8
:1040e000050020001e1f12001e971a004e029000ad
:1040f000de0290001e1f52001e975a001e02be00d4
:10410000e00f5200e08f5a005000340065b080008c
:1041100054b080000482520005002000be0f5200ff
:10412000ae8f5a0049003900c875a900c895a9008a
:104130002316a90097b080002707980095b080004b
:104140001e0278000482420094b0880095ad800081
:104150002e029000848f52001100390095ad80002e
:1041600094b08000848f52002300310056ad80004f
:1041700067ad800095b0800094ad8000048252004d
:10418000050020000602420087824a0054ad8800e4
:1041900065ad880094b0800094ad880016003700ab
:1041a00095ad800066b0800054b0800004025300da
:1041b000048242002407980095b080002e029000ef
:1041c000848f52000c00360056ad800067ad800031
:1041d00095b080002e02900004825200050020005d
:1041e0000602420087824a0054ad880065ad88000f
:1041f00094b0800094ad880095b0800064b08000d9
:10420000848f52000600390095b0800056b08000bf
:1042100064b08000040253000482420094b088001d
:1042200095ad800064b08000848f5200300039006a
:1042300095ad800056b0800064b080000402530049
:104240000482420094ad88002900370095b08000b8
:1042500094ad8000848f52002500320044ae80006f
:1042600068026200e00f52002000320044ae80007d
:1042700070026200e00f52001b00320056ad800059
:1042800067ad800095ad800094b08000048252003c
:10429000cfa2de000402530085825b0054ad88008b
:1042a00065ad880095ad800094b08000848f520089
:1042b0000a00310056ad800067ad800065b0800017
:1042c00054b0800004825200cfa2de0004025300ea
:1042d00085825b0054ad880065ad880094b0800095
:1042e00094ad88002356a800c895a800c875a800fa
:1042f00095b0800084b08000848f52001c003a008a
:1043000015b180000480200004826200e00f52009a
:104310000a003a00ea2807000003be0024bc2e0071
:10432000b50020000602420087824a00c4b088001f
:10433000d5b088002296a9000d00370056ad800048
:1043400067ad80004e029000de029000840f5300a3
:10435000858f5b0006003a0044ae80006102620077
:10436000e00f5200020032002296a9002376a90035
:104370007e0a900074039000ce03900054ad80003c
:1043800065ad8000040278000482530004024300fb
:10439000640f9800c4ad8000e00f520004003a00a2
:1043a0006e0a9000e00f5200010032002336a80090
:1043b0006e0a9000c4ad880004b18000e80f52007e
:1043c00017003a0056ad800067ad80004e029000a5
:1043d000de029000840f5300858f5b003a003a00a4
:1043e00044ae800061026200e00f520038003200eb
:1043f000b32807000003be00145e2f005500200004
:104400000602420087824a00c4b08800d5b0880006
:104410002296a8009400200004b1880031003700e3
:1044200004b18000e90f52000e003a000e529000d5
:104430000482fb0061026200e00f520026003a0095
:104440004e039000de03900056ad880067ad8800f3
:104450008040eb0040c1b30099f90700ddfc070084
:10446000d301370004b18000ea0f52001c003a006b
:1044700056ad800067ad80004e029000de029000d5
:10448000840f5300858f5b00be013a00d1fc07000a
:10449000c701370054ad800065ad80006103420064
:1044a000e0834a004e029000de029000840f530029
:1044b000858f5b00b5013a00c6fc0700bc013700e0
:1044c0000000000007003700000000000500370072
:1044d000000000000300370000000000010037006a
:1044e000000000000e5290008482fb0004022000b5
:1044f00004826200e00f5200a6013a0004b180007d
:10450000eb0f5200a501320004b18000ea0f520007
:10451000a401320004b18000ec0f5200a30132006c
:104520000e129000e00f5200200132005e0a90004f
:10453000e00f52007f003c007e0a90006402900071
:104540004422de006f4262000482fb004222dd0052
:10455000840278005e0a9000048252000400780011
:10456000192707008e1290005e0a90000482420014
:10457000041798008e1290003e029000848f520023
:1045800002003600be0390000717980076ad800049
:1045900087ad80000e129000050020000602420048
:1045a00087824a0074ad880085ad8800a5b0800080
:1045b0000e1290008482420074b08000848f5200fa
:1045c0002000360075b08000a4b080000482520044
:1045d0000402e800240798006562210095427800f3
:1045e000a6b080002e0290008041eb000081eb001d
:1045f0008540780006007800240207008e129000a3
:104600002e029000048252006562210095427800db
:1046100066b080008041eb000081eb0085407800af
:10462000060078001902070065b080000e139000a4
:104630002e0290000402530004824200a4b08800bd
:104640000d0037006562210095427800a6b0800019
:104650000e1290008041eb000081eb008540780055
:104660000600780009020700a5b080000e12900035
:1046700004824200a4b0880034ae8000e10f420002
:10468000ca00320034ae8000840278000e1290001e
:104690000482520034ae8800d5ad800034ae800074
:1046a00004824200240798002e029000e00f52007e
:1046b00003003d000082eb0034ae8800bb003700f1
:1046c00034ae8000e00f5200b8003c0076ad8000b0
:1046d00087ad80002e0290000500200006024200f7
:1046e00087824a0074ad880085ad8800a5b080003f
:1046f0002e02900004824200a4b08800a5b0800081
:1047000074b08000848f520007003600a5b080008e
:1047100076b0800064b08000040253000482ea0096
:1047200004824200a4b088000082eb0034ae88000e
:104730009e0037005e0a9000e00f52009b0034009c
:104740008e1290005e0a9000848242003e02900029
:10475000848f520004003600be0290005e0a900072
:1047600004825200041798007e0a900064029000b0
:104770004422de006f4262000482fb004222dd0020
:104780000400780090260700a5b080005e0a900023
:10479000848242000e1290008482420074b0800035
:1047a000848f52003300360075b08000a4b08000c2
:1047b000848252005e0a90000402ea0004824200f1
:1047c0000402e800240798002e029000e00f520037
:1047d000170035006562210095427800a6b0800080
:1047e0005e0a9000040343002e0290008041eb001b
:1047f0000081eb008540780006007800a3010700e7
:104800008e1290002e0290000482520065622100f8
:104810009542780066b080008041eb000081eb009b
:104820008540780006007800980107001c003700da
:104830006562210095427800a6b080005e0a900073
:104840000403430077b0800064b08000048253000a
:104850000482ea00040343000e1290008041eb0042
:104860000081eb0085407800060078008701070092
:104870000b0037006562210095427800a6b08000e9
:104880005e0a9000040343000e1290008041eb008a
:104890000081eb0085407800060078007b0107006e
:1048a00034ae8000e10f420005003a005e0a90003d
:1048b00034ae88000e129000d4ad88003b00370063
:1048c00034ae8000840278005e0a9000848f52002b
:1048d0001c003600de0a90000e1290008482420016
:1048e00034ae800004037800d4ad8000040243009d
:1048f000848f520006003e00de0a90000e129000e7
:104900008482420034ae8000848f52000300310064
:104910008e129000d5ad88000700370034ae8000bd
:1049200084027800d4ad8000848242005e0a900048
:1049300004825200d4ad88005e0a900034ae880034
:104940001a003700de0a90000e12900084824200a6
:1049500034ae800004037800d4ad8000040243002c
:10496000848f52001100360034ae8000840278003b
:10497000d4ad8000848242005e0a9000848f520091
:104980000a003900d5ad80005e0b90000e12900039
:104990000403430034ae800004035300d4ad800010
:1049a0000402530004824200d4ad88006e029000dd
:1049b000e00f52001b00320004b18000e70f5200ec
:1049c00002003200a4b08000b4b0880015b18000ad
:1049d0000408200004826200e00f5200050032004b
:1049e00011c0b30000c1b30035f80700d2ef0700d3
:1049f0000c00370022f6a80015b180000404200046
:104a000004826200e00f520006003a0022d6a8009d
:104a1000442707000002be00040278007e02420024
:104a2000f4b088000e5290000482fb006102620024
:104a300004427800e04f52005d00320074ad800007
:104a400085ad800061034200e0834a006e02900061
:104a50006120b8001e0a9000ae0a900000024200d9
:104a600081824a00840f5300858f5b0050003a001a
:104a700074ad800085ad800061024200e0824a0092
:104a800074ad880085ad880004b180006123b80052
:104a9000a4ff2f00f5ff2f000602420087824a0084
:104aa0003600200007002000860f5200878f5a0032
:104ab00027003e00046001000300370008003700b3
:104ac0000f0037001d003700c400200004b188002b
:104ad00011c0b30010c1b300f9f70700340037006c
:104ae000b400200004b188000e2707000002be00b9
:104af00004027800d403b000f4b088001500370039
:104b000056ad800067ad80004e029000de0290003e
:104b1000840f5300858f5b0005003a008040eb0056
:104b200000c1b300e6f707002afb070020003700aa
:104b3000a400200004b18800060037008040eb008c
:104b400000c1b300def7070022fb070018003700a2
:104b50000000000011c0b30000c1b300d8f7070087
:104b600013003700000000001100370000000000b3
:104b70000f003700000000000d00370000000000ab
:104b80000b003700000000000900370000000000a3
:104b9000070037000000000005003700000000009b
:104ba0000300370000000000010037000000000093
:104bb0000080fa00000006000e00fa00604798002e
:104bc0004107980052079800434f98006e429000aa
:104bd000e04f5200020032000002eb00a800370054
:104be0006e4090002aef07004e029000e00f520046
:104bf00002003a00140020004407980075b08000bd
:104c000054b08000048252000402e9002407980096
:104c1000ce0290005e029000848242002e0290003c
:104c2000848f5200020036000002eb00940037002f
:104c300041ef07004e4a90000482fb0063026200cd
:104c4000e00f520003003a004e4a90003440b30097
:104c5000444f98005e02900014079800ce02900026
:104c60005e02900004824200ae0290000482520074
:104c7000240798004e4a90000482fb006202620002
:104c8000e00f5200100032004e4a90000482fb00f8
:104c90006102620004427800e04f520006003200d8
:104ca0002e0290000402d1009e0290000482420075
:104cb00014079800040037009e0290002e02900016
:104cc000048242001407980055b080001e02900034
:104cd000048242000402e80024079800a4b0800087
:104ce000040f780034ae8000e10f42000d00320066
:104cf00034ae800084027800d4ad8000048242008b
:104d00001e0f420074b080009e0f5200050031005b
:104d100075b0800064b08000048252000482ea0012
:104d20001e0f4200b4b080009e0f520010003100f0
:104d3000b5b080002e029000848f52002300310015
:104d40004e4a90000482fb0064026200e00f5200b1
:104d5000020032000002eb00490037002e029000f2
:104d6000b4b088002e029000a4b08800170037006d
:104d7000b4b080009e0f52001000360065b0800075
:104d80002e029000848f5200100031004e4a900095
:104d90000482fb0064026200e00f52000200320055
:104da0000002eb00360037002e029000b4b08800fd
:104db0002e029000a4b08800040037002e0290005c
:104dc000b4b088002e029000a4b08800b4b0800077
:104dd0009e0f52001b0036004e4a90000482fb00da
:104de00064026200e00f52001600320064b08000de
:104df0001e021200666221001643780067b0800030
:104e000065622100954278008641780007017800ac
:104e1000854078002e0090001c000700a5b080009f
:104e2000b4b08000848f520006003100a5b080002d
:104e300064b080002e0390000402530004824200fc
:104e4000a4b088002e02900064b0880054b08000a6
:104e500094ad880054b0800094b0880054b08000b5
:104e600084b0880004b18000e70f520003003a00cc
:104e700011c0b30000c1b30011f7070014002000f7
:104e8000040078000080fa00000006000a00fa0022
:104e9000000f780021479800220798006347980088
:104ea000440798006e4290000482fb00e00f52001d
:104eb0001a003200e10f520037003a002e429000f3
:104ec0000482fb00e00f520009003200e10f5200a3
:104ed0002e003a00ae0290001e0278004e019000b3
:104ee000850078000400780038ee07000a003700db
:104ef0001e027800e10f4200020032001e0078001e
:104f0000930207002e029000ce009000040078006b
:104f100006050700000000001f0037002e42900029
:104f20000482fb00e00f52000c003200e10f52003f
:104f300018003a002e029000e10f420002003200f9
:104f40002e0090009d0207001e027800ce00900007
:104f5000040078006a0407000a0037004e01900040
:104f6000ae0090001e0078003d0307000000000026
:104f70003e04070000027800e00f5200fcff320000
:104f800000000000000000000300370000000000e7
:104f900001003700000000000080fa000000060059
:104fa0000600fa00d7e2a800d3e2a900c5e2a800f3
:104fb000c1e2a9000002eb0004118800f401200006
:104fc000141188000002eb00441188002302a8009d
:104fd00022a2a80021e2a8004105070064024700c0
:104fe000d1c1b30004007800560507004e4290007e
:104ff000044f78009e4278000582fb006802620040
:10500000e00f5200f4ff3a009e4278000582fb0058
:1050100061026200e00f5200efff32001400200036
:10502000e4b788000002eb00c4b788008040eb00c2
:1050300080c0b300c70507008040eb0090c0b300fc
:10504000c405070071c3b300c0c0b300c1050700a9
:1050500071c1b300d0c0b300be05070071c3b30077
:10506000a0c0b300bb05070071c1b300b0c0b3005e
:10507000b805070091c3b30040c0b300b5050700f1
:1050800071c1b30050c0b300b205070091c3b300b3
:1050900020c0b300af05070071c1b30030c0b3003a
:1050a000ac0507006302470021c0b300040078008c
:1050b000240507003e429000044f78000e82e8006d
:1050c00031c0b300040078001e050700ae42900016
:1050d000054f78000040eb00780407000020200016
:1050e0002b060700d1c0b3000040eb009905070074
:1050f00021c3b30020c0b3009605070021c1b3004f
:1051000040c0b3009305070001c4b30030c0b30032
:1051100090050700f1c3b30090c0b3008d050700f0
:1051200021c1b30060c0b3008a050700c1c0b3004d
:1051300070c0b30087050700e1ceb300a0c0b30084
:105140008405070051c0b300b0c0b300810507005b
:10515000403020000e06070054e52000144278007d
:105160008440780040c0b3007a05070064e5200061
:10517000144278008440780050c0b30075050700e1
:1051800074e52000144278008440780020c0b30009
:105190007005070084e52000144278008440780000
:1051a00030c0b3006b05070094e52000144278007e
:1051b000844078000040eb0066050700a4e520006d
:1051c000144278008440780010c0b30061050700e5
:1051d0008040eb0050c1b3005e0507000e02e800fe
:1051e00021c1b30004007800d60407001e429000dd
:1051f00004007800fef6b7000110200000c1b300e3
:10520000c30507002147230040c1b300c0050700c4
:105210008000eb000040eb00bd0507000000eb0044
:10522000db05070041c0b300f0c1b30093050700e0
:105230000080fa00000006000200fa0011c0b3006e
:105240000e007800140507001e0278004222de00de
:10525000614262000482fb00040078000080fa00d2
:10526000000006000200fa00f1c1b3000e00780051
:10527000b40407001e427800684262000482fb000a
:105280000402e9004f22de00040078000080fa00ea
:10529000000006000200fa00e4b78000e00f5200b0
:1052a00017003a0014002000e4b78800c4b780005b
:1052b0000402e900040f78009e0278007473210054
:1052c000848f52000200360074732100040f7800ae
:1052d00001c4b300e0c1b300680507001e427800b6
:1052e00084407800c0c0b3001a0507001e42900039
:1052f00084407800d0c0b3001605070001003700d5
:10530000000000000080fa00000006000a00fa0019
:10531000901120009e0507006502470091c1b3006f
:1053200004007800870407005e42900064479800fc
:10533000e00020009605070064024700e1c0b300ca
:10534000040078007f0407004e429000044f98004c
:1053500063024700f1c0b30004007800790407003d
:105360003e429000144f98009011200088050700dd
:105370000e82e80091c1b3000400780071040700b8
:10538000ae4290006e42900084cf5200e2ff3a009d
:10539000c00020007e0507000e02e800c1c0b30077
:1053a00004007800670407001e42900064479800dc
:1053b000d1c0b3000e007800620407001e427800de
:1053c00074479800ce0290003e029000848f5200f5
:1053d00006003600be0290004e0290008482520009
:1053e00074732100048242000a003700ce0290004c
:1053f0003e029000848f520002003a007473210034
:1054000004003700be0290004e0290000482520059
:105410000402e900040078000080fa0000000600a1
:105420001a00fa00300f9800410f980090112000e8
:10543000570507000e02e80091c1b3000400780090
:10544000400407001e429000044f78000000eb006b
:105450004f0507001e427800e04f520002003a005c
:105460000002eb0052003700e4b78000e00f52006a
:1054700003003a0087ff07000002eb004c003700f2
:10548000c4b78000d4b78800a46f2100144278000c
:10549000844078000040eb00ae040700b46f2100a8
:1054a000144278008440780010c0b300a9040700bb
:1054b0000e82e8004101200004007800100307007c
:1054c0002e0a900004007800411a070000027800bc
:1054d000240f98009e02900074732100848f520064
:1054e00017003e000e82e80014427800614262001c
:1054f000e04f520012003a00be0290000400280063
:1055000004826200e00f52000d003a003e0290005b
:1055100070026200e00f520009003a00ae029000f3
:10552000e45e2000848f520005003e00be02900021
:105530000408200004826200e00f520001003a00db
:105540000000fe001e029000c4b788003e0a9000d2
:105550008e82e800ec824200620020008500780024
:105560000400780099ec0700ce0a900000c2eb001e
:10557000844a78005e529000e84f520009003a00d9
:105580004e529000e04f5200030032004e52900005
:10559000e64f520003003a004e529000ce0a9000af
:1055a000844a78000002eb00e4b788001400200071
:1055b000040078000080fa00000006000600fa00ef
:1055c000000f78002147980022079800a1c3b3007c
:1055d00020c0b3005f04070071c1b30030c0b30046
:1055e0005c040700ae029000747421000482420043
:1055f0002407980064024700144278008440780031
:1056000060c0b300530407006402470014429000d6
:105610008440780070c0b3004e0407001e0278007a
:1056200061002000040078004003070061002000b2
:1056300050e520003d03070080c0b3001f030700b2
:105640002e429000e04f520002003a000042eb0070
:105650000100370064c0b30004407800170307005e
:105660000080fa00000006001800fa0001c8b3002c
:10567000f0c1b3008104070001c8b300f0c1b3005a
:1056800059040700a1c0b300c0c1b300560407000d
:1056900081c0b300f0c1b30078040700e46f2100bb
:1056a00014427800e54f520004003200e46f2100fc
:1056b00014427800e64f52008a003a000002eb00e4
:1056c000040f7800000000006a024700c1c1b30067
:1056d000040078009b0307002e4a90000482fb0020
:1056e0006a026200e00f520005003a001e0fe80057
:1056f000743e20009e027800848f5200f2ff360034
:1057000069024700c1c1b300040078008d0307009f
:105710001e4a900062426200e04f520004003a00cc
:10572000743e20009e027800848f52006d00360087
:1057300081c0b300f0c1b3002b040700680247002a
:105740008040eb00040078007e0307000e4a9000c2
:10575000444f98006702470011c0b300040078006e
:10576000780307007e429000544f9800660247007d
:1057700061c0b30004007800720307006e4290001d
:10578000644f98006502470071c0b30004007800c0
:105790006c0307005e429000744f98007e029000f8
:1057a0000402e800740798006e4a90008440780074
:1057b0000040eb00e70307007e4a90008440780039
:1057c00010c0b300e303070070024700810020000f
:1057d000040078004a0207000042eb0024479800ca
:1057e0003500370064024700c1c1b30004007800ef
:1057f000540307004e42900062426200e04f5200a4
:10580000300032009e0a90000400220004826200f0
:10581000e00f52002b00320001c8b300f0c1b3000a
:105820001604070001c8b300f0c1b300ee0307007f
:10583000a1c0b300c0c1b300eb03070081c0b30037
:10584000f0c1b3000d040700000000006302470030
:10585000c1c1b300040078003a0307003e42900043
:105860000482fb006a026200e00f5200f7ff320080
:1058700081c0b300f0c1b300db0307006e4a9000a3
:10588000844078000040eb00b20307007e4a90009d
:105890008440780010c0b300ae03070070024700d8
:1058a0008100200004007800150207002e429000bd
:1058b0000442e800244798002e429000ef4f520027
:1058c000c8ff36004e4a9000844078000040eb004c
:1058d000a00307005e4a90008440780010c0b30027
:1058e0009c0307000080fa00000006000400fa0094
:1058f00010079800d5b780001e0290000482420075
:1059000074024200040f78009e0278007473210034
:10591000848f5200040036009e027800848c2e0092
:1059200004824200040f78001e4278008440780010
:105930000040eb00870307001e429000844078007f
:1059400010c0b300830307000080fa0000000600c7
:105950000600fa00200798000e02e80021c0b300fc
:1059600004007800f70207001e42900024479800c8
:1059700031c0b3000e007800f20207001e4278002a
:10598000344798006402470014427800844078004d
:1059900020c0b3006f030700640247001442900068
:1059a0008440780030c0b3006a0307001e029000f4
:1059b000040078000080fa00000006000600fa00eb
:1059c000200798000e02e8008040eb0004007800f9
:1059d000dc0207001e4290002447980011c0b3006b
:1059e0000e007800d70207001e4278003447980066
:1059f0006402470014427800844078000040eb00c5
:105a00005403070064024700144290008440780069
:105a100010c0b3004f0307001e029000040078007e
:105a20000080fa00000006000a00fa003007980023
:105a300041079800d5b780003e02900004824200e2
:105a400074024200140798009e02900074732100b3
:105a5000848f5200040036009e029000848c2e0039
:105a600004824200140798000e02e8008040eb0018
:105a700004007800b30207001e42900044479800db
:105a800011c0b3000e007800ae0207001e4278007d
:105a9000544798002e429000844078000040eb006c
:105aa0002c0307003e4290008440780010c0b300f1
:105ab000280307004e0090000e0007000002780047
