:020000040000fa
:080000000001040000000000f3
:020000040000fa
:10000800f06f0000f06f0000f06f0000f06f00006c
:10001800f06f0000f06f0000f06f0000f06f00005c
:10002800f06f0000f06f0000f06f00009e7a000093
:10003800f06f0000f06f0000f06f0000f06f00003c
:10004800f06f0000f06f0000f06f0000f06f00002c
:10005800f06f0000f06f0000f06f0000f06f00001c
:10006800f06f0000f06f0000f06f0000f06f00000c
:10007800f06f0000f06f0000f06f0000f06f0000fc
:10008800f06f0000f06f0000f06f0000c02b000060
:10009800f06f0000f06f0000f06f0000f06f0000dc
:1000a800f06f0000f06f0000f06f0000f06f0000cc
:1000b800f06f0000f06f0000f06f0000f06f0000bc
:1000c800f06f0000f06f0000f06f0000f06f0000ac
:1000d800f06f0000f06f0000f06f0000f06f00009c
:1000e800f06f0000f06f0000f06f0000f06f00008c
:0800f800f06f0000f06f000042
:020000040000fa
:10010800f06f0000f06f0000f06f0000f06f00006b
:10011800f06f0000f06f0000f06f0000f06f00005b
:10012800f06f0000f06f0000f06f00009e7a000092
:10013800f06f0000f06f0000f06f0000f06f00003b
:10014800f06f0000f06f0000f06f0000f06f00002b
:10015800f06f0000f06f0000f06f0000f06f00001b
:10016800f06f0000f06f0000f06f0000f06f00000b
:10017800f06f0000f06f0000f06f0000f06f0000fb
:10018800f06f0000f06f0000f06f0000c02b00005f
:10019800f06f0000f06f0000f06f0000f06f0000db
:1001a800f06f0000f06f0000f06f0000f06f0000cb
:1001b800f06f0000f06f0000f06f0000f06f0000bb
:1001c800f06f0000f06f0000f06f0000f06f0000ab
:1001d800f06f0000f06f0000f06f0000f06f00009b
:1001e800f06f0000f06f0000f06f0000f06f00008b
:0801f800f06f0000f06f000041
:020000040000fa
:100200008f1c21000e7f22000e01880000000000dc
:10021000000020000000e000020032000001200089
:10022000200288000c000700e0bd2700010020002c
:1002300011000700000020000000e0000200320072
:100240000000020000000000ac6c02000000000092
:100250000040da000000fe004440a90060012000d8
:100260000000e0000300320000002000a001880030
:100270004440a8000000060091018800800078003a
:100280000000eb0015003700e280400032a0b4000f
:100290009101ba00e280400032a0b4009102ba009d
:1002a000e280400032a0b4000002eb00472bde00e9
:1002b000f507b200602ce10004003a000059eb00a1
:1002c0008301e900fdff3e00040037006128e100e2
:1002d000010032000082eb00040007001101ba00a7
:1002e0000200e000e8ff3a00000006003159ba00c1
:1002f0008301e9000c0032002159ba008301e900b2
:10030000080032000400e00003003a00e2804000f0
:1003100032a0b400f5ff370011d9ba008301e9001b
:10032000faff3a008100e800e180400032a0b4000a
:10033000000006006022b800060220000000d00085
:100340008180d2000482d2008582d2000000a00009
:100350000202520083825a0003003100020242006e
:1003600083824a000000a1000603e900f3ff3a007f
:1003700000000600889fbe008a9fbe003004be00b9
:100380002005be000404440085844c0006054d0091
:1003900087854d000898be000a90be000440e10029
:1003a00005c8e10006d0e10007d8e10002003100f5
:1003b000680040001008e8004f05be004f04be0072
:1003c000000006001000fa00889fbe008a9fbe0051
:1003d000110020000605be000404be003002be006d
:1003e0002003be00c4b79f00d5b79f00e6b79f00ab
:1003f000f7b79f000802520089825a000a035b0087
:100400008b835b0084bf9f0095bf9f00a6bf9f00aa
:10041000b7bf9f000498be000698be004fb2970079
:10042000dfb297006fb39700ffb397000820e10099
:1004300009a8e1000ab0e1000bb8e10001003900b1
:100440008000eb004f05be00108810004f04be0076
:100450000080fa00000006001400fa00889fbe0029
:100460008a9fbe008c9fbe000006eb003e00070086
:10047000ccb79f00bcb79f00acb79f009cb79f0054
:100480008cb79f000605be000404be000d042000ca
:100490004fb39700bfb29700860343002fb2970077
:1004a000e00f530004003d003d0007000f00400036
:1004b000b0ff070003003700390007000f004000bd
:1004c000c0ff0700cfb2970095bf9f00e08f52009a
:1004d000090035002b000700140020000500200053
:1004e0006033b80000007200818072000201730066
:1004f000838173001c0007000c06e8008d0f560076
:10050000e3ff3a001fba9700e00f520005003d00dc
:100510000802be000a03be0000fe2f000f004000cc
:1005200094ff07004faa9700e00f520008003a001e
:100530000fb497009fb497002fb59700bfb59700f1
:10054000d8b79f00e9b79f00fab79f008bbf9f0005
:100550000c0007004f06be004f05be004f04be0052
:100560000080fa00000006000100070000000600fd
:1005700090b79f00a1b79f00b2b79f00c3b79f007d
:100580000000060001000700000006001fb09700f1
:10059000afb097003fb19700cfb1970000000600c1
:1005a0004f2bde00f9ff070086837300858242002f
:1005b0004f23de00a7b79f0086827200040242002c
:1005c00095b79f00ffaa97004f2bde00858242005f
:1005d0000602720084b79f006faa97004f23de00c7
:1005e0000402420086827200f5af9f004f18de00c1
:1005f00000027200e5ff0700e4af9f00000040002a
:100600008180480002014900838149000802be0040
:100610000a03be00d6ff070000fe2f000000060000
:10062000881f780018002000881f78008aff0700c4
:100630008f87e9004f04780000000600801feb0060
:1006400085ff07008f87e90000000600889fbe0035
:100650008a9fbe00e00f5000e08f5800e00f590065
:10066000e08f59000c003d006044b8006055b800b0
:100670000000540081805c0002015d0083815d0008
:10068000180020001500070008003d0018000700b2
:100690000004eb00050037000004eb000f0007002a
:1006a00002003d001200070018002000dcff0700d8
:1006b000e00f5400060032006022b8006033b8003a
:1006c0000000520081805a0002015b0083815b00c0
:1006d0004f05be004f04be0000000600e00f5200b0
:1006e000e08f5a00e00f5b00e08f5b000000060027
:1006f0006044b8006055b8000402540085825c0074
:1007000006035d0087835d0000000600889fbe0031
:100710008a9fbe008c1f7800e00f5000e08f5800c9
:10072000e00f5900e08f59000d003d006044b80013
:100730006055b8001c0020000000540081805c005f
:1007400002015d0083815d000820e10009a8e1004d
:100750000ab0e1000bb8e1000d003d0008003700d1
:100760000006eb00e00f5200e08f5a00e00f5b0044
:10077000e08f5b0006003d006044b8006055b800a3
:100780000402540085825c0006035d0087835d00df
:10079000aaff0700e00f5600060032006022b800f2
:1007a0006033b8000000520081805a0002015b00f3
:1007b00083815b004f0678004f05be004f04be00ea
:1007c000000006000002780002003700315a78006d
:1007d0000201e900e00f5100fcff3a0000000600b2
:1007e0000002780002003700015a78000201e90097
:1007f000e00f5100fcff3a00000006000002780004
:100800008042eb00b4cf1200fdff3a000080ea0006
:1008100000004200000006000002780006003700d9
:10082000314378000201e900065a7800840278001a
:10083000e04f53000600320084027800e00f5100c0
:10084000f7ff3a0002003700805aeb000201e9008e
:0c085000e00f5100fcff3a000000060021
:020000040000fa
:10085c0000500000c2b4000020000000455400000d
:10086c004d4200004f4100005244000000000000c7
:0c087c000c000000ff0000006400000001
:020000040000fa
:100888000200fa00004f7800041c2100144278008e
:100898009e4f52001f003200041c210014427800b1
:1008a800e24f42000b003200041c21001442780081
:1008b8000482fb007e22b90084027800e40621004d
:1008c80004824200e2012000010f210004007800a8
:1008d800baff07001e407800c0f1b7001e4278003a
:1008e800e24f42000d0032009e4278000582fb0074
:1008f8007e22b90084027800e406210004824200c6
:10090800e201200084007800000f2100abff0700ff
:10091800030037000000000001003700000000005d
:100928000080fa00000006000000fa00151c2100f3
:1009380095427800041c21001442780084cf5200ac
:100948002f003200141c210014427800e24f4200ac
:100958001a003200c7082100141c21001442780034
:100968000482fb007e22b90004027800fc024200e7
:10097800e40621000482420014437800141c21007c
:10098800144278000482fb007e22b90084027800b9
:10099800e4062100048242001402780085fd2f003d
:1009a800848242008402200013c0b300070178004b
:1009b800864078000500780030110700041c2100eb
:1009c8001442780004007800c1f1b700c510210076
:1009d800954278008487800087fd2f008483430038
:1009e800c6082100840220008541780007017800ac
:1009f80011c0b3000600780020110700010037007d
:100a0800000000000080fa00000006000c00fa0058
:100a1800b4d2210014079800f48d8000e00f520032
:100a280008003a004f2c07000002be00840278003c
:100a3800f47f200084826200044020000482420087
:100a4800f48d8800c20320008000eb00400b2100d9
:100a580061ff07000042eb00444798000042eb00aa
:100a6800044f78004e0037001e40780084ff0700ce
:100a78001e4078000082fb006622b90084027800dc
:100a8800e4432800048242009442900055479800ad
:100a98001e4078000082fb006622b900040278003c
:100aa8008482e800e443280004824200940278002b
:100ab800350798001e4078000082fb006622b900c6
:100ac80004027800e4024200e44328000482420061
:100ad80094027800450798005e4290000482fb006b
:100ae800e00f5200010032002c0037001e00900079
:100af80050079800be0290004e0290008482420087
:100b08001e02900004824200a402b000140798005c
:100b18009e029000c4ff2100848f5200fcff3e001b
:100b28005e4090000cf1b7005e0290008402b000b5
:100b380084878800858780003e02900004824200f6
:100b48000402e80094878800958780004e02900090
:100b580004824200a4878800d400200034888800da
:100b68000871a90070ff07009e4278000582fb000b
:100b78006622b90084027800e44328000482420017
:100b8800144278000002fd00b3f0b7000002fd0037
:100b98000c0b07001e4fe80001003700ffff37006d
:100ba8001e427800e04f5200afff32000080fa008a
:100bb800000006000c00fa001007980021079800b2
:100bc8006247980043079800244f98000042eb00c2
:100bd800044f78009d0037001e40780028ff07006a
:100be80034888000ed0f520094003a004eff070051
:100bf800350b2100954278002e4a900084cf520090
:100c080090003a0084212000848588006e4290007c
:100c1800e04f520008003a004e029000e484880039
:100c28000871a8004400200034888800ce02900093
:100c3800558888007f003700f58d8000f43f20003c
:100c4800848f520004003600f58d8000843821001e
:100c5800848f52000200360004402000f48d880082
:100c6800f48d8000e48488000402e800f48d880094
:100c7800ce039000d7848800cd3907000002be005b
:100c8800f4878800058888000891a8006e429000c3
:100c98000482fb006123b9000082eb008082eb0034
:100ca8000602420087824a00360020000700200022
:100cb800860f5200878f5a005e003e0004600100d4
:100cc8000300370002003700160037002e003700f7
:100cd8001e029000ae0290001485880025858800c9
:100ce8006e4290000414a2000482fb000402e90092
:100cf8004f22de00044278000482fb006102620099
:100d08004222dd0076858000b5ff2f008502630052
:100d180005027200748588000002eb0034888800a0
:100d2800440037000e82e800940290000e82e8002a
:100d380014027800848242004e02900084824200ad
:100d4800e484800004826a00548888001e029000af
:100d5800ae02900014858800258588000042eb00cb
:100d68000002fd00b2f0b7000002fd00c40420003c
:100d78000500200064848800758488002400200011
:100d8800348888002b0037001e029000ae029000c5
:100d98000402780084027800254290000483fb0056
:100da800354290000482fb004822dd00860278006c
:100db8008482720005027800040378001e02900005
:100dc800ae02900004027800944378008782fb000a
:100dd800144290000482fb004822dd00850378005d
:100de8008483730007027800840243004e02900057
:100df80084824200e484800004826a005488880067
:100e08001e029000ae02900004027800a2002000aa
:100e180084007800200a210068fe070054002000a2
:100e28003488880011c0b30020c0b3002007070031
:100e3800000000001e427800080037000000000093
:100e480001003700000000001e4fe8001e42780035
:100e5800e04f520060ff3200e4cfb3000440780056
:100e68000080fa00000006000200fa00004f780037
:100e78001e427800e04f52000200320014002000a9
:100e88000b0037001e4078007dfe07004588800073
:100e98000400210004826200e00f520003003200c7
:100ea8000991a90014002000010037000002eb009e
:100eb800040078000080fa00000006000200fa0032
:100ec800004f78001e427800e04f520002003200c6
:100ed8000002eb00080037001e40780068fe07009b
:100ee8003488800067026a0004f0a7000402ea0060
:100ef8000402e9004f22de00040078000080fa00b6
:100f0800000006000200fa00004f78001e42780038
:100f1800e04f520047003a001e40780058fe070094
:100f2800d4878000e487880034888000050020008a
:100f3800e600200007002000860f5200878f5a0025
:100f480036003e0004600100110037000d00370034
:100f58000f0037000e003700300037000c00370054
:100f68000d0037000c0037002c0037002b0037002d
:100f78002a003700170037002800370027003700fd
:100f880023003700af2607000e0a07002a003700a3
:100f98000c0a07002800370011c0b30010c1b300c5
:100fa800c3060700f4848000e00f520005003200f9
:100fb800b5878000c4848000848f5200f6ff3a0011
:100fc80001003700000000008400200034888800f9
:100fd8001900370011c0b30010c1b300b4060700f0
:100fe800f4848000e00f520005003200b5878000cd
:100ff800c4848000848f5200f6ff3a000100370055
:1010080000000000c4002000348888000a0037006f
:10101800d400200034888800070037008040eb00a7
:1010280040c1b300a2060700e6090700000000005f
:1010380001003700000000000080fa0000000600f0
:101048000200fa00004f78001e427800e04f52007c
:1010580006003a001e40780009fe07000871a90042
:101068001e407800a7ff07000100370000000000bd
:101078000080fa00000006000200fa00004f780025
:101088001e427800e04f5200020032000002eb00de
:101098000a0037001e407800f9fd070022fe07000d
:1010a800a2002000210a2100e0102100c3fd070052
:1010b800d4848000c4888800e410210004007800eb
:1010c8000080fa00000006000200fa00004f7800d5
:1010d8001e427800e04f52000b003a001e40780094
:1010e800e7fd070010fe0700b5878000c484800074
:1010f800848f52000500320011c0b30000c1b30054
:101108006b06070001003700000000000080fa00ad
:10111800000006000400fa00204798002e429000c4
:10112800e04f5200020032000002eb001d003700c1
:101138002e409000d2fd070034888000044f7800cc
:101148001e427800e74f5200050032001e42780028
:10115800eb4f5200020032000002eb001100370092
:10116800b5878000c4878000848f52000900390049
:10117800958780008487800084825200c68780001b
:10118800b487800004025300048242000402e9008c
:1011980004003700c5878000b487800004825200ad
:1011a8000402e900040078000080fa00000006004c
:1011b8000400fa0020479800314798002e4290001a
:1011c800e04f5200020032000002eb0043003700fb
:1011d8002e409000aafd07002e409000cdff07008a
:1011e80000027800040f78001e027800e00f520019
:1011f80002003a000002eb00380037001e027800b7
:10120800e10f520002003a002e409000aeff0700a6
:10121800458880000410200004826200e00f52001c
:1012280009003a0095878000848780000482520074
:101238000402d1009e0f5200030039002e40900096
:10124800a1ff07000911a800e3034700c51021000a
:1012580095427800b68780001400200013c0b300c0
:10126800070178008540780006007800030f070022
:10127800b48780000402e800b4878800b58780003e
:1012880094878000848f5200020039008487800090
:10129800b48788001e027800e10f520003003a006c
:1012a8002e40900088ff07000b003700458880001b
:1012b8000402200004826200e00f520006003a0097
:1012c80008b1a800533807000002be0004027800e5
:1012d8006c02420014888800140020000400780082
:1012e8000080fa00000006000c00fa006047980031
:1012f80041079800520798000002eb001407980075
:101308006e429000e04f5200020032000002eb00f3
:10131800600037006e40900059fd07006e40900055
:101328007cff070000027800240798002e02900036
:10133800e00f520004003a006e40900062ff070080
:101348000002eb00530037002e029000040f7800d3
:10135800ae0290005e029000848f520002003600b8
:101368005e029000040f7800458880000410200079
:1013780004826200e00f52000a003a00958780005c
:1013880084878000048252008402d1002e029000db
:10139800848f5200030039006e4090004aff070016
:1013a8000911a800b48780009e024200948780003b
:1013b800848f52001600390095878000b48780001a
:1013c8000482520014079800ce039000c510210033
:1013d80095427800b68780001e02900013c0b300c3
:1013e800070178008540780006007800a30e070002
:1013f800ce0290001e02900004824200440798002a
:101408001e0290001e0f120084878000b487880097
:10141800ce039000c510210095427800b687800061
:101428001e02780013c0b3000701780085407800d9
:1014380006007800910e0700b48780001e02420063
:10144800b4878800ae0290005e029000848f52003c
:1014580003003e006e4090001bff07000b003700a2
:10146800458880000402200004826200e00f5200d8
:1014780006003a0008b1a800e63707000002be00df
:10148800040278006c024200148888001e02900052
:101498001e024200040078000080fa0000000600e6
:1014a8000400fa00004f7800110798001e0290000f
:1014b80004007800cffc07000002780004017800df
:1014c8009e0090001e40780087ff07000002780009
:1014d8009e02900004824200040078000080fa0016
:1014e800000006000600fa00404798004e429000af
:1014f800e04f5200020032000002eb000c003700ff
:101508004e409000defc07009587800084878000ad
:1015180004825200040fe9004e409000fdfe0700cf
:1015280000027800140798001e0290001e021200a4
:10153800040078000080fa00000006000200fa00ab
:10154800004f78001e4078000c0007000002780069
:10155800e00f5200070032001e407800c8fc070068
:10156800d4878000e487880011c0b30000c1b300ad
:101578004f0507000080fa00000006000200fa008c
:10158800004f78001e427800e04f520002003200ff
:101598000002eb00120037001e407800b8fc07007c
:1015a800d5878000e4878000848f520004003900ca
:1015b800d5878000e4878000048252000800370045
:1015c800a5878000e487800084825200d687800047
:1015d8009487800004025300048242000402e80059
:1015e800040078000080fa00000006000600fa00f7
:1015f80020479800210798002e409000dfff070041
:1016080000027800040f78001e027800e00f5200f4
:1016180002003a000002eb00290037002e4090003b
:1016280097fc07002e029000e00f52000a003200db
:10163800c510210095427800e78780002e039000ae
:1016480014002000854178000701780011c0b3001c
:1016580006007800090e0700e48780000402e8000d
:10166800e4878800e5878000a4878000848f520083
:101678000200360094878000e48788001e02780004
:10168800e10f520002003a000951a8000b00370090
:10169800458880000402200004826200e00f5200a6
:1016a80006003a0008b1a8005a3707000002be0039
:1016b80004027800d403b0001488880014002000c5
:1016c800040078000080fa00000006000a00fa0012
:1016d8004047980031079800420798000002eb0045
:1016e800040f78004e409000a4ff07000002780025
:1016f800140798001e029000e00f520002003a0002
:101708000002eb004f0037004e4090005cfc0700e1
:10171800ce0290001e029000848f52000200360014
:101728001e02900044079800e58780004e02900052
:1017380084824200a4878000848f520019003600fa
:10174800a5878000e487800004825200040fe80027
:101758003e029000e00f52000d003200c51021003b
:1017680095427800e78780003e0390001e027800cb
:10177800854178000701780011c0b30006007800a1
:10178800be0d07003e0290001e024200340798007a
:101798004e0290001e025200440798009487800071
:1017a800e48788003e029000e00f52000a003200f1
:1017b800c510210095427800e78780003e0390001d
:1017c8004e029000854178000701780011c0b300ef
:1017d80006007800a90d0700e58780004e029000fa
:1017e80004824200e48788004e0290001e024200f4
:1017f800440798009e0290004e0290008482520096
:101808004e029000848f520002003e000951a80049
:101818000b00370045888000040220000482620023
:10182800e00f520006003a0008b1a800f936070098
:101838000002be0004027800d403b00014888800b7
:101848004e029000040078000080fa0000000600b4
:101858000600fa00404798004e429000e04f5200c0
:10186800020032000002eb000b0037004e409000ef
:1018780003fc0700a587800094878000048f52002e
:101888004e4090003dff07000002780014079800c2
:101898001e0290001e021200040078000080fa0068
:1018a800000006000e00fa00604798004107980003
:1018b80052079800630798006e429000e04f52006c
:1018c80003003a005e029000e00f520002003a0066
:1018d8000002eb00450037006e409000e8fb07006f
:1018e8006e40900025ff070000027800140798005a
:1018f800ee0290005e029000848242001e02900078
:10190800848f5200040036009e0290006e02900000
:101918000482520054079800e58780006e02900008
:10192800048f4200a48780009e0f520005003100fa
:10193800a587800094878000048252000482ea0010
:101948001e0f4200a48780001e0252000402e80015
:1019580024079800de0290002e029000848f520027
:101968000a003e00c5102100954278004e03900001
:101978005e029000854178001e01780011c0b30016
:10198800060078003d0d070017003700c51021003c
:10199800954278004e0390002e0290008541780011
:1019a8001e01780011c0b30006007800330d07004f
:1019b800de0290002e02900004825200c510210021
:1019c80095427800978780004e0090002e03900083
:1019d80006034000854178000701780011c0b30074
:1019e80006007800250d07005e02900004007800cc
:1019f8000080fa00000006000600fa002047980060
:101a080021079800ae019000120020008e00780097
:101a18002e409000a3ff07001e4278000440780083
:101a28000080fa00000006003e00fa0020779800c7
:101a3800211f9800321f9800431f9800541f9800d8
:101a4800651f98002e729000e04f520003003a0084
:101a58003e1a9000e00f520002003a000002eb002c
:101a6800260137002e70900085fb07002e7090002d
:101a7800c2fe070000027800ce1a9000050252004c
:101a8800140798009e0290003e1a9000848f52001e
:101a9800020031000082eb00180137005e1a900046
:101aa800e00f5200060032009e0290005e1a90007d
:101ab800848f5200020036005e1a900014079800c6
:101ac800e58780004e1a900004824200340798008f
:101ad800a58780003e029000848f520007003100e5
:101ae800a587800094878000048252000482ea005f
:101af800be0290000482420034079800be029000a3
:101b0800050f7800a58780003e02900004825200ed
:101b18000402e800240798004e1a90003407980041
:101b2800be1a9000750798002e1a9000040f9800ae
:101b38002e1a900094427800154f98002e1a9000a3
:101b48000402e800241f98000002eb0064079800d4
:101b58006e1a9000e00f52000c0032009e4a90006e
:101b680004c6b30084cf5200080036009e4a900095
:101b7800a4c7b30084cf520004003e009e4a9000e0
:101b880004ceb30004c24200144f980004c2b3004c
:101b9800244f98002e4a90008482fb002e02900069
:101ba800848f5200020036002e029000244f9800c5
:101bb8002e4a90008482fb001e029000848f5200ff
:101bc800020036001e029000244f98002e4a900012
:101bd8000482fb00c510210095427800720347007b
:101be800854178001e01780011c0b3000600780016
:101bf800a20c07002e4a90000482fb001e0f420030
:101c08002e4a90000482fb00ae029000048252002b
:101c1800240798002e029000e00f520004003a00ba
:101c280094878000040f78000082eb002407980056
:101c38006e1a9000e00f5200680032000042eb007c
:101c4800044f9800600037000e4a90000482fb00a1
:101c580004024700a452900004c6b30084cf520087
:101c6800110036000e4a90000482fb00040247006f
:101c7800a4529000a4c7b30084cf52000a003e00cb
:101c88000e4a90000483fb000e4a90000482fb0079
:101c980004024700a452900004ceb30004c24200dc
:101ca80086024700a45298000e4a90000482fb0066
:101cb80004024700a45290001e4a900084cf5200ac
:101cc80023003a003e1a90000402e900341f9800ed
:101cd8003e1a9000e00f520008003a00be02900041
:101ce8007e029000848252000e4a90000482fb001b
:101cf800048242000402e800800037002e1a900097
:101d080094427800154f98002e1a90000402e800bb
:101d1800241f980014002000640798009e4a900031
:101d280004c6b30084cf5200240036009e4a9000b7
:101d3800a4c7b30084cf520020003e009e4a900002
:101d480004ceb30004c24200144f98001b003700b1
:101d58007e029000341f98006e029000e00f52003f
:101d6800160032008e0a9000251f98002e1a900047
:101d780094427800154f98002e1a90000402e8004b
:101d8800241f98009e4a900004c6b30084cf5200d6
:101d9800080036009e4a9000a4c7b30084cf5200c2
:101da80004003e009e4a900004ceb30004c24200e4
:101db800144f98000002eb00640798000e4a900048
:101dc8000442e800044f98008e4a90002e4a900082
:101dd80084cf52009cff3900370037000042eb00e7
:101de800044f9800300037000e4a90000482fb0030
:101df80004024700a45290001e4a900084cf52006b
:101e080017003a003e1a90000402e900341f9800b7
:101e18003e1a9000e00f520008003a00be029000ff
:101e28007e029000848252000e4a90000482fb00d9
:101e3800048242000402e800300037002e1a9000a5
:101e480094427800154f98002e1a90000402e8007a
:101e5800241f980014002000640798000f00370022
:101e68007e029000341f98006e029000e00f52002e
:101e78000a0032008e0a9000251f98002e1a900042
:101e880094427800154f98002e1a90000402e8003a
:101e9800241f98000002eb00640798000e4a900087
:101ea8000442e800044f98008e4a90002e4a9000a1
:101eb80084cf5200ccff39002e4a90000482fb00e8
:101ec8009e02900004825200140798009e0290001f
:101ed8003e1a9000848f5200020031000082eb000d
:101ee800060037002e4a90000482fb00be029000d4
:101ef800048242003407980024ff37000400780069
:101f08000080fa00000006000800fa00004f780080
:101f18001147980012079800230798003407980083
:101f28000e03e800be0290002e0290009e01900071
:101f380012002000860078001e407800bafe0700d4
:101f480000027800040078000080fa000000060013
:101f58000e00fa00881f78000042eb00044f78005a
:101f68002e0237001e40780045fa07000042eb00b9
:101f7800644798000002eb00140798000002eb0089
:101f8800240798004588800004202000048262000d
:101f9800e00f520005003a00458880000440200008
:101fa80004826200e00f52000b00320000140700a8
:101fb80000027800e00f52000700320004c1b300ad
:101fc80064479800448880004a22de00614262002b
:101fd8000482fb0014079800458880000402200052
:101fe80004826200e00f5200090032001888800065
:101ff800083507000002be000402780004025400fd
:10200800e00f520002003c0004c1b300644798008e
:10201800458880000404200004826200e00f52001a
:102028000900320028888000fa3407000002be0048
:102038000402780004025400e00f520002003c0041
:1020480004c1b3006447980034888000eb0f520045
:102058000b003a0028888000ee3407000002be001a
:102068000402780004025400e00f520004003c000f
:1020780014c1b30064479800c40020003488880065
:1020880034888000e40f520063003a000002eb003d
:10209800440798005b0037004e0290007422b90094
:1020a80004027800f0024200440b2100048242003e
:1020b80014027800e00f5200560032004e029000e1
:1020c8007422b90004027800f0024200440b210097
:1020d800048242009402780054888000848f520061
:1020e80045003a0010fa07004e0290007422b90029
:1020f80084027800440b210004824200a2002000e0
:1021080084007800200a2100acf907004e029000f4
:102118007422b90004027800ea024200440b21004c
:102128000482420014027800d48488004e02900091
:102138007422b90004027800ec024200440b21002a
:10214800048242001402be0061024200e0824a009a
:10215800a4848800b58488002585800014858000c3
:1021680084824200d484800084824200e484800017
:1021780004826a005488880024c1b3006447980028
:102188006400200034888800ce029000c4fe2f002e
:1021980004aab9000402780087022000848343005f
:1021a8004e0290000402e8007422b900840278000c
:1021b800440b210004824200040378004e02900080
:1021c8007422b90084027800440b21000482420082
:1021d800840278000702780013c0b3000601780073
:1021e80011c0b30005007800240b07000002eb00c3
:1021f80064878800080037004e0290000402e80057
:10220800440798004e029000e20f5200a2ff3600e9
:1022180001003700000000006e429000e04f5200bd
:10222800090032001e02900004f0a7000402ea0030
:102238000402e9004f22de0004427800844078005e
:102248006e4090001a020700448880007002620005
:10225800e00f52002b003a0034888000e70f52004c
:1022680066013a00523407000003be00f48780007c
:10227800058880000402530085825b00e00f52004d
:10228800e08f5a005f0135004488800067026200d1
:10229800e60f52000e003a00448880004322de0018
:1022a80061426200644798001e40780015fb0700f1
:1022b8001e40780013fb07006e429000e04f52006a
:1022c80052013a00e40020003488880052013700a7
:1022d80095f9070021c0b30000c1b300f40107005d
:1022e800333407000003be0024bc2e00b5002000d4
:1022f8000602420087824a00f48788000588880021
:10230800450137002a3407000003be00f487800027
:10231800058880000402530085825b00e00f5200ac
:10232800e08f5a003b0135007ff9070034888000b0
:1023380005002000c600200007002000860f52007c
:10234800878f5a00e8003e00046001000c00370047
:10235800230037004e00370056003700e4003700ee
:102368007e0037008e003700a2003700af0037002c
:10237800bc003700c00037009e003700cc00370093
:10238800a321070000027800e00f5200da003200b3
:10239800140020003488880074858000640262007c
:1023a800e00f520007003200148580002585800068
:1023b8000402780011c0b30004007800b9210700b6
:1023c800d400370014858000258580000402780039
:1023d80011c0b30004007800b2210700cd00370017
:1023e8006a02470004007800c6210700000278004e
:1023f800e00f5200c200320092210700000278006c
:10240800e00f5200170032005e029000ee029000ca
:1024180014858800258588002400200034888800d9
:10242800258580001485800084824200d484800041
:1024380084824200e484800004826a005488880010
:102448000042eb000002fd00b2f0b7000002fd0000
:10245800c404200005002000648488007584880076
:10246800ac003700d23307000003be0024bc2e00a6
:10247800b50020000602420087824a00f4878800df
:10248800058888000002eb0034888800a100370026
:10249800e03307000002be000402780014888800b8
:1024a800200a2100322c07003400200034888800dc
:1024b80098003700610a2100200a2100992c0700a2
:1024c80000027800e00f52001d003a00d1330700e7
:1024d8000002be0084027800148880000483520041
:1024e800648480007584800004027800840f53009f
:1024f80085003600240b210014427800e54f520075
:102508000c003e00240b2100144278000442e8002d
:102518000002fd00b2f0b7000002fd0064848000f4
:10252800758480000402420085824a006484880021
:1025380075848800240020003488880075003700de
:1025480024c0b300644798000002eb001407980009
:1025580054002000348888006e00370024c0b3007f
:10256800644798001400200014079800240b2100e9
:1025780014427800e34f52006500360044c0b300af
:102588000002fd00b2f0b7000002fd00042d21009a
:102598003501200064848800758488005d00370058
:1025a800240b210014427800e14f520005003e0040
:1025b80024c1b30064479800140020001407980051
:1025c800540037004488800068026200e00f52001f
:1025d8000500320044c1b30064479800140020008d
:1025e800240798004b00370024c0b30064479800c4
:1025f80048003700240b210014427800e44f5200b1
:1026080005003e0004c1b300644798001400200090
:10261800140798003f0037008400200034888800a1
:1026280014c1b300644798003a003700240b210016
:1026380014427800e44f520005003e0014c1b30074
:1026480064479800140020001407980031003700f0
:1026580044c1b30064479800140020002407980080
:102668002c00370044c1b3006447980014002000d0
:102678002407980027003700240b21001442780013
:10268800e44f520005003e0004c1b30064479800bf
:1026980014002000140798001e00370044c1b3003e
:1026a8006447980014002000240798001900370098
:1026b800240b210014427800e44f520005003e002c
:1026c80014c1b30064479800140020001407980050
:1026d8001000370044c1b30064479800140020007c
:1026e800240798000b00370000000000090037009d
:1026f8000000000007003700000000000500370058
:10270800000000000300370000000000010037004f
:10271800000000006e429000e04f5200320032008c
:102728001e029000e00f52002c003200240b210002
:10273800144278000442e8000002fd00b2f0b7003d
:102748000002fd0064848000758480000402420059
:1027580085824a006484880075848800c584800066
:10276800c48780000482520044079800c584800012
:10277800c4878000848f520006003100958780004e
:102788008487800004825200ce02900004824200b6
:102798004407980086848000978480004e02900049
:1027a800050020000402530085825b0084848800b1
:1027b80095848800f58480004e02900004824200cf
:1027c800f4848800c4878000c48488008040eb00bb
:1027d8006e409000b60007000300370011c0b30038
:1027e8006e409000b20007002e029000e00f5200e9
:1027f80009003200f303070007003700000000005b
:10280800050037000000000003003700000000004a
:1028180001003700000000001e4fe8001e4278004b
:10282800e04f5200cffd32000002eb004407980051
:10283800380037004e0290007422b9000402780074
:10284800f0024200440b2100048242001402780086
:10285800e00f520033003200ee3207000002be00e3
:10286800040378004e0290007422b9000402780034
:10287800f2024200440b2100048242001402780054
:102888008402530034392000848f52001e00360021
:10289800ce029000c4fe2f0004aab90004027800fa
:1028a80087022000848343004e0290000402e8005f
:1028b8007422b90084027800440b2100048242008b
:1028c800040378004e0290007422b9008402780054
:1028d800440b210004824200840278000702780039
:1028e80013c0b3000601780011c0b30005007800da
:1028f800620907000002eb00648788004e0290001e
:102908000402e900440798004e0290000402e8001f
:10291800440798004e029000e20f5200c5ff3600af
:1029280001003700000000004f0478000080fa0022
:10293800000006002c00fa00301798004117980094
:10294800521798003e139000964078000180fb00d3
:10295800964390008783fb00c83bdd0000027800a7
:10296800070272008403780007027800a6439000eb
:102978008783fb00364390000683fb004833dd0065
:10298800870078008680700001037800860278004e
:10299800340f9800450f98004e1290001403be00a3
:1029a800560f9800670f98000042eb00645f98008c
:1029b80064c0b300745f9800de1390000717980096
:1029c8000e129000040078008b26070000027800a1
:1029d8000417980076024700c10020000400780020
:1029e800c3260700000278000482ea001417980042
:1029f8005e109000921307000002780024179800d8
:102a08009e1290002e129000848f52000300320014
:102a18007311070014002000220037000000eb00ab
:102a2800253107000e82e8004101200004007800eb
:102a3800061507000e82e800040078002803070046
:102a48007e0290004422de006f42620025002000d2
:102a58000522dd00744f52009e4078000182fb0081
:102a6800de1290000482520074025200541798003b
:102a78000e82e800be10900004007800ea0107000a
:102a880000027800e00f5200040032000e82e800d5
:102a9800de10900004007800ee03070050110700d4
:102aa80014002000040078000080fa0000000600ee
:102ab8002a00fa00006f9800116f98009af7070033
:102ac8000e6a90000482fb006102620004427800f2
:102ad800e04f5200050032000971a8008e6a90008c
:102ae800e4cfb30004c26200046f980008b1a900e3
:102af80008d1a90008f1a9000931a9000951a900c4
:102b08000911a9000000000029110700000278003f
:102b1800e00f5200fcff32000e6a90000482fb00b6
:102b280066026200e00f5200030032000002eb0070
:102b3800040f780077003700b5878000c4848000d0
:102b4800848f520003003a000002eb00040f780063
:102b580062003700b5878000c4848000848f5200eb
:102b68001b003600b5878000c4848000048f5200a3
:102b7800f48480009e0f520002003100f18480002e
:102b8800010f7800848580009e0f520003003100f9
:102b980084858000040f78000951a800c510210021
:102ba80095427800c68480001e027800854178002e
:102bb800060178008040eb0000772100af0807008d
:102bc800c48480001e024200c48488004300370089
:102bd80095878000c48480000482520034179800ce
:102be800be129000b48780008482420084878000ef
:102bf800048f5200f48480009e0f520002003100be
:102c0800f5848000050f7800848580009e0f5200af
:102c18000300310081858000010f78000951a80068
:102c28003e1290009e0f5200020036001e027800ed
:102c3800341798003e129000c51021009542780084
:102c4800c684800085417800060178008040eb004a
:102c580000772100890807003e1290001e0212002a
:102c6800341798003e129000e00f52000e00320018
:102c78003e129000c5102100954278008787800099
:102c880090878000c68480000600500006772100e7
:102c98000603400085417800070178008040eb007a
:102ca8000600780075080700c48480001e024200f0
:102cb800c4848800c584800094878000848f520073
:102cc80006003900c58480008687800094878000cc
:102cd8000402530004824200c484880045888000ae
:102ce8000480200004826200e00f520009003200d4
:102cf800f48480009e0f5200060032008485800014
:102d08009e0f5200030032000e6a90000404a000d7
:102d1800046f98001e027800e00f520005003a0088
:102d28000e6a90000482fb0063026200e00f52000a
:102d380021003200f48480001e025200f4848800ce
:102d48001e027800e00f5200030032000e6a900065
:102d58000434a000046f98001e6a90000482fb00ef
:102d68006102620004427800e04f5200080032001d
:102d78000042eb000002fd00b2f0b7000002fd00c7
:102d8800d41223001500200064848800758488000c
:102d9800873107000003be006484800075848000ca
:102da8000602420087824a00f48788000588880066
:102db8000891a8003a0037001e6a90000482fb00c0
:102dc80062026200e00f5200140032004488800062
:102dd800674262000442e800674262000482fb0026
:102de800670262004688800085ff2f008502630025
:102df80005027200448888008484800095848000dd
:102e080061025200e0825a00848488009584880018
:102e180014002000040f7800210037004488800047
:102e280070026200e00f52001d0032001e6a90001e
:102e38000482fb0061026200e00f520010003a00b9
:102e4800240b210014427800e04f52000c0032009d
:102e5800240b2100144278000442e9000002fd001e
:102e6800b2f0b7000002fd00648480007584800021
:102e78008502d1000482d3006484880075848800a8
:102e88004b3107000003be00648480007584800015
:102e98000602420087824a00f48788000588880075
:102ea800e484800024079800d484800034079800c4
:102eb8008484800095848000440798005507980012
:102ec800a4848000b5848000640798007507980082
:102ed8000e0a900004e0a10004f0a100040f98007d
:102ee8000e0a90000400a1000410a1000420a10013
:102ef8000430a100040f98008e6a900015579800be
:102f08000002eb00340f98008684800097848000cc
:102f18001e027800050020000602420087824a004f
:102f280084848800958488000e6a90000482fb00df
:102f380062026200e00f52001a0032000e6a90002e
:102f48000482fb0070026200e00f520003003a00a6
:102f58006022b8006407980075079800748580009f
:102f680062026200e00f5200070032004e02900039
:102f7800de02900061025200e0825a004407980085
:102f880055079800070037008484800095848000e6
:102f980061024200e0824a008484880095848800a7
:102fa800ae30a8000e6a90000482fb006102620045
:102fb80004427800e04f520001003200ae10a80031
:102fc800d5878000e4878000848f5200090039008b
:102fd800a58780009487800084825200e68780005d
:102fe800d48780000402530004824200140f980022
:102ff80005003700e5878000d487800004825200ee
:103008000402e900140f980013100700000278006a
:10301800140798009e029000f4032000848f520049
:1030280003003e000002eb0014079800030037007d
:103038001e0290000404b100140798009e0a900034
:103048001e029000848f5200020036001e0290007b
:10305800140f98006402470004007800a0010700dc
:103068009e007800748f40000e0a90000440a00073
:103078000450a1000460a0000470a100040f98008f
:103088000e6a90000482fb0062026200e00f5200a8
:10309800150032001e027800640f420024c0b300fd
:1030a800045f980044c0b300145f98002480210096
:1030b800540f98000e0a90004422de006f4262000e
:1030c8000442e8006f4262000482fb006f02620063
:1030d8004422dd000e0b9000f5f02f0085026300fe
:1030e80005027200040f980006eb200016437800d2
:1030f8008683fb0016eb2000164378000683fb004e
:103108004833dd0087027800868272000503780064
:103118000602780026eb2000164378008683fb0021
:1031280036eb2000164378000683fb004833dd00a9
:103138008700780086807000010378008602780096
:10314800640f9800750f980014858000258580000d
:1031580004179800151798000042eb004467980080
:1031680064c0b300546798009e0278003517980031
:103178003e129000040078009f24070000027800a7
:10318800341798007c024700c10020000400780032
:10319800d7240700000278000482ea00240f980070
:1031a800807421003d1107001e01780061c0b30042
:1031b800200a2100e22e0700640247004101200096
:1031c80004007800ac1307000e6a90000482fb002c
:1031d80062026200e00f52000400320078024700e9
:1031e8004100200004007800a3130700c0752100e7
:1031f800451107001e0078009111070000027800b1
:1032080014079800c0762100241107000e82e800f8
:1032180021002000040078009713070065100700bc
:103228000080fa00000006000a00fa003007980043
:10323800410798003e02900014029000e00f5200ef
:1032480002003a000002eb0022013700e4cfb3008d
:1032580014479800ce029000254290000483fb009a
:10326800354290000482fb004822dd008600780089
:103278008480700001027800840278004e02900079
:10328800144178000283fb00144290000482fb0082
:103298004822dd00860378008483730007027800e3
:1032a800848242003e029000140278008482420028
:1032b8003e0290001402900004826a0024079800dd
:1032c8000042eb00044f78003f0037001e407800b2
:1032d8006bf5070034888000ed0f5200340032008f
:1032e80034888000e40f520008003a0055888000b6
:1032f8003e02900014029000848f52002e003a0083
:103308009e407800114798002e00370055888000ad
:103318002e029000848f520029003a0082f507009f
:103328003e02900094029000e4848000848f520052
:1033380024003a003e02900094027800d484800071
:10334800848f52001f003a004e0390001641780007
:103358000280fb00964390008783fb00c83bdd009a
:1033680000027800070272008403780007027800e0
:10337800a64390008783fb00364390000683fb003a
:103388004833dd00870078008680700001037800ec
:10339800860278001685800027858000860f5200f7
:1033a800878f5a0007003a0014002000c900370030
:1033b8000000000003003700000000000100370093
:1033c800000000001e4fe8001e427800e04f520047
:1033d800beff32001e429000e24f4200160032004b
:1033e8001e40900026f507004ff507001e4290008a
:1033f800e24f4200100032002e01900052888800ef
:10340800a2002000ce009000200a2100ebf4070063
:103418003e02900014027800d48488003e02900096
:1034280014029000e484880084878000c4848800a3
:1034380014002000a70037003e029000e40290002c
:103448000420200004826200e00f520002003a00cb
:103458000002eb009f00370064878000e00f5200f5
:10346800020032000002eb009a0037000002eb0075
:10347800140798004e0037001e0290007422b9000d
:1034880004027800f0024200440b2100048242004a
:1034980014027800e00f5200490032001e0290002a
:1034a8007422b90004027800f0024200440b2100a3
:1034b80004824200940278003e02900014029000b8
:1034c800848f520032003a001e0290007422b90024
:1034d80004027800ea024200440b21000482420000
:1034e800940278003e02900014027800848f520003
:1034f80029003a001e0290007422b9008402780064
:10350800440b2100048242001403be004e009000c8
:10351800104278000481fb00904090008180fb00fd
:10352800c808dd0082027800818272008500780078
:1035380001027800a04090008180fb00304090009c
:103548000080fb004800dd000101780000017100e7
:103558000200780080027800840f5300858f5b009a
:103568000f003a00ab2f07000002be0004037800ea
:103578001e0290007422b90084027800640c2100b5
:1035880004824200060a78000002eb00510037006e
:1035980000000000030037000000000001003700b1
:1035a800000000001e0290000402e80014079800c2
:1035b8001e029000e20f5200afff360001003700f4
:1035c800000000000042eb00044f78003d00370087
:1035d8001e407800aaf40700448880006802620050
:1035e800e00f520033003200cff40700e58480007a
:1035f8003e02900014029000848f52002f003a007f
:103608001e0290007422b90084027800440b210045
:1036180004824200a2002000ce009000040078003e
:1036280066f407003e029000140378001e02900022
:103638007422b90084027800e40b2100048242005d
:10364800060a78003e029000b4029000240290001e
:103658001e0390007433b90086037800060c21001d
:1036680006834300048bbe003e02900014039000c2
:103678001e0290007422b90084027800440c2100d4
:1036880004824200060a7800622f07000002be008a
:10369800040378001e0290007422b90084027800a6
:1036a800640c210004824200060a78000002eb0044
:1036b800080037000000000001003700000000008b
:1036c8001e4fe8001e427800e04f5200c0ff320053
:1036d8000002eb00040078000080fa0000000600f9
:1036e8000200fa00000f78001e0278001402780029
:1036f8000400780040230700000278009e0278004a
:10370800840a78001e0278001402900004007800f1
:1037180039230700000278009e027800940298007e
:103728001e027800b4029000240290000400be003b
:103738003f2307000002be001e0378002403980000
:10374800350398001e027800d402900044029000cd
:103758000400be00362307000002be001e037800e6
:1037680044039800550398001e02780074029000e4
:103778000400780020230700000278009e027800e9
:10378800f40298001e027800040a900004007800f1
:1037980019230700000278009e027800840a980026
:1037a8001e027800140a9000040078001223070013
:1037b800000278009e027800940a98000080fa00bf
:1037c800000006000000fa00881f780056f4070081
:1037d800e48480005488880084878000b487880047
:1037e80084878000c487880094878000d4878800f5
:1037f80094878000e487880044888000680262001b
:10380800e00f52000200320044002000010037009f
:10381800d4002000348888000811a9000831a900c4
:103828000851a9000891a90008b1a90008d1a90068
:1038380008f1a9000911a9000931a9000951a90035
:103848000971a9000991a800ae10a900ae30a9001d
:10385800ae70a900ae90a90084878000c484880057
:10386800080921008720070000027800040c78006e
:10387800080921008320070000027800140498003a
:103888000082eb006485880014002000f48488001e
:103898004f0478000080fa00000006000400fa00d7
:1038a800881f7800c0002000832d07004e110700f4
:1038b80000427800044f78001e4278008482fb00a2
:1038c800040f20000482620042a2de000442780055
:1038d800744f52001e427800e04f520002003a0036
:1038e8008421200057003700710020000000eb0001
:1038f80056110700400037003b11070000427800ce
:10390800144798001e429000e04f520043003200d6
:103918001e429000e14f5200360032001e429000d5
:10392800e24f520020003a001e427800e24f520057
:103938003c0036000002eb00140798002a1107002b
:1039480000427800144798001e429000e44f52004d
:1039580009003a000e82e8000404e800221107007a
:1039680000427800044c78000e84e8001e1107001d
:1039780000427800044c78009e02900074212000d8
:10398800848f5200290036009e029000445b20007c
:10399800848f520002003600445b20002900370063
:1039a8001e029000270037001e427800e14f5200a7
:1039b800200036000c1107000042780014479800d8
:1039c8001e4290009e42780084cf52001b003900ae
:1039d8001e4290000482fb00840078000000eb0087
:1039e8001a1107009e4278001e42900004cf520030
:1039f80001003700000000009e4278000582fb00ad
:103a08000402ea004f22de00044278001e4fe9005b
:103a1800e04f5200b8ff3a000900370000000000ec
:103a28000700370000000000050037000000000014
:103a3800030037000000000001003700000000000c
:103a480084212000040078004f0478000080fa00e8
:103a5800000006002200fa00700f98000117980075
:103a68007e0a9000d44a9000055798007e0a90007c
:103a780044039000d4039000460798005707980025
:103a88007e0a900024039000b4039000160f98005b
:103a9800270f98000811a9000831a9000851a900aa
:103aa8004488800070026200e00f520008003a006b
:103ab8003f2e07000003be0024bc2e00b5002000e6
:103ac8000602420087824a00f48788000588880039
:103ad80034888000e40f520003003200e50f5200e2
:103ae8002c003200770037000e5290000482fb0051
:103af80064026200e00f52000200320031ff07004a
:103b0800270437000e5290000482fb007002620006
:103b1800e00f5200090032004e029000de029000d1
:103b280084848800958488008040eb0040c0b300fe
:103b3800dffb070023ff0700190437000e5290002f
:103b48000482fb0062026200e00f52000f003200a4
:103b58001e0a9000ae0a900061024200e0824a000c
:103b6800a4848800b58488004cff07000002780010
:103b78008485880011c0b30020c1b300ccfb0700c6
:103b88006400200034888800050437000dff070012
:103b9800030437000e5290000482fb0064026200a6
:103ba800e00f5200eb033a000e5290000482fb0033
:103bb80070026200e00f5200170032008684800015
:103bc800978480004e029000de029000840f53001c
:103bd800858f5b0010003200868480009784800007
:103be800160f9800270f98004e029000de029000f2
:103bf800848488009584880011c0b30040c0b30055
:103c0800abfb07001e0b9000ae0b9000868488006b
:103c180097848800e20337000e5290000482fb006c
:103c280062026200e00f5200cc0332001e0a9000cc
:103c3800ae0a900061024200e0824a00a484880033
:103c4800b58488007e0a900074029000f48488008d
:103c580012ff070000027800848588000e52900049
:103c68000482fb0070026200e00f52000f00320075
:103c780011c0b30000c1b3008dfb07007400200021
:103c880034888800ca2d07000003be0024bc2e001b
:103c9800b50020000602420087824a00f4878800a7
:103ca800058888000891a900bd03370011c0b3003a
:103cb80020c1b3007efb0700640020003488880020
:103cc800b70337008e139000670798000e529000d4
:103cd8000482fb006102620004427800e04f520057
:103ce800030032006e0290000402e80064079800a6
:103cf8000e5290000482fb0062026200e00f520044
:103d0800030032006e0290000402e8006407980085
:103d1800d5878000e4878000848f5200090039002d
:103d2800a58780009487800084825200e6878000ff
:103d3800d4878000040253000482420034079800ac
:103d480005003700e5878000d48780000482520090
:103d58000402e90034079800a4848000b584800038
:103d68001e0b9000ae0b90000402530085825b008e
:103d7800340f9800450f98003e0a9000540f9800a1
:103d88000002eb00740798006e029000e00f5200ea
:103d9800350032003e029000e00f52004800320029
:103da8003e0a9000ce0a9000e00f5200e08f5a00c1
:103db8000a0035003e0290006123b8003e0a9000d8
:103dc800ce0a9000840f5300858f5b0003003600f5
:103dd8001400200074079800140037006e02900049
:103de8006123b8003e0a9000ce0a90000602420005
:103df80087824a00e00f5200e08f5a000b0034001f
:103e0800be0290006e029000048252006123b90045
:103e18003e0a9000ce0a9000840f5300858f5b0005
:103e28000200350014002000740798003e0290003c
:103e38006123b8003e0a9000ce0a9000840f530018
:103e4800858f5b001e003400de0a90006e02900031
:103e580004824200e00f52001900340014002000d0
:103e680074079800160037003e0a9000ce0a9000aa
:103e7800e00f5200e08f5a0003003a0014002000bf
:103e8800740798000e0037003e0a9000ce0a900092
:103e9800e00f5200e08f5a00090035003e02900002
:103ea8006123b8003e0a9000ce0a9000840f5300a8
:103eb800858f5b000200360014002000740798000c
:103ec8007e029000e00f520009003a000e52900066
:103ed8000482fb0064026200e00f520021033a00f2
:103ee80011c0b30000c1b300f1fa07002c0337007a
:103ef8000e5290000482fb0066026200e00f52003e
:103f0800020032002ffe0700250337000e529000f2
:103f18000482fb0070026200e00f520013033200bb
:103f2800348880006123b800a4ff2f00f5ff2f001c
:103f38000602420087824a0066002000070020002f
:103f4800860f5200878f5a0059013e000460010015
:103f5800060037001e0037001d0037001c00370020
:103f68001b0037001a00370046013700868480009e
:103f7800978480004e029000de029000840f530068
:103f8800858f5b0010003200868480009784800053
:103f9800160f9800270f98004e029000de0290003e
:103fa800848488009584880011c0b30040c0b300a1
:103fb800bffa07001e0b9000ae0b900086848800a5
:103fc80097848800f602370074002000348888003f
:103fd800b5878000c48480000482520024079800ba
:103fe8002e029000e00f520006003d0095878000e9
:103ff8008487800004825200ae029000048242004e
:104008002407980086848000978480002e02900000
:1040180005002000041f430005974b004e03900045
:10402800de0390001e02be000402530085825b007e
:10403800048fbe001e02be00e00f5200e08f5a003f
:10404800140034007485800061026200e00f5200a1
:10405800060032001e03be001400200005002000e8
:10406800840f5300858f5b00040032008040eb0012
:1040780000c1b3008efa0700c90237004e02900053
:10408800de02900061025200e0825a004407980064
:10409800550798008684800097848000c584800036
:1040a800c487800004825200cfa2de00041f5300a0
:1040b80005975b00c5848000c4878000848f520008
:1040c80006003100958780008487800004825200b2
:1040d800050020001e1f12001e971a004e029000b5
:1040e800de0290001e1f52001e975a001e02be00dc
:1040f800e00f5200e08f5a0050003400958780008e
:10410800848780000482520005002000be0f520000
:10411800ae8f5a0049003900ae70a900ae90a900d0
:104128000911a900c787800027079800c587800064
:104138001e02780004824200c4878800c58480007b
:104148002e029000848f520011003900c58480002f
:10415800c4878000848f5200230031008684800049
:1041680097848000c5878000c48480000482520040
:10417800050020000602420087824a0084848800e5
:1041880095848800c4878000c4848800160037009e
:10419800c5848000968780008487800004025300cd
:1041a8000482420024079800c58780002e029000f0
:1041b800848f52000c00360086848000978480002b
:1041c800c58780002e02900004825200050020005e
:1041d8000602420087824a00848488009584880009
:1041e800c4878000c4848800c587800094878000c5
:1041f800848f520006003900c587800086878000ba
:10420800948780000402530004824200c487880017
:10421800c584800094878000848f52003000390064
:10422800c58480008687800094878000040253003c
:1042380004824200c484880029003700c5878000b2
:10424800c4848000848f5200250032007485800069
:1042580068026200e00f520020003200748580007e
:1042680070026200e00f52001b003200868480005a
:1042780097848000c5848000c4878000048252002f
:10428800cfa2de000402530085825b00848488008c
:1042980095848800c5848000c4878000848f52007c
:1042a8000a0031008684800097848000958780000a
:1042b8008487800004825200cfa2de0004025300eb
:1042c80085825b008484880095848800c487800088
:1042d800c48488000951a800ae90a800ae70a80058
:1042e800c5878000b4878000848f52001c003a0084
:1042f800458880000480200004826200e00f52009c
:104308000a003a002a2c07000003be0024bc2e0035
:10431800b50020000602420087824a00f487880020
:10432800058888000891a9000d0037008684800060
:10433800978480004e029000de029000840f5300a4
:10434800858f5b0006003a00748580006102620078
:10435800e00f5200020032000891a9000971a9007b
:104368007e0a900074039000ce039000848480003d
:1043780095848000040278000482530004024300fc
:10438800640f9800f4848000e00f520004003a00a3
:104398006e0a9000e00f5200010032000931a800b7
:1043a8006e0a9000f484880034888000e80f520078
:1043b80017003a0086848000978480004e0290009f
:1043c800de029000840f5300858f5b003a003a00ac
:1043d8007485800061026200e00f520038003200ec
:1043e800f32b07000003be00145e2f0055002000c9
:1043f8000602420087824a00f48788000588880000
:104408000891a80094002000348888003100370003
:1044180034888000e90f52000e003a000e529000d6
:104428000482fb0061026200e00f520026003a009d
:104438004e039000de0390008684880097848800ed
:104448008040eb0040c1b30099f90700ddfc07008c
:10445800d301370034888000ea0f52001c003a006c
:1044680086848000978480004e029000de029000cf
:10447800840f5300858f5b00be013a00d1fc070012
:10448800c70137008484800095848000610342005e
:10449800e0834a004e029000de029000840f530031
:1044a800858f5b00b5013a00c6fc0700bc013700e8
:1044b800000000000700370000000000050037007a
:1044c8000000000003003700000000000100370072
:1044d800000000000e5290008482fb0004022000bd
:1044e80004826200e00f5200a6013a00348880007e
:1044f800eb0f5200a501320034888000ea0f520009
:10450800a401320034888000ec0f5200a30132006d
:104518000e129000e00f5200200132005e0a900057
:10452800e00f52007f003c007e0a90006402900079
:104538004422de006f4262000482fb004222dd005a
:10454800840278005e0a9000048252000400780019
:10455800592a07008e1290005e0a900004824200d9
:10456800041798008e1290003e029000848f52002b
:1045780002003600be03900007179800a68480004a
:10458800b78480000e129000050020000602420049
:1045980087824a00a4848800b5848800d587800073
:1045a8000e12900084824200a4878000848f5200fb
:1045b80020003600a5878000d4878000048252003e
:1045c8000402e80024079800c510210095427800ed
:1045d800d68780002e0290008041eb000081eb001e
:1045e8008540780006007800240207008e129000ab
:1045f8002e02900004825200c510210095427800d6
:10460800968780008041eb000081eb0085407800b0
:104618000600780019020700958780000e139000a5
:104628002e0290000402530004824200d4878800be
:104638000d003700c510210095427800d68780000c
:104648000e1290008041eb000081eb00854078005d
:104658000600780009020700d58780000e12900036
:1046680004824200d487880064858000e10f4200fc
:10467800ca00320064858000840278000e1290001f
:104688000482520064858800058580006485800066
:1046980004824200240798002e029000e00f520086
:1046a80003003d000082eb0064858800bb003700f2
:1046b80064858000e00f5200b8003c00a6848000aa
:1046c800b78480002e0290000500200006024200f8
:1046d80087824a00a4848800b5848800d587800032
:1046e8002e02900004824200d4878800d58780007b
:1046f800a4878000848f520007003600d587800089
:10470800a687800094878000040253000482ea0090
:1047180004824200d48788000082eb006485880008
:104728009e0037005e0a9000e00f52009b003400a4
:104738008e1290005e0a9000848242003e02900031
:10474800848f520004003600be0290005e0a90007a
:1047580004825200041798007e0a900064029000b8
:104768004422de006f4262000482fb004222dd0028
:1047780004007800d0290700d58780005e0a9000e1
:10478800848242000e12900084824200a487800036
:10479800848f520033003600a5878000d4878000bc
:1047a800848252005e0a90000402ea0004824200f9
:1047b8000402e800240798002e029000e00f52003f
:1047c80017003500c510210095427800d687800073
:1047d8005e0a9000040343002e0290008041eb0023
:1047e8000081eb008540780006007800a3010700ef
:1047f8008e1290002e02900004825200c5102100f3
:1048080095427800968780008041eb000081eb009c
:104818008540780006007800980107001c003700e2
:10482800c510210095427800d68780005e0a900066
:1048380004034300a7878000948780000482530004
:104848000482ea00040343000e1290008041eb004a
:104858000081eb008540780006007800870107009a
:104868000b003700c510210095427800d6878000dc
:104878005e0a9000040343000e1290008041eb0092
:104888000081eb0085407800060078007b01070076
:1048980064858000e10f420005003a005e0a90003e
:1048a800648588000e129000048588003b0037005c
:1048b80064858000840278005e0a9000848f52002c
:1048c8001c003600de0a90000e129000848242001e
:1048d8006485800004037800048580000402430096
:1048e800848f520006003e00de0a90000e129000ef
:1048f8008482420064858000848f52000300310066
:104908008e129000058588000700370064858000b6
:104918008402780004858000848242005e0a900048
:1049280004825200048588005e0a9000648588002d
:104938001a003700de0a90000e12900084824200ae
:104948006485800004037800048580000402430025
:10495800848f52001100360064858000840278003c
:1049680004858000848242005e0a9000848f520091
:104978000a003900058580005e0b90000e12900039
:104988000403430064858000040353000485800009
:104998000402530004824200048588006e029000dd
:1049a800e00f52001b00320034888000e70f5200ed
:1049b80002003200d4878000e487880045888000a0
:1049c8000408200004826200e00f52000500320053
:1049d80011c0b30000c1b30035f80700d2ef0700db
:1049e8000c00370008f1a800458880000404200066
:1049f80004826200e00f520006003a0008d1a800c5
:104a0800842a07000002be00040278007e024200e9
:104a1800248888000e5290000482fb006102620024
:104a280004427800e04f52005d003200a484800008
:104a3800b584800061034200e0834a006e02900062
:104a48006120b8001e0a9000ae0a900000024200e1
:104a580081824a00840f5300858f5b0050003a0022
:104a6800a4848000b584800061024200e0824a008c
:104a7800a4848800b5848800348880006123b80045
:104a8800a4ff2f00f5ff2f000602420087824a008c
:104a98003600200007002000860f5200878f5a003a
:104aa80027003e00046001000300370008003700bb
:104ab8000f0037001d003700c4002000348888002c
:104ac80011c0b30010c1b300f9f707003400370074
:104ad800b4002000348888004e2a07000002be0077
:104ae80004027800d403b000248888001500370039
:104af80086848000978480004e029000de02900039
:104b0800840f5300858f5b0005003a008040eb005e
:104b180000c1b300e6f707002afb070020003700b2
:104b2800a400200034888800060037008040eb008d
:104b380000c1b300def7070022fb070018003700aa
:104b48000000000011c0b30000c1b300d8f707008f
:104b580013003700000000001100370000000000bb
:104b68000f003700000000000d00370000000000b3
:104b78000b003700000000000900370000000000ab
:104b880007003700000000000500370000000000a3
:104b9800030037000000000001003700000000009b
:104ba8000080fa00000006000e00fa006047980036
:104bb8004107980052079800434f98006e429000b2
:104bc800e04f5200020032000002eb00a80037005c
:104bd8006e4090002aef07004e029000e00f52004e
:104be80002003a001400200044079800a5878000be
:104bf80084878000048252000402e9002407980098
:104c0800ce0290005e029000848242002e02900044
:104c1800848f5200020036000002eb009400370037
:104c280041ef07004e4a90000482fb0063026200d5
:104c3800e00f520003003a004e4a90003440b3009f
:104c4800444f98005e02900014079800ce0290002e
:104c58005e02900004824200ae029000048252007c
:104c6800240798004e4a90000482fb00620262000a
:104c7800e00f5200100032004e4a90000482fb0000
:104c88006102620004427800e04f520006003200e0
:104c98002e0290000402d1009e029000048242007d
:104ca80014079800040037009e0290002e0290001e
:104cb8000482420014079800858780001e02900035
:104cc800048242000402e80024079800d487800088
:104cd800040f780064858000e10f42000d00320067
:104ce8006485800084027800048580000482420084
:104cf8001e0f4200a48780009e0f5200050031005d
:104d0800a587800094878000048252000482ea000c
:104d18001e0f4200e48780009e0f520010003100f1
:104d2800e58780002e029000848f52002300310016
:104d38004e4a90000482fb0064026200e00f5200b9
:104d4800020032000002eb00490037002e029000fa
:104d5800e48788002e029000d48788001700370067
:104d6800e48780009e0f520010003600958780006f
:104d78002e029000848f5200100031004e4a90009d
:104d88000482fb0064026200e00f5200020032005d
:104d98000002eb00360037002e029000e4878800fe
:104da8002e029000d4878800040037002e0290005d
:104db800e48788002e029000d4878800e48780006a
:104dc8009e0f52001b0036004e4a90000482fb00e2
:104dd80064026200e00f52001600320094878000df
:104de8001e021200c6102100164378009787800023
:104df800c5102100954278008641780007017800a7
:104e0800854078002e0090001c000700d5878000a0
:104e1800e4878000848f520006003100d587800027
:104e2800948780002e0390000402530004824200fd
:104e3800d48788002e029000948788008487800099
:104e4800c484880084878000c487880084878000a1
:104e5800b487880034888000e70f520003003a00c6
:104e680011c0b30000c1b30011f7070014002000ff
:104e7800040078000080fa00000006000a00fa002a
:104e8800000f780021479800220798006347980090
:104e9800440798006e4290000482fb00e00f520025
:104ea8001a003200e10f520037003a002e429000fb
:104eb8000482fb00e00f520009003200e10f5200ab
:104ec8002e003a00ae0290001e0278004e019000bb
:104ed800850078000400780038ee07000a003700e3
:104ee8001e027800e10f4200020032001e00780026
:104ef800ea0907002e029000ce0090000400780016
:104f08005d0c0700000000001f0037002e429000d3
:104f18000482fb00e00f52000c003200e10f520047
:104f280018003a002e029000e10f42000200320001
:104f38002e009000f40907001e027800ce009000b1
:104f480004007800c10b07000a0037004e019000ea
:104f5800ae0090001e007800940a070000000000d0
:104f6800950b070000027800e00f5200fcff3200aa
:104f780000000000000000000300370000000000ef
:104f880001003700000000000080fa000000060061
:104f98000000fa00c20007006c030700a402070023
:104fa8001c000700e4538000b4508800b55080000e
:104fb800b453800004824200b4508800b550800089
:104fc800c453800004824200b4508800b550800069
:104fd800d453800004824200b4508800b550800049
:104fe8009453800004824200b4508800b550800079
:104ff8008453800004824200b4508800b550800079
:105008007453800004824200b45088000080fa0083
:10501800000006000000fa002504800004082000b3
:1050280004826200e00f52009b00320084e0a90075
:10503800e45380000402e800e4538800e45380004d
:10504800b48d8800422aa80044508000545088003b
:10505800545080002100200004007800d000070090
:105068000002780004f0a7000402ea000402e90044
:105078004f22de00044278000482fb0061026200d5
:105088004722dd0016588000f5f72f0085026300df
:105098000502720014588800545080004100200016
:1050a80004007800be0007000002780004f0a700a2
:1050b8000402ea000402e9004f22de0004427800fc
:1050c8000482fb00610262004722dd00166c80004a
:1050d800f5f72f008502630005027200146c880042
:1050e800545080008100200004007800ac000700c4
:1050f8000002780004f0a7000402ea000402e900b4
:105108004f22de00044278000482fb006102620044
:105118004722dd0036708000f5f72f008502630016
:10512800050272003470880054508000010120008c
:10513800040078009a0007000002780004f0a70035
:105148000402ea000402e9004f22de00044278006b
:105158000482fb00610262004722dd0046548000a1
:10516800f5f72f0085026300050272004454880099
:1051780054508000010220000400780088000700d5
:105188000002780004f0a7000402ea000402e90023
:105198004f22de00044278000482fb0061026200b4
:1051a8004722dd00b65b8000f5f72f00850263001b
:1051b80005027200b45b880054508000010420008e
:1051c80004007800760007000002780004f0a700c9
:1051d8000402ea000402e9004f22de0004427800db
:1051e8000482fb00610262004722dd00665f8000e6
:1051f800f5f72f008502630005027200645f8800de
:105208005450800001082000040078006400070062
:105218000002780004f0a7000402ea000402e90092
:105228004f22de00044278000482fb006102620023
:105238004722dd0086638000f5f72f0085026300b2
:105248000502720084638800545080000110200019
:1052580004007800520007000002780004f0a7005c
:105268000402ea000402e9004f22de00044278004a
:105278000482fb00610262004722dd00a66780000d
:10528800f5f72f008502630005027200a467880005
:105298000002eb00445088000080fa00000006007d
:1052a8000a00fa00180037008e00780000802000fd
:1052b800022907009e02780044f8210084826200d7
:1052c80044402100848f520003003a000e00780009
:1052d8003b0007000c0037009e02780044f82100cc
:1052e8008482620044502100848f520003003a00f7
:1052f8000e0078002805070003003700745380006b
:105308000402e80074538800008020009d280700ec
:1053180000027800e00f5200e3ff3a007445800075
:10532800b453880034408000c4538800b44a8000d5
:10533800d45388000080fa00000006000400fa0038
:10534800000f7800110798001e0278009402780078
:105358001e0290000403780005037300860278009b
:105368001e027800050a78000080fa000000060096
:105378000400fa00000f7800110798001e02780058
:10538800940278001e0290000482ea00848262007f
:105398001e027800050a78000080fa000000060066
:1053a8000400fa00000f7800110798001e02900010
:1053b8001e026200040078000080fa000000060067
:1053c8000400fa00100798001e029000c402900022
:1053d800050f7800f4ff20009e026200f40f200001
:1053e800848f520004003e00845380000402e800c9
:1053f800845388001c003700f4ff20009e026200de
:10540800f42f2000848f520003003e001e009000fd
:10541800ac29070014003700f4ff20009e02620048
:10542800f43f2000848f520004003e008453800023
:105438000402e800845388000b003700f4ff2000c2
:105448009e026200f44f2000848f520003003e0049
:105458001e0090005b0107000300370084538000a2
:105468000402e800845388000080fa000000060067
:105478000e00fa0050079800610798000002eb0040
:10548800040f78006e029000240798005e029000d6
:1054980014079800e13420000e007800b6280700b1
:1054a800245380000402e800245388000080fa0096
:1054b800000006001000fa005007980061079800e5
:1054c8007207980044072a00040f78007e029000b3
:1054d800140798005e029000240798006e0290005e
:1054e800e10f520003003a0004102e004407980010
:1054f8000200370014102e0044079800e134200001
:105508000e0078009c280700245380000402e8005d
:10551800245388000080fa00000006000000fa000a
:10552800043a800061026200e00f520004003a0071
:10553800043a800062026200e00f52000500320067
:105548000002eb00a48d88000002eb00b48d8800f7
:1055580003003700a48d80000402e800a48d8800b1
:10556800e4a720008002eb00050a7800e4a72000e9
:105578001500200015029800e4a72000250020004f
:1055880025029800e4a72000350020003502980085
:105598004007a9004027a90040c7a90040e7a90083
:1055a80041e7a9004087a90041c7a900a48d800050
:1055b800d4508800b48d8000e45388008f60a9001f
:1055c8008760a9000405800004c0a10004d0a100e0
:1055d80004e0a000040588000002eb00b41c880069
:1055e8009803a8009823a8009843a80098a3a800a7
:1055f800008020006a280700808a200068280700a9
:10560800009520006628070004402000841c8800bc
:1056180000000000851c8000040e200084826200c7
:1056280004082000848f5200faff3a00340020005a
:10563800941c880014392000a41c880014802100c0
:105648008419880054802100c41988000002eb00e6
:1056580004188800048021004418880044002100b0
:1056680084188800c47f2100c4188800c47f2100e2
:1056780004198800c47f2100441988001400200000
:10568800741b880024002000f41a880034002000cd
:10569800741a8800040c2000241b8800040c2000c5
:1056a800a41a8800040c2000241a88000002eb00c9
:1056b800741c88000002eb00f41b88000002eb0059
:1056c800841c880000000000851c8000040e200057
:1056d80004826200e00f5200fbff3a00e4a52000bc
:1056e800e44f880024a12000d44f8800e4a42000bf
:1056f800f44f880024a42000c44f88000002eb0067
:10570800445088008f60a80054fb25008408880056
:10571800147a2000640888000002eb00340888002e
:1057280084c0a9008cc0a90011e1a800d4fb250001
:1057380094088800b4c424007408880084e0a90090
:105748008ce0a90013e1a8000002eb007452880065
:10575800b4e92800845288000002eb0094528800c3
:1057680014042000a452880044062000b452880083
:105778000080fa00000006003600f800809fbe0096
:10578800829fbe00849fbe00869fbe000c00fa0068
:105798008760a900645380000402e800645388000d
:1057a800751c80000408200004826200e00f52008b
:1057b80017003200741c800061026200e00f520082
:1057c8000c003a00345380000402e8003453880087
:1057d8000e82e800e1382000040078008b270700db
:1057e8004e029000645088005e0290007450880059
:1057f80006003700445380000402e8004453880040
:10580800e138200000952000632707009603a900cf
:10581800f51b80000408200004826200e00f52009b
:105828003d003200545380000402e80054538800bd
:10583800851b800044f821008482620044502100c6
:10584800848f520030003a00841b8000040f7800d7
:105858001e0278004322de00040f78001e02780042
:105868006f0f62001e02780015002000042add0078
:10587800040f7800b41b80006102620004427800c3
:10588800e04f52000a003200045080001e026200fd
:10589800e00f52000a003a00045080001e02720015
:1058a8000450880014002000345088000400370099
:1058b800055080001e82ea000482620004508800bd
:1058c800b41b800062026200e00f52000a0032003e
:1058d800145080001e026200e00f52000a003a00d5
:1058e800145080001e02720014508800140020001a
:1058f8003450880004003700155080001e82ea00ea
:105908000482620014508800e137200000802000e3
:10591800212707009623a900741b800068026200f3
:10592800e00f52000c003a00808a2000152707007b
:1059380000027800e00f520007003200e136200034
:10594800808a2000762707009643a900a453800088
:105958000402e800a4538800b51c8000040220005b
:1059680004826200e00f52000500320004538000f8
:105978000402e8000453880096a3a9000800370031
:10598800451780000400220004826200e00f5200e4
:1059980002003200e9a2a90001003700e9a2a8002c
:1059a800d41c8000f45288000080fa004f03be0027
:1059b8004f02be004f01be004f00be003600f90086
:1059c800004006000200fa00000f78000080fa008c
:1059d800000006000a00fa0004002400040f780002
:1059e800e4a720001402780014079800e4a7200018
:1059f8001402900024079800e4a7200024029000d5
:105a080034079800e4a72000340290004407980067
:105a1800e13520000e007800572707001453800056
:105a28000402e800145388000080fa000000060011
:105a38000a00fa00250480000404200004826200a1
:105a4800e00f52007000320084c0a9003454800076
:105a58000402e8003454880034548000670262006d
:105a6800345488003454800005002000760020005b
:105a780007002000860f5200878f5a0062003e0000
:105a88000460010007003700080037001b003700da
:105a98001c0037002e0037002f0037004200370067
:105aa80043003700cbff07005700370058000700b6
