:020000040000fa
:080000000001040000000000f3
:020000040000fa
:100008000871000008710000087100000871000004
:1000180008710000087100000871000008710000f4
:10002800087100000871000008710000be78000027
:1000380008710000087100000871000008710000d4
:1000480008710000087100000871000008710000c4
:1000580008710000087100000871000008710000b4
:1000680008710000087100000871000008710000a4
:100078000871000008710000087100000871000094
:100088000871000008710000087100008c38000039
:100098000871000008710000087100000871000074
:1000a8000871000008710000087100000871000064
:1000b8000871000008710000087100000871000054
:1000c8000871000008710000087100000871000044
:1000d8000871000008710000087100000871000034
:1000e8000871000008710000087100000871000024
:0800f80008710000087100000e
:020000040000fa
:100108000871000008710000087100000871000003
:1001180008710000087100000871000008710000f3
:10012800087100000871000008710000be78000026
:1001380008710000087100000871000008710000d3
:1001480008710000087100000871000008710000c3
:1001580008710000087100000871000008710000b3
:1001680008710000087100000871000008710000a3
:100178000871000008710000087100000871000093
:100188000871000008710000087100008c38000038
:100198000871000008710000087100000871000073
:1001a8000871000008710000087100000871000063
:1001b8000871000008710000087100000871000053
:1001c8000871000008710000087100000871000043
:1001d8000871000008710000087100000871000033
:1001e8000871000008710000087100000871000023
:0801f80008710000087100000d
:020000040000fa
:100200008f1a21000e7f22000e01880000000000de
:10021000000020000000e000020032000001200089
:10022000200288000c000700e09f2700010020004a
:1002300011000700000020000000e0000200320072
:1002400000000200000000003a6e02000000000002
:100250000040da000000fe004440a90060012000d8
:100260000000e0000300320000002000a001880030
:100270004440a8000000060091018800800078003a
:100280000000eb0015003700e280400032a0b4000f
:100290009101ba00e280400032a0b4009102ba009d
:1002a000e280400032a0b4000002eb00472bde00e9
:1002b000f507b200602ce10004003a000059eb00a1
:1002c0008301e900fdff3e00040037006128e100e2
:1002d000010032000082eb00040007001101ba00a7
:1002e0000200e000e8ff3a00000006003159ba00c1
:1002f0008301e9000c0032002159ba008301e900b2
:10030000080032000400e00003003a00e2804000f0
:1003100032a0b400f5ff370011d9ba008301e9001b
:10032000faff3a008100e800e180400032a0b4000a
:10033000000006006022b800060220000000d00085
:100340008180d2000482d2008582d2000000a00009
:100350000202520083825a0003003100020242006e
:1003600083824a000000a1000603e900f3ff3a007f
:1003700000000600889fbe008a9fbe003004be00b9
:100380002005be000404440085844c0006054d0091
:1003900087854d000898be000a90be000440e10029
:1003a00005c8e10006d0e10007d8e10002003100f5
:1003b000680040001008e8004f05be004f04be0072
:1003c000000006001000fa00889fbe008a9fbe0051
:1003d000110020000605be000404be003002be006d
:1003e0002003be00c4b79f00d5b79f00e6b79f00ab
:1003f000f7b79f000802520089825a000a035b0087
:100400008b835b0084bf9f0095bf9f00a6bf9f00aa
:10041000b7bf9f000498be000698be004fb2970079
:10042000dfb297006fb39700ffb397000820e10099
:1004300009a8e1000ab0e1000bb8e10001003900b1
:100440008000eb004f05be00108810004f04be0076
:100450000080fa00000006001400fa00889fbe0029
:100460008a9fbe008c9fbe000006eb003e00070086
:10047000ccb79f00bcb79f00acb79f009cb79f0054
:100480008cb79f000605be000404be000d042000ca
:100490004fb39700bfb29700860343002fb2970077
:1004a000e00f530004003d003d0007000f00400036
:1004b000b0ff070003003700390007000f004000bd
:1004c000c0ff0700cfb2970095bf9f00e08f52009a
:1004d000090035002b000700140020000500200053
:1004e0006033b80000007200818072000201730066
:1004f000838173001c0007000c06e8008d0f560076
:10050000e3ff3a001fba9700e00f520005003d00dc
:100510000802be000a03be0000fe2f000f004000cc
:1005200094ff07004faa9700e00f520008003a001e
:100530000fb497009fb497002fb59700bfb59700f1
:10054000d8b79f00e9b79f00fab79f008bbf9f0005
:100550000c0007004f06be004f05be004f04be0052
:100560000080fa00000006000100070000000600fd
:1005700090b79f00a1b79f00b2b79f00c3b79f007d
:100580000000060001000700000006001fb09700f1
:10059000afb097003fb19700cfb1970000000600c1
:1005a0004f2bde00f9ff070086837300858242002f
:1005b0004f23de00a7b79f0086827200040242002c
:1005c00095b79f00ffaa97004f2bde00858242005f
:1005d0000602720084b79f006faa97004f23de00c7
:1005e0000402420086827200f5af9f004f18de00c1
:1005f00000027200e5ff0700e4af9f00000040002a
:100600008180480002014900838149000802be0040
:100610000a03be00d6ff070000fe2f000000060000
:10062000881f780018002000881f78008aff0700c4
:100630008f87e9004f04780000000600801feb0060
:1006400085ff07008f87e90000000600889fbe0035
:100650008a9fbe00e00f5000e08f5800e00f590065
:10066000e08f59000c003d006044b8006055b800b0
:100670000000540081805c0002015d0083815d0008
:10068000180020001500070008003d0018000700b2
:100690000004eb00050037000004eb000f0007002a
:1006a00002003d001200070018002000dcff0700d8
:1006b000e00f5400060032006022b8006033b8003a
:1006c0000000520081805a0002015b0083815b00c0
:1006d0004f05be004f04be0000000600e00f5200b0
:1006e000e08f5a00e00f5b00e08f5b000000060027
:1006f0006044b8006055b8000402540085825c0074
:1007000006035d0087835d0000000600889fbe0031
:100710008a9fbe008c1f7800e00f5000e08f5800c9
:10072000e00f5900e08f59000d003d006044b80013
:100730006055b8001c0020000000540081805c005f
:1007400002015d0083815d000820e10009a8e1004d
:100750000ab0e1000bb8e1000d003d0008003700d1
:100760000006eb00e00f5200e08f5a00e00f5b0044
:10077000e08f5b0006003d006044b8006055b800a3
:100780000402540085825c0006035d0087835d00df
:10079000aaff0700e00f5600060032006022b800f2
:1007a0006033b8000000520081805a0002015b00f3
:1007b00083815b004f0678004f05be004f04be00ea
:1007c000000006000002780002003700315a78006d
:1007d0000201e900e00f5100fcff3a0000000600b2
:1007e0000002780002003700015a78000201e90097
:1007f000e00f5100fcff3a00000006000002780004
:100800008042eb00b4cf1200fdff3a000080ea0006
:1008100000004200000006000002780006003700d9
:10082000314378000201e900065a7800840278001a
:10083000e04f53000600320084027800e00f5100c0
:10084000f7ff3a0002003700805aeb000201e9008e
:0c085000e00f5100fcff3a000000060021
:020000040000fa
:10085c0000500000c2b4000020000000455400000d
:10086c004d4200004f4100005244000000000000c7
:0c087c000c000000ff0000006400000001
:020000040000fa
:100888000200fa00004f7800041a21001442780090
:100898009e4f52001f003200041a210014427800b3
:1008a800e24f42000b003200041a21001442780083
:1008b8000482fb007e22b90084027800a40421008f
:1008c80004824200e2012000c10c210004007800eb
:1008d800baff07001e407800a0f1b7001e4278005a
:1008e800e24f42000d0032009e4278000582fb0074
:1008f8007e22b90084027800a40421000482420008
:10090800e201200084007800c00c2100abff070042
:10091800030037000000000001003700000000005d
:100928000080fa00000006000000fa00151a2100f5
:1009380095427800041a21001442780084cf5200ae
:100948002f003200141a210014427800e24f4200ae
:100958001a00320087062100141a21001442780078
:100968000482fb007e22b90004027800fc024200e7
:10097800a40421000482420014437800141a2100c0
:10098800144278000482fb007e22b90084027800b9
:10099800a4042100048242001402780085fd2f007f
:1009a800848242008402200013c0b300070178004b
:1009b800864078000500780030110700041a2100ed
:1009c8001442780004007800a1f1b700850e2100d8
:1009d800954278006486800087fd2f008483430059
:1009e80086062100840220008541780007017800ee
:1009f80011c0b3000600780020110700010037007d
:100a0800000000000080fa00000006000c00fa0058
:100a1800b4d2210014079800f48c8000e00f520033
:100a280008003a009a2b07000002be0084027800f2
:100a3800f47f200084826200044020000482420087
:100a4800f48c8800c20320008000eb00000921001c
:100a580061ff07000042eb00444798000042eb00aa
:100a6800044f78004e0037001e40780084ff0700ce
:100a78001e4078000082fb006622b90084027800dc
:100a8800e4432800048242009442900055479800ad
:100a98001e4078000082fb006622b900040278003c
:100aa8008482e800e443280004824200940278002b
:100ab800350798001e4078000082fb006622b900c6
:100ac80004027800e4024200e44328000482420061
:100ad80094027800450798005e4290000482fb006b
:100ae800e00f5200010032002c0037001e00900079
:100af80050079800be0290004e0290008482420087
:100b08001e02900004824200a402b000140798005c
:100b18009e029000c4ff2100848f5200fcff3e001b
:100b28005e409000e8f0b7005e0290008402b000da
:100b380064868800658680003e0290000482420038
:100b48000402e80074868800758680004e029000d2
:100b58000482420084868800d4002000148788001c
:100b6800e470a90070ff07009e4278000582fb0030
:100b78006622b90084027800e44328000482420017
:100b8800144278000002fd008ff0b7000002fd005b
:100b98000c0b07001e4fe80001003700ffff37006d
:100ba8001e427800e04f5200afff32000080fa008a
:100bb800000006000c00fa001007980021079800b2
:100bc8006247980043079800244f98000042eb00c2
:100bd800044f78009d0037001e40780028ff07006a
:100be80014878000ed0f520094003a004eff070072
:100bf800f5082100954278002e4a900084cf5200d3
:100c080090003a0084212000648488006e4290009d
:100c1800e04f520008003a004e029000c48388005a
:100c2800e470a8004400200014878800ce029000d9
:100c3800358788007f003700f58c8000f43f20005e
:100c4800848f520004003600f58c8000843821001f
:100c5800848f52000200360004402000f48c880083
:100c6800f48c8000c48388000402e800f48c8800b7
:100c7800ce039000b7838800dd3807000002be006d
:100c8800d4868800e5868800e490a8006e4290002b
:100c98000482fb006123b9000082eb008082eb0034
:100ca8000602420087824a00360020000700200022
:100cb800860f5200878f5a005e003e0004600100d4
:100cc8000300370002003700160037002e003700f7
:100cd8001e029000ae029000f4838800058488000c
:100ce8006e4290000414a2000482fb000402e90092
:100cf8004f22de00044278000482fb006102620099
:100d08004222dd0056848000b5ff2f008502630073
:100d180005027200548488000002eb0014878800e2
:100d2800440037000e82e800940290000e82e8002a
:100d380014027800848242004e02900084824200ad
:100d4800c483800004826a00348788001e029000f1
:100d5800ae029000f4838800058488000042eb000e
:100d68000002fd008ef0b7000002fd00c404200060
:100d78000500200044838800558388002400200053
:100d8800148788002b0037001e029000ae029000e6
:100d98000402780084027800254290000483fb0056
:100da800354290000482fb004822dd00860278006c
:100db8008482720005027800040378001e02900005
:100dc800ae02900004027800944378008782fb000a
:100dd800144290000482fb004822dd00850378005d
:100de8008483730007027800840243004e02900057
:100df80084824200c483800004826a0034878800a9
:100e08001e029000ae02900004027800a2002000aa
:100e180084007800e007210068fe070054002000e5
:100e28001487880011c0b30020c0b3002007070052
:100e3800000000001e427800080037000000000093
:100e480001003700000000001e4fe8001e42780035
:100e5800e04f520060ff3200e4cfb3000440780056
:100e68000080fa00000006000200fa00004f780037
:100e78001e427800e04f52000200320014002000a9
:100e88000b0037001e4078007dfe07002587800094
:100e98000400210004826200e00f520003003200c7
:100ea800e590a90014002000010037000002eb00c3
:100eb800040078000080fa00000006000200fa0032
:100ec800004f78001e427800e04f520002003200c6
:100ed8000002eb00080037001e40780068fe07009b
:100ee8001487800067026a0004f0a7000402ea0081
:100ef8000402e9004f22de00040078000080fa00b6
:100f0800000006000200fa00004f78001e42780038
:100f1800e04f520047003a001e40780058fe070094
:100f2800b4868000c48688001487800005002000ed
:100f3800e600200007002000860f5200878f5a0025
:100f480036003e0004600100110037000d00370034
:100f58000f0037000e003700300037000c00370054
:100f68000d0037000c0037002c0037002b0037002d
:100f78002a003700170037002800370027003700fd
:100f880023003700fa2507000e0a07002a00370059
:100f98000c0a07002800370011c0b30010c1b300c5
:100fa800c3060700d4838000e00f5200050032001a
:100fb80095868000a4838000848f5200f6ff3a0053
:100fc800010037000000000084002000148788001a
:100fd8001900370011c0b30010c1b300b4060700f0
:100fe800d4838000e00f520005003200958680000f
:100ff800a4838000848f5200f6ff3a000100370076
:1010080000000000c4002000148788000a00370090
:10101800d400200014878800070037008040eb00c8
:1010280040c1b300a2060700e6090700000000005f
:1010380001003700000000000080fa0000000600f0
:101048000200fa00004f78001e427800e04f52007c
:1010580006003a001e40780009fe0700e470a90067
:101068001e407800a7ff07000100370000000000bd
:101078000080fa00000006000200fa00004f780025
:101088001e427800e04f5200020032000002eb00de
:101098000a0037001e407800f9fd070022fe07000d
:1010a800a2002000e1072100a00e2100c3fd0700d7
:1010b800b4838000a4878800a40e2100040078006f
:1010c8000080fa00000006000200fa00004f7800d5
:1010d8001e427800e04f52000b003a001e40780094
:1010e800e7fd070010fe070095868000a4838000b6
:1010f800848f52000500320011c0b30000c1b30054
:101108006b06070001003700000000000080fa00ad
:10111800000006000400fa00204798002e429000c4
:10112800e04f5200020032000002eb001d003700c1
:101138002e409000d2fd070014878000044f7800ed
:101148001e427800e74f5200050032001e42780028
:10115800eb4f5200020032000002eb001100370092
:1011680095868000a4868000848f5200090039008b
:10117800758680006486800084825200a68680007e
:101188009486800004025300048242000402e900ad
:1011980004003700a58680009486800004825200ef
:1011a8000402e900040078000080fa00000006004c
:1011b8000400fa0020479800314798002e4290001a
:1011c800e04f5200020032000002eb0043003700fb
:1011d8002e409000aafd07002e409000cdff07008a
:1011e80000027800040f78001e027800e00f520019
:1011f80002003a000002eb00380037001e027800b7
:10120800e10f520002003a002e409000aeff0700a6
:10121800258780000410200004826200e00f52003d
:1012280009003a00758680006486800004825200b6
:101238000402d1009e0f5200030039002e40900096
:10124800a1ff0700e510a800e3034700850e210071
:1012580095427800968680001400200013c0b300e1
:10126800070178008540780006007800030f070022
:10127800948680000402e8009486880095868000a1
:1012880074868000848f52000200390064868000d2
:10129800948688001e027800e10f520003003a008d
:1012a8002e40900088ff07000b003700258780003c
:1012b8000402200004826200e00f520006003a0097
:1012c800e4b0a800633707000002be0004027800fb
:1012d8006c024200f48688001400200004007800a4
:1012e8000080fa00000006000c00fa006047980031
:1012f80041079800520798000002eb001407980075
:101308006e429000e04f5200020032000002eb00f3
:10131800600037006e40900059fd07006e40900055
:101328007cff070000027800240798002e02900036
:10133800e00f520004003a006e40900062ff070080
:101348000002eb00530037002e029000040f7800d3
:10135800ae0290005e029000848f520002003600b8
:101368005e029000040f780025878000041020009a
:1013780004826200e00f52000a003a00758680007d
:1013880064868000048252008402d1002e029000fc
:10139800848f5200030039006e4090004aff070016
:1013a800e510a800948680009e02420074868000a2
:1013b800848f52001600390075868000948680005c
:1013c8000482520014079800ce039000850e210075
:1013d80095427800968680001e02900013c0b300e4
:1013e800070178008540780006007800a30e070002
:1013f800ce0290001e02900004824200440798002a
:101408001e0290001e0f12006486800094868800d9
:10141800ce039000850e21009542780096868000c4
:101428001e02780013c0b3000701780085407800d9
:1014380006007800910e0700948680001e02420084
:1014480094868800ae0290005e029000848f52005d
:1014580003003e006e4090001bff07000b003700a2
:10146800258780000402200004826200e00f5200f9
:1014780006003a00e4b0a800f63607000002be00f5
:10148800040278006c024200f48688001e02900074
:101498001e024200040078000080fa0000000600e6
:1014a8000400fa00004f7800110798001e0290000f
:1014b80004007800cffc07000002780004017800df
:1014c8009e0090001e40780087ff07000002780009
:1014d8009e02900004824200040078000080fa0016
:1014e800000006000600fa00404798004e429000af
:1014f800e04f5200020032000002eb000c003700ff
:101508004e409000defc07007586800064868000ef
:1015180004825200040fe9004e409000fdfe0700cf
:1015280000027800140798001e0290001e021200a4
:10153800040078000080fa00000006000200fa00ab
:10154800004f78001e4078000c0007000002780069
:10155800e00f5200070032001e407800c8fc070068
:10156800b4868000c486880011c0b30000c1b300ef
:101578004f0507000080fa00000006000200fa008c
:10158800004f78001e427800e04f520002003200ff
:101598000002eb00120037001e407800b8fc07007c
:1015a800b5868000c4868000848f5200040039000c
:1015b800b5868000c4868000048252000800370087
:1015c80085868000c486800084825200b6868000aa
:1015d8007486800004025300048242000402e8007a
:1015e800040078000080fa00000006000600fa00f7
:1015f80020479800210798002e409000dfff070041
:1016080000027800040f78001e027800e00f5200f4
:1016180002003a000002eb00290037002e4090003b
:1016280097fc07002e029000e00f52000a003200db
:10163800850e210095427800c78680002e03900011
:1016480014002000854178000701780011c0b3001c
:1016580006007800090e0700c48680000402e8002e
:10166800c4868800c586800084868000848f5200e6
:101678000200360074868000c48688001e02780046
:10168800e10f520002003a00e550a8000b003700b5
:10169800258780000402200004826200e00f5200c7
:1016a80006003a00e4b0a8006a3607000002be004f
:1016b80004027800d403b000f486880014002000e7
:1016c800040078000080fa00000006000a00fa0012
:1016d8004047980031079800420798000002eb0045
:1016e800040f78004e409000a4ff07000002780025
:1016f800140798001e029000e00f520002003a0002
:101708000002eb004f0037004e4090005cfc0700e1
:10171800ce0290001e029000848f52000200360014
:101728001e02900044079800c58680004e02900073
:101738008482420084868000848f5200190036001b
:1017480085868000c486800004825200040fe80069
:101758003e029000e00f52000d003200850e21007d
:1017680095427800c78680003e0390001e027800ec
:10177800854178000701780011c0b30006007800a1
:10178800be0d07003e0290001e024200340798007a
:101798004e0290001e025200440798007486800092
:1017a800c48688003e029000e00f52000a00320012
:1017b800850e210095427800c78680003e03900080
:1017c8004e029000854178000701780011c0b300ef
:1017d80006007800a90d0700c58680004e0290001b
:1017e80004824200c48688004e0290001e02420015
:1017f800440798009e0290004e0290008482520096
:101808004e029000848f520002003e00e550a8006e
:101818000b00370025878000040220000482620044
:10182800e00f520006003a00e4b0a80009360700ad
:101838000002be0004027800d403b000f4868800d9
:101848004e029000040078000080fa0000000600b4
:101858000600fa00404798004e429000e04f5200c0
:10186800020032000002eb000b0037004e409000ef
:1018780003fc07008586800074868000048f520070
:101888004e4090003dff07000002780014079800c2
:101898001e0290001e021200040078000080fa0068
:1018a800000006000e00fa00604798004107980003
:1018b80052079800630798006e429000e04f52006c
:1018c80003003a005e029000e00f520002003a0066
:1018d8000002eb00450037006e409000e8fb07006f
:1018e8006e40900025ff070000027800140798005a
:1018f800ee0290005e029000848242001e02900078
:10190800848f5200040036009e0290006e02900000
:101918000482520054079800c58680006e02900029
:10192800048f4200848680009e0f5200050031001b
:101938008586800074868000048252000482ea0052
:101948001e0f4200848680001e0252000402e80036
:1019580024079800de0290002e029000848f520027
:101968000a003e00850e2100954278004e03900043
:101978005e029000854178001e01780011c0b30016
:10198800060078003d0d070017003700850e21007e
:10199800954278004e0390002e0290008541780011
:1019a8001e01780011c0b30006007800330d07004f
:1019b800de0290002e02900004825200850e210063
:1019c80095427800778680004e0090002e039000a4
:1019d80006034000854178000701780011c0b30074
:1019e80006007800250d07005e02900004007800cc
:1019f8000080fa00000006000600fa002047980060
:101a080021079800ae019000120020008e00780097
:101a18002e409000a3ff07001e4278000440780083
:101a28000080fa00000006003e00fa0020779800c7
:101a3800211f9800321f9800431f9800541f9800d8
:101a4800651f98002e729000e04f520003003a0084
:101a58003e1a9000e00f520002003a000002eb002c
:101a6800260137002e70900085fb07002e7090002d
:101a7800c2fe070000027800ce1a9000050252004c
:101a8800140798009e0290003e1a9000848f52001e
:101a9800020031000082eb00180137005e1a900046
:101aa800e00f5200060032009e0290005e1a90007d
:101ab800848f5200020036005e1a900014079800c6
:101ac800c58680004e1a90000482420034079800b0
:101ad800858680003e029000848f52000700310006
:101ae8008586800074868000048252000482ea00a1
:101af800be0290000482420034079800be029000a3
:101b0800050f7800858680003e029000048252000e
:101b18000402e800240798004e1a90003407980041
:101b2800be1a9000750798002e1a9000040f9800ae
:101b38002e1a900094427800154f98002e1a9000a3
:101b48000402e800241f98000002eb0064079800d4
:101b58006e1a9000e00f52000c0032009e4a90006e
:101b680004c6b30084cf5200080036009e4a900095
:101b7800a4c7b30084cf520004003e009e4a9000e0
:101b880004ceb30004c24200144f980004c2b3004c
:101b9800244f98002e4a90008482fb002e02900069
:101ba800848f5200020036002e029000244f9800c5
:101bb8002e4a90008482fb001e029000848f5200ff
:101bc800020036001e029000244f98002e4a900012
:101bd8000482fb00850e21009542780072034700bd
:101be800854178001e01780011c0b3000600780016
:101bf800a20c07002e4a90000482fb001e0f420030
:101c08002e4a90000482fb00ae029000048252002b
:101c1800240798002e029000e00f520004003a00ba
:101c280074868000040f78000082eb002407980077
:101c38006e1a9000e00f5200680032000042eb007c
:101c4800044f9800600037000e4a90000482fb00a1
:101c580004024700a452900004c6b30084cf520087
:101c6800110036000e4a90000482fb00040247006f
:101c7800a4529000a4c7b30084cf52000a003e00cb
:101c88000e4a90000483fb000e4a90000482fb0079
:101c980004024700a452900004ceb30004c24200dc
:101ca80086024700a45298000e4a90000482fb0066
:101cb80004024700a45290001e4a900084cf5200ac
:101cc80023003a003e1a90000402e900341f9800ed
:101cd8003e1a9000e00f520008003a00be02900041
:101ce8007e029000848252000e4a90000482fb001b
:101cf800048242000402e800800037002e1a900097
:101d080094427800154f98002e1a90000402e800bb
:101d1800241f980014002000640798009e4a900031
:101d280004c6b30084cf5200240036009e4a9000b7
:101d3800a4c7b30084cf520020003e009e4a900002
:101d480004ceb30004c24200144f98001b003700b1
:101d58007e029000341f98006e029000e00f52003f
:101d6800160032008e0a9000251f98002e1a900047
:101d780094427800154f98002e1a90000402e8004b
:101d8800241f98009e4a900004c6b30084cf5200d6
:101d9800080036009e4a9000a4c7b30084cf5200c2
:101da80004003e009e4a900004ceb30004c24200e4
:101db800144f98000002eb00640798000e4a900048
:101dc8000442e800044f98008e4a90002e4a900082
:101dd80084cf52009cff3900370037000042eb00e7
:101de800044f9800300037000e4a90000482fb0030
:101df80004024700a45290001e4a900084cf52006b
:101e080017003a003e1a90000402e900341f9800b7
:101e18003e1a9000e00f520008003a00be029000ff
:101e28007e029000848252000e4a90000482fb00d9
:101e3800048242000402e800300037002e1a9000a5
:101e480094427800154f98002e1a90000402e8007a
:101e5800241f980014002000640798000f00370022
:101e68007e029000341f98006e029000e00f52002e
:101e78000a0032008e0a9000251f98002e1a900042
:101e880094427800154f98002e1a90000402e8003a
:101e9800241f98000002eb00640798000e4a900087
:101ea8000442e800044f98008e4a90002e4a9000a1
:101eb80084cf5200ccff39002e4a90000482fb00e8
:101ec8009e02900004825200140798009e0290001f
:101ed8003e1a9000848f5200020031000082eb000d
:101ee800060037002e4a90000482fb00be029000d4
:101ef800048242003407980024ff37000400780069
:101f08000080fa00000006000800fa00004f780080
:101f18001147980012079800230798003407980083
:101f28000e03e800be0290002e0290009e01900071
:101f380012002000860078001e407800bafe0700d4
:101f480000027800040078000080fa000000060013
:101f58000e00fa00881f78000042eb00044f78005a
:101f68002e0237001e40780045fa07000042eb00b9
:101f7800644798000002eb00140798000002eb0089
:101f8800240798002587800004202000048262002e
:101f9800e00f520005003a00258780000440200029
:101fa80004826200e00f52000b003200a90c070007
:101fb80000027800e00f52000700320004c1b300ad
:101fc80064479800248780004a22de00614262004c
:101fd8000482fb0014079800258780000402200073
:101fe80004826200e00f520009003200f886800087
:101ff800183407000002be000402780004025400ee
:10200800e00f520002003c0004c1b300644798008e
:10201800258780000404200004826200e00f52003b
:1020280009003200088780000a3407000002be0059
:102038000402780004025400e00f520002003c0041
:1020480004c1b3006447980014878000eb0f520066
:102058000b003a0008878000fe3307000002be002c
:102068000402780004025400e00f520004003c000f
:1020780014c1b30064479800c40020001487880086
:1020880014878000e40f520063003a000002eb005e
:10209800440798005b0037004e0290007422b90094
:1020a80004027800f0024200040921000482420080
:1020b80014027800e00f5200560032004e029000e1
:1020c8007422b90004027800f002420004092100d9
:1020d800048242009402780034878000848f520082
:1020e80045003a0010fa07004e0290007422b90029
:1020f800840278000409210004824200a200200022
:1021080084007800e0072100acf907004e02900037
:102118007422b90004027800ea024200040921008e
:102128000482420014027800b48388004e029000b2
:102138007422b90004027800ec024200040921006c
:10214800048242001402be0061024200e0824a009a
:10215800848388009583880005848000f483800048
:1021680084824200b483800084824200c483800059
:1021780004826a003487880024c1b3006447980049
:102188006400200014878800ce029000c4fe2f004f
:1021980004aab9000402780087022000848343005f
:1021a8004e0290000402e8007422b900840278000c
:1021b8000409210004824200040378004e029000c2
:1021c8007422b900840278000409210004824200c4
:1021d800840278000702780013c0b3000601780073
:1021e80011c0b30005007800240b07000002eb00c3
:1021f80044868800080037004e0290000402e80078
:10220800440798004e029000e20f5200a2ff3600e9
:1022180001003700000000006e429000e04f5200bd
:10222800090032001e02900004f0a7000402ea0030
:102238000402e9004f22de0004427800844078005e
:102248006e4090001a020700248780007002620026
:10225800e00f52002b003a0014878000e70f52006d
:1022680066013a00623307000003be00d48680008e
:10227800e58680000402530085825b00e00f52006f
:10228800e08f5a005f0135002487800067026200f2
:10229800e60f52000e003a00248780004322de0039
:1022a80061426200644798001e40780015fb0700f1
:1022b8001e40780013fb07006e429000e04f52006a
:1022c80052013a00e40020001487880052013700c8
:1022d80095f9070021c0b30000c1b300f40107005d
:1022e800433307000003be0024bc2e00b5002000c5
:1022f8000602420087824a00d4868800e586880064
:10230800450137003a3307000003be00d486800039
:10231800e58680000402530085825b00e00f5200ce
:10232800e08f5a003b0135007ff9070014878000d1
:1023380005002000c600200007002000860f52007c
:10234800878f5a00e8003e00046001000c00370047
:10235800230037004e00370056003700e4003700ee
:102368007e0037008e003700a2003700af0037002c
:10237800bc003700c00037009e003700cc00370093
:10238800ee20070000027800e00f5200da00320069
:1023980014002000148788005484800064026200be
:1023a800e00f520007003200f483800005848000ab
:1023b8000402780011c0b30004007800042107006b
:1023c800d4003700f483800005848000040278007c
:1023d80011c0b30004007800fd200700cd003700cd
:1023e8006a02470004007800112107000002780003
:1023f800e00f5200c2003200dd2007000002780022
:10240800e00f5200170032005e029000ee029000ca
:10241800f48388000584880024002000148788003d
:1024280005848000f483800084824200b4838000a5
:1024380084824200c483800004826a003487880052
:102448000042eb000002fd008ef0b7000002fd0024
:10245800c4042000050020004483880055838800b8
:10246800ac003700e23207000003be0024bc2e0097
:10247800b50020000602420087824a00d486880000
:10248800e58688000002eb0014878800a100370069
:10249800f03207000002be0004027800f4868800cb
:1024a800e00721007d2b07003400200014878800f6
:1024b8009800370021082100e0072100e42b0700dd
:1024c80000027800e00f52001d003a00e1320700d8
:1024d8000002be0084027800f48680000483520063
:1024e800448380005583800004027800840f5300e1
:1024f80085003600e408210014427800e54f5200b8
:102508000c003e00e4082100144278000442e80070
:102518000002fd008ef0b7000002fd004483800039
:10252800558380000402420085824a004483880063
:102538005583880024002000148788007500370020
:1025480024c0b300644798000002eb001407980009
:1025580054002000148788006e00370024c0b300a0
:10256800644798001400200014079800e40821002c
:1025780014427800e34f52006500360044c0b300af
:102588000002fd008ef0b7000002fd00042d2100be
:102598003501200044838800558388005d0037009a
:1025a800e408210014427800e14f520005003e0083
:1025b80024c1b30064479800140020001407980051
:1025c800540037002487800068026200e00f520040
:1025d8000500320044c1b30064479800140020008d
:1025e800240798004b00370024c0b30064479800c4
:1025f80048003700e408210014427800e44f5200f4
:1026080005003e0004c1b300644798001400200090
:10261800140798003f0037008400200014878800c2
:1026280014c1b300644798003a003700e408210059
:1026380014427800e44f520005003e0014c1b30074
:1026480064479800140020001407980031003700f0
:1026580044c1b30064479800140020002407980080
:102668002c00370044c1b3006447980014002000d0
:102678002407980027003700e40821001442780056
:10268800e44f520005003e0004c1b30064479800bf
:1026980014002000140798001e00370044c1b3003e
:1026a8006447980014002000240798001900370098
:1026b800e408210014427800e44f520005003e006f
:1026c80014c1b30064479800140020001407980050
:1026d8001000370044c1b30064479800140020007c
:1026e800240798000b00370000000000090037009d
:1026f8000000000007003700000000000500370058
:10270800000000000300370000000000010037004f
:10271800000000006e429000e04f5200320032008c
:102728001e029000e00f52002c003200e408210045
:10273800144278000442e8000002fd008ef0b70061
:102748000002fd004483800055838000040242009b
:1027580085824a004483880055838800a5838000c9
:10276800a48680000482520044079800a583800054
:10277800a4868000848f5200060031007586800090
:102788006486800004825200ce02900004824200d7
:102798004407980066838000778380004e0290008b
:1027a800050020000402530085825b0064838800d2
:1027b80075838800d58380004e0290000482420011
:1027c800d4838800a4868000a48388008040eb001e
:1027d8006e409000b60007000300370011c0b30038
:1027e8006e409000b20007002e029000e00f5200e9
:1027f80009003200f303070007003700000000005b
:10280800050037000000000003003700000000004a
:1028180001003700000000001e4fe8001e4278004b
:10282800e04f5200cffd32000002eb004407980051
:10283800380037004e0290007422b9000402780074
:10284800f0024200040921000482420014027800c8
:10285800e00f520033003200fe3107000002be00d4
:10286800040378004e0290007422b9000402780034
:10287800f202420004092100048242001402780096
:102888008402530034392000848f52001e00360021
:10289800ce029000c4fe2f0004aab90004027800fa
:1028a80087022000848343004e0290000402e8005f
:1028b8007422b900840278000409210004824200cd
:1028c800040378004e0290007422b9008402780054
:1028d800040921000482420084027800070278007b
:1028e80013c0b3000601780011c0b30005007800da
:1028f800620907000002eb00448688004e0290003f
:102908000402e900440798004e0290000402e8001f
:10291800440798004e029000e20f5200c5ff3600af
:1029280001003700000000004f0478000080fa0022
:10293800000006002c00fa00301798004117980094
:10294800521798003e139000964078000180fb00d3
:10295800964390008783fb00c83bdd0000027800a7
:10296800070272008403780007027800a6439000eb
:102978008783fb00364390000683fb004833dd0065
:10298800870078008680700001037800860278004e
:10299800340f9800450f98004e1290001403be00a3
:1029a800560f9800670f98000042eb00645f98008c
:1029b80064c0b300745f9800de1390000717980096
:1029c8000e12900004007800d62507000002780057
:1029d8000417980076024700c10020000400780020
:1029e8000e260700000278000482ea0014179800f7
:1029f8005e1090003b0c0700000278002417980036
:102a08009e1290002e129000848f52000300320014
:102a18001c0a070014002000220037000000eb0009
:102a2800353007000e82e8004101200004007800dc
:102a3800af0d07000e82e8000400780028030700a5
:102a48007e0290004422de006f42620025002000d2
:102a58000522dd00744f52009e4078000182fb0081
:102a6800de1290000482520074025200541798003b
:102a78000e82e800be10900004007800ea0107000a
:102a880000027800e00f5200040032000e82e800d5
:102a9800de10900004007800ee030700f909070033
:102aa80014002000040078000080fa0000000600ee
:102ab8002a00fa00006f9800116f98009af7070033
:102ac8000e6a90000482fb006102620004427800f2
:102ad800e04f520005003200e570a8008e6a9000b1
:102ae800e4cfb30004c26200046f9800e4b0a90008
:102af800e4d0a900e4f0a900e530a900e550a90058
:102b0800e510a90000000000d209070000027800c3
:102b1800e00f5200fcff32000e6a90000482fb00b6
:102b280066026200e00f5200030032000002eb0070
:102b3800040f78007700370095868000a483800012
:102b4800848f520003003a000002eb00040f780063
:102b58006200370095868000a4838000848f52002d
:102b68001b00360095868000a4838000048f5200e5
:102b7800d48380009e0f520002003100d183800070
:102b8800010f7800648480009e0f5200030031001a
:102b980064848000040f7800e550a800850e2100a9
:102ba80095427800a68380001e027800854178004f
:102bb800060178008040eb0000772100af0807008d
:102bc800a48380001e024200a483880043003700cb
:102bd80075868000a4838000048252003417980010
:102be800be12900094868000848242006486800031
:102bf800048f5200d48380009e0f520002003100df
:102c0800d5838000050f7800648480009e0f5200f1
:102c18000300310061848000010f7800e550a800ae
:102c28003e1290009e0f5200020036001e027800ed
:102c3800341798003e129000850e210095427800c6
:102c4800a683800085417800060178008040eb006b
:102c580000772100890807003e1290001e0212002a
:102c6800341798003e129000e00f52000e00320018
:102c78003e129000850e21009542780067868000fc
:102c880070868000a6838000060050000677210029
:102c98000603400085417800070178008040eb007a
:102ca8000600780075080700a48380001e02420011
:102cb800a4838800a583800074868000848f5200d6
:102cc80006003900a583800066868000748680002f
:102cd8000402530004824200a483880025878000f0
:102ce8000480200004826200e00f520009003200d4
:102cf800d48380009e0f5200060032006484800056
:102d08009e0f5200030032000e6a90000404a000d7
:102d1800046f98001e027800e00f520005003a0088
:102d28000e6a90000482fb0063026200e00f52000a
:102d380021003200d48380001e025200d483880010
:102d48001e027800e00f5200030032000e6a900065
:102d58000434a000046f98001e6a90000482fb00ef
:102d68006102620004427800e04f5200080032001d
:102d78000042eb000002fd008ef0b7000002fd00eb
:102d8800d41223001500200044838800558388004e
:102d9800973007000003be004483800055838000fd
:102da8000602420087824a00d4868800e5868800a9
:102db800e490a8003a0037001e6a90000482fb00e5
:102dc80062026200e00f5200140032002487800083
:102dd800674262000442e800674262000482fb0026
:102de800670262002687800085ff2f008502630046
:102df8000502720024878800648380007583800040
:102e080061025200e0825a0064838800758388005a
:102e180014002000040f7800210037002487800068
:102e280070026200e00f52001d0032001e6a90001e
:102e38000482fb0061026200e00f520010003a00b9
:102e4800e408210014427800e04f52000c003200e0
:102e5800e4082100144278000442e9000002fd0061
:102e68008ef0b7000002fd00448380005583800087
:102e78008502d1000482d3004483880055838800ea
:102e88005b3007000003be00448380005583800048
:102e98000602420087824a00d4868800e5868800b8
:102ea800c483800024079800b48380003407980006
:102eb8006483800075838000440798005507980054
:102ec80084838000958380006407980075079800c4
:102ed8000e0a900004e0a10004f0a100040f98007d
:102ee8000e0a90000400a1000410a1000420a10013
:102ef8000430a100040f98008e6a900015579800be
:102f08000002eb00340f980066838000778380000e
:102f18001e027800050020000602420087824a004f
:102f280064838800758388000e6a90000482fb0021
:102f380062026200e00f52001a0032000e6a90002e
:102f48000482fb0070026200e00f520003003a00a6
:102f58006022b800640798007507980054848000c0
:102f680062026200e00f5200070032004e02900039
:102f7800de02900061025200e0825a004407980085
:102f88005507980007003700648380007583800028
:102f980061024200e0824a006483880075838800e9
:102fa8008a30a8000e6a90000482fb006102620069
:102fb80004427800e04f5200010032008a10a80055
:102fc800b5868000c4868000848f520009003900cd
:102fd800858680007486800084825200c6868000c0
:102fe800b48680000402530004824200140f980043
:102ff80005003700c5868000b48680000482520030
:103008000402e900140f9800bc08070000027800c9
:10301800140798009e029000f4032000848f520049
:1030280003003e000002eb0014079800030037007d
:103038001e0290000404b100140798009e0a900034
:103048001e029000848f5200020036001e0290007b
:10305800140f98006402470004007800a0010700dc
:103068009e007800748f40000e0a90000440a00073
:103078000450a1000460a0000470a100040f98008f
:103088000e6a90000482fb0062026200e00f5200a8
:10309800150032001e027800640f420024c0b300fd
:1030a800045f980044c0b300145f98002480210096
:1030b800540f98000e0a90004422de006f4262000e
:1030c8000442e8006f4262000482fb006f02620063
:1030d8004422dd000e0b9000f5f02f0085026300fe
:1030e80005027200040f9800c6e820001643780015
:1030f8008683fb00d6e82000164378000683fb0091
:103108004833dd0087027800868272000503780064
:1031180006027800e6e82000164378008683fb0064
:10312800f6e82000164378000683fb004833dd00ec
:103138008700780086807000010378008602780096
:10314800640f9800750f9800f48380000584800050
:1031580004179800151798000042eb004467980080
:1031680064c0b300546798009e0278003517980031
:103178003e12900004007800ea230700000278005d
:10318800341798007c024700c10020000400780032
:1031980022240700000278000482ea00240f980025
:1031a80080742100e60907001e01780061c0b300a1
:1031b800e0072100f22d07006402470041012000ca
:1031c80004007800550c07000e6a90000482fb008a
:1031d80062026200e00f52000400320078024700e9
:1031e80041002000040078004c0c0700c075210045
:1031f800ee0907001e0078003a0a0700000278006e
:1032080014079800c0762100cd0907000e82e80057
:103218002100200004007800400c07000e09070078
:103228000080fa00000006000a00fa003007980043
:10323800410798003e02900014029000e00f5200ef
:1032480002003a000002eb0022013700e4cfb3008d
:1032580014479800ce029000254290000483fb009a
:10326800354290000482fb004822dd008600780089
:103278008480700001027800840278004e02900079
:10328800144178000283fb00144290000482fb0082
:103298004822dd00860378008483730007027800e3
:1032a800848242003e029000140278008482420028
:1032b8003e0290001402900004826a0024079800dd
:1032c8000042eb00044f78003f0037001e407800b2
:1032d8006bf5070014878000ed0f520034003200b0
:1032e80014878000e40f520008003a0035878000f8
:1032f8003e02900014029000848f52002e003a0083
:103308009e407800114798002e00370035878000ce
:103318002e029000848f520029003a0082f507009f
:103328003e02900094029000c4838000848f520073
:1033380024003a003e02900094027800b483800092
:10334800848f52001f003a004e0390001641780007
:103358000280fb00964390008783fb00c83bdd009a
:1033680000027800070272008403780007027800e0
:10337800a64390008783fb00364390000683fb003a
:103388004833dd00870078008680700001037800ec
:1033980086027800f683800007848000860f52003a
:1033a800878f5a0007003a0014002000c900370030
:1033b8000000000003003700000000000100370093
:1033c800000000001e4fe8001e427800e04f520047
:1033d800beff32001e429000e24f4200160032004b
:1033e8001e40900026f507004ff507001e4290008a
:1033f800e24f4200100032002e0190003287880010
:10340800a2002000ce009000e0072100ebf40700a6
:103418003e02900014027800b48388003e029000b7
:1034280014029000c483880064868000a483880006
:1034380014002000a70037003e029000e40290002c
:103448000420200004826200e00f520002003a00cb
:103458000002eb009f00370044868000e00f520016
:10346800020032000002eb009a0037000002eb0075
:10347800140798004e0037001e0290007422b9000d
:1034880004027800f002420004092100048242008c
:1034980014027800e00f5200490032001e0290002a
:1034a8007422b90004027800f002420004092100e5
:1034b80004824200940278003e02900014029000b8
:1034c800848f520032003a001e0290007422b90024
:1034d80004027800ea024200040921000482420042
:1034e800940278003e02900014027800848f520003
:1034f80029003a001e0290007422b9008402780064
:1035080004092100048242001403be004e0090000a
:10351800104278000481fb00904090008180fb00fd
:10352800c808dd0082027800818272008500780078
:1035380001027800a04090008180fb00304090009c
:103548000080fb004800dd000101780000017100e7
:103558000200780080027800840f5300858f5b009a
:103568000f003a00bb2e07000002be0004037800db
:103578001e0290007422b90084027800240a2100f7
:1035880004824200060a78000002eb00510037006e
:1035980000000000030037000000000001003700b1
:1035a800000000001e0290000402e80014079800c2
:1035b8001e029000e20f5200afff360001003700f4
:1035c800000000000042eb00044f78003d00370087
:1035d8001e407800aaf40700248780006802620071
:1035e800e00f520033003200cff40700c58380009b
:1035f8003e02900014029000848f52002f003a007f
:103608001e0290007422b900840278000409210087
:1036180004824200a2002000ce009000040078003e
:1036280066f407003e029000140378001e02900022
:103638007422b90084027800a4092100048242009f
:10364800060a78003e029000b4029000240290001e
:103658001e0390007433b90086037800c609210060
:1036680006834300048bbe003e02900014039000c2
:103678001e0290007422b90084027800040a210016
:1036880004824200060a7800722e07000002be007b
:10369800040378001e0290007422b90084027800a6
:1036a800240a210004824200060a78000002eb0086
:1036b800080037000000000001003700000000008b
:1036c8001e4fe8001e427800e04f5200c0ff320053
:1036d8000002eb00040078000080fa0000000600f9
:1036e8000200fa00000f78001e0278001402780029
:1036f800040078008b220700000278009e02780000
:10370800840a78001e0278001402900004007800f1
:1037180084220700000278009e0278009402980034
:103728001e027800b4029000240290000400be003b
:103738008a2207000002be001e03780024039800b6
:10374800350398001e027800d402900044029000cd
:103758000400be00812207000002be001e0378009c
:1037680044039800550398001e02780074029000e4
:10377800040078006b220700000278009e0278009f
:10378800f40298001e027800040a900004007800f1
:1037980064220700000278009e027800840a9800dc
:1037a8001e027800140a9000040078005d220700c9
:1037b800000278009e027800940a98000080fa00bf
:1037c800000006000000fa00881f780056f4070081
:1037d800c4838000348788006486800094868800cb
:1037e80064868000a486880074868000b486880079
:1037f80074868000c486880024878000680262007e
:10380800e00f52000200320044002000010037009f
:10381800d400200014878800e410a900e430a9002f
:10382800e450a900e490a900e4b0a900e4d0a900fc
:10383800e4f0a900e510a900e530a900e550a900c9
:10384800e570a900e590a8008a10a9008a30a900af
:103858008a70a9008a90a90064868000a4838800e1
:10386800c8062100d21f070000027800040c780067
:10387800c8062100ce1f0700000278001404980033
:103888000082eb004484880014002000d483880060
:103898004f0478000080fa00000006000400fa00d7
:1038a800881f7800c0002000932c0700f709070044
:1038b80000427800044f78001e4278008482fb00a2
:1038c800040f20000482620042a2de000442780055
:1038d800744f52001e427800e04f520002003a0036
:1038e8008421200057003700710020000000eb0001
:1038f800ff09070040003700e4090700004278008c
:10390800144798001e429000e04f520043003200d6
:103918001e429000e14f5200360032001e429000d5
:10392800e24f520020003a001e427800e24f520057
:103938003c0036000002eb0014079800d30907008a
:1039480000427800144798001e429000e44f52004d
:1039580009003a000e82e8000404e800cb090700d9
:1039680000427800044c78000e84e800c70907007c
:1039780000427800044c78009e02900074212000d8
:10398800848f5200290036009e029000445b20007c
:10399800848f520002003600445b20002900370063
:1039a8001e029000270037001e427800e14f5200a7
:1039b80020003600b5090700004278001447980037
:1039c8001e4290009e42780084cf52001b003900ae
:1039d8001e4290000482fb00840078000000eb0087
:1039e800c30907009e4278001e42900004cf52008f
:1039f80001003700000000009e4278000582fb00ad
:103a08000402ea004f22de00044278001e4fe9005b
:103a1800e04f5200b8ff3a000900370000000000ec
:103a28000700370000000000050037000000000014
:103a3800030037000000000001003700000000000c
:103a480084212000040078004f0478000080fa00e8
:103a5800000006002200fa00700f98000117980075
:103a68007e0a9000d44a9000055798007e0a90007c
:103a780044039000d4039000460798005707980025
:103a88007e0a900024039000b4039000160f98005b
:103a9800270f9800e410a900e430a900e450a90019
:103aa8002487800070026200e00f520008003a008c
:103ab8004f2d07000003be0024bc2e00b5002000d7
:103ac8000602420087824a00d4868800e58688007c
:103ad80014878000e40f520003003200e50f520003
:103ae8002c003200770037000e5290000482fb0051
:103af80064026200e00f52000200320031ff07004a
:103b0800270437000e5290000482fb007002620006
:103b1800e00f5200090032004e029000de029000d1
:103b280064838800758388008040eb0040c0b30040
:103b3800dffb070023ff0700190437000e5290002f
:103b48000482fb0062026200e00f52000f003200a4
:103b58001e0a9000ae0a900061024200e0824a000c
:103b680084838800958388004cff07000002780052
:103b78006484880011c0b30020c1b300ccfb0700e7
:103b88006400200014878800050437000dff070033
:103b9800030437000e5290000482fb0064026200a6
:103ba800e00f5200eb033a000e5290000482fb0033
:103bb80070026200e00f5200170032006683800036
:103bc800778380004e029000de029000840f53003d
:103bd800858f5b0010003200668380007783800049
:103be800160f9800270f98004e029000de029000f2
:103bf800648388007583880011c0b30040c0b30097
:103c0800abfb07001e0b9000ae0b9000668388008c
:103c180077838800e20337000e5290000482fb008d
:103c280062026200e00f5200cc0332001e0a9000cc
:103c3800ae0a900061024200e0824a008483880054
:103c4800958388007e0a900074029000d4838800cf
:103c580012ff070000027800648488000e5290006a
:103c68000482fb0070026200e00f52000f00320075
:103c780011c0b30000c1b3008dfb07007400200021
:103c880014878800da2c07000003be0024bc2e002d
:103c9800b50020000602420087824a00d4868800c8
:103ca800e5868800e490a900bd03370011c0b30081
:103cb80020c1b3007efb0700640020001487880041
:103cc800b70337008e139000670798000e529000d4
:103cd8000482fb006102620004427800e04f520057
:103ce800030032006e0290000402e80064079800a6
:103cf8000e5290000482fb0062026200e00f520044
:103d0800030032006e0290000402e8006407980085
:103d1800b5868000c4868000848f5200090039006f
:103d2800858680007486800084825200c686800062
:103d3800b4868000040253000482420034079800cd
:103d480005003700c5868000b486800004825200d2
:103d58000402e9003407980084838000958380007a
:103d68001e0b9000ae0b90000402530085825b008e
:103d7800340f9800450f98003e0a9000540f9800a1
:103d88000002eb00740798006e029000e00f5200ea
:103d9800350032003e029000e00f52004800320029
:103da8003e0a9000ce0a9000e00f5200e08f5a00c1
:103db8000a0035003e0290006123b8003e0a9000d8
:103dc800ce0a9000840f5300858f5b0003003600f5
:103dd8001400200074079800140037006e02900049
:103de8006123b8003e0a9000ce0a90000602420005
:103df80087824a00e00f5200e08f5a000b0034001f
:103e0800be0290006e029000048252006123b90045
:103e18003e0a9000ce0a9000840f5300858f5b0005
:103e28000200350014002000740798003e0290003c
:103e38006123b8003e0a9000ce0a9000840f530018
:103e4800858f5b001e003400de0a90006e02900031
:103e580004824200e00f52001900340014002000d0
:103e680074079800160037003e0a9000ce0a9000aa
:103e7800e00f5200e08f5a0003003a0014002000bf
:103e8800740798000e0037003e0a9000ce0a900092
:103e9800e00f5200e08f5a00090035003e02900002
:103ea8006123b8003e0a9000ce0a9000840f5300a8
:103eb800858f5b000200360014002000740798000c
:103ec8007e029000e00f520009003a000e52900066
:103ed8000482fb0064026200e00f520021033a00f2
:103ee80011c0b30000c1b300f1fa07002c0337007a
:103ef8000e5290000482fb0066026200e00f52003e
:103f0800020032002ffe0700250337000e529000f2
:103f18000482fb0070026200e00f520013033200bb
:103f2800148780006123b800a4ff2f00f5ff2f003d
:103f38000602420087824a0066002000070020002f
:103f4800860f5200878f5a0059013e000460010015
:103f5800060037001e0037001d0037001c00370020
:103f68001b0037001a0037004601370066838000bf
:103f7800778380004e029000de029000840f530089
:103f8800858f5b0010003200668380007783800095
:103f9800160f9800270f98004e029000de0290003e
:103fa800648388007583880011c0b30040c0b300e3
:103fb800bffa07001e0b9000ae0b900066838800c6
:103fc80077838800f6023700740020001487880081
:103fd80095868000a48380000482520024079800fc
:103fe8002e029000e00f520006003d00758680000a
:103ff8006486800004825200ae029000048242006f
:104008002407980066838000778380002e02900042
:1040180005002000041f430005974b004e03900045
:10402800de0390001e02be000402530085825b007e
:10403800048fbe001e02be00e00f5200e08f5a003f
:10404800140034005484800061026200e00f5200c2
:10405800060032001e03be001400200005002000e8
:10406800840f5300858f5b00040032008040eb0012
:1040780000c1b3008efa0700c90237004e02900053
:10408800de02900061025200e0825a004407980064
:10409800550798006683800077838000a583800099
:1040a800a486800004825200cfa2de00041f5300c1
:1040b80005975b00a5838000a4868000848f52004a
:1040c80006003100758680006486800004825200f4
:1040d800050020001e1f12001e971a004e029000b5
:1040e800de0290001e1f52001e975a001e02be00dc
:1040f800e00f5200e08f5a005000340075868000af
:10410800648680000482520005002000be0f520021
:10411800ae8f5a00490039008a70a9008a90a90018
:10412800e510a900a786800027079800a5868000cb
:104138001e02780004824200a4868800a5838000bd
:104148002e029000848f520011003900a583800050
:10415800a4868000848f520023003100668380008b
:1041680077838000a5868000a483800004825200a3
:10417800050020000602420087824a006483880006
:1041880075838800a4868000a48388001600370001
:10419800a583800076868000648680000402530030
:1041a8000482420024079800a58680002e02900011
:1041b800848f52000c00360066838000778380006d
:1041c800a58680002e02900004825200050020007f
:1041d8000602420087824a0064838800758388004b
:1041e800a4868000a4838800a58680007486800049
:1041f800848f520006003900a586800066868000fc
:10420800748680000402530004824200a486880059
:10421800a583800074868000848f520030003900a6
:10422800a58380006686800074868000040253009f
:1042380004824200a483880029003700a5868000f4
:10424800a4838000848f52002500320054848000ab
:1042580068026200e00f520020003200548480009f
:1042680070026200e00f52001b003200668380007b
:1042780077838000a5838000a48680000482520092
:10428800cfa2de000402530085825b0064838800ad
:1042980075838800a5838000a4868000848f5200df
:1042a8000a0031006683800077838000758680006d
:1042b8006486800004825200cfa2de00040253000c
:1042c80085825b006483880075838800a4868000eb
:1042d800a4838800e550a8008a90a8008a70a800e6
:1042e800a586800094868000848f52001c003a00c6
:1042f800258780000480200004826200e00f5200bd
:104308000a003a003a2b07000003be0024bc2e0026
:10431800b50020000602420087824a00d486880041
:10432800e5868800e490a9000d00370066838000c8
:10433800778380004e029000de029000840f5300c5
:10434800858f5b0006003a00548480006102620099
:10435800e00f520002003200e490a900e570a900c5
:104368007e0a900074039000ce039000648380005e
:10437800758380000402780004825300040243001d
:10438800640f9800d4838000e00f520004003a00c4
:104398006e0a9000e00f520001003200e530a800dc
:1043a8006e0a9000d483880014878000e80f5200ba
:1043b80017003a0066838000778380004e029000e1
:1043c800de029000840f5300858f5b003a003a00ac
:1043d8005484800061026200e00f5200380032000d
:1043e800032b07000003be00145e2f0055002000b9
:1043f8000602420087824a00d4868800e586880043
:10440800e490a80094002000148788003100370049
:1044180014878000e90f52000e003a000e529000f7
:104428000482fb0061026200e00f520026003a009d
:104438004e039000de03900066838800778388002f
:104448008040eb0040c1b30099f90700ddfc07008c
:10445800d301370014878000ea0f52001c003a008d
:1044680066838000778380004e029000de02900011
:10447800840f5300858f5b00be013a00d1fc070012
:10448800c7013700648380007583800061034200a0
:10449800e0834a004e029000de029000840f530031
:1044a800858f5b00b5013a00c6fc0700bc013700e8
:1044b800000000000700370000000000050037007a
:1044c8000000000003003700000000000100370072
:1044d800000000000e5290008482fb0004022000bd
:1044e80004826200e00f5200a6013a00148780009f
:1044f800eb0f5200a501320014878000ea0f52002a
:10450800a401320014878000ec0f5200a30132008e
:104518000e129000e00f5200200132005e0a900057
:10452800e00f52007f003c007e0a90006402900079
:104538004422de006f4262000482fb004222dd005a
:10454800840278005e0a9000048252000400780019
:10455800692907008e1290005e0a900004824200ca
:10456800041798008e1290003e029000848f52002b
:1045780002003600be03900007179800868380006b
:10458800978380000e12900005002000060242006a
:1045980087824a008483880095838800b5868000d6
:1045a8000e1290008482420084868000848f52001c
:1045b8002000360085868000b48680000482520080
:1045c8000402e80024079800850e2100954278002f
:1045d800b68680002e0290008041eb000081eb003f
:1045e8008540780006007800240207008e129000ab
:1045f8002e02900004825200850e21009542780018
:10460800768680008041eb000081eb0085407800d1
:104618000600780019020700758680000e139000c6
:104628002e0290000402530004824200b4868800df
:104638000d003700850e210095427800b68680006f
:104648000e1290008041eb000081eb00854078005d
:104658000600780009020700b58680000e12900057
:1046680004824200b486880044848000e10f42003e
:10467800ca00320044848000840278000e12900040
:104688000482520044848800e583800044848000ca
:1046980004824200240798002e029000e00f520086
:1046a80003003d000082eb0044848800bb00370013
:1046b80044848000e00f5200b8003c0086838000ec
:1046c800978380002e029000050020000602420019
:1046d80087824a008483880095838800b586800095
:1046e8002e02900004824200b4868800b5868000bd
:1046f80084868000848f520007003600b5868000cb
:104708008686800074868000040253000482ea00d2
:1047180004824200b48688000082eb00448488004a
:104728009e0037005e0a9000e00f52009b003400a4
:104738008e1290005e0a9000848242003e02900031
:10474800848f520004003600be0290005e0a90007a
:1047580004825200041798007e0a900064029000b8
:104768004422de006f4262000482fb004222dd0028
:1047780004007800e0280700b58680005e0a9000f3
:10478800848242000e129000848242008486800057
:10479800848f52003300360085868000b4868000fe
:1047a800848252005e0a90000402ea0004824200f9
:1047b8000402e800240798002e029000e00f52003f
:1047c80017003500850e210095427800b6868000d6
:1047d8005e0a9000040343002e0290008041eb0023
:1047e8000081eb008540780006007800a3010700ef
:1047f8008e1290002e02900004825200850e210035
:1048080095427800768680008041eb000081eb00bd
:104818008540780006007800980107001c003700e2
:10482800850e210095427800b68680005e0a9000c9
:104838000403430087868000748680000482530046
:104848000482ea00040343000e1290008041eb004a
:104858000081eb008540780006007800870107009a
:104868000b003700850e210095427800b68680003f
:104878005e0a9000040343000e1290008041eb0092
:104888000081eb0085407800060078007b01070076
:1048980044848000e10f420005003a005e0a90005f
:1048a800448488000e129000e48388003b0037009f
:1048b80044848000840278005e0a9000848f52004d
:1048c8001c003600de0a90000e129000848242001e
:1048d8004484800004037800e483800004024300d9
:1048e800848f520006003e00de0a90000e129000ef
:1048f8008482420044848000848f52000300310087
:104908008e129000e58388000700370044848000f9
:1049180084027800e4838000848242005e0a90006a
:1049280004825200e48388005e0a90004484880070
:104938001a003700de0a90000e12900084824200ae
:104948004484800004037800e48380000402430068
:10495800848f52001100360044848000840278005d
:10496800e4838000848242005e0a9000848f5200b3
:104978000a003900e58380005e0b90000e1290005b
:10498800040343004484800004035300e48380004c
:104998000402530004824200e48388006e029000ff
:1049a800e00f52001b00320014878000e70f52000e
:1049b80002003200b4868000c48688002587800003
:1049c8000408200004826200e00f52000500320053
:1049d80011c0b30000c1b30035f80700d2ef0700db
:1049e8000c003700e4f0a8002587800004042000ac
:1049f80004826200e00f520006003a00e4d0a800ea
:104a0800942907000002be00040278007e024200da
:104a1800048788000e5290000482fb006102620045
:104a280004427800e04f52005d0032008483800029
:104a38009583800061034200e0834a006e02900083
:104a48006120b8001e0a9000ae0a900000024200e1
:104a580081824a00840f5300858f5b0050003a0022
:104a6800848380009583800061024200e0824a00ce
:104a78008483880095838800148780006123b800a8
:104a8800a4ff2f00f5ff2f000602420087824a008c
:104a98003600200007002000860f5200878f5a003a
:104aa80027003e00046001000300370008003700bb
:104ab8000f0037001d003700c4002000148788004d
:104ac80011c0b30010c1b300f9f707003400370074
:104ad800b4002000148788005e2907000002be0089
:104ae80004027800d403b00004878800150037005a
:104af80066838000778380004e029000de0290007b
:104b0800840f5300858f5b0005003a008040eb005e
:104b180000c1b300e6f707002afb070020003700b2
:104b2800a400200014878800060037008040eb00ae
:104b380000c1b300def7070022fb070018003700aa
:104b48000000000011c0b30000c1b300d8f707008f
:104b580013003700000000001100370000000000bb
:104b68000f003700000000000d00370000000000b3
:104b78000b003700000000000900370000000000ab
:104b880007003700000000000500370000000000a3
:104b9800030037000000000001003700000000009b
:104ba8000080fa00000006000e00fa006047980036
:104bb8004107980052079800434f98006e429000b2
:104bc800e04f5200020032000002eb00a80037005c
:104bd8006e4090002aef07004e029000e00f52004e
:104be80002003a00140020004407980085868000df
:104bf80064868000048252000402e90024079800b9
:104c0800ce0290005e029000848242002e02900044
:104c1800848f5200020036000002eb009400370037
:104c280041ef07004e4a90000482fb0063026200d5
:104c3800e00f520003003a004e4a90003440b3009f
:104c4800444f98005e02900014079800ce0290002e
:104c58005e02900004824200ae029000048252007c
:104c6800240798004e4a90000482fb00620262000a
:104c7800e00f5200100032004e4a90000482fb0000
:104c88006102620004427800e04f520006003200e0
:104c98002e0290000402d1009e029000048242007d
:104ca80014079800040037009e0290002e0290001e
:104cb8000482420014079800658680001e02900056
:104cc800048242000402e80024079800b4868000a9
:104cd800040f780044848000e10f42000d00320088
:104ce8004484800084027800e483800004824200c7
:104cf8001e0f4200848680009e0f5200050031007e
:104d08008586800074868000048252000482ea004e
:104d18001e0f4200c48680009e0f52001000310012
:104d2800c58680002e029000848f52002300310037
:104d38004e4a90000482fb0064026200e00f5200b9
:104d4800020032000002eb00490037002e029000fa
:104d5800c48688002e029000b486880017003700a9
:104d6800c48680009e0f52001000360075868000b1
:104d78002e029000848f5200100031004e4a90009d
:104d88000482fb0064026200e00f5200020032005d
:104d98000002eb00360037002e029000c48688001f
:104da8002e029000b4868800040037002e0290007e
:104db800c48688002e029000b4868800c4868000cd
:104dc8009e0f52001b0036004e4a90000482fb00e2
:104dd80064026200e00f5200160032007486800000
:104de8001e021200860e2100164378007786800086
:104df800850e2100954278008641780007017800e9
:104e0800854078002e0090001c000700b5868000c1
:104e1800c4868000848f520006003100b586800069
:104e2800748680002e03900004025300048242001e
:104e3800b48688002e0290007486880064868000fc
:104e4800a483880064868000a48688006486800025
:104e58009486880014878000e70f520003003a0008
:104e680011c0b30000c1b30011f7070014002000ff
:104e7800040078000080fa00000006000a00fa002a
:104e8800000f780021479800220798006347980090
:104e9800440798006e4290000482fb00e00f520025
:104ea8001a003200e10f520037003a002e429000fb
:104eb8000482fb00e00f520009003200e10f5200ab
:104ec8002e003a00ae0290001e0278004e019000bb
:104ed800850078000400780038ee07000a003700e3
:104ee8001e027800e10f4200020032001e00780026
:104ef800930207002e029000ce0090000400780074
:104f080006050700000000001f0037002e42900031
:104f18000482fb00e00f52000c003200e10f520047
:104f280018003a002e029000e10f42000200320001
:104f38002e0090009d0207001e027800ce0090000f
:104f4800040078006a0407000a0037004e01900048
:104f5800ae0090001e0078003d030700000000002e
:104f68003e04070000027800e00f5200fcff320008
:104f780000000000000000000300370000000000ef
:104f880001003700000000000080fa000000060061
:104f98000600fa00d7e2a800d3e2a900c5e2a800fb
:104fa800c1e2a9000002eb0004118800f40120000e
:104fb800141188000002eb00441188002302a800a5
:104fc80022a2a80021e2a8004105070064024700c8
:104fd800d1c1b30004007800560507004e42900086
:104fe800044f78009e4278000582fb006802620048
:104ff800e00f5200f4ff3a009e4278000582fb0061
:1050080061026200e00f5200efff3200140020003e
:10501800648b88000002eb00448b88008040eb0022
:1050280080c0b300c70507008040eb0090c0b30004
:10503800c405070071c3b300c0c0b300c1050700b1
:1050480071c1b300d0c0b300be05070071c3b3007f
:10505800a0c0b300bb05070071c1b300b0c0b30066
:10506800b805070091c3b30040c0b300b5050700f9
:1050780071c1b30050c0b300b205070091c3b300bb
:1050880020c0b300af05070071c1b30030c0b30042
:10509800ac0507006302470021c0b3000400780094
:1050a800240507003e429000044f78000e82e80075
:1050b80031c0b300040078001e050700ae4290001e
:1050c800054f78000040eb0078040700002020001e
:1050d8002b060700d1c0b3000040eb00990507007c
:1050e80021c3b30020c0b3009605070021c1b30057
:1050f80040c0b3009305070001c4b30030c0b3003b
:1051080090050700f1c3b30090c0b3008d050700f8
:1051180021c1b30060c0b3008a050700c1c0b30055
:1051280070c0b30087050700e1ceb300a0c0b3008c
:105138008405070051c0b300b0c0b3008105070063
:10514800403020000e06070094eb2000144278003f
:105158008440780040c0b3007a050700a4eb200023
:10516800144278008440780050c0b30075050700e9
:10517800b4eb2000144278008440780020c0b300cb
:1051880070050700c4eb20001442780084407800c2
:1051980030c0b3006b050700d4eb20001442780040
:1051a800844078000040eb0066050700e4eb20002f
:1051b800144278008440780010c0b30061050700ed
:1051c8008040eb0050c1b3005e0507000e02e80006
:1051d80021c1b30004007800d60407001e429000e5
:1051e800040078006ef1b7000110200000c1b30080
:1051f800c30507002147230040c1b300c0050700cd
:105208008000eb000040eb00bd0507000000eb004c
:10521800db05070041c0b300f0c1b30093050700e8
:105228000080fa00000006000200fa0011c0b30076
:105238000e007800140507001e0278004222de00e6
:10524800614262000482fb00040078000080fa00da
:10525800000006000200fa00f1c1b3000e00780059
:10526800b40407001e427800684262000482fb0012
:105278000402e9004f22de00040078000080fa00f2
:10528800000006000200fa00648b8000e00f520064
:1052980017003a0014002000648b8800448b8000bb
:1052a8000402e900040f78009e027800747321005c
:1052b800848f52000200360074732100040f7800b6
:1052c80001c4b300e0c1b300680507001e427800be
:1052d80084407800c0c0b3001a0507001e42900041
:1052e80084407800d0c0b3001605070001003700dd
:1052f800000000000080fa00000006000a00fa0022
:10530800901120009e0507006502470091c1b30077
:1053180004007800870407005e4290006447980004
:10532800e00020009605070064024700e1c0b300d2
:10533800040078007f0407004e429000044f980054
:1053480063024700f1c0b300040078007904070045
:105358003e429000144f98009011200088050700e5
:105368000e82e80091c1b3000400780071040700c0
:10537800ae4290006e42900084cf5200e2ff3a00a5
:10538800c00020007e0507000e02e800c1c0b3007f
:1053980004007800670407001e42900064479800e4
:1053a800d1c0b3000e007800620407001e427800e6
:1053b80074479800ce0290003e029000848f5200fd
:1053c80006003600be0290004e0290008482520011
:1053d80074732100048242000a003700ce02900054
:1053e8003e029000848f520002003a00747321003c
:1053f80004003700be0290004e0290000482520062
:105408000402e900040078000080fa0000000600a9
:105418001a00fa00300f9800410f980090112000f0
:10542800570507000e02e80091c1b3000400780098
:10543800400407001e429000044f78000000eb0073
:105448004f0507001e427800e04f520002003a0064
:105458000002eb0052003700648b8000e00f52001e
:1054680003003a0087ff07000002eb004c003700fa
:10547800448b8000548b8800a416210014427800c5
:10548800844078000040eb00ae040700b416210009
:10549800144278008440780010c0b300a9040700c3
:1054a8000e82e80041012000040078001003070084
:1054b8002e0a9000040078001a1b070000027800ea
:1054c800240f98009e02900074732100848f52006c
:1054d80017003e000e82e800144278006142620024
:1054e800e04f520012003a00be029000040028006b
:1054f80004826200e00f52000d003a003e02900064
:1055080070026200e00f520009003a00ae029000fb
:10551800e45e2000848f520005003e00be02900029
:105528000408200004826200e00f520001003a00e3
:105538000000fe001e029000448b88003e0a900086
:105548008e82e800ec82420062002000850078002c
:105558000400780099ec0700ce0a900000c2eb0026
:10556800844a78005e529000e84f520009003a00e1
:105578004e529000e04f5200030032004e5290000d
:10558800e64f520003003a004e529000ce0a9000b7
:10559800844a78000002eb00648b88001400200025
:1055a800040078000080fa00000006000600fa00f7
:1055b800000f78002147980022079800a1c3b30084
:1055c80020c0b3005f04070071c1b30030c0b3004e
:1055d8005c040700ae02900074742100048242004b
:1055e8002407980064024700144278008440780039
:1055f80060c0b300530407006402470014429000df
:105608008440780070c0b3004e0407001e02780082
:1056180061002000040078004003070061002000ba
:1056280090eb20003d03070080c0b3001f03070074
:105638002e429000e04f520002003a000042eb0078
:105648000100370064c0b300044078001703070066
:105658000080fa00000006001800fa0001c8b30034
:10566800f0c1b3008104070001c8b300f0c1b30062
:1056780059040700a1c0b300c0c1b3005604070015
:1056880081c0b300f0c1b30078040700e41621001c
:1056980014427800e54f520004003200e41621005d
:1056a80014427800e64f52008a003a000002eb00ec
:1056b800040f7800000000006a024700c1c1b3006f
:1056c800040078009b0307002e4a90000482fb0028
:1056d8006a026200e00f520005003a001e0fe8005f
:1056e800743e20009e027800848f5200f2ff36003c
:1056f80069024700c1c1b300040078008d030700a8
:105708001e4a900062426200e04f520004003a00d4
:10571800743e20009e027800848f52006d0036008f
:1057280081c0b300f0c1b3002b0407006802470032
:105738008040eb00040078007e0307000e4a9000ca
:10574800444f98006702470011c0b3000400780076
:10575800780307007e429000544f98006602470085
:1057680061c0b30004007800720307006e42900025
:10577800644f98006502470071c0b30004007800c8
:105788006c0307005e429000744f98007e02900000
:105798000402e800740798006e4a9000844078007c
:1057a8000040eb00e70307007e4a90008440780041
:1057b80010c0b300e3030700700247008100200017
:1057c800040078004a0207000042eb0024479800d2
:1057d8003500370064024700c1c1b30004007800f7
:1057e800540307004e42900062426200e04f5200ac
:1057f800300032009e0a90000400220004826200f9
:10580800e00f52002b00320001c8b300f0c1b30012
:105818001604070001c8b300f0c1b300ee03070087
:10582800a1c0b300c0c1b300eb03070081c0b3003f
:10583800f0c1b3000d040700000000006302470038
:10584800c1c1b300040078003a0307003e4290004b
:105858000482fb006a026200e00f5200f7ff320088
:1058680081c0b300f0c1b300db0307006e4a9000ab
:10587800844078000040eb00b20307007e4a9000a5
:105888008440780010c0b300ae03070070024700e0
:105898008100200004007800150207002e429000c5
:1058a8000442e800244798002e429000ef4f52002f
:1058b800c8ff36004e4a9000844078000040eb0054
:1058c800a00307005e4a90008440780010c0b3002f
:1058d8009c0307000080fa00000006000400fa009c
:1058e80010079800558b80001e0290000482420029
:1058f80074024200040f78009e027800747321003d
:10590800848f5200040036009e027800848c2e009a
:1059180004824200040f78001e4278008440780018
:105928000040eb00870307001e4290008440780087
:1059380010c0b300830307000080fa0000000600cf
:105948000600fa00200798000e02e80021c0b30004
:1059580004007800f70207001e42900024479800d0
:1059680031c0b3000e007800f20207001e42780032
:105978003447980064024700144278008440780055
:1059880020c0b3006f030700640247001442900070
:105998008440780030c0b3006a0307001e029000fc
:1059a800040078000080fa00000006000600fa00f3
:1059b800200798000e02e8008040eb000400780001
:1059c800dc0207001e4290002447980011c0b30073
:1059d8000e007800d70207001e427800344798006e
:1059e8006402470014427800844078000040eb00cd
:1059f8005403070064024700144290008440780072
:105a080010c0b3004f0307001e0290000400780086
:105a18000080fa00000006000a00fa00300798002b
:105a280041079800558b80003e0290000482420096
:105a380074024200140798009e02900074732100bb
:105a4800848f5200040036009e029000848c2e0041
:105a580004824200140798000e02e8008040eb0020
:105a680004007800b30207001e42900044479800e3
:105a780011c0b3000e007800ae0207001e42780085
:105a8800544798002e429000844078000040eb0074
:105a98002c0307003e4290008440780010c0b300f9
:105aa800280307004e0090000e000700000278004f
