:020000040000fa
:080000000001040000000000f3
:020000040000fa
:10000800025100000251000002510000025100009c
:10001800025100000251000002510000025100008c
:100028000251000002510000025100000e9500002c
:10003800025100000251000002510000025100006c
:1000480002510000e2820000128300000251000009
:10005800025100000251000002510000025100004c
:10006800025100000251000002510000025100003c
:10007800025100000251000002510000025100002c
:10008800025100000251000002510000203500001a
:10009800025100000251000002510000025100000c
:1000a80002510000025100000251000002510000fc
:1000b80002510000025100000251000002510000ec
:1000c80002510000025100000251000002510000dc
:1000d80002510000025100000251000002510000cc
:1000e80002510000025100000251000002510000bc
:0800f80002510000025100005a
:020000040000fa
:10010800025100000251000002510000025100009b
:10011800025100000251000002510000025100008b
:100128000251000002510000025100000e9500002b
:10013800025100000251000002510000025100006b
:1001480002510000e2820000128300000251000008
:10015800025100000251000002510000025100004b
:10016800025100000251000002510000025100003b
:10017800025100000251000002510000025100002b
:100188000251000002510000025100002035000019
:10019800025100000251000002510000025100000b
:1001a80002510000025100000251000002510000fb
:1001b80002510000025100000251000002510000eb
:1001c80002510000025100000251000002510000db
:1001d80002510000025100000251000002510000cb
:1001e80002510000025100000251000002510000bb
:0801f800025100000251000059
:020000040000fa
:10020000afed21000e7f22000e01880000000000eb
:10021000000020000000e000020032000001200089
:10022000200288000c0007006070290001002000f7
:1002300011000700000020000000e0000200320072
:100240000000020000000000823d020000000000eb
:100250000040da000000fe004440a90060152000c4
:100260000000e0000300320000002000a001880030
:100270004440a8000000060091018800800078003a
:100280000000eb0015003700e280400032a0b4000f
:100290009101ba00e280400032a0b4009102ba009d
:1002a000e280400032a0b4000002eb00472bde00e9
:1002b000f507b200602ce10004003a000059eb00a1
:1002c0008301e900fdff3e00040037006128e100e2
:1002d000010032000082eb00040007001101ba00a7
:1002e0000200e000e8ff3a00000006003159ba00c1
:1002f0008301e9000c0032002159ba008301e900b2
:10030000080032000400e00003003a00e2804000f0
:1003100032a0b400f5ff370011d9ba008301e9001b
:10032000faff3a008100e800e180400032a0b4000a
:10033000000006006022b800060220000000d00085
:100340008180d2000482d2008582d2000000a00009
:100350000202520083825a0003003100020242006e
:1003600083824a000000a1000603e900f3ff3a007f
:1003700000000600efff07000400be0000000600ba
:10038000889fbe008a9fbe003004be002005be00cc
:100390000404440085844c0006054d0087854d000b
:1003a0000898be000a90be000440e10005c8e100c4
:1003b00006d0e10007d8e1000200310068004000eb
:1003c0001008e8004f05be004f04be000000060004
:1003d0001000fa00889fbe008a9fbe001100200016
:1003e0000605be000404be003002be002003be00ad
:1003f000c4b79f00d5b79f00e6b79f00f7b79f002f
:100400000802520089825a000a035b008b835b005a
:1004100084bf9f0095bf9f00a6bf9f00b7bf9f00ee
:100420000498be000698be004fb29700dfb2970056
:100430006fb39700ffb397000820e10009a8e1001f
:100440000ab0e1000bb8e100010039008000eb00c8
:100450004f05be00108810004f04be000080fa0057
:10046000000006001400fa00889fbe008a9fbe00ac
:100470008c9fbe000006eb003e000700ccb79f003b
:10048000bcb79f00acb79f009cb79f008cb79f0084
:100490000605be000404be000d0420004fb3970003
:1004a000bfb29700860343002fb29700e00f5300be
:1004b00004003d003d0007000f004000b0ff0700b2
:1004c00003003700390007000f004000c0ff07009d
:1004d000cfb2970095bf9f00e08f52000900350012
:1004e0002b00070014002000050020006033b80036
:1004f000000072008180720002017300838173002a
:100500001c0007000c06e8008d0f5600e3ff3a00c0
:100510001fba9700e00f520005003d000802be0020
:100520000a03be0000fe2f000f00400094ff0700ea
:100530004faa9700e00f520008003a000fb497004e
:100540009fb497002fb59700bfb59700d8b79f000d
:10055000e9b79f00fab79f008bbf9f000c00070010
:100560004f06be004f05be004f04be000080fa00db
:1005700000000600010007000000060090b79f0081
:10058000a1b79f00b2b79f00c3b79f00000006004d
:1005900001000700000006001fb09700afb09700f1
:1005a0003fb19700cfb19700000006004f2bde004f
:1005b000f9ff070086837300858242004f23de0027
:1005c000a7b79f00868272000402420095b79f0081
:1005d000ffaa97004f2bde008582420006027200c0
:1005e00084b79f006faa97004f23de0004024200e9
:1005f00086827200f5af9f004f18de000002720085
:10060000e5ff0700e4af9f00000040008180480044
:1006100002014900838149000802be000a03be00ae
:10062000d6ff070000fe2f0000000600881f78009c
:1006300018002000881f78008aff07008f87e900d4
:100640004f04780000000600801feb0085ff0700c4
:100650008f87e90000000600889fbe008a9fbe00c9
:10066000e00f5000e08f5800e00f5900e08f590074
:100670000c003d006044b8006055b8000000540014
:1006800081805c0002015d0083815d001800200014
:100690001500070008003d00180007000004eb00eb
:1006a000050037000004eb000f00070002003d00ca
:1006b0001200070018002000dcff0700e00f5400c4
:1006c000060032006022b8006033b800000052001b
:1006d00081805a0002015b0083815b004f05be00f0
:1006e0004f04be0000000600e00f5200e08f5a00e9
:1006f000e00f5b00e08f5b00000006006044b80084
:100700006055b8000402540085825c0006035d0059
:1007100087835d0000000600889fbe008a9fbe00a0
:100720008c1f7800e00f5000e08f5800e00f590058
:10073000e08f59000d003d006044b8006055b800de
:100740001c0020000000540081805c0002015d005c
:1007500083815d000820e10009a8e1000ab0e10002
:100760000bb8e1000d003d00080037000006eb006b
:10077000e00f5200e08f5a00e00f5b00e08f5b005b
:1007800006003d006044b8006055b8000402540003
:1007900085825c0006035d0087835d00aaff070079
:1007a000e00f5600060032006022b8006033b80047
:1007b0000000520081805a0002015b0083815b00cf
:1007c0004f0678004f05be004f04be000000060033
:1007d0000002780002003700315a78000201e90077
:1007e000e00f5100fcff3a00000006000002780014
:1007f00002003700015a78000201e900e00f5100c1
:10080000fcff3a0000000600000278008042eb0086
:10081000b4cf1200fdff3a000080ea000000420061
:10082000000006000002780006003700314378001f
:100830000201e900065a780084027800e04f530074
:100840000600320084027800e00f5100f7ff3a0002
:1008500002003700805aeb000201e900e00f51006e
:08086000fcff3a000000060055
:020000040000fa
:10086800ff0f0000ff0f0000ff0f0000ff0f000048
:10087800ff0f0000ff0f0000ff0f0000ff0f000038
:10088800ff0f0000ff0f0000ff0f0000ff0f000028
:10089800ff0f0000ff0f0000ff0f0000850f000092
:1008a8000a0f00008f0e0000140e0000700d0000eb
:1008b800f50c00007a0c0000ff0b0000850b00000f
:1008c8000000000000000000000000000000000020
:1008d8000000000000000000000000000000000010
:1008e8000000000000000000000000000000000000
:1008f80000000000000000000000000000000000f0
:1009080000000000000000000000000000000000df
:1009180000000000000000000000000000000000cf
:1009280000000000000000000000000000000000bf
:1009380000000000000000000000000000000000af
:10094800000000000000000000000000000000009f
:10095800000000000000000000000000000000008f
:1009680028230000803e0000803e0000803e0000fa
:10097800803e0000004b0000004b0000004b0000d0
:10098800004b000000000000000000000000000014
:10099800000000000000000000000000000000004f
:1009a800983a0000983a0000983a0000983a0000f7
:1009b800983a0000983a0000983a0000983a0000e7
:1009c800000000000000000000000000000000001f
:1009d800000000000000000000000000000000000f
:1009e8009c1800000807000008070000204e0000bf
:1009f8000807000008070000204e00000807000054
:100a080008070000204e0000080700000807000043
:100a1800204e000000000000000000000000000060
:100a2800060500000403000002010000161500007e
:100a380014130000121100002625000024230000d2
:100a48002221000036350000343300003231000026
:100a5800000000000000000000000000000000008e
:100a6800000000000080000000000000008000007e
:100a7800000000000080000000000000008000006e
:100a8800000000000080000000000000008000005e
:100a9800000000000080000000000000008000004e
:100aa800000000000000000000000000000000003e
:100ab800000000000000000000000000000000002e
:100ac800000000000000000000000000000000001e
:100ad800000000000000000000000000000000000e
:100ae80000500000c2b4000020000000455400007f
:100af8004d4200004f410000524400000000000039
:0c0b08000c00000020030000640000004e
:020000040000fa
:100b14000200fa00004f7800848720001442780015
:100b24009e4f52001f003200848720001442780038
:100b3400e24f42000b003200848720001442780008
:100b44000482fb007e22b9008402780064dc210068
:100b540004824200e201200081e4210004007800c4
:100b64001aff07001e40780078e8b7001e4278009c
:100b7400e24f42000d0032009e4278000582fb00e5
:100b84007e22b9008402780064dc210004824200e1
:100b9400e20120008400780080e421000bff0700bc
:100ba40003003700000000000100370000000000cf
:100bb4000080fa00000006000000fa00958720007b
:100bc40095427800848720001442780084cf520034
:100bd4002f0032009487200014427800e24f420034
:100be4001a00320047de2100948720001442780066
:100bf4000482fb007e22b90004027800fc02420059
:100c040064dc2100048242001443780094872000ad
:100c1400144278000482fb007e22b900840278002a
:100c240064dc2100048242001402780085fd2f0058
:100c3400848242008402200013c0b30007017800bc
:100c440086407800050078002a1107008487200078
:100c5400144278000400780079e8b70044e62100e3
:100c64009442780044f2800087fd2f00848343007f
:100c740046de2100840220008541780007017800c7
:100c840011c0b300060078001a11070001003700f4
:100c9400000000000080fa00000006000c00fa00ca
:100ca40004a2210014079800b4438000e00f52000e
:100cb40008003a00933507000002be008402780061
:100cc400f47f2000848262000440200004824200f9
:100cd400b4438800c20320008000eb00c0e0210080
:100ce400c1fe07000042eb00444798000042eb00bd
:100cf400044f7800500037001e40780084ff07003e
:100d04009e4278000582fb006622b90084027800c6
:100d140044582800048242009442900055479800a9
:100d24009e4278000582fb006622b9000402780026
:100d34008482e80044582800048242009402780027
:100d4400350798009e4278000582fb006622b900b0
:100d540004027800e402420044582800048242005d
:100d640094027800450798005e4290000482fb00dc
:100d7400e00f5200010032002e0037001e029000e6
:100d840054079800be0290004e02900084824200f4
:100d94001e02900004824200a402b00014079800ce
:100da4009e029000c4ff2100848f5200fcff3e008d
:100db40044e62100de429000054a78005e0290007d
:100dc4008402b00044f2880045f280003e029000a4
:100dd400048242000402e80054f2880055f28000c4
:100de4004e0290000482420064f28800d400200085
:100df400f4f2880004f380000430a10004f38800b6
:100e04006dff07009e4278000582fb006622b90050
:100e14008402780044582800048242001442780076
:100e2400b5e02100844a7800ca0a07001e4fe80092
:100e340001003700ffff37001e427800e04f5200e8
:100e4400adff32000080fa00000006000c00fa003a
:100e540010079800210798006247980043079800fc
:100e6400244f98000042eb00044f780081003700c3
:100e74001e40780026ff0700f4f28000ed0f5200b8
:100e840078003a004cff0700b4e021009442780057
:100e94002e4a900084cf520074003a00842120002e
:100ea40044f088006e429000e04f52000a003a007d
:100eb4004e029000a4ef880004f380000430a000e8
:100ec40004f3880044002000f4f28800ce0290006d
:100ed40015f3880061003700b5438000f43f20001b
:100ee400848f520004003600b5438000843821000a
:100ef400848f52000200360004402000b44388006e
:100f0400b4438000a4ef88000402e800b4438800de
:100f1400ce03900097ef88005e4607000002be00f3
:100f2400b4f28800c5f2880004f380000440a000f5
:100f340004f388006e4290000482fb00e30f520029
:100f440003003200e40f520019003200430037005e
:100f54000e82e800940290000e82e80014027800e9
:100f6400848242004e02900084824200a4ef8000fa
:100f740004826a0014f388001e029000ae029000fe
:100f8400d4ef8800e5ef8800a5e021000042eb00e3
:100f9400844a7800c40420000500200024ef88005f
:100fa40035ef880024002000f4f288002b0037007d
:100fb4001e029000ae0290000402780084027800c1
:100fc400254290000483fb00354290000482fb001c
:100fd4004822dd00860278008482720005027800cf
:100fe400040378001e029000ae0290000402780010
:100ff400944378008782fb00144290000482fb0033
:101004004822dd008503780084837300070278009a
:10101400840243004e02900084824200a4ef8000c8
:1010240004826a0014f388001e029000ae0290004d
:1010340004027800a200200084007800a0df2100d0
:10104400e2fd070054002000f4f2880011c0b30050
:1010540020c0b300e8060700000000001e4278002c
:101064000800370000000000010037000000000005
:101074001e4fe8001e427800e04f52007cff320011
:10108400e4cfb300044078000080fa0000000600ba
:101094000200fa00004f78001e427800e04f520030
:1010a40002003200140020000d0037001e407800ba
:1010b40097fe070005f3800004002100048262000b
:1010c400e00f52000500320004f3800004c0a100c8
:1010d40004f3880014002000010037000002eb0034
:1010e400040078000080fa00000006000200fa0004
:1010f400004f78001e427800e04f52000200320098
:101104000002eb00080037001e40780080fe070054
:10111400f4f2800067026a0004f0a7000402ea0007
:101124000402e9004f22de00040078000080fa0087
:10113400000006000200fa00004f78001e4278000a
:10114400e04f520044003a001e40780070fe070051
:1011540094f28000a4f28800f4f2800005002000dc
:10116400e600200007002000860f5200878f5a00f7
:1011740033003e00046001000e00370030003700e9
:101184000c0037000b0037002d0037000900370032
:101194000a0037000900370029003700280037000b
:1011a40027003700140037002500370024003700db
:1011b40020003700e70907002800370011c0b300fa
:1011c40010c1b3008c060700b4ef8000e00f52009a
:1011d4000500320075f2800084ef8000848f520095
:1011e400f6ff3a00010037000000000084002000f0
:1011f400f4f288001900370011c0b30010c1b30025
:101204007d060700b4ef8000e00f520005003200b5
:1012140075f2800084ef8000848f5200f6ff3a005c
:101224000100370000000000c4002000f4f2880030
:101234000a003700d4002000f4f2880007003700c9
:101244008040eb0040c1b3006b060700c1090700f2
:101254000000000001003700000000000080fa00d8
:10126400000006000200fa00004f78001e427800d9
:10127400e04f520008003a001e40780024fe0700a8
:1012840004f380000430a10004f388001e407800b9
:10129400a8ff070001003700000000000080fa00ea
:1012a400000006000200fa00004f78001e42780099
:1012b400e04f5200020032000002eb000a00370047
:1012c4001e40780012fe07003bfe0700a20020002b
:1012d400a1df210060e621003cfd070094ef8000bf
:1012e40084f3880064e62100040078000080fa009a
:1012f400000006000200fa00004f78001e42780049
:10130400e04f52000b003a001e40780000fe070038
:1013140029fe070075f2800084ef8000848f52005c
:101324000500320011c0b30000c1b300320607004b
:1013340001003700000000000080fa0000000600f1
:101344000400fa00204798002e429000e04f52001b
:10135400020032000002eb001d0037002e40900016
:10136400ebfd0700f4f28000044f78001e42780081
:10137400e74f5200050032001e427800eb4f520046
:10138400020032000002eb001100370075f2800009
:1013940084f28000848f52000900390055f28000e5
:1013a40044f280008482520086f2800074f280004d
:1013b40004025300048242000402e90004003700de
:1013c40085f2800074f28000048252000402e90075
:1013d400040078000080fa00000006000400fa000f
:1013e40020479800314798002e429000e04f520069
:1013f400020032000002eb00470037002e4090004c
:10140400c3fd07002e409000cdff070000027800c6
:10141400040f78001e027800e00f520002003a0028
:101424000002eb003c0037001e027800e10f52007e
:1014340002003a002e409000aeff070005f3800042
:101444000410200004826200e00f52000b003a00f6
:1014540055f2800044f28000048252000402d1005c
:101464009e0f5200050039002e409000a1ff070096
:1014740004f380000480a00004f38800e303470021
:1014840044e621009442780076f2800014002000a3
:1014940013c0b30007017800854078000600780087
:1014a400140f070074f280000402e80074f288004c
:1014b40075f2800054f28000848f520002003900db
:1014c40044f2800074f288001e027800e10f52009a
:1014d40003003a002e40900086ff07000d003700fd
:1014e40005f380000402200004826200e00f520031
:1014f40008003a0004f380000450a00004f38800bc
:10150400fd4407000002be00040278006c024200a1
:10151400d4f2880014002000040078000080fa004f
:10152400000006000c00fa0060479800410798008c
:10153400520798000002eb00140798006e429000d6
:10154400e04f5200020032000002eb00640037005a
:101554006e4090006efd07006e40900078ff07001b
:1015640000027800240798002e029000e00f520039
:1015740004003a006e4090005eff07000002eb009a
:10158400570037002e029000040f7800ae0290003e
:101594005e029000848f5200020036005e029000ca
:1015a400040f780005f38000041020000482620018
:1015b400e00f52000c003a0055f2800044f2800023
:1015c400048252008402d1002e029000848f5200c3
:1015d400050039006e40900046ff070004f38000c8
:1015e4000480a00004f3880074f280009e0242008c
:1015f40054f28000848f52001600390055f28000a6
:1016040074f280000482520014079800ce03900004
:1016140044e621009442780076f280001e02900095
:1016240013c0b300070178008540780006007800f5
:10163400b00e0700ce0290001e0290000482420009
:10164400440798001e0290001e0f120044f280000e
:1016540074f28800ce03900044e62100944278009e
:1016640076f280001e02780013c0b30007017800f0
:1016740085407800060078009e0e070074f2800012
:101684001e02420074f28800ae0290005e029000d6
:10169400848f520003003e006e40900015ff070047
:1016a4000d00370005f3800004022000048262006c
:1016b400e00f520008003a0004f380000450a00038
:1016c40004f388008c4407000002be000402780082
:1016d4006c024200d4f288001e0290001e024200f6
:1016e400040078000080fa00000006000400fa00fc
:1016f400004f7800110798001e0290000400780043
:1017040040fc070000027800040178009e0090006d
:101714001e40780083ff0700000278009e029000bc
:1017240004824200040078000080fa0000000600f1
:101734000600fa00404798004e429000e04f5200e5
:10174400020032000002eb000c0037004e40900013
:10175400effc070055f2800044f28000048252003e
:10176400040fe9004e409000f5fe070000027800e7
:10177400140798001e0290001e0212000400780054
:101784000080fa00000006000200fa00004f780012
:101794001e4078000c00070000027800e00f5200a1
:1017a400070032001e407800d9fc070094f2800044
:1017b400a4f2880011c0b30000c1b3000e050700f5
:1017c4000080fa00000006000200fa00004f7800d2
:1017d4001e427800e04f5200020032000002eb008b
:1017e400120037001e407800c9fc070095f2800003
:1017f400a4f28000848f52000400390095f2800026
:10180400a4f28000048252000800370065f28000d0
:10181400a4f280008482520096f2800054f2800088
:1018240004025300048242000402e8000400780029
:101834000080fa00000006000600fa002047980025
:10184400210798002e409000dfff07000002780077
:10185400040f78001e027800e00f520002003a00e4
:101864000002eb002d0037002e409000a8fc07007a
:101874002e029000e00f52000a00320044e62100dc
:1018840094427800a7f280002e03900014002000f8
:10189400854178000701780011c0b3000600780084
:1018a400140e0700a4f280000402e800a4f28800e9
:1018b400a5f2800064f28000848f5200020036009a
:1018c40054f28000a4f288001e027800e10f520056
:1018d40004003a0004f3800004a0a00004f388008c
:1018e4000d00370005f3800004022000048262002a
:1018f400e00f520008003a0004f380000450a000f6
:1019040004f38800fc4307000002be0004027800d0
:10191400d403b000d4f2880014002000040078003e
:101924000080fa00000006000a00fa004047980010
:1019340031079800420798000002eb00040f78007a
:101944004e409000a0ff07000002780014079800a2
:101954001e029000e00f520002003a000002eb0069
:10196400530037004e40900069fc0700ce029000ff
:101974001e029000848f5200020036001e02900066
:1019840044079800a5f280004e0290008482420031
:1019940064f28000848f52001900360065f28000e2
:1019a400a4f2800004825200040fe8003e0290007a
:1019b400e00f52000d00320044e62100944278000a
:1019c400a7f280003e0390001e0278008541780053
:1019d4000701780011c0b30006007800c50d0700a8
:1019e4003e0290001e024200340798004e0290000e
:1019f4001e0252004407980054f28000a4f28800aa
:101a04003e029000e00f52000a00320044e621003a
:101a140094427800a7f280003e0390004e029000aa
:101a2400854178000701780011c0b30006007800f2
:101a3400b00d0700a5f280004e029000048242001f
:101a4400a4f288004e0290001e024200440798004f
:101a54009e0290004e029000848252004e0290003a
:101a6400848f520004003e0004f3800004a0a00010
:101a740004f388000d00370005f380000402200001
:101a840004826200e00f520008003a0004f3800070
:101a94000450a00004f38800974307000002be002e
:101aa40004027800d403b000d4f288004e029000ff
:101ab400040078000080fa00000006000600fa0026
:101ac400404798004e429000e04f5200020032001e
:101ad4000002eb000b0037004e4090000cfc0700a6
:101ae40065f2800054f28000048f52004e40900052
:101af40035ff070000027800140798001e029000ca
:101b04001e021200040078000080fa0000000600a3
:101b14000e00fa00604798004107980052079800a9
:101b2400630798006e429000e04f520003003a00b1
:101b34005e029000e00f520002003a000002eb0047
:101b4400450037006e409000f1fb07006e409000a6
:101b54001dff07000002780014079800ee029000b1
:101b64005e029000848242001e029000848f520024
:101b7400040036009e0290006e029000048252001f
:101b840054079800a5f280006e029000048f420072
:101b940064f280009e0f52000500310065f280005f
:101ba40054f28000048252000482ea001e0f4200b4
:101bb40064f280001e0252000402e8002407980028
:101bc400de0290002e029000848f52000a003e0034
:101bd40044e62100944278004e0390005e02900097
:101be400854178001e01780011c0b300060078001a
:101bf400400d07001700370044e6210094427800a6
:101c04004e0390002e029000854178001e0178005a
:101c140011c0b30006007800360d0700de02900004
:101c24002e0290000482520045e62100954278007d
:101c340057f280004e0090002e03900006034000ef
:101c4400854178000701780011c0b30006007800d0
:101c5400280d07005e029000040078000080fa005e
:101c6400000006000600fa002047980021079800ab
:101c7400ae019000120020008e0078002e409000eb
:101c8400a3ff07001e427800044078000080fa0099
:101c9400000006003e00fa0020779800211f9800fb
:101ca400321f9800431f9800541f9800651f980026
:101cb4002e729000e04f520003003a003e1a90004a
:101cc400e00f520002003a000002eb002601370048
:101cd4002e7090008efb07002e709000bafe070055
:101ce40000027800ce1a90000502520014079800f2
:101cf4009e0290003e1a9000848f52000200310030
:101d04000082eb00180137005e1a9000e00f5200c9
:101d1400060032009e0290005e1a9000848f5200ea
:101d2400020036005e1a900014079800a5f28000a5
:101d34004e1a9000048242003407980065f2800035
:101d44003e029000848f52000700310065f280004b
:101d540054f28000048252000482ea00be02900021
:101d64000482420034079800be029000050f7800f8
:101d740065f280003e029000048252000402e800f2
:101d8400240798004e1a900034079800be1a900059
:101d9400750798002e1a9000040f98002e1a9000d0
:101da40094427800154f98002e1a90000402e8001f
:101db400241f98000002eb00640798006e1a90003c
:101dc400e00f52000c0032009e4a900004c6b3009b
:101dd40084cf5200080036009e4a9000a4c7b30086
:101de40084cf520004003e009e4a900004ceb3000b
:101df40004c24200144f980004c2b300244f980058
:101e04002e4a90008482fb002e029000848f5200a0
:101e1400020036002e029000244f98002e4a9000b3
:101e24008482fb001e029000848f52000200360060
:101e34001e029000244f98002e4a90000482fb005a
:101e440045e62100954278007203470085417800f9
:101e54001e01780011c0b30006007800a50c07002d
:101e64002e4a90000482fb001e0f42002e4a90006e
:101e74000482fb00ae029000048252002407980002
:101e84002e029000e00f520004003a0054f2800049
:101e9400040f78000082eb00240798006e1a90006b
:101ea400e00f5200680032000042eb00044f98003b
:101eb400600037000e4a90000482fb0004024700d1
:101ec400a452900004c6b30084cf5200110036001f
:101ed4000e4a90000482fb0004024700a4529000c2
:101ee400a4c7b30084cf52000a003e000e4a9000fb
:101ef4000483fb000e4a90000482fb0004024700a6
:101f0400a452900004ceb30004c2420086024700eb
:101f1400a45298000e4a90000482fb000402470079
:101f2400a45290001e4a900084cf520023003a002d
:101f34003e1a90000402e900341f98003e1a9000f3
:101f4400e00f520008003a00be0290007e029000aa
:101f5400848252000e4a90000482fb0004824200f4
:101f64000402e800800037002e1a900094427800a2
:101f7400154f98002e1a90000402e800241f9800c0
:101f840014002000640798009e4a900004c6b30021
:101f940084cf5200240036009e4a9000a4c7b300a8
:101fa40084cf520020003e009e4a900004ceb3002d
:101fb40004c24200144f98001b0037007e029000b8
:101fc400341f98006e029000e00f52001600320099
:101fd4008e0a9000251f98002e1a900094427800d3
:101fe400154f98002e1a90000402e800241f980050
:101ff4009e4a900004c6b30084cf52000800360005
:102004009e4a9000a4c7b30084cf520004003e004f
:102014009e4a900004ceb30004c24200144f9800bc
:102024000002eb00640798000e4a90000442e800a6
:10203400044f98008e4a90002e4a900084cf52009c
:102044009cff3900370037000042eb00044f980032
:10205400300037000e4a90000482fb00040247005f
:10206400a45290001e4a900084cf520017003a00f8
:102074003e1a90000402e900341f98003e1a9000b2
:10208400e00f520008003a00be0290007e02900069
:10209400848252000e4a90000482fb0004824200b3
:1020a4000402e800300037002e1a900094427800b1
:1020b400154f98002e1a90000402e800241f98007f
:1020c40014002000640798000f0037007e0290007f
:1020d400341f98006e029000e00f52000a00320094
:1020e4008e0a9000251f98002e1a900094427800c2
:1020f400154f98002e1a90000402e800241f98003f
:102104000002eb00640798000e4a90000442e800c5
:10211400044f98008e4a90002e4a900084cf5200bb
:10212400ccff39002e4a90000482fb009e029000ee
:1021340004825200140798009e0290003e1a9000f8
:10214400848f5200020031000082eb000600370049
:102154002e4a90000482fb00be02900004824200da
:102164003407980024ff3700040078000080fa0048
:10217400000006000800fa00004f7800114798009c
:102184001207980023079800340798000e03e8000c
:10219400be0290002e0290009e01900012002000ca
:1021a400860078001e407800bafe0700000278001e
:1021b400040078000080fa00000006000a00fa001b
:1021c400881f78000042eb00044f7800e5013700d7
:1021d4001e4078004efa07000042eb006447980066
:1021e4000002eb00140798000002eb00240798009b
:1021f40005f380000420200004826200e00f5200f6
:1022040005003a0005f380000440200004826200c7
:10221400e00f52000b003200b020070000027800eb
:10222400e00f52000700320004c1b3006447980075
:1022340004f380004a22de00614262000482fb0053
:102244001407980005f38000040220000482620051
:10225400e00f520009003200d8f28000a6410700c6
:102264000002be000402780004025400e00f520091
:1022740002003c0004c1b3006447980005f38000e9
:102284000404200004826200e00f520009003200be
:10229400e8f28000984107000002be0004027800c2
:1022a40004025400e00f520002003c0004c1b300d9
:1022b40064479800f4f28000eb0f52000b003a00e0
:1022c400e8f280008c4107000002be00040278009e
:1022d40004025400e00f520004003c0014c1b30097
:1022e40064479800c4002000f4f28800f4f28000ef
:1022f400e40f520063003a000002eb004407980028
:102304005b0037004e0290007422b900040278008a
:10231400f0024200c4e0210004824200140278006a
:10232400e00f5200560032004e0290007422b900b1
:1023340004027800f0024200c4e02100048242005a
:102344009402780014f38000848f520045003a0010
:1023540019fa07004e0290007422b9008402780032
:10236400c4e0210004824200a2002000840078001e
:10237400a0df210015f907004e0290007422b90075
:1023840004027800ea024200c4e021000482420010
:102394001402780094ef88004e0290007422b90071
:1023a40004027800ec024200c4e0210004824200ee
:1023b4001402be0061024200e0824a0064ef880019
:1023c40075ef8800e5ef8000d4ef8000848242003e
:1023d40094ef800084824200a4ef800004826a00ab
:1023e40014f3880024c1b3006447980064002000fb
:1023f400f4f28800ce029000c4fe2f0004aab900b3
:102404000402780087022000848343004e02900077
:102414000402e8007422b90084027800c4e02100b8
:1024240004824200040378004e0290007422b90032
:1024340084027800c4e0210004824200840278000f
:102444000702780013c0b3000601780011c0b3007e
:1024540005007800270b07000002eb0024f2880037
:10246400080037004e0290000402e8004407980078
:102474004e029000e20f5200a2ff36000100370026
:10248400000000006e429000e04f5200090032004c
:102494001e02900004f0a7000402ea000402e9000e
:1024a4004f22de0004427800844078006e409000a1
:1024b400d101070004f3800070026200e00f5200b3
:1024c4002b003a00f4f28000e70f52001d013a009d
:1024d400f04007000003be00b4f28000c5f28000a3
:1024e4000402530085825b00e00f5200e08f5a0023
:1024f4001601350004f3800067026200e60f520003
:102504000e003a0004f380004322de0061426200c0
:10251400644798001e40780006fb07001e407800c0
:1025240004fb07006e429000e04f520009013a009c
:10253400e4002000f4f28800090137009ef9070046
:1025440021c0b30000c1b300ab010700d1400700b4
:102554000003be0024bc2e00b50020000602420089
:1025640087824a00b4f28800c5f28800fc00370074
:10257400c84007000003be00b4f28000c5f280002a
:102584000402530085825b00e00f5200e08f5a0082
:10259400f200350088f90700f4f280006123b800e6
:1025a400e4ff2f00f5ff2f000602420087824a0055
:1025b400a600200007002000860f5200878f5a00d3
:1025c400a0003e00046001000a003700120037003a
:1025d4009e00370039003700480037005c003700a0
:1025e40069003700760037007a003700580037005a
:1025f40086003700c04007000002be0004027800d5
:10260400d4f28800a0df2100f73a0700340020004c
:10261400f4f2880092003700e1df2100a0df2100fe
:10262400563b070000027800e00f52001c003a00fd
:10263400b14007000002be0084027800d4f280009a
:102644000483520024ef800035ef800004027800f8
:10265400840f53007f003600a4e021001442780068
:10266400e54f52000b003e00a4e021001442780024
:102674000442e800a5e02100844a780024ef8000a9
:1026840035ef80000402420085824a0024ef88006e
:1026940035ef880024002000f4f288007000370031
:1026a40024c0b300644798000002eb0014079800ac
:1026b40054002000f4f288006900370024c0b300fd
:1026c400644798001400200014079800a4e0210037
:1026d40014427800e34f520060003600a5e0210068
:1026e40044c0b300844a7800042d21003501200041
:1026f40024ef880035ef880059003700a4e021005a
:1027040014427800e14f520005003e0024c1b3009a
:102714006447980014002000140798005000370004
:1027240004f3800068026200e00f520005003200ea
:1027340044c1b300644798001400200024079800a3
:102744004700370024c0b3006447980044003700b2
:10275400a4e0210014427800e44f520005003e003a
:1027640004c1b300644798001400200014079800c3
:102774003b00370084002000f4f2880014c1b30049
:102784006447980036003700a4e021001442780022
:10279400e44f520005003e0014c1b30064479800a2
:1027a40014002000140798002d00370044c1b30022
:1027b400644798001400200024079800280037007c
:1027c40044c1b30064479800140020002407980013
:1027d40023003700a4e0210014427800e44f5200a3
:1027e40005003e0004c1b3006447980014002000b3
:1027f400140798001a00370044c1b30064479800d6
:10280400140020002407980015003700a4e02100dc
:1028140014427800e44f520005003e0014c1b30096
:102824006447980014002000140798000c00370037
:1028340044c1b300644798001400200024079800a2
:10284400070037000000000005003700000000000a
:102854000300370000000000010037000000000002
:102864006e429000e04f5200310032001e02900090
:10287400e00f52002b003200a4e021001442780043
:102884000442e800a5e02100844a780024ef800097
:1028940035ef80000402420085824a0024ef88005c
:1028a40035ef880085ef800084f2800004825200b6
:1028b4004407980085ef800084f28000848f5200e2
:1028c4000600310055f2800044f280000482520078
:1028d400ce029000048242004407980046ef800034
:1028e40057ef80004e0290000500200004025300c0
:1028f40085825b0044ef880055ef8800b5ef8000c7
:102904004e02900004824200b4ef880084f28000fa
:1029140084ef88008040eb006e409000b600070012
:102924000300370011c0b3006e409000b2000700ee
:102934002e029000e00f5200090032000504070047
:102944000700370000000000050037000000000009
:102954000300370000000000010037000000000001
:102964001e4fe8001e427800e04f520018fe32006d
:102974000002eb0044079800380037004e02900034
:102984007422b90004027800f0024200c4e021007d
:102994000482420014027800e00f52003300320037
:1029a400d53f07000002be00040378004e029000e9
:1029b4007422b90004027800f2024200c4e021004b
:1029c4000482420014027800840253003439200047
:1029d400848f52001e003600ce029000c4fe2f00e9
:1029e40004aab9000402780087022000848343000b
:1029f4004e0290000402e8007422b90084027800b8
:102a0400c4e0210004824200040378004e029000d6
:102a14007422b90084027800c4e0210004824200d8
:102a2400840278000702780013c0b300060178001e
:102a340011c0b30005007800ae0907000002eb00e6
:102a440024f288004e0290000402e9004407980032
:102a54004e0290000402e800440798004e029000e1
:102a6400e20f5200c5ff36000100370000000000ed
:102a74004f0478000080fa00000006002c00fa00e1
:102a84003017980041179800521798003e13900091
:102a9400964078000180fb00964390008783fb00fa
:102aa400c83bdd000002780007027200840378004e
:102ab40007027800a64390008783fb00364390000a
:102ac4000683fb004833dd008700780086807000b1
:102ad4000103780086027800340f9800450f9800af
:102ae4004e1290001403be00560f9800670f980012
:102af4000042eb00645f980064c0b300745f980008
:102b0400de139000071798000e129000040078005e
:102b1400213007000002780004179800760247006d
:102b2400c10020000400780059300700000278003a
:102b34000482ea00141798005e1090008b200700ae
:102b440000027800241798009e1290002e12900024
:102b5400848f5200030032006c1e07001400200012
:102b6400220037000000eb002f3e07000e82e80031
:102b74004101200004007800ff2107000e82e800d4
:102b8400040078003a0307007e0290004422de002d
:102b94006f426200250020000522dd00744f5200c0
:102ba4009e4078000182fb00de12900004825200f5
:102bb40074025200541798000e82e800be10900070
:102bc40004007800fc01070000027800e00f5200c6
:102bd400040032000e82e800de1090000400780049
:102be4001c040700491e070014002000040078009c
:102bf4000080fa00000006002a00fa00006f980026
:102c0400116f9800ecf707000e6a90000482fb0035
:102c14006102620004427800e04f52000700320073
:102c240004f3800004b0a00004f388008e6a9000ce
:102c3400e4cfb30004c26200046f980004f3800080
:102c44000450a10004f3880004f380000460a10090
:102c540004f3880004f380000470a10004f38800e6
:102c640004f380000490a10004f3880004f38000be
:102c740004a0a10004f3880004f380000480a100f0
:102c840004f3880000000000141e0700000278000e
:102c9400e00f5200fcff32000e6a90000482fb0039
:102ca40066026200e00f5200030032000002eb00f3
:102cb400040f78007b00370075f2800084ef8000f9
:102cc400848f520003003a000002eb00040f7800e6
:102cd4006600370075f2800084ef8000848f520014
:102ce4001d00360075f2800084ef8000048f5200ce
:102cf400b4ef80009e0f520002003100b1ef80005b
:102d0400010f780044f080009e0f5200050031004e
:102d140044f08000040f780004f3800004a0a000b5
:102d240004f3880044e621009442780086ef800092
:102d34001e02780085417800060178008040eb008f
:102d440050462100eb08070084ef80001e02420079
:102d540084ef88004500370055f2800084ef80003e
:102d64000482520034179800be12900074f280005e
:102d74008482420044f28000048f5200b4ef800049
:102d84009e0f520002003100b5ef8000050f78005d
:102d940044f080009e0f52000500310047f080008f
:102da400070f780004f3800004a0a00004f3880057
:102db4003e1290009e0f5200020036009e007800e2
:102dc400311798003e12900045e6210095427800a4
:102dd40086ef800085417800060178008040eb0092
:102de40050462100c30807003e1290001e02120044
:102df400341798003e129000e00f52000e0032008b
:102e04003e12900045e621009542780047f280008a
:102e140050f2800086ef80000600500056462100e4
:102e24000603400085417800070178008040eb00ec
:102e340006007800af08070084ef80001e024200fd
:102e440084ef880085ef800054f28000848f520064
:102e54000600390085ef800046f2800054f28000bd
:102e6400040253000482420084ef880005f38000ca
:102e74000480200004826200e00f52000900320046
:102e8400b4ef80009e0f52000600320044f0800030
:102e94009e0f5200030032000e6a90000404a0004a
:102ea400046f98001e027800e00f520005003a00fb
:102eb4000e6a90000482fb0063026200e00f52007d
:102ec40022003200b4ef80001e025200b4ef8800ea
:102ed4001e027800e00f5200030032000e6a9000d8
:102ee4000434a000046f98001e6a90000482fb0062
:102ef4006102620004427800e04f52000700320091
:102f0400a5e021000042eb00844a7800d41223009b
:102f14001500200024ef880035ef88005d3e07008f
:102f24000003be0024ef800035ef8000060242005b
:102f340087824a00b4f28800c5f2880004f3800056
:102f44000440a00004f38800390037001e6a900092
:102f54000482fb0062026200e00f5200140032009f
:102f640004f38000674262000442e80067426200a2
:102f74000482fb006702620006f3800085ff2f00d5
:102f8400850263000502720004f3880044ef8000a8
:102f940055ef800061025200e0825a0044ef88003d
:102fa40055ef880014002000040f7800200037003b
:102fb40004f3800070026200e00f52001c00320033
:102fc4001e6a90000482fb0061026200e00f52005e
:102fd4000f003a00a4e0210014427800e04f5200b0
:102fe4000b003200a4e02100144278000442e900fe
:102ff400a5e02100844a780024ef800035ef8000aa
:103004008502d1000482d30024ef880035ef8800c4
:10301400203e07000003be0024ef800035ef80004f
:103024000602420087824a00b4f28800c5f2880092
:10303400a4ef80002407980094ef800034079800e0
:1030440044ef800055ef800044079800550798002e
:1030540064ef800075ef800064079800750798009e
:103064000e0a900004e0a10004f0a100040f9800ef
:103074000e0a90000400a1000410a1000420a10085
:103084000430a100040f98000e6a900014579800b1
:103094000002eb00340f980046ef800057ef8000e9
:1030a4001e027800050020000602420087824a00c2
:1030b40044ef880055ef88000e6a90000482fb00fc
:1030c40062026200e00f52001c0032000e6a90009f
:1030d4000482fb0070026200e00f520003003a0019
:1030e4006022b800640798007507980034f08000e7
:1030f40062026200e00f5200070032004e029000ac
:10310400de02900061025200e0825a0044079800f7
:10311400550798000900370044ef800055ef800000
:1031240061024200e0824a0044ef880055ef8800c3
:1031340034f080000410a00034f088000e6a90007f
:103144000482fb006102620004427800e04f5200f6
:103154000300320034f080000400a00034f0880042
:1031640095f28000a4f28000848f52000900390097
:1031740065f2800054f2800084825200a6f280003e
:1031840094f280000402530004824200140f980059
:1031940005003700a5f2800094f2800004825200fa
:1031a4000402e900140f9800f61c070000027800de
:1031b400140798009e029000f4032000848f5200ac
:1031c40003003e000002eb001407980003003700e0
:1031d4001e0290000404b100140798009e0a900097
:1031e4001e029000848f5200020036001e029000de
:1031f400140f980064024700040078009c01070043
:103204009e027800748f42000e0a90000440a000d1
:103214000450a1000460a0000470a100040f9800f1
:103224000e6a90000482fb0062026200e00f52000a
:10323400150032009e037800648f430024c0b3005d
:10324400045f980044c0b300145f980024802100f8
:10325400540f98000e0a90004422de006f42620070
:103264000442e8006f4262000482fb006f026200c5
:103274004422dd000e0b9000f5f02f008502630060
:1032840005027200040f980006942100964078000d
:103294000183fb0017942100174278008483fb000c
:1032a400c83bdd0007037300060278002694210062
:1032b400964378000783fb003794210097407800f9
:1032c4008183fb00c83bdd0007037300860278009e
:1032d400640f9800750f9800d4ef8000e5ef80002c
:1032e40004179800151798000042eb0044679800f3
:1032f40064c0b300546798009e02780035179800a4
:103304003e12900004007800232e0700000278008b
:10331400341798007c024700c100200004007800a4
:103324005b2e0700000278000482ea00240f980054
:10333400d0432100241e07001e01780061c0b300a1
:10334400a0df2100de3b07006402470041012000aa
:1033540004007800932007000e6a90000482fb00aa
:1033640062026200e00f520004003200780247005b
:1033740041002000040078008a2007001045210045
:103384002c1e07001e007800781e0700000278003b
:1033940014079800104621000b1e07000e82e80057
:1033a40021002000040078007e2007004c1d070047
:1033b4000080fa00000006000a00fa0030079800b6
:1033c400410798003e02900014029000e00f520062
:1033d40002003a000002eb0022013700e4cfb30000
:1033e40014479800ce029000254290000483fb000d
:1033f400354290000482fb004822dd0086007800fc
:103404008480700001027800840278004e029000eb
:10341400144178000283fb00144290000482fb00f4
:103424004822dd0086037800848373000702780055
:10343400848242003e02900014027800848242009a
:103444003e0290001402900004826a00240798004f
:103454000042eb00044f78003f0037001e40780024
:10346400abf50700f4f28000ed0f52003400320097
:10347400f4f28000e40f520008003a0015f38000d3
:103484003e02900014029000848f52002e003a00f5
:103494009e407800114798002e00370015f38000f5
:1034a4002e029000848f520029003a00c2f50700d2
:1034b4003e02900094029000a4ef8000848f52009a
:1034c40024003a003e0290009402780094ef8000b9
:1034d400848f52001f003a004e039000164178007a
:1034e4000280fb00964390008783fb00c83bdd000d
:1034f4000002780007027200840378000702780053
:10350400a64390008783fb00364390000683fb00ac
:103514004833dd008700780086807000010378005e
:1035240086027800d6ef8000e7ef8000860f520015
:10353400878f5a0007003a0014002000c9003700a2
:103544000000000003003700000000000100370005
:10355400000000001e4fe8001e427800e04f5200b9
:10356400beff32001e429000e24f420016003200bd
:103574001e40900066f507008ff507001e4290007c
:10358400e24f4200100032002e01900012f3880036
:10359400a2002000ce009000a0df21008bf40700e1
:1035a4003e0290001402780094ef88003e029000de
:1035b40014029000a4ef880044f2800084ef880095
:1035c40014002000a70037003e029000e40290009f
:1035d4000420200004826200e00f520002003a003e
:1035e4000002eb009f00370024f28000e00f52003d
:1035f400020032000002eb009a0037000002eb00e8
:10360400140798004e0037001e0290007422b9007f
:1036140004027800f0024200c4e021000482420067
:1036240014027800e00f5200490032001e0290009c
:103634007422b90004027800f0024200c4e02100c0
:1036440004824200940278003e029000140290002a
:10365400848f520032003a001e0290007422b90096
:1036640004027800ea024200c4e02100048242001d
:10367400940278003e02900014027800848f520075
:1036840029003a001e0290007422b90084027800d6
:10369400c4e02100048242001403be004e009000e6
:1036a400104278000481fb00904090008180fb0070
:1036b400c808dd00820278008182720085007800eb
:1036c40001027800a04090008180fb00304090000f
:1036d4000080fb004800dd0001017800000171005a
:1036e4000200780080027800840f5300858f5b000d
:1036f4000f003a00803c07000002be00040378007b
:103704001e0290007422b90084027800e4e12100d2
:1037140004824200060a78000002eb0051003700e0
:103724000000000003003700000000000100370023
:10373400000000001e0290000402e8001407980034
:103744001e029000e20f5200afff36000100370066
:10375400000000000042eb00044f78003d003700f9
:103764001e407800eaf4070004f380006802620057
:10377400e00f5200330032000ff50700a5ef800080
:103784003e02900014029000848f52002f003a00f1
:103794001e0290007422b90084027800c4e0210063
:1037a40004824200a2002000ce00900004007800b1
:1037b40006f407003e029000140378001e029000f5
:1037c4007422b9008402780064e12100048242007a
:1037d400060a78003e029000b40290002402900091
:1037e4001e0390007433b9008603780086e121003b
:1037f40006834300048bbe003e0290001403900035
:103804001e0290007422b90084027800c4e12100f1
:1038140004824200060a7800373c07000002be001a
:10382400040378001e0290007422b9008402780018
:10383400e4e1210004824200060a78000002eb0061
:1038440008003700000000000100370000000000fd
:103854001e4fe8001e427800e04f5200c0ff3200c5
:103864000002eb00040078000080fa00000006006b
:103874000200fa00000f78001e027800140278009b
:1038840004007800c42c0700000278009e0278002f
:10389400840a78001e027800140290000400780064
:1038a400bd2c0700000278009e0278009402980064
:1038b4001e027800b4029000240290000400be00ae
:1038c400c32c07000002be001e03780024039800e6
:1038d400350398001e027800d40290004402900040
:1038e4000400be00ba2c07000002be001e037800cc
:1038f40044039800550398001e0278007402900057
:1039040004007800a42c0700000278009e027800ce
:10391400f40298001e027800040a90000400780063
:103924009d2c0700000278009e027800840a98000b
:103934001e027800140a900004007800962c0700f8
:10394400000278009e027800940a98000080fa0031
:10395400000006000000fa00881f780096f40700b3
:10396400a4ef800014f3880044f2800074f288000d
:1039740044f2800084f2880054f2800094f28800bb
:1039840054f28000a4f2880004f38000680262000c
:10399400e00f520002003200440020000100370012
:1039a400d4002000f4f2880004f380000400a10095
:1039b4000410a1000420a10004f3880004f3800093
:1039c4000440a10004f3880004f380000450a10023
:1039d40004f3880004f380000460a10004f3880069
:1039e40004f380000470a10004f3880004f3800051
:1039f4000480a10004f3880004f380000490a10073
:103a040004f3880004f3800004a0a10004f38800f8
:103a140004f3800004b0a10004f3880004f38000e0
:103a240004c0a00004f3880034f080000400a10066
:103a340034f0880034f080000410a10034f08800d1
:103a440034f080000430a10034f0880034f08000a9
:103a54000440a10034f0880044f2800084ef880020
:103a640088de2100ef29070000027800040c7800aa
:103a740088de2100eb290700000278001404980076
:103a84000082eb0024f0880014002000b4ef8800ca
:103a94004f0478000080fa00000006000400fa00d9
:103aa400881f7800c00020005f3a0700191e070035
:103ab40000427800044f78001e4278008482fb00a4
:103ac400040f20000482620042a2de000442780057
:103ad400744f52001e427800e04f520002003a0038
:103ae4008421200057003700710020000000eb0003
:103af400211e070040003700061e07000042780020
:103b0400144798001e429000e04f520043003200d8
:103b14001e429000e14f5200360032001e429000d7
:103b2400e24f520020003a001e427800e24f520059
:103b34003c0036000002eb0014079800f51d070056
:103b440000427800144798001e429000e44f52004f
:103b540009003a000e82e8000404e800ed1d0700a5
:103b640000427800044c78000e84e800e91d070048
:103b740000427800044c78009e02900074212000da
:103b8400848f5200290036009e029000445b20007e
:103b9400848f520002003600445b20002900370065
:103ba4001e029000270037001e427800e14f5200a9
:103bb40020003600d71d0700004278001447980003
:103bc4001e4290009e42780084cf52001b003900b0
:103bd4001e4290000482fb00840078000000eb0089
:103be400e51d07009e4278001e42900004cf52005b
:103bf40001003700000000009e4278000582fb00af
:103c04000402ea004f22de00044278001e4fe9005d
:103c1400e04f5200b8ff3a000900370000000000ee
:103c24000700370000000000050037000000000016
:103c3400030037000000000001003700000000000e
:103c440084212000040078004f0478000080fa00ea
:103c5400000006002200fa00700f98000117980077
:103c64007e0a9000d44a9000055798007e0a90007e
:103c740044039000d4039000460798005707980027
:103c84007e0a900024039000b4039000160f98005d
:103c9400270f980004f380000400a1000410a10081
:103ca4000420a10004f3880004f380007002620081
:103cb400e00f520008003a00f63a07000003be0085
:103cc40024bc2e00b50020000602420087824a0070
:103cd400b4f28800c5f28800f4f28000e40f5200c8
:103ce40003003200e50f52002c0032007900370047
:103cf4000e5290000482fb0064026200e00f520046
:103d04000200320013ff0700430437000e529000f4
:103d14000482fb0070026200e00f520009003200ce
:103d24004e029000de02900044ef880055ef8800b8
:103d34008040eb0040c0b300affb070005ff070065
:103d4400350437000e5290000482fb0062026200c8
:103d5400e00f52000f0032001e0a9000ae0a9000dd
:103d640061024200e0824a0064ef880075ef880037
:103d74004aff07000002780044f0880011c0b30035
:103d840020c1b3009cfb070064002000f4f288000b
:103d940021043700effe07001f0437000e52900085
:103da4000482fb0064026200e00f520007043a0040
:103db4000e5290000482fb0070026200e00f520079
:103dc4001700320046ef800057ef80004e0290004b
:103dd400de029000840f5300858f5b0010003200d8
:103de40046ef800057ef8000160f9800270f9800c9
:103df4004e029000de02900044ef880055ef8800e8
:103e040011c0b30040c0b3007bfb07001e0b900041
:103e1400ae0b900046ef880057ef8800fe03370092
:103e24000e5290000482fb0062026200e00f520016
:103e3400e80332001e0a9000ae0a900061024200bc
:103e4400e0824a0064ef880075ef88007e0a9000e3
:103e540074029000b4ef880010ff0700000278009d
:103e640044f088000e5290000482fb00700262004d
:103e7400e00f52001100320011c0b30000c1b300c2
:103e84005dfb070074002000f4f28800813a07000b
:103e94000003be0024bc2e00b50020000602420030
:103ea40087824a00b4f28800c5f2880004f38000d7
:103eb4000440a10004f38800d703370011c0b30005
:103ec40020c1b3004cfb070064002000f4f288001a
:103ed400d10337008e139000670798000e529000ac
:103ee4000482fb006102620004427800e04f520049
:103ef400030032006e0290000402e8006407980098
:103f04000e5290000482fb0062026200e00f520035
:103f1400030032006e0290000402e8006407980077
:103f240095f28000a4f28000848f520009003900c9
:103f340065f2800054f2800084825200a6f2800070
:103f440094f2800004025300048242003407980073
:103f540005003700a5f2800094f28000048252002c
:103f64000402e9003407980064ef800075ef8000d4
:103f74001e0b9000ae0b90000402530085825b0080
:103f8400340f9800450f98003e0a9000540f980093
:103f94000002eb00740798006e029000e00f5200dc
:103fa400350032003e029000e00f5200480032001b
:103fb4003e0a9000ce0a9000e00f5200e08f5a00b3
:103fc4000a0035003e0290006123b8003e0a9000ca
:103fd400ce0a9000840f5300858f5b0003003600e7
:103fe4001400200074079800140037006e0290003b
:103ff4006123b8003e0a9000ce0a900006024200f7
:1040040087824a00e00f5200e08f5a000b00340010
:10401400be0290006e029000048252006123b90037
:104024003e0a9000ce0a9000840f5300858f5b00f7
:104034000200350014002000740798003e0290002e
:104044006123b8003e0a9000ce0a9000840f53000a
:10405400858f5b001e003400de0a90006e02900023
:1040640004824200e00f52001900340014002000c2
:1040740074079800160037003e0a9000ce0a90009c
:10408400e00f5200e08f5a0003003a0014002000b1
:10409400740798000e0037003e0a9000ce0a900084
:1040a400e00f5200e08f5a00090035003e029000f4
:1040b4006123b8003e0a9000ce0a9000840f53009a
:1040c400858f5b00020036001400200074079800fe
:1040d4007e029000e00f520009003a000e52900058
:1040e4000482fb0064026200e00f52003b033a00ca
:1040f40011c0b30000c1b300bffa07004603370084
:104104000e5290000482fb0066026200e00f52002f
:10411400020032000ffe07003f0337000e529000ea
:104124000482fb0070026200e00f52002d03320093
:10413400f4f280006123b800a4ff2f00f5ff2f00e4
:104144000602420087824a00660020000700200021
:10415400860f5200878f5a006f013e0004600100f1
:10416400060037001e0037001d0037001c00370012
:104174001b0037001a0037005c01370046ef80004f
:1041840057ef80004e029000de029000840f53002f
:10419400858f5b001000320046ef800057ef8000ef
:1041a400160f9800270f98004e029000de02900030
:1041b40044ef880055ef880011c0b30040c0b3003d
:1041c4008dfa07001e0b9000ae0b900046ef88009e
:1041d40057ef88001003370074002000f4f28800c1
:1041e40075f2800084ef8000048252002407980056
:1041f4002e029000e00f520006003d0055f28000b0
:1042040044f2800004825200ae0290000482420014
:104214002407980046ef800057ef80002e0290009c
:1042240005002000041f430005974b004e03900037
:10423400de0390001e02be000402530085825b0070
:10424400048fbe001e02be00e00f5200e08f5a0031
:104254001400340034f0800061026200e00f520068
:10426400060032001e03be001400200005002000da
:10427400840f5300858f5b00040032008040eb0004
:1042840000c1b3005cfa0700e30237004e0290005d
:10429400de02900061025200e0825a004407980056
:1042a4005507980046ef800057ef800085ef8000a7
:1042b40084f2800004825200cfa2de00041f530067
:1042c40005975b0085ef800084f28000848f5200a4
:1042d4000600310055f2800044f28000048252004e
:1042e400050020001e1f12001e971a004e029000a7
:1042f400de0290001e1f52001e975a001e02be00ce
:10430400e00f5200e08f5a005600340055f280004e
:1043140044f280000482520005002000be0f5200c7
:10432400ae8f5a004f00390034f080000430a100f1
:1043340034f0880034f080000440a10034f0880098
:1043440004f380000480a10004f3880087f2800055
:104354002707980085f280001e027800048242003c
:1043640084f2880085ef80002e029000848f520032
:104374001100390085ef800084f28000848f5200a0
:104384002300310046ef800057ef800085f2800063
:1043940084ef8000048252000500200006024200df
:1043a40087824a0044ef880055ef880084f2800039
:1043b40084ef88001600370085ef800056f28000f5
:1043c40044f280000402530004824200240798004f
:1043d40085f280002e029000848f52000c0036007b
:1043e40046ef800057ef800085f280002e02900097
:1043f40004825200050020000602420087824a001f
:1044040044ef880055ef880084f2800084ef880030
:1044140085f2800054f28000848f52000600390037
:1044240085f2800046f2800054f2800004025300ba
:104434000482420084f2880085ef800054f28000f8
:10444400848f52003600390085ef800046f28000e8
:1044540054f28000040253000482420084ef880076
:104464002f00370085f2800084ef8000848f520093
:104474002b00320034f0800068026200e00f52002a
:104484002400320034f0800070026200e00f520019
:104494001d00320046ef800057ef800085ef80005a
:1044a40084f2800004825200cfa2de000402530092
:1044b40085825b0044ef880055ef880085ef80001b
:1044c40084f28000848f52000a00310046ef80009d
:1044d40057ef800055f2800044f2800004825200bd
:1044e400cfa2de000402530085825b0044ef880003
:1044f40055ef880084f2800084ef880004f3800084
:1045040004a0a00004f3880034f080000440a0005c
:1045140034f0880034f080000430a00034f08800c7
:1045240085f2800074f28000848f520022003a00e9
:1045340005f380000480200004826200e00f520032
:104544000c003a00d33807000003be0024bc2e0040
:10455400b50020000602420087824a00b4f28800b7
:10456400c5f2880004f380000440a10004f388002d
:104574001100370046ef800057ef80004e02900094
:10458400de029000840f5300858f5b000a003a001e
:1045940034f0800061026200e00f52000600320035
:1045a40004f380000440a10004f3880004f38000b5
:1045b40004b0a10004f388007e0a90007403900004
:1045c400ce03900044ef800055ef80000402780091
:1045d4000482530004024300640f9800b4ef800087
:1045e400e00f520006003a006e0a9000e00f5200fd
:1045f4000300320004f380000490a00004f3880058
:104604006e0a9000b4ef8800f4f28000e80f5200c4
:1046140019003a0046ef800057ef80004e029000e8
:10462400de029000840f5300858f5b003c003a004b
:1046340034f0800061026200e00f52003a00320060
:10464400943807000003be00145e2f0055002000bc
:104654000602420087824a00b4f28800c5f288004c
:1046640004f380000440a00004f3880094002000b8
:10467400f4f2880031003700f4f28000e90f5200b0
:104684000e003a000e5290000482fb0061026200a8
:10469400e00f520026003a004e039000de03900023
:1046a40046ef880057ef88008040eb0040c1b3001c
:1046b40051f90700a7fc0700d7013700f4f2800086
:1046c400ea0f52001c003a0046ef800057ef8000ca
:1046d4004e029000de029000840f5300858f5b0031
:1046e400c2013a009bfc0700cb01370044ef800075
:1046f40055ef800061034200e0834a004e029000bf
:10470400de029000840f5300858f5b00b9013a00ec
:1047140090fc0700c00137000000000007003700cc
:10472400000000000500370000000000030037000f
:104734000000000001003700000000000e5290004d
:104744008482fb000402200004826200e00f520015
:10475400aa013a00f4f28000eb0f5200a9013200e2
:10476400f4f28000ea0f5200a8013200f4f2800053
:10477400ec0f5200a70132000e129000e00f52001d
:10478400200132005e0a9000e00f52007f003c00de
:104794007e0a9000640290004422de006f426200b0
:1047a4000482fb004222dd00840278005e0a90004d
:1047b40004825200040078001b3707008e12900018
:1047c4005e0a900004824200041798008e12900042
:1047d4003e029000848f520002003600be03900017
:1047e4000717980066ef800077ef80000e129000a4
:1047f400050020000602420087824a0064ef880018
:1048040075ef880095f280000e12900084824200b9
:1048140064f28000848f52002000360065f280002c
:1048240094f28000048252000402e80024079800f5
:1048340044e621009442780096f280002e02900013
:104844008041eb000081eb00854078000600780091
:10485400280207008e1290002e029000048252005b
:1048640045e621009542780056f280008041eb0035
:104874000081eb0085407800060078001d020700e7
:1048840055f280000e1390002e0290000402530093
:104894000482420094f288000d00370044e62100af
:1048a4009442780096f280000e1290008041eb0052
:1048b4000081eb0085407800060078000d020700b7
:1048c40095f280000e1290000482420094f2880057
:1048d40024f08000e10f4200ca00320024f080007e
:1048e400840278000e1290000482520024f08800a2
:1048f400c5ef800024f08000048242002407980061
:104904002e029000e00f520003003d000082eb00f5
:1049140024f08800bb00370024f08000e00f520030
:10492400b8003c0066ef800077ef80002e02900014
:10493400050020000602420087824a0064ef8800d6
:1049440075ef880095f280002e02900004824200e8
:1049540094f2880095f2800064f28000848f520003
:104964000700360095f2800066f2800054f2800061
:10497400040253000482ea000482420094f2880094
:104984000082eb0024f088009e0037005e0a90004d
:10499400e00f52009b0034008e1290005e0a9000db
:1049a400848242003e029000848f5200040036004c
:1049b400be0290005e0a9000048252000417980020
:1049c4007e0a9000640290004422de006f4262007e
:1049d4000482fb004222dd000400780092360700c6
:1049e40095f280005e0a9000848242000e129000cc
:1049f4008482420064f28000848f520033003600c7
:104a040065f2800094f28000848252005e0a900075
:104a14000402ea00048242000402e8002407980029
:104a24002e029000e00f52001700350044e62100ea
:104a34009442780096f280005e0a900004034300da
:104a44002e0290008041eb000081eb00854078004d
:104a540006007800a70107008e1290002e02900035
:104a64000482520045e621009542780056f2800007
:104a74008041eb000081eb0085407800060078005f
:104a84009c0107001c00370044e621009442780092
:104a940096f280005e0a90000403430067f28000ef
:104aa40054f28000048253000482ea0004034300a9
:104ab4000e1290008041eb000081eb0085407800ed
:104ac400060078008b0107000b00370044e6210044
:104ad4009442780096f280005e0a9000040343003a
:104ae4000e1290008041eb000081eb0085407800bd
:104af400060078007f01070024f08000e10f4200e7
:104b040005003a005e0a900024f088000e1290001e
:104b1400c4ef88003b00370024f080008402780052
:104b24005e0a9000848f52001c003600de0a90005a
:104b34000e1290008482420024f080000403780066
:104b4400c4ef800004024300848f520006003e003c
:104b5400de0a90000e1290008482420024f080004d
:104b6400848f5200030031008e129000c5ef88003c
:104b74000700370024f0800084027800c4ef80002e
:104b8400848242005e0a900004825200c4ef8800ce
:104b94005e0a900024f088001a003700de0a9000b4
:104ba4000e1290008482420024f0800004037800f6
:104bb400c4ef800004024300848f520011003600c9
:104bc40024f0800084027800c4ef800084824200d4
:104bd4005e0a9000848f52000a003900c5ef8000fd
:104be4005e0b90000e1290000403430024f080003a
:104bf40004035300c4ef8000040253000482420003
:104c0400c4ef88006e029000e00f52001f003200d3
:104c1400f4f28000e70f52000200320094f28000a8
:104c2400a4f2880005f380000408200004826200d6
:104c3400e00f52000500320011c0b30000c1b30000
:104c4400edf70700dcef07001000370004f38000e5
:104c54000470a00004f3880005f38000040420001d
:104c640004826200e00f520008003a0004f380005e
:104c74000460a00004f388001f3707000002be0090
:104c8400040278007e024200e4f288000e52900092
:104c94000482fb006102620004427800e04f52008b
:104ca4005d00320064ef800075ef80006103420014
:104cb400e0834a006e0290006120b8001e0a900052
:104cc400ae0a90000002420081824a00840f530021
:104cd400858f5b0050003a0064ef800075ef800020
:104ce40061024200e0824a0064ef880075ef8800a8
:104cf400f4f280006123b800a4ff2f00f5ff2f0019
:104d04000602420087824a00360020000700200085
:104d1400860f5200878f5a0027003e00046001006e
:104d240003003700080037000f0037001d0037006c
:104d3400c4002000f4f2880011c0b30010c1b30015
:104d4400adf7070034003700b4002000f4f2880007
:104d5400e93607000002be0004027800d403b00064
:104d6400e4f288001500370046ef800057ef80001a
:104d74004e029000de029000840f5300858f5b008a
:104d840005003a008040eb0000c1b3009af7070029
:104d9400f0fa070020003700a4002000f4f2880095
:104da400060037008040eb0000c1b30092f7070013
:104db400e8fa0700180037000000000011c0b30033
:104dc40000c1b3008cf70700130037000000000097
:104dd40011003700000000000f0037000000000041
:104de4000d003700000000000b0037000000000039
:104df4000900370000000000070037000000000031
:104e04000500370000000000030037000000000028
:104e140001003700000000000080fa0000000600d6
:104e24000e00fa0060479800410798005207980066
:104e3400434f98006e429000e04f5200020032004f
:104e44000002eb00a80037006e40900030ef07002e
:104e54004e029000e00f520002003a0014002000bd
:104e64004407980065f2800044f2800004825200f6
:104e74000402e90024079800ce0290005e0290002c
:104e8400848242002e029000848f52000200360079
:104e94000002eb009400370047ef07004e4a9000f1
:104ea4000482fb0063026200e00f520003003a0038
:104eb4004e4a90003440b300444f98005e02900084
:104ec40014079800ce0290005e0290000482420013
:104ed400ae02900004825200240798004e4a9000cb
:104ee4000482fb0062026200e00f520010003200f4
:104ef4004e4a90000482fb00610262000442780082
:104f0400e04f5200060032002e0290000402d1004d
:104f14009e029000048242001407980004003700a7
:104f24009e0290002e029000048242001407980012
:104f340045f280001e029000048242000402e80050
:104f44002407980094f28000040f780024f0800075
:104f5400e10f42000d00320024f08000840278004a
:104f6400c4ef8000048242001e0f420064f28000fd
:104f74009e0f52000500310065f2800054f280005b
:104f8400048252000482ea001e0f4200a4f2800050
:104f94009e0f520010003100a5f280002e029000f6
:104fa400848f5200230031004e4a90000482fb009b
:104fb40064026200e00f5200020032000002eb00c3
:104fc400490037002e029000a4f288002e029000bf
:104fd40094f2880017003700a4f280009e0f52005c
:104fe4001000360055f280002e029000848f52008b
:104ff400100031004e4a90000482fb0064026200fb
:10500400e00f5200020032000002eb0036003700cd
:105014002e029000a4f288002e02900094f28800e0
:10502400040037002e029000a4f288002e029000a3
:1050340094f28800a4f280009e0f52001b003600f8
:105044004e4a90000482fb0064026200e00f5200aa
:105054001600320054f280001e02120045e62100c0
:105064001543780057f2800045e621009542780008
:105074008641780007017800854078002e00900072
:105084001c00070095f28000a4f28000848f520077
:105094000600310095f2800054f280002e03900047
:1050a400040253000482420094f288002e0290000d
:1050b40054f2880044f2800084ef880044f28000b7
:1050c40084f2880044f2800074f28800f4f28000d4
:1050d400e70f520003003a0011c0b30000c1b3004f
:1050e400c5f6070014002000040078000080fa00d0
:1050f400000006000a00fa00000f7800214798001b
:105104002207980063479800440798006e42900075
:105114000482fb00e00f52001a003200e10f52003b
:1051240037003a002e4290000482fb00e00f520048
:1051340009003200e10f52002e003a00ae02900046
:105144001e0278004e01900085007800040078006b
:105154009eed07000a0037001e027800e10f4200ae
:10516400020032001e007800971607002e029000fd
:10517400ce009000040078000a1907000000000027
:105184001f0037002e4290000482fb00e00f520003
:105194000c003200e10f520018003a002e02900079
:1051a400e10f4200020032002e009000a116070019
:1051b4001e027800ce009000040078006e180700ec
:1051c4000a0037004e019000ae0090001e007800e7
:1051d4004117070000000000421807000002780091
:1051e400e00f5200fcff320000000000000000004d
:1051f4000300370000000000010037000000000039
:105204000080fa00000006000200fa00000f780097
:105214000080fa00000006000000fa0084438000c9
:105224000402e80084438800048220008002eb002a
:10523400050a780004822000150020001502980059
:10524400048220002500200025029800048220000a
:1052540035002000350298008443800044a588006e
:105264009443800074a788008f60a9008760a90018
:105274000405800004c0a10004d0a10004e0a00043
:10528400040588000002eb00b41c88009803a80001
:105294009823a8009843a80098a3a800c0872000da
:1052a400783607004092200076360700c09c200024
:1052b4007436070004402000841c880000000000ad
:1052c400851c8000040e20008482620004082000f3
:1052d400848f5200faff3a0034002000941c8800a6
:1052e400a4392000a41c880014802100841988009b
:1052f40054802100c41988000002eb0004188800bf
:105304000480210044188800440021008418880087
:10531400c47f2100c4188800c47f210004198800b8
:10532400c47f21004419880014002000741b8800e5
:1053340024002000f41a880034002000741a880025
:10534400040c2000241b8800040c2000a41a8800ec
:10535400040c2000241a88000002eb00741c88004e
:105364000002eb00f41b88000002eb00841c8800a0
:1053740000000000851c8000040e200004826200ee
:10538400e00f5200fbff3a000002eb0004a8880083
:105394008f60a80054fb250084088800147a20003c
:1053a400640888000002eb003408880084c0a90067
:1053b4008cc0a90011e1a800d4fb25009408880042
:1053c400b4c424007408880084e0a9008ce0a90017
:1053d40013e1a8000002eb0084a78800b4e92800c8
:1053e40094a788000002eb00a4a7880014042000fe
:1053f400b4a7880044062000c4a788000080fa00ef
:10540400000006000000fa00d51c800004f02f0004
:105414008482620086a6800004f02f0004026300e8
:10542400848f52000a00360085a68000f40f200005
:105434000482620084a6880085a68000d61c8000b1
:1054440004f02f00040263000482420084a6880052
:10545400d51c8000f40f20008482620086a68000a0
:10546400f40f200004026300848f52000a00360007
:1054740085a6800004f02f000482620084a68800c0
:1054840085a68000d61c8000f40f2000040263006f
:105494000482420084a6880054342c0064a5880049
:1054a40034122f0074a58800043a800004a58800f3
:1054b400260007004c000700870207008907070041
:1054c4000482200094027800040028000482620010
:1054d400e00f520001003200e308070074a78000c7
:1054e40024a5880025a5800044a7800004824200ea
:1054f40024a5880025a5800054a7800004824200ca
:1055040024a5880025a5800064a7800004824200a9
:1055140024a5880025a5800024a7800004824200d9
:1055240024a5880025a5800014a7800004824200d9
:1055340024a5880025a5800004a7800004824200d9
:1055440024a588000080fa00000006000a00fa0082
:10555400180037008e007800c087200090350700bf
:105564009e02780044f821008482620044402100b5
:10557400848f520003003a000e0078006701070090
:105584000c0037009e02780044f8210084826200f7
:1055940044502100848f520003003a000e0078002a
:1055a400830107000300370004a780000402e80019
:1055b40004a78800c08720002b350700000278006c
:1055c400e00f5200e3ff3a005449800044a78800ea
:1055d4001444800054a78800944e800064a7880077
:1055e4000080fa00000006000000fa00a5a4800074
:1055f4000410200004826200e00f520006003a000a
:10560400048220001402780068026200e00f520055
:105614000100320055000700250480000404200026
:1056240004826200e00f52004e00320084c0a900e0
:10563400a5a480000420200004826200e00f520030
:1056440002003a0049000700460037004441800048
:105654000402e8004441880044418000670262007b
:105664004441880044418000050020007600200069
:1056740007002000860f5200878f5a0039003e0031
:1056840004600100070037000800370009003700f4
:105694000a0037000b0037000c0037000d003700fc
:1056a4000e003700310007002e00370052000700bb
:1056b4002c0037002d0007002a003700780007006f
:1056c400280037002900070026003700890007005a
:1056d40024003700250007002200370054418000d1
:1056e4000402e8005441880054418000e50f520050
:1056f400020036000002eb0054418800544180004f
:10570400e00f520001003a008f000700544180006e
:10571400e10f520001003a004c00070054418000a0
:10572400e20f520001003a009c000700544180003f
:10573400e30f520001003a00b0000700544180001a
:10574400e40f520001003a00c400070054418000f5
:10575400e50f520002003a00d800070001003700ac
:10576400000000000080fa00000006000a00fa00b1
:1057740004002400040f780004822000140278003e
:105784001407980004822000140290002407980053
:105794000482200024029000340798000482200030
:1057a4003402900044079800e13520000e00780090
:1057b4002a350700a4a680000402e800a4a68800f5
:1057c40004822000140278004322de006142620059
:1057d4000482fb00610262004822dd00a6a480006e
:1057e400f5ef2f008502630005027200a4a488006f
:1057f4000080fa00000006000a00fa00040a2a00e9
:10580400040f78000420240044079800147d8000cd
:1058140034079800047d8000240798000002eb0000
:10582400140798008e00780040922000c4340700ca
:10583400741b800068026200e00f520001003a000d
:105844008760a8000080fa00000006000a00fa0041
:10585400840a2a00040f78000420250044079800d5
:105864005488800034079800d48780002407980067
:10587400c4878000140798008e00780040922000ae
:10588400af340700741b800068026200e00f52000e
:1058940001003a008760a8000080fa0000000600ba
:1058a4000a00fa00840b2a00040f78000420270061
:1058b400440798000002eb0034079800249380000a
:1058c4002407980084928000140798008e007800c2
:1058d400409220009a340700741b80006802620022
:1058e400e00f520001003a008760a8000080fa002f
:1058f400000006000a00fa00040c2a00040f7800d5
:1059040004202800440798000002eb0034079800a4
:10591400e497800024079800f49780001407980007
:105924008e0078004092200085340700741b8000ac
:1059340068026200e00f520001003a008760a8008c
:105944000080fa00000006000a00fa00040c2a0095
:10595400040f780014202800440798000002eb008c
:105964003407980014988000240798000498800055
:10597400140798008e0078004092200070340700cd
:10598400741b800068026200e00f520001003a00bc
:105994008760a8000080fa00000006000a00fa00f0
:1059a40084092a00040f7800042023004407980087
:1059b400444521001402780034079800644521000e
:1059c400140278002407980084452100140278000a
:1059d400140798008e007800409220005834070085
:1059e400741b800068026200e00f520001003a005c
:1059f4008760a8000080fa00000006000a00fa0090
:105a040084092a00040f7800142023004407980016
:105a1400a44521001402780034079800c4452100ed
:105a24001402780024079800e44521001402780049
:105a3400140798008e00780040922000403407003c
:105a4400741b800068026200e00f520001003a00fb
:105a54008760a8000080fa00000006000a00fa002f
:105a640084092a00040f78002420230044079800a6
:105a740004462100140278003407980024462100cb
:105a84001402780024079800444621001402780088
:105a9400140798008e0078004092200028340700f4
:105aa400741b800068026200e00f520001003a009b
:105ab4008760a8000080fa00000006000a00fa00cf
