:020000040000fa
:080000000001040000000000f3
:020000040000fa
:10000800164500001645000016450000164500007c
:10001800164500001645000016450000164500006c
:1000280016450000164500001645000058840000db
:10003800164500001645000016450000164500004c
:10004800164500001645000016450000164500003c
:10005800164500001645000016450000164500002c
:10006800164500001645000016450000164500001c
:10007800164500001645000016450000164500000c
:10008800164500001645000016450000ca3300005a
:1000980016450000164500001645000016450000ec
:1000a80016450000164500001645000016450000dc
:1000b80016450000164500001645000016450000cc
:1000c80016450000164500001645000016450000bc
:1000d80016450000164500001645000016450000ac
:1000e800164500001645000016450000164500009c
:0800f80016450000164500004a
:020000040000fa
:10010800164500001645000016450000164500007b
:10011800164500001645000016450000164500006b
:1001280016450000164500001645000058840000da
:10013800164500001645000016450000164500004b
:10014800164500001645000016450000164500003b
:10015800164500001645000016450000164500002b
:10016800164500001645000016450000164500001b
:10017800164500001645000016450000164500000b
:10018800164500001645000016450000ca33000059
:1001980016450000164500001645000016450000eb
:1001a80016450000164500001645000016450000db
:1001b80016450000164500001645000016450000cb
:1001c80016450000164500001645000016450000bb
:1001d80016450000164500001645000016450000ab
:1001e800164500001645000016450000164500009b
:0801f800164500001645000049
:020000040000fa
:100200000fb021000e7f22000e01880000000000c8
:10021000000020000000e000020032000001200089
:10022000200288000c0007006069280001002000ff
:1002300011000700000020000000e0000200320072
:100240000000020000000000cc36020000000000a8
:100250000040da000000fe004440a90060152000c4
:100260000000e0000300320000002000a001880030
:100270004440a8000000060091018800800078003a
:100280000000eb0015003700e280400032a0b4000f
:100290009101ba00e280400032a0b4009102ba009d
:1002a000e280400032a0b4000002eb00472bde00e9
:1002b000f507b200602ce10004003a000059eb00a1
:1002c0008301e900fdff3e00040037006128e100e2
:1002d000010032000082eb00040007001101ba00a7
:1002e0000200e000e8ff3a00000006003159ba00c1
:1002f0008301e9000c0032002159ba008301e900b2
:10030000080032000400e00003003a00e2804000f0
:1003100032a0b400f5ff370011d9ba008301e9001b
:10032000faff3a008100e800e180400032a0b4000a
:10033000000006006022b800060220000000d00085
:100340008180d2000482d2008582d2000000a00009
:100350000202520083825a0003003100020242006e
:1003600083824a000000a1000603e900f3ff3a007f
:1003700000000600889fbe008a9fbe003004be00b9
:100380002005be000404440085844c0006054d0091
:1003900087854d000898be000a90be000440e10029
:1003a00005c8e10006d0e10007d8e10002003100f5
:1003b000680040001008e8004f05be004f04be0072
:1003c000000006001000fa00889fbe008a9fbe0051
:1003d000110020000605be000404be003002be006d
:1003e0002003be00c4b79f00d5b79f00e6b79f00ab
:1003f000f7b79f000802520089825a000a035b0087
:100400008b835b0084bf9f0095bf9f00a6bf9f00aa
:10041000b7bf9f000498be000698be004fb2970079
:10042000dfb297006fb39700ffb397000820e10099
:1004300009a8e1000ab0e1000bb8e10001003900b1
:100440008000eb004f05be00108810004f04be0076
:100450000080fa00000006001400fa00889fbe0029
:100460008a9fbe008c9fbe000006eb003e00070086
:10047000ccb79f00bcb79f00acb79f009cb79f0054
:100480008cb79f000605be000404be000d042000ca
:100490004fb39700bfb29700860343002fb2970077
:1004a000e00f530004003d003d0007000f00400036
:1004b000b0ff070003003700390007000f004000bd
:1004c000c0ff0700cfb2970095bf9f00e08f52009a
:1004d000090035002b000700140020000500200053
:1004e0006033b80000007200818072000201730066
:1004f000838173001c0007000c06e8008d0f560076
:10050000e3ff3a001fba9700e00f520005003d00dc
:100510000802be000a03be0000fe2f000f004000cc
:1005200094ff07004faa9700e00f520008003a001e
:100530000fb497009fb497002fb59700bfb59700f1
:10054000d8b79f00e9b79f00fab79f008bbf9f0005
:100550000c0007004f06be004f05be004f04be0052
:100560000080fa00000006000100070000000600fd
:1005700090b79f00a1b79f00b2b79f00c3b79f007d
:100580000000060001000700000006001fb09700f1
:10059000afb097003fb19700cfb1970000000600c1
:1005a0004f2bde00f9ff070086837300858242002f
:1005b0004f23de00a7b79f0086827200040242002c
:1005c00095b79f00ffaa97004f2bde00858242005f
:1005d0000602720084b79f006faa97004f23de00c7
:1005e0000402420086827200f5af9f004f18de00c1
:1005f00000027200e5ff0700e4af9f00000040002a
:100600008180480002014900838149000802be0040
:100610000a03be00d6ff070000fe2f000000060000
:10062000881f780018002000881f78008aff0700c4
:100630008f87e9004f04780000000600801feb0060
:1006400085ff07008f87e90000000600889fbe0035
:100650008a9fbe00e00f5000e08f5800e00f590065
:10066000e08f59000c003d006044b8006055b800b0
:100670000000540081805c0002015d0083815d0008
:10068000180020001500070008003d0018000700b2
:100690000004eb00050037000004eb000f0007002a
:1006a00002003d001200070018002000dcff0700d8
:1006b000e00f5400060032006022b8006033b8003a
:1006c0000000520081805a0002015b0083815b00c0
:1006d0004f05be004f04be0000000600e00f5200b0
:1006e000e08f5a00e00f5b00e08f5b000000060027
:1006f0006044b8006055b8000402540085825c0074
:1007000006035d0087835d0000000600889fbe0031
:100710008a9fbe008c1f7800e00f5000e08f5800c9
:10072000e00f5900e08f59000d003d006044b80013
:100730006055b8001c0020000000540081805c005f
:1007400002015d0083815d000820e10009a8e1004d
:100750000ab0e1000bb8e1000d003d0008003700d1
:100760000006eb00e00f5200e08f5a00e00f5b0044
:10077000e08f5b0006003d006044b8006055b800a3
:100780000402540085825c0006035d0087835d00df
:10079000aaff0700e00f5600060032006022b800f2
:1007a0006033b8000000520081805a0002015b00f3
:1007b00083815b004f0678004f05be004f04be00ea
:1007c000000006000002780002003700315a78006d
:1007d0000201e900e00f5100fcff3a0000000600b2
:1007e0000002780002003700015a78000201e90097
:1007f000e00f5100fcff3a00000006000002780004
:100800008042eb00b4cf1200fdff3a000080ea0006
:1008100000004200000006000002780006003700d9
:10082000314378000201e900065a7800840278001a
:10083000e04f53000600320084027800e00f5100c0
:10084000f7ff3a0002003700805aeb000201e9008e
:0c085000e00f5100fcff3a000000060021
:020000040000fa
:10085c00ff0f0000ff0f0000ff0f0000ff0f000054
:10086c00ff0f0000ff0f0000ff0f0000ff0f000044
:10087c00ff0f0000ff0f0000ff0f0000ff0f000034
:10088c00ff0f0000ff0f0000ff0f0000850f00009e
:10089c000a0f00008f0e0000140e0000700d0000f7
:1008ac00f50c00007a0c0000ff0b0000850b00001b
:1008bc00000000000000000000000000000000002c
:1008cc00000000000000000000000000000000001c
:1008dc00000000000000000000000000000000000c
:1008ec0000000000000000000000000000000000fc
:1008fc0000000000000000000000000000000000ec
:10090c0000000000000000000000000000000000db
:10091c0000000000000000000000000000000000cb
:10092c0000000000000000000000000000000000bb
:10093c0000000000000000000000000000000000ab
:10094c00000000000000000000000000000000009b
:10095c0028230000803e0000803e0000803e000006
:10096c00803e0000004b0000004b0000004b0000dc
:10097c00004b000000000000000000000000000020
:10098c00000000000000000000000000000000005b
:10099c00983a0000983a0000983a0000983a000003
:1009ac00983a0000983a0000983a0000983a0000f3
:1009bc00000000000000000000000000000000002b
:1009cc00000000000000000000000000000000001b
:1009dc009c1800000807000008070000204e0000cb
:1009ec000807000008070000204e00000807000060
:1009fc0008070000204e0000080700000807000050
:100a0c00204e00000000000000000000000000006c
:100a1c00060500000403000002010000161500008a
:100a2c0014130000121100002625000024230000de
:100a3c002221000036350000343300003231000032
:100a4c00000000000000000000000000000000009a
:100a5c00000000000080000000000000008000008a
:100a6c00000000000080000000000000008000007a
:100a7c00000000000080000000000000008000006a
:100a8c00000000000080000000000000008000005a
:100a9c00000000000000000000000000000000004a
:100aac00000000000000000000000000000000003a
:100abc00000000000000000000000000000000002a
:100acc00000000000000000000000000000000001a
:100adc0000500000c2b4000020000000455400008b
:100aec004d4200004f410000524400000000000045
:0c0afc000c000000ff000000640000007f
:020000040000fa
:100b08000200fa00004f7800c4af210014427800b8
:100b18009e4f52001f003200c4af210014427800db
:100b2800e24f42000b003200c4af210014427800ab
:100b38000482fb007e22b900840278000497210019
:100b480004824200e2012000219f21000400780075
:100b58001aff07001e407800fcfab7001e42780012
:100b6800e24f42000d0032009e4278000582fb00f1
:100b78007e22b90084027800049721000482420092
:100b8800e201200084007800209f21000bff07006d
:100b980003003700000000000100370000000000db
:100ba8000080fa00000006000000fa00d5af21001e
:100bb80095427800c4af21001442780084cf5200d7
:100bc8002f003200d4af210014427800e24f4200d7
:100bd8001a003200e7982100d4af210014427800af
:100be8000482fb007e22b90004027800fc02420065
:100bf800049721000482420014437800d4af2100f6
:100c0800144278000482fb007e22b9008402780036
:100c180004972100048242001402780085fd2f0009
:100c2800848242008402200013c0b30007017800c8
:100c38008640780005007800c8100700c4af21007e
:100c48001442780004007800fdfab700e5a02100fe
:100c58009542780094cf800087fd2f00848343005d
:100c6800e698210084022000854178000701780079
:100c780011c0b30006007800b81007000100370063
:100c8800000000000080fa00000006000c00fa00d6
:100c9800b4d2210014079800d4d78000e00f520086
:100ca80008003a00762c07000002be008402780093
:100cb800f47f200084826200044020000482420005
:100cc800d4d78800c20320008000eb00609b21007d
:100cd800c1fe07000042eb00444798000042eb00c9
:100ce800044f78004e0037001e40780084ff07004c
:100cf8001e4078000082fb006622b900840278005a
:100d0800e457280004824200944290005547980016
:100d18001e4078000082fb006622b90004027800b9
:100d28008482e800e4572800048242009402780094
:100d3800350798001e4078000082fb006622b90043
:100d480004027800e4024200e457280004824200ca
:100d580094027800450798005e4290000482fb00e8
:100d6800e00f5200010032002c0037001e009000f6
:100d780050079800be0290004e0290008482420004
:100d88001e02900004824200a402b00014079800da
:100d98009e029000c4ff2100848f5200fcff3e0099
:100da8005e4090000efab7005e0290008402b00028
:100db80094cf880095cf80003e02900004824200c4
:100dc8000402e800a4cf8800a5cf80004e0290005e
:100dd80004824200b4cf8800d400200044d08800a8
:100de8000a7aa90070ff07009e4278000582fb007e
:100df8006622b90084027800e45728000482420081
:100e0800144278000002fd00b5f9b7000002fd00a9
:100e1800a40a07001e4fe80001003700ffff370053
:100e28001e427800e04f5200afff32000080fa0007
:100e3800000006000c00fa0010079800210798002f
:100e48006247980043079800244f98000042eb003f
:100e5800044f78007e0037001e40780028ff070006
:100e680044d08000ed0f520075003a004eff070095
:100e7800559b2100954278002e4a900084cf52005d
:100e880071003a008421200094cd88006e429000c1
:100e9800e04f520008003a004e029000f4cc88005f
:100ea8000a7aa8004400200044d08800ce029000ae
:100eb80065d0880060003700d5d78000f43f200057
:100ec800848f520004003600d5d780008438210072
:100ed800848f52000200360004402000d4d78800d6
:100ee800d4d78000f4cc88000402e800d4d7880066
:100ef800ce039000e7cc88000a3e07000002be003f
:100f080004d0880015d088000a9aa8006e42900084
:100f18000482fb00e30f520003003200e40f52008a
:100f28001a003200440037000e82e8009402900054
:100f38000e82e80014027800848242004e0290007b
:100f480084824200f4cc800004826a0064d0880065
:100f58001e029000ae02900024cd880035cd880096
:100f68000042eb000002fd00b4f9b7000002fd00ea
:100f7800c40420000500200074cc880085cc8800bb
:100f88002400200044d088002b0037001e02900067
:100f9800ae02900004027800840278002542900096
:100fa8000483fb00354290000482fb004822dd00e8
:100fb80086027800848272000502780004037800b3
:100fc8001e029000ae02900004027800944378005c
:100fd8008782fb00144290000482fb004822dd0057
:100fe8008503780084837300070278008402430035
:100ff8004e02900084824200f4cc800004826a0091
:1010080064d088001e029000ae02900004027800ae
:10101800a200200084007800409a2100e7fd070024
:101028005400200044d0880011c0b30020c0b30091
:10103800d7060700000000001e42780008003700ad
:101048000000000001003700000000001e4fe8000b
:101058001e427800e04f52007fff3200e4cfb30019
:10106800044078000080fa00000006000200fa0040
:10107800004f78001e427800e04f52000200320014
:10108800140020000b0037001e4078009cfe07006b
:1010980055d080000400210004826200e00f520055
:1010a800030032000b9aa900140020000100370049
:1010b8000002eb00040078000080fa00000006003f
:1010c8000200fa00004f78001e427800e04f5200fc
:1010d800020032000002eb00080037001e407800d2
:1010e80087fe070044d0800067026a0004f0a7006a
:1010f8000402ea000402e9004f22de00040078003e
:101108000080fa00000006000200fa00004f780094
:101118001e427800e04f520044003a001e4078001a
:1011280077fe0700e4cf8000f4cf880044d0800029
:1011380005002000e600200007002000860f52006e
:10114800878f5a0033003e00046001000e0037000c
:10115800300037000c0037000b0037002d00370037
:10116800090037000a003700090037002900370056
:101178002800370027003700140037002500370003
:101188002400370020003700c60907002800370070
:1011980011c0b30010c1b3007d06070004cd800064
:1011a800e00f520005003200c5cf8000d4cc80008b
:1011b800848f5200f6ff3a0001003700000000005b
:1011c8008400200044d088001900370011c0b30003
:1011d80010c1b3006e06070004cd8000e00f520076
:1011e80005003200c5cf8000d4cc8000848f520027
:1011f800f6ff3a000100370000000000c40020009c
:1012080044d088000a003700d400200044d0880069
:10121800070037008040eb0040c1b3005c060700c0
:10122800a0090700000000000100370000000000ce
:101238000080fa00000006000200fa00004f780063
:101248001e427800e04f520006003a001e40780027
:101258002bfe07000a7aa9001e407800aaff0700a3
:1012680001003700000000000080fa0000000600be
:101278000200fa00004f78001e427800e04f52004a
:10128800020032000002eb000a0037001e4078001e
:101298001bfe070044fe0700a2002000419a21001f
:1012a80000a1210045fd0700e4cc8000d4d08800cf
:1012b80004a12100040078000080fa000000060064
:1012c8000200fa00004f78001e427800e04f5200fa
:1012d8000b003a001e40780009fe070032fe0700a6
:1012e800c5cf8000d4cc8000848f52000500320026
:1012f80011c0b30000c1b300250607000100370084
:10130800000000000080fa00000006000400fa0057
:10131800204798002e429000e04f52000200320011
:101328000002eb001d0037002e409000f4fd07007e
:1013380044d08000044f78001e427800e74f5200e6
:10134800050032001e427800eb4f520002003200c6
:101358000002eb0011003700c5cf8000d4cf800019
:10136800848f520009003900a5cf800094cf8000f7
:1013780084825200d6cf8000c4cf8000040253007c
:10138800048242000402e90004003700d5cf80003f
:10139800c4cf8000048252000402e90004007800ef
:1013a8000080fa00000006000400fa0020479800b8
:1013b800314798002e429000e04f52000200320060
:1013c8000002eb00430037002e409000ccfd0700e0
:1013d8002e409000cdff070000027800040f78002f
:1013e8001e027800e00f520002003a000002eb00f3
:1013f800380037001e027800e10f520002003a0060
:101408002e409000aeff070055d080000410200049
:1014180004826200e00f520009003a00a5cf800064
:1014280094cf8000048252000402d1009e0f520023
:10143800030039002e409000a1ff07000b1aa800f6
:10144800e3034700e5a0210095427800c6cf80005d
:101458001400200013c0b30007017800854078000d
:1014680006007800bd0e0700c4cf80000402e80023
:10147800c4cf8800c5cf8000a4cf8000848f5200dd
:101488000200390094cf8000c4cf88001e02780083
:10149800e10f520003003a002e40900088ff070039
:1014a8000b00370055d0800004022000048262003f
:1014b800e00f520006003a000abaa800b23c070042
:1014c8000002be00040278006c02420024d08800aa
:1014d80014002000040078000080fa0000000600d4
:1014e8000c00fa00604798004107980052079800de
:1014f8000002eb00140798006e429000e04f520083
:10150800020032000002eb00600037006e409000dd
:101518007bfd07006e4090007cff0700000278000a
:10152800240798002e029000e00f520004003a00b1
:101538006e40900062ff07000002eb005300370086
:101548002e029000040f7800ae0290005e02900018
:10155800848f5200020036005e029000040f78006b
:1015680055d080000410200004826200e00f520071
:101578000a003a00a5cf800094cf80000482520070
:101588008402d1002e029000848f5200030039009b
:101598006e4090004aff07000b1aa800c4cf8000d5
:1015a8009e024200a4cf8000848f520016003900aa
:1015b800a5cf8000c4cf8000048252001407980091
:1015c800ce039000e5a0210095427800c6cf8000a8
:1015d8001e02900013c0b300070178008540780010
:1015e800060078005d0e0700ce0290001e029000f3
:1015f80004824200440798001e0290001e0f120049
:1016080094cf8000c4cf8800ce039000e5a02100cd
:1016180095427800c6cf80001e02780013c0b30040
:101628000701780085407800060078004b0e070017
:10163800c4cf80001e024200c4cf8800ae029000d2
:101648005e029000848f520003003e006e409000be
:101658001bff07000b00370055d080000402200054
:1016680004826200e00f520006003a000abaa8009d
:10167800453c07000002be00040278006c024200ec
:1016880024d088001e0290001e0242000400780048
:101698000080fa00000006000400fa00004f7800fd
:1016a800110798001e0290000400780051fc070002
:1016b80000027800040178009e0090001e40780027
:1016c80087ff0700000278009e0290000482420013
:1016d800040078000080fa00000006000600fa0006
:1016e800404798004e429000e04f520002003200fe
:1016f8000002eb000c0037004e40900000fd070090
:10170800a5cf800094cf800004825200040fe90026
:101718004e409000fdfe0700000278001407980074
:101728001e0290001e021200040078000080fa00d9
:10173800000006000200fa00004f78001e40780002
:101748000c00070000027800e00f5200070032008a
:101758001e407800eafc0700e4cf8000f4cf880040
:1017680011c0b30000c1b300090507000080fa00ea
:10177800000006000200fa00004f78001e427800c0
:10178800e04f5200020032000002eb001200370066
:101798001e407800dafc0700e5cf8000f4cf800017
:1017a800848f520004003900e5cf8000f4cf800018
:1017b8000482520008003700b5cf8000f4cf8000c3
:1017c80084825200e6cf8000a4cf80000402530038
:1017d800048242000402e800040078000080fa0055
:1017e800000006000600fa0020479800210798002c
:1017f8002e409000dfff070000027800040f7800f9
:101808001e027800e00f520002003a000002eb00ce
:10181800290037002e409000b9fc07002e029000e6
:10182800e00f52000a003200e5a02100954278003e
:10183800f7cf80002e039000140020008541780027
:101848000701780011c0b30006007800c30d070037
:10185800f4cf80000402e800f4cf8800f5cf8000c0
:10186800b4cf8000848f520002003600a4cf8000dd
:10187800f4cf88001e027800e10f520002003a00ff
:101888000b5aa8000b00370055d080000402200036
:1018980004826200e00f520006003a000abaa8006b
:1018a800b93b07000002be0004027800d403b00070
:1018b80024d0880014002000040078000080fa007a
:1018c800000006000a00fa00404798003107980017
:1018d800420798000002eb00040f78004e40900089
:1018e800a4ff070000027800140798001e02900069
:1018f800e00f520002003a000002eb004f003700f0
:101908004e4090007efc0700ce0290001e02900020
:10191800848f5200020036001e029000440798008f
:10192800f5cf80004e02900084824200b4cf800040
:10193800848f520019003600b5cf8000f4cf8000a4
:1019480004825200040fe8003e029000e00f5200ab
:101958000d003200e5a0210095427800f7cf800005
:101968003e0390001e027800854178000701780048
:1019780011c0b30006007800780d07003e02900001
:101988001e024200340798004e0290001e025200c8
:1019980044079800a4cf8000f4cf88003e0290004e
:1019a800e00f52000a003200e5a0210095427800bd
:1019b800f7cf80003e0390004e02900085417800ea
:1019c8000701780011c0b30006007800630d070016
:1019d800f5cf80004e02900004824200f4cf8800c8
:1019e8004e0290001e024200440798009e0290009a
:1019f8004e029000848252004e029000848f520062
:101a080002003e000b5aa8000b00370055d080009a
:101a18000402200004826200e00f520006003a002f
:101a28000abaa800583b07000002be00040278006a
:101a3800d403b00024d088004e029000040078003f
:101a48000080fa00000006000600fa0040479800ef
:101a58004e429000e04f5200020032000002eb00bc
:101a68000b0037004e40900025fc0700b5cf8000e2
:101a7800a4cf8000048f52004e4090003dff070025
:101a880000027800140798001e0290001e0212003f
:101a9800040078000080fa00000006000e00fa003a
:101aa800604798004107980052079800630798001c
:101ab8006e429000e04f520003003a005e02900030
:101ac800e00f520002003a000002eb004500370028
:101ad8006e4090000afc07006e40900025ff07004a
:101ae8000002780014079800ee0290005e02900051
:101af800848242001e029000848f52000400360047
:101b08009e0290006e0290000482520054079800d2
:101b1800f5cf80006e029000048f4200b4cf8000a1
:101b28009e0f520005003100b5cf8000a4cf800081
:101b3800048252000482ea001e0f4200b4cf8000e3
:101b48001e0252000402e80024079800de029000fa
:101b58002e029000848f52000a003e00e5a021006a
:101b6800954278004e0390005e029000854178000f
:101b78001e01780011c0b30006007800f70c0700ba
:101b880017003700e5a02100954278004e03900029
:101b98002e029000854178001e01780011c0b30024
:101ba80006007800ed0c0700de0290002e0290007f
:101bb80004825200e5a0210095427800a7cf80005a
:101bc8004e0090002e0390000603400085417800e7
:101bd8000701780011c0b30006007800df0c070089
:101be8005e029000040078000080fa000000060001
:101bf8000600fa002047980021079800ae019000df
:101c0800120020008e0078002e409000a3ff0700ed
:101c18001e427800044078000080fa0000000600a8
:101c28003e00fa0020779800211f9800321f980084
:101c3800431f9800541f9800651f98002e7290004b
:101c4800e04f520003003a003e1a9000e00f5200a5
:101c580002003a000002eb00260137002e709000c7
:101c6800a7fb07002e709000c2fe07000002780054
:101c7800ce1a900005025200140798009e029000a8
:101c88003e1a9000848f5200020031000082eb005f
:101c9800180137005e1a9000e00f5200060032006b
:101ca8009e0290005e1a9000848f52000200360057
:101cb8005e1a900014079800f5cf80004e1a900025
:101cc8000482420034079800b5cf80003e0290009d
:101cd800848f520007003100b5cf8000a4cf800068
:101ce800048252000482ea00be029000048242008c
:101cf80034079800be029000050f7800b5cf800029
:101d08003e029000048252000402e8002407980072
:101d18004e1a900034079800be1a90007507980074
:101d28002e1a9000040f98002e1a90009442780002
:101d3800154f98002e1a90000402e800241f9800fe
:101d48000002eb00640798006e1a9000e00f520042
:101d58000c0032009e4a900004c6b30084cf5200a3
:101d6800080036009e4a9000a4c7b30084cf5200f2
:101d780004003e009e4a900004ceb30004c2420014
:101d8800144f980004c2b300244f98002e4a9000c4
:101d98008482fb002e029000848f520002003600dd
:101da8002e029000244f98002e4a90008482fb0057
:101db8001e029000848f5200020036001e0290001e
:101dc800244f98002e4a90000482fb00e5a02100d1
:101dd8009542780072034700854178001e0178001b
:101de80011c0b300060078005c0c07002e4a900072
:101df8000482fb001e0f42002e4a90000482fb0062
:101e0800ae02900004825200240798002e0290002f
:101e1800e00f520004003a00a4cf8000040f7800bd
:101e28000082eb00240798006e1a9000e00f520021
:101e3800680032000042eb00044f98006000370051
:101e48000e4a90000482fb0004024700a45290004e
:101e580004c6b30084cf5200110036000e4a900029
:101e68000482fb0004024700a4529000a4c7b300f8
:101e780084cf52000a003e000e4a90000483fb0003
:101e88000e4a90000482fb0004024700a45290000e
:101e980004ceb30004c2420086024700a452980050
:101ea8000e4a90000482fb0004024700a4529000ee
:101eb8001e4a900084cf520023003a003e1a900038
:101ec8000402e900341f98003e1a9000e00f520007
:101ed80008003a00be0290007e0290008482520000
:101ee8000e4a90000482fb00048242000402e800cb
:101ef800800037002e1a900094427800154f980001
:101f08002e1a90000402e800241f980014002000f4
:101f1800640798009e4a900004c6b30084cf52001c
:101f2800240036009e4a9000a4c7b30084cf520014
:101f380020003e009e4a900004ceb30004c2420036
:101f4800144f98001b0037007e029000341f980041
:101f58006e029000e00f5200160032008e0a9000c8
:101f6800251f98002e1a900094427800154f98006b
:101f78002e1a90000402e800241f98009e4a900040
:101f880004c6b30084cf5200080036009e4a900071
:101f9800a4c7b30084cf520004003e009e4a9000bc
:101fa80004ceb30004c24200144f98000002eb00b4
:101fb800640798000e4a90000442e800044f980015
:101fc8008e4a90002e4a900084cf52009cff390020
:101fd800370037000042eb00044f9800300037000c
:101fe8000e4a90000482fb0004024700a4529000ad
:101ff8001e4a900084cf520017003a003e1a900003
:102008000402e900341f98003e1a9000e00f5200c5
:1020180008003a00be0290007e02900084825200be
:102028000e4a90000482fb00048242000402e80089
:10203800300037002e1a900094427800154f98000f
:102048002e1a90000402e800241f980014002000b3
:10205800640798000f0037007e029000341f980034
:102068006e029000e00f52000a0032008e0a9000c3
:10207800251f98002e1a900094427800154f98005a
:102088002e1a90000402e800241f98000002eb00ba
:10209800640798000e4a90000442e800044f980034
:1020a8008e4a90002e4a900084cf5200ccff39000f
:1020b8002e4a90000482fb009e0290000482520087
:1020c800140798009e0290003e1a9000848f5200d8
:1020d800020031000082eb00060037002e4a900013
:1020e8000482fb00be02900004824200340798007c
:1020f80024ff3700040078000080fa000000060082
:102108000800fa00004f780011479800120798005d
:1021180023079800340798000e03e800be029000d9
:102128002e0290009e019000120020008600780088
:102138001e407800bafe070000027800040078000c
:102148000080fa00000006000a00fa00881f7800e4
:102158000042eb00044f7800e80137001e40780089
:1021680067fa07000042eb00644798000002eb00a2
:10217800140798000002eb002407980055d080004f
:102188000420200004826200e00f520005003a009b
:1021980055d080000440200004826200e00f520005
:1021a8000b003200d61a070000027800e00f520038
:1021b8000700320004c1b3006447980054d080007f
:1021c8004a22de00614262000482fb001407980084
:1021d80055d080000402200004826200e00f520003
:1021e8000900320028d08000673907000002be00cd
:1021f8000402780004025400e00f520002003c0080
:1022080004c1b3006447980055d08000040420003e
:1022180004826200e00f52000900320038d08000ca
:10222800593907000002be00040278000402540075
:10223800e00f520002003c0004c1b300644798005c
:1022480044d08000eb0f52000b003a0038d08000d9
:102258004d3907000002be00040278000402540051
:10226800e00f520004003c0014c1b300644798001a
:10227800c400200044d0880044d08000e40f5200fd
:1022880063003a000002eb00440798005b00370047
:102298004e0290007422b90004027800f002420055
:1022a800649b21000482420014027800e00f52006f
:1022b800560032004e0290007422b90004027800e1
:1022c800f0024200649b21000482420094027800dc
:1022d80064d08000848f520045003a0032fa07002b
:1022e8004e0290007422b90084027800649b210099
:1022f80004824200a200200084007800409a210055
:102308002ef907004e0290007422b90004027800ea
:10231800ea024200649b2100048242001402780011
:10232800e4cc88004e0290007422b90004027800c0
:10233800ec024200649b2100048242001402be00a9
:1023480061024200e0824a00b4cc8800c5cc880013
:1023580035cd800024cd800084824200e4cc80000a
:1023680084824200f4cc800004826a0064d0880031
:1023780024c1b300644798006400200044d088005a
:10238800ce029000c4fe2f0004aab900040278000f
:1023980087022000848343004e0290000402e80074
:1023a8007422b90084027800649b210004824200f0
:1023b800040378004e0290007422b9008402780069
:1023c800649b21000482420084027800070278009e
:1023d80013c0b3000601780011c0b30005007800ef
:1023e800de0a07000002eb0074cf880008003700ff
:1023f8004e0290000402e800440798004e02900044
:10240800e20f5200a2ff3600010037000000000072
:102418006e429000e04f5200090032001e02900008
:1024280004f0a7000402ea000402e9004f22de00db
:1024380004427800844078006e409000d401070080
:1024480054d0800070026200e00f52002b003a0066
:1024580044d08000e70f520020013a00b13807004d
:102468000003be0004d0800015d080000402530091
:1024780085825b00e00f5200e08f5a001901350099
:1024880054d0800067026200e60f52000e003a0046
:1024980054d080004322de00614262006447980005
:1024a8001e40780018fb07001e40780016fb070046
:1024b8006e429000e04f52000c013a00e400200008
:1024c80044d088000c013700b7f9070021c0b300d9
:1024d80000c1b300ae010700923807000003be0038
:1024e80024bc2e00b50020000602420087824a0064
:1024f80004d0880015d08800ff003700893807000d
:102508000003be0004d0800015d0800004025300f0
:1025180085825b00e00f5200e08f5a00f50035001d
:10252800a1f9070044d080006123b800e4ff2f0020
:10253800f5ff2f000602420087824a00a60020000d
:1025480007002000860f5200878f5a00a2003e0025
:10255800046001000a00370012003700a0003700ad
:102568003a0037004a0037005e0037006b0037003a
:10257800780037007c0037005a00370088003700a1
:10258800813807000002be000402780024d08800c9
:10259800409a2100963207003400200044d0880079
:1025a80094003700819a2100409a2100fd320700eb
:1025b80000027800e00f52001d003a007238070050
:1025c8000002be008402780024d0800004835200f8
:1025d80074cc800085cc800004027800840f5300fe
:1025e80081003600449b210014427800e54f5200d8
:1025f8000c003e00449b2100144278000442e8008d
:102608000002fd00b4f9b7000002fd0074cc8000a0
:1026180085cc80000402420085824a0074cc880080
:1026280085cc88002400200044d088007100370041
:1026380024c0b300644798000002eb001407980018
:102648005400200044d088006a00370024c0b3003a
:10265800644798001400200014079800449b210048
:1026680014427800e34f52006100360044c0b300c2
:102678000002fd00b4f9b7000002fd00042d21009e
:102688003501200074cc880085cc880059003700bb
:10269800449b210014427800e14f520005003e009f
:1026a80024c1b30064479800140020001407980060
:1026b8005000370054d0800068026200e00f5200da
:1026c8000500320044c1b30064479800140020009c
:1026d800240798004700370024c0b30064479800d7
:1026e80044003700449b210014427800e44f520014
:1026f80005003e0004c1b3006447980014002000a0
:10270800140798003b0037008400200044d088005c
:1027180014c1b3006447980036003700449b210079
:1027280014427800e44f520005003e0014c1b30083
:102738006447980014002000140798002d00370003
:1027480044c1b3006447980014002000240798008f
:102758002800370044c1b3006447980014002000e3
:102768002407980023003700449b21001442780076
:10277800e44f520005003e0004c1b30064479800ce
:1027880014002000140798001a00370044c1b30051
:1027980064479800140020002407980015003700ab
:1027a800449b210014427800e44f520005003e008b
:1027b80014c1b3006447980014002000140798005f
:1027c8000c00370044c1b30064479800140020008f
:1027d80024079800070037000000000005003700b4
:1027e800000000000300370000000000010037006f
:1027f800000000006e429000e04f520032003200ac
:102808001e029000e00f52002c003200449b210071
:10281800144278000442e8000002fd00b4f9b70051
:102828000002fd0074cc800085cc800004024200c8
:1028380085824a0074cc880085cc8800d5cc80007d
:10284800d4cf80000482520044079800d5cc800081
:10285800d4cf8000848f520006003100a5cf8000bd
:1028680094cf800004825200ce029000048242007d
:102878004407980096cc8000a7cc80004e029000b8
:10288800050020000402530085825b0094cc880078
:10289800a5cc880005cd80004e029000048242003d
:1028a80004cd8800d4cf8000d4cc88008040eb00d1
:1028b8006e409000b60007000300370011c0b30057
:1028c8006e409000b20007002e029000e00f520008
:1028d80009003200f303070007003700000000007a
:1028e800050037000000000003003700000000006a
:1028f80001003700000000001e4fe8001e4278006b
:10290800e04f520015fe32000002eb004407980029
:10291800380037004e0290007422b9000402780093
:10292800f0024200649b21000482420014027800f5
:10293800e00f520033003200933707000002be0058
:10294800040378004e0290007422b9000402780053
:10295800f2024200649b21000482420014027800c3
:102968008402530034392000848f52001e00360040
:10297800ce029000c4fe2f0004aab9000402780019
:1029880087022000848343004e0290000402e8007e
:102998007422b90084027800649b210004824200fa
:1029a800040378004e0290007422b9008402780073
:1029b800649b2100048242008402780007027800a8
:1029c80013c0b3000601780011c0b30005007800f9
:1029d800620907000002eb0074cf88004e029000e5
:1029e8000402e900440798004e0290000402e8003f
:1029f800440798004e029000e20f5200c5ff3600cf
:102a080001003700000000004f0478000080fa0041
:102a1800000006002c00fa003017980041179800b3
:102a2800521798003e139000964078000180fb00f2
:102a3800964390008783fb00c83bdd0000027800c6
:102a4800070272008403780007027800a64390000a
:102a58008783fb00364390000683fb004833dd0084
:102a6800870078008680700001037800860278006d
:102a7800340f9800450f98004e1290001403be00c2
:102a8800560f9800670f98000042eb00645f9800ab
:102a980064c0b300745f9800de13900007179800b5
:102aa8000e129000040078001a2707000002780030
:102ab8000417980076024700c1002000040078003f
:102ac80052270700000278000482ea0014179800d1
:102ad8005e109000ae1a07000002780024179800d4
:102ae8009e1290002e129000848f52000300320034
:102af8008f18070014002000220037000000eb00a8
:102b0800db3507000e82e800410120000400780050
:102b1800221c07000e82e800040078002803070042
:102b28007e0290004422de006f42620025002000f1
:102b38000522dd00744f52009e4078000182fb00a0
:102b4800de1290000482520074025200541798005a
:102b58000e82e800be10900004007800ea01070029
:102b680000027800e00f5200040032000e82e800f4
:102b7800de10900004007800ee0307006c180700d0
:102b880014002000040078000080fa00000006000d
:102b98002a00fa00006f9800116f980002f80700e9
:102ba8000e6a90000482fb00610262000442780011
:102bb800e04f5200050032000b7aa8008e6a9000a0
:102bc800e4cfb30004c26200046f98000abaa900f7
:102bd8000adaa9000afaa9000b3aa9000b5aa900b7
:102be8000b1aa90000000000451807000002780031
:102bf800e00f5200fcff32000e6a90000482fb00d6
:102c080066026200e00f5200030032000002eb008f
:102c1800040f780077003700c5cf8000d4cc80003f
:102c2800848f520003003a000002eb00040f780082
:102c380062003700c5cf8000d4cc8000848f52005a
:102c48001b003600c5cf8000d4cc8000048f520012
:102c580004cd80009e0f52000200310001cd80009b
:102c6800010f780094cd80009e0f520003003100c0
:102c780094cd8000040f78000b5aa800e5a021002d
:102c880095427800d6cc80001e02780085417800f5
:102c9800060178008040eb0000772100af080700ac
:102ca800d4cc80001e024200d4cc880043003700f8
:102cb800a5cf8000d4cc800004825200341798003d
:102cc800be129000c4cf80008482420094cf80005e
:102cd800048f520004cd80009e0f52000200310084
:102ce80005cd8000050f780094cd80009e0f52001e
:102cf8000300310091cd8000010f78000b5aa80025
:102d08003e1290009e0f5200020036001e0278000c
:102d1800341798003e129000e5a0210095427800f3
:102d2800d6cc800085417800060178008040eb0011
:102d380000772100890807003e1290001e02120049
:102d4800341798003e129000e00f52000e00320037
:102d58003e129000e5a021009542780097cf8000b0
:102d6800a0cf8000d6cc8000060050000677210056
:102d78000603400085417800070178008040eb0099
:102d88000600780075080700d4cc80001e024200b7
:102d9800d4cc8800d5cc8000a4cf8000848f52008a
:102da80006003900d5cc800096cf8000a4cf8000e3
:102db8000402530004824200d4cc880055d080001d
:102dc8000480200004826200e00f520009003200f3
:102dd80004cd80009e0f52000600320094cd800082
:102de8009e0f5200030032000e6a90000404a000f7
:102df800046f98001e027800e00f520005003a00a8
:102e08000e6a90000482fb0063026200e00f520029
:102e18002100320004cd80001e02520004cd88003b
:102e28001e027800e00f5200030032000e6a900084
:102e38000434a000046f98001e6a90000482fb000e
:102e48006102620004427800e04f5200080032003c
:102e58000042eb000002fd00b4f9b7000002fd00db
:102e6800d41223001500200074cc880085cc88007b
:102e78002c3607000003be0074cc800085cc80008f
:102e88000602420087824a0004d0880015d08800d4
:102e98000a9aa8003a0037001e6a90000482fb00d4
:102ea80062026200e00f52001400320054d0800029
:102eb800674262000442e800674262000482fb0045
:102ec8006702620056d0800085ff2f0085026300ec
:102ed8000502720054d0880094cc8000a5cc8000f4
:102ee80061025200e0825a0094cc8800a5cc880088
:102ef80014002000040f78002100370054d080000f
:102f080070026200e00f52001d0032001e6a90003d
:102f18000482fb0061026200e00f520010003a00d8
:102f2800449b210014427800e04f52000c0032000c
:102f3800449b2100144278000442e9000002fd008d
:102f4800b4f9b7000002fd0074cc800085cc800085
:102f58008502d1000482d30074cc880085cc880017
:102f6800f03507000003be0074cc800085cc8000db
:102f78000602420087824a0004d0880015d08800e3
:102f8800f4cc800024079800e4cc80003407980033
:102f980094cc8000a5cc8000440798005507980081
:102fa800b4cc8000c5cc80006407980075079800f1
:102fb8000e0a900004e0a10004f0a100040f98009c
:102fc8000e0a90000400a1000410a1000420a10032
:102fd8000430a100040f98008e6a900015579800dd
:102fe8000002eb00340f980096cc8000a7cc80003c
:102ff8001e027800050020000602420087824a006f
:1030080094cc8800a5cc88000e6a90000482fb004e
:1030180062026200e00f52001a0032000e6a90004d
:103028000482fb0070026200e00f520003003a00c5
:103038006022b800640798007507980084cd800066
:1030480062026200e00f5200070032004e02900058
:10305800de02900061025200e0825a0044079800a4
:10306800550798000700370094cc8000a5cc800055
:1030780061024200e0824a0094cc8800a5cc880016
:10308800b039a8000e6a90000482fb006102620059
:1030980004427800e04f520001003200b019a80045
:1030a800e5cf8000f4cf8000848f520009003900fa
:1030b800b5cf8000a4cf800084825200f6cf800074
:1030c800e4cf80000402530004824200140f9800e9
:1030d80005003700f5cf8000e4cf8000048252005d
:1030e8000402e900140f98002f1707000002780067
:1030f800140798009e029000f4032000848f520069
:1031080003003e000002eb0014079800030037009c
:103118001e0290000404b100140798009e0a900053
:103128001e029000848f5200020036001e0290009a
:10313800140f98006402470004007800a0010700fb
:103148009e007800748f40000e0a90000440a00092
:103158000450a1000460a0000470a100040f9800ae
:103168000e6a90000482fb0062026200e00f5200c7
:10317800150032001e027800640f420024c0b3001c
:10318800045f980044c0b300145f980024802100b5
:10319800540f98000e0a90004422de006f4262002d
:1031a8000442e8006f4262000482fb006f02620082
:1031b8004422dd000e0b9000f5f02f00850263001d
:1031c80005027200040f980006802000164378005c
:1031d8008683fb0016802000164378000683fb00d8
:1031e8004833dd0087027800868272000503780084
:1031f8000602780026802000164378008683fb00ac
:1032080036802000164378000683fb004833dd0033
:1032180087007800868070000103780086027800b5
:10322800640f9800750f980024cd800035cd80007c
:1032380004179800151798000042eb00446798009f
:1032480064c0b300546798009e0278003517980050
:103258003e129000040078002e2507000002780036
:10326800341798007c024700c10020000400780051
:1032780066250700000278000482ea00240f9800ff
:1032880080742100591807001e01780061c0b3003e
:10329800409a21009833070064024700410120004a
:1032a80004007800c81a07000e6a90000482fb0028
:1032b80062026200e00f5200040032007802470008
:1032c8004100200004007800bf1a0700c0752100e3
:1032d800611807001e007800ad180700000278008a
:1032e80014079800c0762100401807000e82e800f5
:1032f8002100200004007800b31a07008117070096
:103308000080fa00000006000a00fa003007980062
:10331800410798003e02900014029000e00f52000e
:1033280002003a000002eb0022013700e4cfb300ac
:1033380014479800ce029000254290000483fb00b9
:10334800354290000482fb004822dd0086007800a8
:103358008480700001027800840278004e02900098
:10336800144178000283fb00144290000482fb00a1
:103378004822dd0086037800848373000702780002
:10338800848242003e029000140278008482420047
:103398003e0290001402900004826a0024079800fc
:1033a8000042eb00044f78003f0037001e407800d1
:1033b800d3f5070044d08000ed0f520034003200ee
:1033c80044d08000e40f520008003a0065d0800025
:1033d8003e02900014029000848f52002e003a00a2
:1033e8009e407800114798002e00370065d0800075
:1033f8002e029000848f520029003a00eaf5070057
:103408003e02900094029000f4cc8000848f520019
:1034180024003a003e02900094027800e4cc800038
:10342800848f52001f003a004e0390001641780026
:103438000280fb00964390008783fb00c83bdd00b9
:1034480000027800070272008403780007027800ff
:10345800a64390008783fb00364390000683fb0059
:103468004833dd008700780086807000010378000b
:103478008602780026cd800037cd8000860f520066
:10348800878f5a0007003a0014002000c90037004f
:1034980000000000030037000000000001003700b2
:1034a800000000001e4fe8001e427800e04f520066
:1034b800beff32001e429000e24f4200160032006a
:1034c8001e4090008ef50700b7f507001e429000d9
:1034d800e24f4200100032002e01900062d08800b6
:1034e800a2002000ce009000409a2100b3f407000b
:1034f8003e02900014027800e4cc88003e0290005e
:1035080014029000f4cc880094cf8000d4cc8800ba
:1035180014002000a70037003e029000e40290004b
:103528000420200004826200e00f520002003a00ea
:103538000002eb009f00370074cf8000e00f5200bc
:10354800020032000002eb009a0037000002eb0094
:10355800140798004e0037001e0290007422b9002c
:1035680004027800f0024200649b210004824200b9
:1035780014027800e00f5200490032001e02900049
:103588007422b90004027800f0024200649b210012
:1035980004824200940278003e02900014029000d7
:1035a800848f520032003a001e0290007422b90043
:1035b80004027800ea024200649b2100048242006f
:1035c800940278003e02900014027800848f520022
:1035d80029003a001e0290007422b9008402780083
:1035e800649b2100048242001403be004e00900038
:1035f800104278000481fb00904090008180fb001d
:10360800c808dd0082027800818272008500780097
:1036180001027800a04090008180fb0030409000bb
:103628000080fb004800dd00010178000001710006
:103638000200780080027800840f5300858f5b00b9
:103648000f003a00503407000002be00040378005f
:103658001e0290007422b90084027800849c210024
:1036680004824200060a78000002eb00510037008d
:1036780000000000030037000000000001003700d0
:10368800000000001e0290000402e80014079800e1
:103698001e029000e20f5200afff36000100370013
:1036a800000000000042eb00044f78003d003700a6
:1036b8001e40780012f5070054d0800068026200ae
:1036c800e00f52003300320037f50700f5cc8000d8
:1036d8003e02900014029000848f52002f003a009e
:1036e8001e0290007422b90084027800649b2100b5
:1036f80004824200a2002000ce009000040078005e
:103708002ef407003e029000140378001e02900079
:103718007422b90084027800049c210004824200cb
:10372800060a78003e029000b4029000240290003d
:103738001e0390007433b90086037800269c21008c
:1037480006834300048bbe003e02900014039000e1
:103758001e0290007422b90084027800649c210043
:1037680004824200060a7800073407000002be00ff
:10377800040378001e0290007422b90084027800c5
:10378800849c210004824200060a78000002eb00b3
:1037980008003700000000000100370000000000aa
:1037a8001e4fe8001e427800e04f5200c0ff320072
:1037b8000002eb00040078000080fa000000060018
:1037c8000200fa00000f78001e0278001402780048
:1037d80004007800cf230700000278009e027800da
:1037e800840a78001e027800140290000400780011
:1037f800c8230700000278009e027800940298000f
:103808001e027800b4029000240290000400be005a
:10381800ce2307000002be001e0378002403980090
:10382800350398001e027800d402900044029000ec
:103838000400be00c52307000002be001e03780076
:1038480044039800550398001e0278007402900003
:1038580004007800af230700000278009e02780079
:10386800f40298001e027800040a90000400780010
:10387800a8230700000278009e027800840a9800b6
:103888001e027800140a900004007800a1230700a3
:10389800000278009e027800940a98000080fa00de
:1038a800000006000000fa00881f7800bef4070038
:1038b800f4cc800064d0880094cf8000c4cf880006
:1038c80094cf8000d4cf8800a4cf8000e4cf8800b4
:1038d800a4cf8000f4cf880054d080006802620032
:1038e800e00f5200020032004400200001003700bf
:1038f800d400200044d088000a1aa9000a3aa90076
:103908000a5aa9000a9aa9000abaa9000adaa9005b
:103918000afaa9000b1aa9000b3aa9000b5aa90028
:103928000b7aa9000b9aa800b019a900b039a90010
:10393800b079a900b099a90094cf8000d4cc8800b0
:10394800289921001621070000027800040c78004d
:103958002899210012210700000278001404980019
:103968000082eb0074cd88001400200004cd88008c
:103978004f0478000080fa00000006000400fa00f6
:10398800881f7800c0002000393207006a18070035
:1039980000427800044f78001e4278008482fb00c1
:1039a800040f20000482620042a2de000442780074
:1039b800744f52001e427800e04f520002003a0055
:1039c8008421200057003700710020000000eb0020
:1039d80072180700400037005718070000427800a7
:1039e800144798001e429000e04f520043003200f6
:1039f8001e429000e14f5200360032001e429000f5
:103a0800e24f520020003a001e427800e24f520076
:103a18003c0036000002eb00140798004618070027
:103a280000427800144798001e429000e44f52006c
:103a380009003a000e82e8000404e8003e18070076
:103a480000427800044c78000e84e8003a18070019
:103a580000427800044c78009e02900074212000f7
:103a6800848f5200290036009e029000445b20009b
:103a7800848f520002003600445b20002900370082
:103a88001e029000270037001e427800e14f5200c6
:103a980020003600281807000042780014479800d4
:103aa8001e4290009e42780084cf52001b003900cd
:103ab8001e4290000482fb00840078000000eb00a6
:103ac800361807009e4278001e42900004cf52002c
:103ad80001003700000000009e4278000582fb00cc
:103ae8000402ea004f22de00044278001e4fe9007b
:103af800e04f5200b8ff3a0009003700000000000c
:103b08000700370000000000050037000000000033
:103b1800030037000000000001003700000000002b
:103b280084212000040078004f0478000080fa0007
:103b3800000006002200fa00700f98000117980094
:103b48007e0a9000d44a9000055798007e0a90009b
:103b580044039000d4039000460798005707980044
:103b68007e0a900024039000b4039000160f98007a
:103b7800270f98000a1aa9000a3aa9000a5aa900a8
:103b880054d0800070026200e00f520008003a0032
:103b9800e43207000003be0024bc2e00b50020005c
:103ba8000602420087824a0004d0880015d08800a7
:103bb80044d08000e40f520003003200e50f5200a9
:103bc8002c003200770037000e5290000482fb0070
:103bd80064026200e00f52000200320031ff070069
:103be800270437000e5290000482fb007002620026
:103bf800e00f5200090032004e029000de029000f1
:103c080094cc8800a5cc88008040eb0040c0b3006d
:103c1800dffb070023ff0700190437000e5290004e
:103c28000482fb0062026200e00f52000f003200c3
:103c38001e0a9000ae0a900061024200e0824a002b
:103c4800b4cc8800c5cc88004cff0700000278007f
:103c580094cd880011c0b30020c1b300ccfb07008d
:103c68006400200044d08800050437000dff0700d9
:103c7800030437000e5290000482fb0064026200c5
:103c8800e00f5200eb033a000e5290000482fb0052
:103c980070026200e00f52001700320096cc8000dc
:103ca800a7cc80004e029000de029000840f5300e3
:103cb800858f5b001000320096cc8000a7cc800076
:103cc800160f9800270f98004e029000de02900011
:103cd80094cc8800a5cc880011c0b30040c0b300c4
:103ce800abfb07001e0b9000ae0b900096cc880033
:103cf800a7cc8800e20337000e5290000482fb0034
:103d080062026200e00f5200cc0332001e0a9000eb
:103d1800ae0a900061024200e0824a00b4cc8800fa
:103d2800c5cc88007e0a90007402900004cd8800fb
:103d380012ff07000002780094cd88000e52900010
:103d48000482fb0070026200e00f52000f00320094
:103d580011c0b30000c1b3008dfb07007400200040
:103d680044d088006f3207000003be0024bc2e0038
:103d7800b50020000602420087824a0004d088006d
:103d880015d088000a9aa900bd03370011c0b300f6
:103d980020c1b3007efb07006400200044d08800e7
:103da800b70337008e139000670798000e529000f3
:103db8000482fb006102620004427800e04f520076
:103dc800030032006e0290000402e80064079800c5
:103dd8000e5290000482fb0062026200e00f520063
:103de800030032006e0290000402e80064079800a5
:103df800e5cf8000f4cf8000848f5200090039009d
:103e0800b5cf8000a4cf800084825200f6cf800016
:103e1800e4cf800004025300048242003407980073
:103e280005003700f5cf8000e4cf800004825200ff
:103e38000402e90034079800b4cc8000c5cc8000a7
:103e48001e0b9000ae0b90000402530085825b00ad
:103e5800340f9800450f98003e0a9000540f9800c0
:103e68000002eb00740798006e029000e00f520009
:103e7800350032003e029000e00f52004800320048
:103e88003e0a9000ce0a9000e00f5200e08f5a00e0
:103e98000a0035003e0290006123b8003e0a9000f7
:103ea800ce0a9000840f5300858f5b000300360014
:103eb8001400200074079800140037006e02900068
:103ec8006123b8003e0a9000ce0a90000602420024
:103ed80087824a00e00f5200e08f5a000b0034003e
:103ee800be0290006e029000048252006123b90065
:103ef8003e0a9000ce0a9000840f5300858f5b0025
:103f08000200350014002000740798003e0290005b
:103f18006123b8003e0a9000ce0a9000840f530037
:103f2800858f5b001e003400de0a90006e02900050
:103f380004824200e00f52001900340014002000ef
:103f480074079800160037003e0a9000ce0a9000c9
:103f5800e00f5200e08f5a0003003a0014002000de
:103f6800740798000e0037003e0a9000ce0a9000b1
:103f7800e00f5200e08f5a00090035003e02900021
:103f88006123b8003e0a9000ce0a9000840f5300c7
:103f9800858f5b000200360014002000740798002b
:103fa8007e029000e00f520009003a000e52900085
:103fb8000482fb0064026200e00f520021033a0011
:103fc80011c0b30000c1b300f1fa07002c03370099
:103fd8000e5290000482fb0066026200e00f52005d
:103fe800020032002ffe0700250337000e52900012
:103ff8000482fb0070026200e00f520013033200db
:1040080044d080006123b800a4ff2f00f5ff2f00e3
:104018000602420087824a0066002000070020004e
:10402800860f5200878f5a0059013e000460010034
:10403800060037001e0037001d0037001c0037003f
:104048001b0037001a0037004601370096cc800065
:10405800a7cc80004e029000de029000840f53002f
:10406800858f5b001000320096cc8000a7cc8000c2
:10407800160f9800270f98004e029000de0290005d
:1040880094cc8800a5cc880011c0b30040c0b30010
:10409800bffa07001e0b9000ae0b900096cc88006c
:1040a800a7cc8800f60237007400200044d08800ae
:1040b800c5cf8000d4cc8000048252002407980029
:1040c8002e029000e00f520006003d00a5cf8000b0
:1040d80094cf800004825200ae0290000482420015
:1040e8002407980096cc8000a7cc80002e02900070
:1040f80005002000041f430005974b004e03900065
:10410800de0390001e02be000402530085825b009d
:10411800048fbe001e02be00e00f5200e08f5a005e
:104128001400340084cd800061026200e00f520068
:10413800060032001e03be00140020000500200007
:10414800840f5300858f5b00040032008040eb0031
:1041580000c1b3008efa0700c90237004e02900072
:10416800de02900061025200e0825a004407980083
:104178005507980096cc8000a7cc8000d5cc80004d
:10418800d4cf800004825200cfa2de00041f530067
:1041980005975b00d5cc8000d4cf8000848f520077
:1041a80006003100a5cf800094cf80000482520021
:1041b800050020001e1f12001e971a004e029000d4
:1041c800de0290001e1f52001e975a001e02be00fb
:1041d800e00f5200e08f5a0050003400a5cf800055
:1041e80094cf80000482520005002000be0f5200c8
:1041f800ae8f5a0049003900b079a900b099a900da
:104208000b1aa900d7cf800027079800d5cf8000c8
:104218001e02780004824200d4cf8800d5cc8000ea
:104228002e029000848f520011003900d5cc8000f6
:10423800d4cf8000848f52002300310096cc8000b8
:10424800a7cc8000d5cf8000d4cc80000482520057
:10425800050020000602420087824a0094cc8800ac
:10426800a5cc8800d4cf8000d4cc880016003700b5
:10427800d5cc8000a6cf800094cf800004025300e4
:104288000482420024079800d5cf80002e029000b7
:10429800848f52000c00360096cc8000a7cc80009a
:1042a800d5cf80002e029000048252000500200025
:1042b8000602420087824a0094cc8800a5cc880078
:1042c800d4cf8000d4cc8800d5cf8000a4cf800084
:1042d800848f520006003900d5cf800096cf800029
:1042e800a4cf80000402530004824200d4cf880087
:1042f800d5cc8000a4cf8000848f520030003900d4
:10430800d5cc800096cf8000a4cf80000402530053
:1043180004824200d4cc880029003700d5cf800021
:10432800d4cc8000848f52002500320084cd8000d8
:1043380068026200e00f52002000320084cd800045
:1043480070026200e00f52001b00320096cc800021
:10435800a7cc8000d5cc8000d4cf80000482520046
:10436800cfa2de000402530085825b0094cc880053
:10437800a5cc8800d5cc8000d4cf8000848f520093
:104388000a00310096cc8000a7cc8000a5cf800021
:1043980094cf800004825200cfa2de0004025300b2
:1043a80085825b0094cc8800a5cc8800d4cf80009f
:1043b800d4cc88000b5aa800b099a800b079a800fe
:1043c800d5cf8000c4cf8000848f52001c003a00f3
:1043d80055d080000480200004826200e00f520063
:1043e8000a003a00cf3007000003be0024bc2e00ac
:1043f800b50020000602420087824a0004d08800e7
:1044080015d088000a9aa9000d00370096cc8000c4
:10441800a7cc80004e029000de029000840f53006b
:10442800858f5b0006003a0084cd8000610262003f
:10443800e00f5200020032000a9aa9000b7aa90084
:104448007e0a900074039000ce03900094cc800004
:10445800a5cc8000040278000482530004024300c3
:10446800640f980004cd8000e00f520004003a0069
:104478006e0a9000e00f5200010032000b3aa800cb
:104488006e0a900004cd880044d08000e80f5200e6
:1044980017003a0096cc8000a7cc80004e0290000e
:1044a800de029000840f5300858f5b003a003a00cb
:1044b80084cd800061026200e00f520038003200b3
:1044c800983007000003be00145e2f00550020003e
:1044d8000602420087824a0004d0880015d088006e
:1044e8000a9aa8009400200044d0880031003700c0
:1044f80044d08000e90f52000e003a000e5290009e
:104508000482fb0061026200e00f520026003a00bc
:104518004e039000de03900096cc8800a7cc88005c
:104528008040eb0040c1b30099f90700ddfc0700ab
:10453800d301370044d08000ea0f52001c003a0033
:1045480096cc8000a7cc80004e029000de0290003e
:10455800840f5300858f5b00be013a00d1fc070031
:10456800c701370094cc8000a5cc800061034200cd
:10457800e0834a004e029000de029000840f530050
:10458800858f5b00b5013a00c6fc0700bc01370007
:104598000000000007003700000000000500370099
:1045a8000000000003003700000000000100370091
:1045b800000000000e5290008482fb0004022000dc
:1045c80004826200e00f5200a6013a0044d0800045
:1045d800eb0f5200a501320044d08000ea0f5200d0
:1045e800a401320044d08000ec0f5200a301320035
:1045f8000e129000e00f5200200132005e0a900077
:10460800e00f52007f003c007e0a90006402900098
:104618004422de006f4262000482fb004222dd0079
:10462800840278005e0a9000048252000400780038
:104638000f2f07008e1290005e0a9000048242003d
:10464800041798008e1290003e029000848f52004a
:1046580002003600be03900007179800b6cc800011
:10466800c7cc80000e129000050020000602420010
:1046780087824a00b4cc8800c5cc8800e5cf80008a
:104688000e12900084824200b4cf8000848f5200c2
:1046980020003600b5cf8000e4cf800004825200ad
:1046a8000402e80024079800e5a02100954278005c
:1046b800e6cf80002e0290008041eb000081eb00e5
:1046c8008540780006007800240207008e129000ca
:1046d8002e02900004825200e5a021009542780045
:1046e800a6cf80008041eb000081eb008540780078
:1046f8000600780019020700a5cf80000e1390006d
:104708002e0290000402530004824200e4cf880085
:104718000d003700e5a0210095427800e6cf800023
:104728000e1290008041eb000081eb00854078007c
:104738000600780009020700e5cf80000e129000fd
:1047480004824200e4cf880074cd8000e10f42006b
:10475800ca00320074cd8000840278000e129000e6
:104768000482520074cd880015cd800074cd80007d
:1047780004824200240798002e029000e00f5200a5
:1047880003003d000082eb0074cd8800bb003700b9
:1047980074cd8000e00f5200b8003c00b6cc800019
:1047a800c7cc80002e0290000500200006024200bf
:1047b80087824a00b4cc8800c5cc8800e5cf800049
:1047c8002e02900004824200e4cf8800e5cf8000ea
:1047d800b4cf8000848f520007003600e5cf8000f8
:1047e800b6cf8000a4cf8000040253000482ea0000
:1047f80004824200e4cf88000082eb0074cd880078
:104808009e0037005e0a9000e00f52009b003400c3
:104818008e1290005e0a9000848242003e02900050
:10482800848f520004003600be0290005e0a900099
:1048380004825200041798007e0a900064029000d7
:104848004422de006f4262000482fb004222dd0047
:1048580004007800862e0700e5cf80005e0a9000ed
:10486800848242000e12900084824200b4cf8000fd
:10487800848f520033003600b5cf8000e4cf80002b
:10488800848252005e0a90000402ea000482420018
:104898000402e800240798002e029000e00f52005e
:1048a80017003500e5a0210095427800e6cf80008a
:1048b8005e0a9000040343002e0290008041eb0042
:1048c8000081eb008540780006007800a30107000e
:1048d8008e1290002e02900004825200e5a0210062
:1048e80095427800a6cf80008041eb000081eb0064
:1048f8008540780006007800980107001c00370002
:10490800e5a0210095427800e6cf80005e0a90007d
:1049180004034300b7cf8000a4cf80000482530073
:104928000482ea00040343000e1290008041eb0069
:104938000081eb00854078000600780087010700b9
:104948000b003700e5a0210095427800e6cf8000f3
:104958005e0a9000040343000e1290008041eb00b1
:104968000081eb0085407800060078007b01070095
:1049780074cd8000e10f420005003a005e0a900005
:1049880074cd88000e12900014cd88003b003700cb
:1049980074cd8000840278005e0a9000848f5200f3
:1049a8001c003600de0a90000e129000848242003d
:1049b80074cd80000403780014cd80000402430005
:1049c800848f520006003e00de0a90000e1290000e
:1049d8008482420074cd8000848f5200030031002d
:1049e8008e12900015cd88000700370074cd800026
:1049f8008402780014cd8000848242005e0a900010
:104a08000482520014cd88005e0a900074cd88009c
:104a18001a003700de0a90000e12900084824200cd
:104a280074cd80000403780014cd80000402430094
:104a3800848f52001100360074cd80008402780003
:104a480014cd8000848242005e0a9000848f520058
:104a58000a00390015cd80005e0b90000e12900000
:104a68000403430074cd80000403530014cd800078
:104a7800040253000482420014cd88006e029000a4
:104a8800e00f52001b00320044d08000e70f5200b4
:104a980002003200e4cf8000f4cf880055d08000b7
:104aa8000408200004826200e00f52000500320072
:104ab80011c0b30000c1b30035f807003af0070091
:104ac8000c0037000afaa80055d080000404200022
:104ad80004826200e00f520006003a000adaa800d9
:104ae800292f07000002be00040278007e0242005f
:104af80034d088000e5290000482fb0061026200ec
:104b080004427800e04f52005d003200b4cc8000cf
:104b1800c5cc800061034200e0834a006e02900029
:104b28006120b8001e0a9000ae0a90000002420000
:104b380081824a00840f5300858f5b0050003a0041
:104b4800b4cc8000c5cc800061024200e0824a00fb
:104b5800b4cc8800c5cc880044d080006123b8005c
:104b6800a4ff2f00f5ff2f000602420087824a00ab
:104b78003600200007002000860f5200878f5a0059
:104b880027003e00046001000300370008003700da
:104b98000f0037001d003700c400200044d08800f3
:104ba80011c0b30010c1b300f9f707003400370093
:104bb800b400200044d08800f32e07000002be0095
:104bc80004027800d403b00034d088001500370000
:104bd80096cc8000a7cc80004e029000de029000a8
:104be800840f5300858f5b0005003a008040eb007e
:104bf80000c1b300e6f707002afb070020003700d2
:104c0800a400200044d08800060037008040eb0054
:104c180000c1b300def7070022fb070018003700c9
:104c28000000000011c0b30000c1b300d8f70700ae
:104c380013003700000000001100370000000000da
:104c48000f003700000000000d00370000000000d2
:104c58000b003700000000000900370000000000ca
:104c680007003700000000000500370000000000c2
:104c780003003700000000000100370000000000ba
:104c88000080fa00000006000e00fa006047980055
:104c98004107980052079800434f98006e429000d1
:104ca800e04f5200020032000002eb00a80037007b
:104cb8006e40900092ef07004e029000e00f520005
:104cc80002003a001400200044079800b5cf800085
:104cd80094cf8000048252000402e900240798005f
:104ce800ce0290005e029000848242002e02900064
:104cf800848f5200020036000002eb009400370057
:104d0800a9ef07004e4a90000482fb00630262008c
:104d1800e00f520003003a004e4a90003440b300be
:104d2800444f98005e02900014079800ce0290004d
:104d38005e02900004824200ae029000048252009b
:104d4800240798004e4a90000482fb006202620029
:104d5800e00f5200100032004e4a90000482fb001f
:104d68006102620004427800e04f520006003200ff
:104d78002e0290000402d1009e029000048242009c
:104d880014079800040037009e0290002e0290003d
:104d9800048242001407980095cf80001e029000fc
:104da800048242000402e80024079800e4cf80004f
:104db800040f780074cd8000e10f42000d0032002e
:104dc80074cd80008402780014cd800004824200f3
:104dd8001e0f4200b4cf80009e0f52000500310024
:104de800b5cf8000a4cf8000048252000482ea007c
:104df8001e0f4200f4cf80009e0f520010003100b9
:104e0800f5cf80002e029000848f520023003100dd
:104e18004e4a90000482fb0064026200e00f5200d8
:104e2800020032000002eb00490037002e02900019
:104e3800f4cf88002e029000e4cf880017003700d6
:104e4800f4cf80009e0f520010003600a5cf8000de
:104e58002e029000848f5200100031004e4a9000bc
:104e68000482fb0064026200e00f5200020032007c
:104e78000002eb00360037002e029000f4cf8800c5
:104e88002e029000e4cf8800040037002e02900024
:104e9800f4cf88002e029000e4cf8800f4cf800081
:104ea8009e0f52001b0036004e4a90000482fb0001
:104eb80064026200e00f520016003200a4cf8000a6
:104ec8001e021200e6a0210016437800a7cf80003a
:104ed800e5a0210095427800864178000701780016
:104ee800854078002e0090001c000700e5cf800068
:104ef800f4cf8000848f520006003100e5cf800097
:104f0800a4cf80002e0390000402530004824200c4
:104f1800e4cf88002e029000a4cf880094cf8000b0
:104f2800d4cc880094cf8000d4cf880094cf800060
:104f3800c4cf880044d08000e70f520003003a0035
:104f480011c0b30000c1b30011f70700140020001e
:104f5800040078000080fa00000006000a00fa0049
:104f6800000f7800214798002207980063479800af
:104f7800440798006e4290000482fb00e00f520044
:104f88001a003200e10f520037003a002e4290001a
:104f98000482fb00e00f520009003200e10f5200ca
:104fa8002e003a00ae0290001e0278004e019000da
:104fb800850078000400780000ee07000a0037003a
:104fc8001e027800e10f4200020032001e00780045
:104fd800061107002e029000ce0090000400780011
:104fe80079130700000000001f0037002e429000d0
:104ff8000482fb00e00f52000c003200e10f520067
:1050080018003a002e029000e10f42000200320020
:105018002e009000101107001e027800ce009000ac
:1050280004007800dd1207000a0037004e019000e6
:10503800ae0090001e007800b011070000000000cc
:10504800b112070000027800e00f5200fcff3200a6
:10505800000000000000000003003700000000000e
:1050680001003700000000000080fa000000060080
:105078000200fa00000f78000080fa000000060025
:105088000000fa00043a800061026200e00f52005a
:1050980004003a00043a800062026200e00f520005
:1050a800050032000002eb00b4d788000002eb00d4
:1050b800c4d7880003003700b4d780000402e80092
:1050c800b4d78800a44f21008002eb00050a7800bd
:1050d800a44f21001500200015029800a44f2100bc
:1050e8002500200025029800a44f2100350020004b
:1050f800350298004007a9004027a90040c7a90029
:1051080040e7a90041e7a9004087a90041c7a900d5
:10511800b4d78000b4a48800c4d78000c4a788008e
:105128008f60a9008760a9000405800004c0a10061
:1051380004d0a10004e0a000040588000002eb00f0
:10514800b41c88009803a8009823a8009843a800d6
:1051580098a3a800202921006e2e0700a033210063
:105168006c2e0700203e21006a2e07000440200014
:10517800841c880000000000851c8000040e2000ac
:105188008482620004082000848f5200faff3a00eb
:1051980034002000941c8800a4392000a41c880036
:1051a800148021008419880054802100c4198800c3
:1051b8000002eb00041888000480210044188800cd
:1051c8004400210084188800c47f2100c418880086
:1051d800c47f210004198800c47f21004419880075
:1051e80014002000741b880024002000f41a880092
:1051f80034002000741a8800040c2000241b880046
:10520800040c2000a41a8800040c2000241a88002a
:105218000002eb00741c88000002eb00f41b8800fd
:105228000002eb00841c880000000000851c800040
:10523800040e200004826200e00f5200fbff3a00d7
:10524800a44d210044ca8800e448210034ca8800db
:10525800a44c210054ca8800e44b210024ca8800c9
:105268000002eb0064ca88008f60a80054fb250088
:1052780084088800147a2000640888000002eb0083
:105288003408880084c0a9008cc0a90011e1a800d6
:10529800d4fb250094088800b4c42400740888004e
:1052a80084e0a9008ce0a90013e1a8000002eb004b
:1052b80054a68800b4e9280064a688000002eb0020
:1052c80074a688001404200084a6880044062000e0
:1052d80094a688000080fa00000006000000fa008a
:1052e8001f000700450007008d0207009d05070005
:1052f800c4a7800094a4880095a4800094a7800087
:105308000482420094a4880095a48000a4a7800089
:105318000482420094a4880095a48000b4a7800069
:105328000482420094a4880095a4800074a7800099
:105338000482420094a4880095a4800064a7800099
:105348000482420094a4880095a4800054a7800099
:105358000482420094a488000080fa00000006003d
:105368000a00fa00180037008e0078002029210072
:10537800af2d07009e02780044f821008482620065
:1053880044402100848f520003003a000e00780048
:105398005b0107000c0037009e02780044f82100ea
:1053a8008482620044502100848f520003003a0036
:1053b8000e007800770107000300370054a780002b
:1053c8000402e80054a78800202921004a2d07007c
:1053d80000027800e00f5200e3ff3a00049a8000d0
:1053e80094a78800c4948000a4a78800449f8000e4
:1053f800b4a788000080fa00000006000000fa0048
:10540800f5a580000410200004826200e00f52001d
:1054180006003a00a44f21001402780068026200d6
:10542800e00f5200010032005500070025048000fb
:105438000404200004826200e00f52004e00320093
:1054480084c0a900f5a58000042020000482620021
:10545800e00f520002003a004900070046003700fa
:1054680014a880000402e80014a8880014a880008a
:105478006702620014a8880014a8800005002000b4
:105488007600200007002000860f5200878f5a0000
:1054980039003e00046001000700370008003700ab
:1054a800090037000a0037000b0037000c003700ee
:1054b8000d0037000e003700310007002e003700be
:1054c800520007002c0037002d0007002a00370083
:1054d8007800070028003700290007002600370059
:1054e8008900070024003700250007002200370044
:1054f80024a880000402e80024a8880024a88000ca
:10550800e50f5200020036000002eb0024a88800d4
:1055180024a88000e00f520001003a008f00070025
:1055280024a88000e10f520001003a004c00070057
:1055380024a88000e20f520001003a009c000700f6
:1055480024a88000e30f520001003a00ad000700d4
:1055580024a88000e40f520001003a00be000700b2
:1055680024a88000e50f520002003a00cf0007008f
:1055780001003700000000000080fa00000006006b
:105588000a00fa0004002400040f7800a44f210048
:105598001402780014079800a44f21001402900008
:1055a80024079800a44f2100240290003407980093
:1055b800a44f21003402900044079800e1352000f0
:1055c8000e007800492d0700f4a680000402e800c8
:1055d800f4a68800a44f2100140278004322de00bc
:1055e800614262000482fb00610262004822dd0021
:1055f800f6a58000f5ef2f00850263000502720012
:10560800f4a588000080fa00000006000a00fa00ed
:10561800040a2a00040f7800042024004407980094
:10562800b4ab800034079800a4ab8000240798002e
:105638000002eb00140798008e007800a0332100c8
:10564800e32c0700741b800068026200e00f520020
:1056580001003a008760a8000080fa0000000600f8
:105668000a00fa00840a2a00040f780004202500a2
:10567800440798000002eb003407980044b3800008
:105688002407980034b38000140798008e0078002f
:10569800a0332100ce2c0700741b80006802620032
:1056a800e00f520001003a008760a8000080fa006d
:1056b800000006000a00fa00840b2a00040f780094
:1056c80004202700440798000002eb0034079800e4
:1056d800e4bb80002407980044bb800014079800ae
:1056e8008e007800a0332100b92c0700741b8000bd
:1056f80068026200e00f520001003a008760a800cb
:105708000080fa00000006000a00fa00040c2a00d3
:10571800040f780004202800440798000002eb00da
:105728003407980064bf80002407980074bf800085
:10573800140798008e007800a0332100a42c0700dd
:10574800741b800068026200e00f520001003a00fa
:105758008760a8000080fa00000006000a00fa002e
:10576800040c2a00040f780014202800440798002d
:105778000002eb003407980094bf800024079800cb
:1057880084bf8000140798008e007800a0332100a1
:105798008f2c0700741b800068026200e00f520023
:1057a80001003a008760a8000080fa0000000600a7
:1057b8000a00fa0084092a00040f78000420230054
:1057c800440798000002eb00340798000002eb0041
:1057d800240798000002eb00140798008e00780058
:1057e800a03321007a2c0700741b80006802620035
:1057f800e00f520001003a008760a8000080fa001c
:10580800000006000a00fa0084092a00040f780044
:1058180014202300440798000002eb003407980086
:105828000002eb00240798000002eb001407980020
:105838008e007800a0332100652c0700741b8000bf
:1058480068026200e00f520001003a008760a80079
:105858000080fa00000006000a00fa0084092a0005
:10586800040f780024202300440798000002eb006e
:10587800340798000002eb00240798000002eb00b0
:10588800140798008e007800a0332100502c0700e0
:10589800741b800068026200e00f520001003a00a9
:1058a8008760a8000080fa00000006000a00fa00dd
:1058b80084092a00040f7800342023004407980044
:1058c8000002eb00340798000002eb002407980060
:1058d8000002eb00140798008e007800a033210026
:1058e8003b2c0700741b800068026200e00f520026
:1058f80001003a008760a8000080fa000000060056
:105908000400fa00100798001e029000c4029000dc
:10591800f4ff2000048f620015c0b300f40f2000cc
:105928001e037800840f530001003e008042eb0004
:1059380014c0b300f61f20009e037800868f530022
:10594800010036000042eb0004c26200e04f520042
:105958000b0032001e029000140390001e029000fb
:10596800a40290001e0290004402900006017800f4
:105978008500780004007800f5130700030037005d
:1059880064a780000402e80064a788000080fa0089
:10599800000006001400fa00100f98001e0a90007c
:1059a800140278004322de00140798001e029000bb
:1059b8006f026200140798001e0290001500200074
:1059c800042add00240798001e0a90000482e800db
:1059d80094027800350798001e0a9000640242007d
:1059e80094027800450798001e0a9000340290003f
:1059f800540798001e0a900044029000640798001b
:105a08000060fe003e0290000470a1003407980078
:105a18001e0290006123b8000082eb008082eb0038
:105a28000602420087824a00760020000700200014
:105a3800860f5200878f5a0089003e0004600100db
:105a480007003700160037002500370034003700fc
:105a580043003700520037006100370070003700fc
:105a68006602470065582100b41a7800a41278002d
:105a7800e482420064024200b41a7800a41278005a
:105a8800e482420064024200b41a7800a41278004a
:105a9800e4824200640242000635a8007400370020
:105aa8006602470045812100b41a7800a4127800e4
