:020000040000fa
:080000000001040000000000f3
:020000040000fa
:100008007c5d00007c5d00007c5d00007c5d000084
:100018007c5d00007c5d00007c5d00007c5d000074
:100028007c5d00007c5d00007c5d0000f08a0000c3
:100038007c5d00007c5d00007c5d00007c5d000054
:100048007c5d00007c5d00007c5d00007c5d000044
:100058007c5d00007c5d00007c5d00007c5d000034
:100068007c5d00007c5d00007c5d00007c5d000024
:100078007c5d00007c5d00007c5d00007c5d000014
:100088007c5d00007c5d00007c5d0000a82c000009
:100098007c5d00007c5d00007c5d00007c5d0000f4
:1000a8007c5d00007c5d00007c5d00007c5d0000e4
:1000b8007c5d00007c5d00007c5d00007c5d0000d4
:1000c8007c5d00007c5d00007c5d00007c5d0000c4
:1000d8007c5d00007c5d00007c5d00007c5d0000b4
:1000e8007c5d00007c5d00007c5d00007c5d0000a4
:0800f8007c5d00007c5d00004e
:020000040000fa
:100108007c5d00007c5d00007c5d00007c5d000083
:100118007c5d00007c5d00007c5d00007c5d000073
:100128007c5d00007c5d00007c5d0000f08a0000c2
:100138007c5d00007c5d00007c5d00007c5d000053
:100148007c5d00007c5d00007c5d00007c5d000043
:100158007c5d00007c5d00007c5d00007c5d000033
:100168007c5d00007c5d00007c5d00007c5d000023
:100178007c5d00007c5d00007c5d00007c5d000013
:100188007c5d00007c5d00007c5d0000a82c000008
:100198007c5d00007c5d00007c5d00007c5d0000f3
:1001a8007c5d00007c5d00007c5d00007c5d0000e3
:1001b8007c5d00007c5d00007c5d00007c5d0000d3
:1001c8007c5d00007c5d00007c5d00007c5d0000c3
:1001d8007c5d00007c5d00007c5d00007c5d0000b3
:1001e8007c5d00007c5d00007c5d00007c5d0000a3
:0801f8007c5d00007c5d00004d
:020000040000fa
:10020000ef2721000e7f22000e0188000000000071
:10021000000020000000e000020032000001200089
:10022000200288000c00070000c328000100200005
:1002300011000700000020000000e0000200320072
:1002400000000200000000007455020000000000e1
:100250000040da000000fe004440a90060032000d6
:100260000000e0000300320000002000a001880030
:100270004440a8000000060091018800800078003a
:100280000000eb0015003700e280400032a0b4000f
:100290009101ba00e280400032a0b4009102ba009d
:1002a000e280400032a0b4000002eb00472bde00e9
:1002b000f507b200602ce10004003a000059eb00a1
:1002c0008301e900fdff3e00040037006128e100e2
:1002d000010032000082eb00040007001101ba00a7
:1002e0000200e000e8ff3a00000006003159ba00c1
:1002f0008301e9000c0032002159ba008301e900b2
:10030000080032000400e00003003a00e2804000f0
:1003100032a0b400f5ff370011d9ba008301e9001b
:10032000faff3a008100e800e180400032a0b4000a
:10033000000006006022b800060220000000d00085
:100340008180d2000482d2008582d2000000a00009
:100350000202520083825a0003003100020242006e
:1003600083824a000000a1000603e900f3ff3a007f
:1003700000000600889fbe008a9fbe003004be00b9
:100380002005be000404440085844c0006054d0091
:1003900087854d000898be000a90be000440e10029
:1003a00005c8e10006d0e10007d8e10002003100f5
:1003b000680040001008e8004f05be004f04be0072
:1003c000000006001000fa00889fbe008a9fbe0051
:1003d000110020000605be000404be003002be006d
:1003e0002003be00c4b79f00d5b79f00e6b79f00ab
:1003f000f7b79f000802520089825a000a035b0087
:100400008b835b0084bf9f0095bf9f00a6bf9f00aa
:10041000b7bf9f000498be000698be004fb2970079
:10042000dfb297006fb39700ffb397000820e10099
:1004300009a8e1000ab0e1000bb8e10001003900b1
:100440008000eb004f05be00108810004f04be0076
:100450000080fa00000006001400fa00889fbe0029
:100460008a9fbe008c9fbe000006eb003e00070086
:10047000ccb79f00bcb79f00acb79f009cb79f0054
:100480008cb79f000605be000404be000d042000ca
:100490004fb39700bfb29700860343002fb2970077
:1004a000e00f530004003d003d0007000f00400036
:1004b000b0ff070003003700390007000f004000bd
:1004c000c0ff0700cfb2970095bf9f00e08f52009a
:1004d000090035002b000700140020000500200053
:1004e0006033b80000007200818072000201730066
:1004f000838173001c0007000c06e8008d0f560076
:10050000e3ff3a001fba9700e00f520005003d00dc
:100510000802be000a03be0000fe2f000f004000cc
:1005200094ff07004faa9700e00f520008003a001e
:100530000fb497009fb497002fb59700bfb59700f1
:10054000d8b79f00e9b79f00fab79f008bbf9f0005
:100550000c0007004f06be004f05be004f04be0052
:100560000080fa00000006000100070000000600fd
:1005700090b79f00a1b79f00b2b79f00c3b79f007d
:100580000000060001000700000006001fb09700f1
:10059000afb097003fb19700cfb1970000000600c1
:1005a0004f2bde00f9ff070086837300858242002f
:1005b0004f23de00a7b79f0086827200040242002c
:1005c00095b79f00ffaa97004f2bde00858242005f
:1005d0000602720084b79f006faa97004f23de00c7
:1005e0000402420086827200f5af9f004f18de00c1
:1005f00000027200e5ff0700e4af9f00000040002a
:100600008180480002014900838149000802be0040
:100610000a03be00d6ff070000fe2f000000060000
:10062000881f780018002000881f78008aff0700c4
:100630008f87e9004f04780000000600801feb0060
:1006400085ff07008f87e90000000600889fbe0035
:100650008a9fbe00e00f5000e08f5800e00f590065
:10066000e08f59000c003d006044b8006055b800b0
:100670000000540081805c0002015d0083815d0008
:10068000180020001500070008003d0018000700b2
:100690000004eb00050037000004eb000f0007002a
:1006a00002003d001200070018002000dcff0700d8
:1006b000e00f5400060032006022b8006033b8003a
:1006c0000000520081805a0002015b0083815b00c0
:1006d0004f05be004f04be0000000600e00f5200b0
:1006e000e08f5a00e00f5b00e08f5b000000060027
:1006f0006044b8006055b8000402540085825c0074
:1007000006035d0087835d0000000600889fbe0031
:100710008a9fbe008c1f7800e00f5000e08f5800c9
:10072000e00f5900e08f59000d003d006044b80013
:100730006055b8001c0020000000540081805c005f
:1007400002015d0083815d000820e10009a8e1004d
:100750000ab0e1000bb8e1000d003d0008003700d1
:100760000006eb00e00f5200e08f5a00e00f5b0044
:10077000e08f5b0006003d006044b8006055b800a3
:100780000402540085825c0006035d0087835d00df
:10079000aaff0700e00f5600060032006022b800f2
:1007a0006033b8000000520081805a0002015b00f3
:1007b00083815b004f0678004f05be004f04be00ea
:1007c000000006000002780002003700315a78006d
:1007d0000201e900e00f5100fcff3a0000000600b2
:1007e0000002780002003700015a78000201e90097
:1007f000e00f5100fcff3a00000006000002780004
:100800008042eb00b4cf1200fdff3a000080ea0006
:1008100000004200000006000002780006003700d9
:10082000314378000201e900065a7800840278001a
:10083000e04f53000600320084027800e00f5100c0
:10084000f7ff3a0002003700805aeb000201e9008e
:0c085000e00f5100fcff3a000000060021
:020000040000fa
:10085c00000000000080000000000000008000008c
:10086c00000000000080000000000000008000007c
:10087c00000000000080000000000000008000006c
:10088c00000000000080000000000000008000005c
:10089c0000500000c2b400002000000045540000cd
:1008ac004d4200004f410000524400000000000087
:0c08bc000c000000ff00000064000000c1
:020000040000fa
:1008c8000200fa00004f7800442721001442780003
:1008d8009e4f52001f003200442721001442780026
:1008e800e24f42000b0032004427210014427800f6
:1008f8000482fb007e22b9008402780044072100ac
:1009080004824200e2012000610f21000400780007
:10091800aaff07001e40780074f2b7001e42780054
:10092800e24f42000d0032009e4278000582fb0033
:100938007e22b90084027800440721000482420024
:10094800e201200084007800600f21009bff07006f
:10095800030037000000000001003700000000001d
:100968000080fa00000006000000fa005527210068
:1009780095427800442721001442780084cf520021
:100988002f0032005427210014427800e24f420021
:100998001a00320027092100542721001442780048
:1009a8000482fb007e22b90004027800fc024200a7
:1009b8004407210004824200144378005427210090
:1009c800144278000482fb007e22b9008402780079
:1009d80044072100048242001402780085fd2f009c
:1009e800848242008402200013c0b300070178000b
:1009f8008640780005007800301107004427210060
:100a0800144278000400780075f2b700251121001f
:100a180095427800b487800087fd2f0084834300c7
:100a2800260921008402200085417800070178000a
:100a380011c0b3000600780020110700010037003c
:100a4800000000000080fa00000006000c00fa0018
:100a5800b4d221001407980094938000e00f52004c
:100a680008003a007d3007000002be0084027800ca
:100a7800f47f200084826200044020000482420047
:100a880094938800c20320008000eb00a00b210093
:100a980051ff07000042eb00444798000042eb007a
:100aa800044f78004e0037001e40780084ff07008e
:100ab8001e4078000082fb006622b900840278009c
:100ac800e44528000482420094429000554798006b
:100ad8001e4078000082fb006622b90004027800fc
:100ae8008482e800e44528000482420094027800e9
:100af800350798001e4078000082fb006622b90086
:100b080004027800e4024200e4452800048242001e
:100b180094027800450798005e4290000482fb002a
:100b2800e00f5200010032002c0037001e00900038
:100b380050079800be0290004e0290008482420046
:100b48001e02900004824200a402b000140798001c
:100b58009e029000c4ff2100848f5200fcff3e00db
:100b68005e40900012f1b7005e0290008402b0006f
:100b7800b4878800b58780003e0290000482420056
:100b88000402e800c4878800c58780004e029000f0
:100b980004824200d4878800d4002000648888003a
:100ba8000e71a90070ff07009e4278000582fb00c5
:100bb8006622b90084027800e445280004824200d5
:100bc800144278000002fd00b9f0b7000002fd00f1
:100bd8000c0b07001e4fe80001003700ffff37002d
:100be8001e427800e04f5200afff32000080fa004a
:100bf800000006000c00fa00100798002107980072
:100c08006247980043079800244f98000042eb0081
:100c1800044f78009d0037001e40780028ff070029
:100c280064888000ed0f520094003a004eff0700e0
:100c3800950b2100954278002e4a900084cf5200ef
:100c480090003a0084212000b48588006e4290000c
:100c5800e04f520008003a004e02900014858800c8
:100c68000e71a8004400200064888800ce0290001d
:100c7800858888007f00370095938000f43f200026
:100c8800848f520004003600959380008438210038
:100c9800848f52000200360004402000949388009c
:100ca80094938000148588000402e80094938800d7
:100cb800ce03900007858800e64107000002be00c9
:100cc80024888800358888000e91a8006e4290001c
:100cd8000482fb006123b9000082eb008082eb00f4
:100ce8000602420087824a003600200007002000e2
:100cf800860f5200878f5a005e003e000460010094
:100d08000300370002003700160037002e003700b6
:100d18001e029000ae029000448588005585880028
:100d28006e4290000414a2000482fb000402e90051
:100d38004f22de00044278000482fb006102620058
:100d48004222dd00a6858000b5ff2f0085026300e2
:100d580005027200a48588000002eb006488880000
:100d6800440037000e82e800940290000e82e800ea
:100d780014027800848242004e029000848242006d
:100d88001485800004826a00848888001e0290000e
:100d9800ae02900044858800558588000042eb002b
:100da8000002fd00b8f0b7000002fd00c4042000f6
:100db8000500200094848800a58488002400200071
:100dc800648888002b0037001e029000ae02900055
:100dd8000402780084027800254290000483fb0016
:100de800354290000482fb004822dd00860278002c
:100df8008482720005027800040378001e029000c5
:100e0800ae02900004027800944378008782fb00c9
:100e1800144290000482fb004822dd00850378001c
:100e28008483730007027800840243004e02900016
:100e3800848242001485800004826a0084888800c5
:100e48001e029000ae02900004027800a20020006a
:100e580084007800800a210058fe07005400200012
:100e68006488880011c0b30020c0b30020070700c1
:100e7800000000001e427800080037000000000053
:100e880001003700000000001e4fe8001e427800f5
:100e9800e04f520060ff3200e4cfb3000440780016
:100ea8000080fa00000006000200fa00004f7800f7
:100eb8001e427800e04f5200020032001400200069
:100ec8000b0037001e4078007dfe07007588800003
:100ed8000400210004826200e00f52000300320087
:100ee8000f91a90014002000010037000002eb0058
:100ef800040078000080fa00000006000200fa00f2
:100f0800004f78001e427800e04f52000200320085
:100f18000002eb00080037001e40780068fe07005a
:100f28006488800067026a0004f0a7000402ea00ef
:100f38000402e9004f22de00040078000080fa0075
:100f4800000006000200fa00004f78001e427800f8
:100f5800e04f520047003a001e40780058fe070054
:100f680004888000148888006488800005002000b8
:100f7800e600200007002000860f5200878f5a00e5
:100f880036003e0004600100110037000d003700f4
:100f98000f0037000e003700300037000c00370014
:100fa8000d0037000c0037002c0037002b003700ed
:100fb8002a003700170037002800370027003700bd
:100fc80023003700dd2a07000e0a07002a00370031
:100fd8000c0a07002800370011c0b30010c1b30085
:100fe800c306070024858000e00f52000500320088
:100ff800e5878000f4848000848f5200f6ff3a0071
:101008000100370000000000840020006488880088
:101018001900370011c0b30010c1b300b4060700af
:1010280024858000e00f520005003200e58780002b
:10103800f4848000848f5200f6ff3a0001003700e4
:1010480000000000c4002000648888000a003700ff
:10105800d400200064888800070037008040eb0037
:1010680040c1b300a2060700e6090700000000001f
:1010780001003700000000000080fa0000000600b0
:101088000200fa00004f78001e427800e04f52003c
:1010980006003a001e40780009fe07000e71a900fc
:1010a8001e407800a7ff070001003700000000007d
:1010b8000080fa00000006000200fa00004f7800e5
:1010c8001e427800e04f5200020032000002eb009e
:1010d8000a0037001e407800f9fd070022fe0700cd
:1010e800a2002000810a210040112100b3fd070061
:1010f80004858000f48888004411210004007800e9
:101108000080fa00000006000200fa00004f780094
:101118001e427800e04f52000b003a001e40780053
:10112800e7fd070010fe0700e5878000f4848000d3
:10113800848f52000500320011c0b30000c1b30013
:101148006b06070001003700000000000080fa006d
:10115800000006000400fa00204798002e42900084
:10116800e04f5200020032000002eb001d00370081
:101178002e409000d2fd070064888000044f78005c
:101188001e427800e74f5200050032001e427800e8
:10119800eb4f5200020032000002eb001100370052
:1011a800e5878000f4878000848f520009003900a9
:1011b800c5878000b487800084825200f68780004b
:1011c800e487800004025300048242000402e9001c
:1011d80004003700f5878000e4878000048252000d
:1011e8000402e900040078000080fa00000006000c
:1011f8000400fa0020479800314798002e429000da
:10120800e04f5200020032000002eb0043003700ba
:101218002e409000aafd07002e409000cdff070049
:1012280000027800040f78001e027800e00f5200d8
:1012380002003a000002eb00380037001e02780076
:10124800e10f520002003a002e409000aeff070066
:10125800758880000410200004826200e00f5200ac
:1012680009003a00c5878000b487800004825200d4
:101278000402d1009e0f5200030039002e40900056
:10128800a1ff07000f11a800e30347002511210063
:1012980095427800e68780001400200013c0b30050
:1012a800070178008540780006007800030f0700e2
:1012b800e48780000402e800e4878800e58780006e
:1012c800c4878000848f520002003900b4878000f0
:1012d800e48788001e027800e10f520003003a00fc
:1012e8002e40900088ff07000b00370075888000ab
:1012f8000402200004826200e00f520006003a0057
:101308000eb1a8006c4007000002be00040278007d
:101318006c02420044888800140020000400780011
:101328000080fa00000006000c00fa0060479800f0
:1013380041079800520798000002eb001407980034
:101348006e429000e04f5200020032000002eb00b3
:10135800600037006e40900059fd07006e40900015
:101368007cff070000027800240798002e029000f6
:10137800e00f520004003a006e40900062ff070040
:101388000002eb00530037002e029000040f780093
:10139800ae0290005e029000848f52000200360078
:1013a8005e029000040f7800758880000410200009
:1013b80004826200e00f52000a003a00c5878000ec
:1013c800b4878000048252008402d1002e0290006b
:1013d800848f5200030039006e4090004aff0700d6
:1013e8000f11a800e48780009e024200c487800095
:1013f800848f520016003900c5878000e48780007a
:101408000482520014079800ce0390002511210091
:1014180095427800e68780001e02900013c0b30052
:10142800070178008540780006007800a30e0700c1
:10143800ce0290001e0290000482420044079800e9
:101448001e0290001e0f1200b4878000e4878800f7
:10145800ce0390002511210095427800e687800090
:101468001e02780013c0b300070178008540780099
:1014780006007800910e0700e48780001e024200f3
:10148800e4878800ae0290005e029000848f5200cc
:1014980003003e006e4090001bff07000b00370062
:1014a800758880000402200004826200e00f520068
:1014b80006003a000eb1a800ff3f07000002be0078
:1014c800040278006c024200448888001e029000e2
:1014d8001e024200040078000080fa0000000600a6
:1014e8000400fa00004f7800110798001e029000cf
:1014f80004007800bffc07000002780004017800af
:101508009e0090001e40780087ff070000027800c8
:101518009e02900004824200040078000080fa00d5
:10152800000006000600fa00404798004e4290006e
:10153800e04f5200020032000002eb000c003700be
:101548004e409000defc0700c5878000b48780000d
:1015580004825200040fe9004e409000fdfe07008f
:1015680000027800140798001e0290001e02120064
:10157800040078000080fa00000006000200fa006b
:10158800004f78001e4078000c0007000002780029
:10159800e00f5200070032001e407800c8fc070028
:1015a800048880001488880011c0b30000c1b3000b
:1015b8004f0507000080fa00000006000200fa004c
:1015c800004f78001e427800e04f520002003200bf
:1015d8000002eb00120037001e407800b8fc07003c
:1015e8000588800014888000848f52000400390028
:1015f80005888000148880000482520008003700a3
:10160800d587800014888000848252000688800074
:10161800c487800004025300048242000402e800e8
:10162800040078000080fa00000006000600fa00b6
:1016380020479800210798002e409000dfff070000
:1016480000027800040f78001e027800e00f5200b4
:1016580002003a000002eb00290037002e409000fb
:1016680097fc07002e029000e00f52000a0032009b
:101678002511210095427800178880002e039000dc
:1016880014002000854178000701780011c0b300dc
:1016980006007800090e0700148880000402e8009c
:1016a8001488880015888000d4878000848f5200b1
:1016b80002003600c4878000148888001e02780063
:1016c800e10f520002003a000f51a8000b0037004a
:1016d800758880000402200004826200e00f520036
:1016e80006003a000eb1a800733f07000002be00d2
:1016f80004027800d403b000448888001400200055
:10170800040078000080fa00000006000a00fa00d1
:101718004047980031079800420798000002eb0004
:10172800040f78004e409000a4ff070000027800e4
:10173800140798001e029000e00f520002003a00c1
:101748000002eb004f0037004e4090005cfc0700a1
:10175800ce0290001e029000848f520002003600d4
:101768001e02900044079800158880004e029000e1
:1017780084824200d4878000848f5200190036008a
:10178800d58780001488800004825200040fe80086
:101798003e029000e00f52000d003200251121009a
:1017a80095427800178880003e0390001e0278005a
:1017b800854178000701780011c0b3000600780061
:1017c800be0d07003e0290001e024200340798003a
:1017d8004e0290001e02520044079800c487800001
:1017e800148888003e029000e00f52000a00320080
:1017f8002511210095427800178880003e0390004b
:101808004e029000854178000701780011c0b300ae
:1018180006007800a90d0700158880004e02900088
:1018280004824200148888004e0290001e02420082
:10183800440798009e0290004e0290008482520055
:101848004e029000848f520002003e000f51a80003
:101858000b003700758880000402200004826200b3
:10186800e00f520006003a000eb1a800123f070030
:101878000002be0004027800d403b0004488880047
:101888004e029000040078000080fa000000060074
:101898000600fa00404798004e429000e04f520080
:1018a800020032000002eb000b0037004e409000af
:1018b80003fc0700d5878000c4878000048f52008e
:1018c8004e4090003dff0700000278001407980082
:1018d8001e0290001e021200040078000080fa0028
:1018e800000006000e00fa006047980041079800c3
:1018f80052079800630798006e429000e04f52002c
:1019080003003a005e029000e00f520002003a0025
:101918000002eb00450037006e409000e8fb07002e
:101928006e40900025ff0700000278001407980019
:10193800ee0290005e029000848242001e02900037
:10194800848f5200040036009e0290006e029000c0
:101958000482520054079800158880006e02900097
:10196800048f4200d48780009e0f5200050031008a
:10197800d5878000c4878000048252000482ea0070
:101988001e0f4200d48780001e0252000402e800a5
:1019980024079800de0290002e029000848f5200e7
:1019a8000a003e0025112100954278004e03900060
:1019b8005e029000854178001e01780011c0b300d6
:1019c800060078003d0d070017003700251121009b
:1019d800954278004e0390002e02900085417800d1
:1019e8001e01780011c0b30006007800330d07000f
:1019f800de0290002e029000048252002511210080
:101a080095427800c78780004e0090002e03900012
:101a180006034000854178000701780011c0b30033
:101a280006007800250d07005e029000040078008b
:101a38000080fa00000006000600fa00204798001f
:101a480021079800ae019000120020008e00780057
:101a58002e409000a3ff07001e4278000440780043
:101a68000080fa00000006003e00fa002077980087
:101a7800211f9800321f9800431f9800541f980098
:101a8800651f98002e729000e04f520003003a0044
:101a98003e1a9000e00f520002003a000002eb00ec
:101aa800260137002e70900085fb07002e709000ed
:101ab800c2fe070000027800ce1a9000050252000c
:101ac800140798009e0290003e1a9000848f5200de
:101ad800020031000082eb00180137005e1a900006
:101ae800e00f5200060032009e0290005e1a90003d
:101af800848f5200020036005e1a90001407980086
:101b0800158880004e1a900004824200340798001d
:101b1800d58780003e029000848f52000700310074
:101b2800d5878000c4878000048252000482ea00be
:101b3800be0290000482420034079800be02900062
:101b4800050f7800d58780003e029000048252007d
:101b58000402e800240798004e1a90003407980001
:101b6800be1a9000750798002e1a9000040f98006e
:101b78002e1a900094427800154f98002e1a900063
:101b88000402e800241f98000002eb006407980094
:101b98006e1a9000e00f52000c0032009e4a90002e
:101ba80004c6b30084cf5200080036009e4a900055
:101bb800a4c7b30084cf520004003e009e4a9000a0
:101bc80004ceb30004c24200144f980004c2b3000c
:101bd800244f98002e4a90008482fb002e02900029
:101be800848f5200020036002e029000244f980085
:101bf8002e4a90008482fb001e029000848f5200bf
:101c0800020036001e029000244f98002e4a9000d1
:101c18000482fb00251121009542780072034700d9
:101c2800854178001e01780011c0b30006007800d5
:101c3800a20c07002e4a90000482fb001e0f4200ef
:101c48002e4a90000482fb00ae02900004825200eb
:101c5800240798002e029000e00f520004003a007a
:101c6800c4878000040f78000082eb0024079800e6
:101c78006e1a9000e00f5200680032000042eb003c
:101c8800044f9800600037000e4a90000482fb0061
:101c980004024700a452900004c6b30084cf520047
:101ca800110036000e4a90000482fb00040247002f
:101cb800a4529000a4c7b30084cf52000a003e008b
:101cc8000e4a90000483fb000e4a90000482fb0039
:101cd80004024700a452900004ceb30004c242009c
:101ce80086024700a45298000e4a90000482fb0026
:101cf80004024700a45290001e4a900084cf52006c
:101d080023003a003e1a90000402e900341f9800ac
:101d18003e1a9000e00f520008003a00be02900000
:101d28007e029000848252000e4a90000482fb00da
:101d3800048242000402e800800037002e1a900056
:101d480094427800154f98002e1a90000402e8007b
:101d5800241f980014002000640798009e4a9000f1
:101d680004c6b30084cf5200240036009e4a900077
:101d7800a4c7b30084cf520020003e009e4a9000c2
:101d880004ceb30004c24200144f98001b00370071
:101d98007e029000341f98006e029000e00f5200ff
:101da800160032008e0a9000251f98002e1a900007
:101db80094427800154f98002e1a90000402e8000b
:101dc800241f98009e4a900004c6b30084cf520096
:101dd800080036009e4a9000a4c7b30084cf520082
:101de80004003e009e4a900004ceb30004c24200a4
:101df800144f98000002eb00640798000e4a900008
:101e08000442e800044f98008e4a90002e4a900041
:101e180084cf52009cff3900370037000042eb00a6
:101e2800044f9800300037000e4a90000482fb00ef
:101e380004024700a45290001e4a900084cf52002a
:101e480017003a003e1a90000402e900341f980077
:101e58003e1a9000e00f520008003a00be029000bf
:101e68007e029000848252000e4a90000482fb0099
:101e7800048242000402e800300037002e1a900065
:101e880094427800154f98002e1a90000402e8003a
:101e9800241f980014002000640798000f003700e2
:101ea8007e029000341f98006e029000e00f5200ee
:101eb8000a0032008e0a9000251f98002e1a900002
:101ec80094427800154f98002e1a90000402e800fa
:101ed800241f98000002eb00640798000e4a900047
:101ee8000442e800044f98008e4a90002e4a900061
:101ef80084cf5200ccff39002e4a90000482fb00a8
:101f08009e02900004825200140798009e029000de
:101f18003e1a9000848f5200020031000082eb00cc
:101f2800060037002e4a90000482fb00be02900093
:101f3800048242003407980024ff37000400780028
:101f48000080fa00000006000800fa00004f780040
:101f58001147980012079800230798003407980043
:101f68000e03e800be0290002e0290009e01900031
:101f780012002000860078001e407800bafe070094
:101f880000027800040078000080fa0000000600d3
:101f98000e00fa00881f78000042eb00044f78001a
:101fa8002e0237001e40780045fa07000042eb0079
:101fb800644798000002eb00140798000002eb0049
:101fc800240798007588800004202000048262009d
:101fd800e00f520005003a00758880000440200098
:101fe80004826200e00f52000b003200f813070071
:101ff80000027800e00f52000700320004c1b3006d
:1020080064479800748880004a22de0061426200ba
:102018000482fb00140798007588800004022000e1
:1020280004826200e00f52000900320048888000f4
:10203800213d07000002be0004027800040254009b
:10204800e00f520002003c0004c1b300644798004e
:10205800758880000404200004826200e00f5200aa
:102068000900320058888000133d07000002be00b6
:102078000402780004025400e00f520002003c0001
:1020880004c1b3006447980064888000eb0f5200d5
:102098000b003a0058888000073d07000002be0088
:1020a8000402780004025400e00f520004003c00cf
:1020b80014c1b30064479800c400200064888800f5
:1020c80064888000e40f520063003a000002eb00cd
:1020d800440798005b0037004e0290007422b90054
:1020e80004027800f0024200a40b2100048242009e
:1020f80014027800e00f5200560032004e029000a1
:102108007422b90004027800f0024200a40b2100f6
:10211800048242009402780084888000848f5200f0
:1021280045003a0010fa07004e0290007422b900e8
:1021380084027800a40b210004824200a20020003f
:1021480084007800800a21009cf907004e02900064
:102158007422b90004027800ea024200a40b2100ac
:102168000482420014027800048588004e02900020
:102178007422b90004027800ec024200a40b21008a
:10218800048242001402be0061024200e0824a005a
:10219800d4848800e58488005585800044858000c3
:1021a8008482420004858000848242001485800075
:1021b80004826a008488880024c1b30064479800b8
:1021c8006400200064888800ce029000c4fe2f00be
:1021d80004aab9000402780087022000848343001f
:1021e8004e0290000402e8007422b90084027800cc
:1021f800a40b210004824200040378004e029000e0
:102208007422b90084027800a40b210004824200e1
:10221800840278000702780013c0b3000601780032
:1022280011c0b30005007800240b07000002eb0082
:1022380094878800080037004e0290000402e800e6
:10224800440798004e029000e20f5200a2ff3600a9
:1022580001003700000000006e429000e04f52007d
:10226800090032001e02900004f0a7000402ea00f0
:102278000402e9004f22de0004427800844078001e
:102288006e4090001a020700748880007002620095
:10229800e00f52002b003a0064888000e70f5200dc
:1022a80066013a006b3c07000003be0024888000ea
:1022b800358880000402530085825b00e00f5200dd
:1022c800e08f5a005f013500748880006702620061
:1022d800e60f52000e003a00748880004322de00a8
:1022e80061426200644798001e40780015fb0700b1
:1022f8001e40780013fb07006e429000e04f52002a
:1023080052013a00e4002000648888005201370036
:1023180095f9070021c0b30000c1b300f40107001c
:102328004c3c07000003be0024bc2e00b500200072
:102338000602420087824a0024888800358888007f
:1023480045013700433c07000003be002488800095
:10235800358880000402530085825b00e00f52003c
:10236800e08f5a003b0135007ff907006488800040
:1023780005002000c600200007002000860f52003c
:10238800878f5a00e8003e00046001000c00370007
:10239800230037004e00370056003700e4003700ae
:1023a8007e0037008e003700a2003700af003700ec
:1023b800bc003700c00037009e003700cc00370053
:1023c800d125070000027800e00f5200da00320041
:1023d8001400200064888800a485800064026200dc
:1023e800e00f5200070032004485800055858000c8
:1023f8000402780011c0b30004007800e725070044
:10240800d400370044858000558580000402780098
:1024180011c0b30004007800e0250700cd003700a4
:102428006a02470004007800f425070000027800db
:10243800e00f5200c2003200c025070000027800f9
:10244800e00f5200170032005e029000ee0290008a
:102458004485880055858800240020006488880009
:102468005585800044858000848242000485800070
:10247800848242001485800004826a00848888006f
:102488000042eb000002fd00b8f0b7000002fd00ba
:10249800c40420000500200094848800a5848800d6
:1024a800ac003700eb3b07000003be0024bc2e0045
:1024b800b50020000602420087824a00248888006e
:1024c800358888000002eb0064888800a100370086
:1024d800f93b07000002be00040278004488880027
:1024e800800a2100593407003400200064888800dd
:1024f80098003700c10a2100800a2100c034070073
:1025080000027800e00f52001d003a00ea3b070085
:102518000002be00840278004488800004835200d0
:1025280094848000a584800004027800840f5300fe
:1025380085003600840b210014427800e54f5200d4
:102548000c003e00840b2100144278000442e8008d
:102558000002fd00b8f0b7000002fd00948480007e
:10256800a58480000402420085824a009484880081
:10257800a58488002400200064888800750037003e
:1025880024c0b300644798000002eb0014079800c9
:1025980054002000648888006e00370024c0b3000f
:1025a800644798001400200014079800840b210049
:1025b80014427800e34f52006500360044c0b3006f
:1025c8000002fd00b8f0b7000002fd00042d210054
:1025d8003501200094848800a58488005d003700b8
:1025e800840b210014427800e14f520005003e00a0
:1025f80024c1b30064479800140020001407980011
:10260800540037007488800068026200e00f5200ae
:102618000500320044c1b30064479800140020004c
:10262800240798004b00370024c0b3006447980083
:1026380048003700840b210014427800e44f520010
:1026480005003e0004c1b300644798001400200050
:10265800140798003f003700840020006488880031
:1026680014c1b300644798003a003700840b210076
:1026780014427800e44f520005003e0014c1b30034
:1026880064479800140020001407980031003700b0
:1026980044c1b30064479800140020002407980040
:1026a8002c00370044c1b300644798001400200090
:1026b8002407980027003700840b21001442780073
:1026c800e44f520005003e0004c1b300644798007f
:1026d80014002000140798001e00370044c1b300fe
:1026e8006447980014002000240798001900370058
:1026f800840b210014427800e44f520005003e008c
:1027080014c1b3006447980014002000140798000f
:102718001000370044c1b30064479800140020003b
:10272800240798000b00370000000000090037005c
:102738000000000007003700000000000500370017
:10274800000000000300370000000000010037000f
:10275800000000006e429000e04f5200320032004c
:102768001e029000e00f52002c003200840b210062
:10277800144278000442e8000002fd00b8f0b700f7
:102788000002fd0094848000a584800004024200b9
:1027980085824a0094848800a5848800f584800096
:1027a800f48780000482520044079800f584800072
:1027b800f4878000848f520006003100c5878000ae
:1027c800b487800004825200ce0290000482420046
:1027d80044079800b6848000c78480004e029000a9
:1027e800050020000402530085825b00b484880041
:1027f800c5848800258580004e029000048242002e
:1028080024858800f4878000f48488008040eb00e9
:102818006e409000b60007000300370011c0b300f7
:102828006e409000b20007002e029000e00f5200a8
:1028380009003200f303070007003700000000001a
:10284800050037000000000003003700000000000a
:1028580001003700000000001e4fe8001e4278000b
:10286800e04f5200cffd32000002eb004407980011
:10287800380037004e0290007422b9000402780034
:10288800f0024200a40b21000482420014027800e6
:10289800e00f520033003200073b07000002be0081
:1028a800040378004e0290007422b90004027800f4
:1028b800f2024200a40b21000482420014027800b4
:1028c8008402530034392000848f52001e003600e1
:1028d800ce029000c4fe2f0004aab90004027800ba
:1028e80087022000848343004e0290000402e8001f
:1028f8007422b90084027800a40b210004824200eb
:10290800040378004e0290007422b9008402780013
:10291800a40b210004824200840278000702780098
:1029280013c0b3000601780011c0b3000500780099
:10293800620907000002eb00948788004e029000ad
:102948000402e900440798004e0290000402e800df
:10295800440798004e029000e20f5200c5ff36006f
:1029680001003700000000004f0478000080fa00e2
:10297800000006002c00fa00301798004117980054
:10298800521798003e139000964078000180fb0093
:10299800964390008783fb00c83bdd000002780067
:1029a800070272008403780007027800a6439000ab
:1029b8008783fb00364390000683fb004833dd0025
:1029c800870078008680700001037800860278000e
:1029d800340f9800450f98004e1290001403be0063
:1029e800560f9800670f98000042eb00645f98004c
:1029f80064c0b300745f9800de1390000717980056
:102a08000e12900004007800b92a0700000278002e
:102a18000417980076024700c100200004007800df
:102a2800f12a0700000278000482ea0014179800cf
:102a38005e1090008a13070000027800241798009f
:102a48009e1290002e129000848f520003003200d4
:102a58006b11070014002000220037000000eb0073
:102a68003e3907000e82e80041012000040078008a
:102a7800fe1407000e82e80004007800280307000f
:102a88007e0290004422de006f4262002500200092
:102a98000522dd00744f52009e4078000182fb0041
:102aa800de129000048252007402520054179800fb
:102ab8000e82e800be10900004007800ea010700ca
:102ac80000027800e00f5200040032000e82e80095
:102ad800de10900004007800ee030700481107009c
:102ae80014002000040078000080fa0000000600ae
:102af8002a00fa00006f9800116f98009af70700f3
:102b08000e6a90000482fb006102620004427800b1
:102b1800e04f5200050032000f71a8008e6a900045
:102b2800e4cfb30004c26200046f98000eb1a9009c
:102b38000ed1a9000ef1a9000f31a9000f51a9006b
:102b48000f11a90000000000211107000002780001
:102b5800e00f5200fcff32000e6a90000482fb0076
:102b680066026200e00f5200030032000002eb0030
:102b7800040f780077003700e5878000f484800030
:102b8800848f520003003a000002eb00040f780023
:102b980062003700e5878000f4848000848f52004b
:102ba8001b003600e5878000f4848000048f520003
:102bb800248580009e0f520002003100218580008c
:102bc800010f7800b48580009e0f52000300310089
:102bd800b4858000040f78000f51a800251121004a
:102be80095427800f68480001e02780085417800be
:102bf800060178008040eb0000772100af0807004d
:102c0800f48480001e024200f484880043003700e8
:102c1800c5878000f484800004825200341798002d
:102c2800be129000e487800084824200b48780004e
:102c3800048f5200248580009e0f5200020031004c
:102c480025858000050f7800b48580009e0f52000e
:102c580003003100b1858000010f78000f51a800f2
:102c68003e1290009e0f5200020036001e027800ad
:102c7800341798003e1290002511210095427800e3
:102c8800f684800085417800060178008040eb00da
:102c980000772100890807003e1290001e021200ea
:102ca800341798003e129000e00f52000e003200d8
:102cb8003e1290002511210095427800b7878000c8
:102cc800c0878000f6848000060050000677210047
:102cd8000603400085417800070178008040eb003a
:102ce8000600780075080700f48480001e02420080
:102cf800f4848800f5848000c4878000848f5200a3
:102d080006003900f5848000b6878000c4878000fb
:102d18000402530004824200f4848800758880000d
:102d28000480200004826200e00f52000900320093
:102d3800248580009e0f520006003200b485800072
:102d48009e0f5200030032000e6a90000404a00097
:102d5800046f98001e027800e00f520005003a0048
:102d68000e6a90000482fb0063026200e00f5200ca
:102d780021003200248580001e025200248588002c
:102d88001e027800e00f5200030032000e6a900025
:102d98000434a000046f98001e6a90000482fb00af
:102da8006102620004427800e04f520008003200dd
:102db8000042eb000002fd00b8f0b7000002fd0081
:102dc800d41223001500200094848800a58488006c
:102dd800a03907000003be0094848000a584800009
:102de8000602420087824a002488880035888800c5
:102df8000e91a8003a0037001e6a90000482fb007a
:102e080062026200e00f52001400320074888000f1
:102e1800674262000442e800674262000482fb00e5
:102e2800670262007688800085ff2f0085026300b4
:102e38000502720074888800b4848000c58480000c
:102e480061025200e0825a00b4848800c584880078
:102e580014002000040f78002100370074888000d7
:102e680070026200e00f52001d0032001e6a9000de
:102e78000482fb0061026200e00f520010003a0079
:102e8800840b210014427800e04f52000c003200fd
:102e9800840b2100144278000442e9000002fd007e
:102ea800b8f0b7000002fd0094848000a58480007b
:102eb8008502d1000482d30094848800a584880008
:102ec800643907000003be0094848000a584800054
:102ed8000602420087824a002488880035888800d4
:102ee8001485800024079800048580003407980022
:102ef800b4848000c5848000440798005507980072
:102f0800d4848000e58480006407980075079800e1
:102f18000e0a900004e0a10004f0a100040f98003c
:102f28000e0a90000400a1000410a1000420a100d2
:102f38000430a100040f98008e6a9000155798007d
:102f48000002eb00340f9800b6848000c78480002c
:102f58001e027800050020000602420087824a000f
:102f6800b4848800c58488000e6a90000482fb003f
:102f780062026200e00f52001a0032000e6a9000ee
:102f88000482fb0070026200e00f520003003a0066
:102f98006022b8006407980075079800a48580002f
:102fa80062026200e00f5200070032004e029000f9
:102fb800de02900061025200e0825a004407980045
:102fc8005507980007003700b4848000c584800046
:102fd80061024200e0824a00b4848800c584880007
:102fe800b430a8000e6a90000482fb0061026200ff
:102ff80004427800e04f520001003200b410a800eb
:103008000588800014888000848f520009003900e8
:10301800d5878000c487800084825200168880008b
:10302800048880000402530004824200140f9800b0
:10303800050037001588800004888000048252004b
:103048000402e900140f98000b1007000002780032
:10305800140798009e029000f4032000848f520009
:1030680003003e000002eb0014079800030037003d
:103078001e0290000404b100140798009e0a9000f4
:103088001e029000848f5200020036001e0290003b
:10309800140f98006402470004007800a00107009c
:1030a8009e007800748f40000e0a90000440a00033
:1030b8000450a1000460a0000470a100040f98004f
:1030c8000e6a90000482fb0062026200e00f520068
:1030d800150032001e027800640f420024c0b300bd
:1030e800045f980044c0b300145f98002480210056
:1030f800540f98000e0a90004422de006f426200ce
:103108000442e8006f4262000482fb006f02620022
:103118004422dd000e0b9000f5f02f0085026300bd
:1031280005027200040f980066eb20001643780031
:103138008683fb0076eb2000164378000683fb00ad
:103148004833dd0087027800868272000503780024
:103158000602780086eb2000164378008683fb0081
:1031680096eb2000164378000683fb004833dd0009
:103178008700780086807000010378008602780056
:10318800640f9800750f980044858000558580006d
:1031980004179800151798000042eb004467980040
:1031a80064c0b300546798009e02780035179800f1
:1031b8003e12900004007800cd2807000002780035
:1031c800341798007c024700c100200004007800f2
:1031d80005290700000278000482ea00240f9800fd
:1031e80080742100351107001e01780061c0b3000a
:1031f800800a2100fb3607006402470041012000d5
:1032080004007800a41307000e6a90000482fb00f3
:1032180062026200e00f52000400320078024700a8
:1032280041002000040078009b130700c0752100ae
:103238003d1107001e007800891107000002780080
:1032480014079800c07621001c1107000e82e800c0
:1032580021002000040078008f1307005d1007008c
:103268000080fa00000006000a00fa003007980003
:10327800410798003e02900014029000e00f5200af
:1032880002003a000002eb0022013700e4cfb3004d
:1032980014479800ce029000254290000483fb005a
:1032a800354290000482fb004822dd008600780049
:1032b8008480700001027800840278004e02900039
:1032c800144178000283fb00144290000482fb0042
:1032d8004822dd00860378008483730007027800a3
:1032e800848242003e0290001402780084824200e8
:1032f8003e0290001402900004826a00240798009d
:103308000042eb00044f78003f0037001e40780071
:103318006bf5070064888000ed0f5200340032001e
:1033280064888000e40f520008003a008588800015
:103338003e02900014029000848f52002e003a0042
:103348009e407800114798002e003700858880003d
:103358002e029000848f520029003a0082f507005f
:103368003e0290009402900014858000848f5200e1
:1033780024003a003e029000940278000485800000
:10338800848f52001f003a004e03900016417800c7
:103398000280fb00964390008783fb00c83bdd005a
:1033a80000027800070272008403780007027800a0
:1033b800a64390008783fb00364390000683fb00fa
:1033c8004833dd00870078008680700001037800ac
:1033d800860278004685800057858000860f520057
:1033e800878f5a0007003a0014002000c9003700f0
:1033f8000000000003003700000000000100370053
:10340800000000001e4fe8001e427800e04f520006
:10341800beff32001e429000e24f4200160032000a
:103428001e40900026f507004ff507001e42900049
:10343800e24f4200100032002e019000828888007e
:10344800a2002000ce009000800a2100dbf40700d3
:103458003e02900014027800048588003e02900025
:103468001402900014858800b4878000f4848800d2
:1034780014002000a70037003e029000e4029000ec
:103488000420200004826200e00f520002003a008b
:103498000002eb009f00370094878000e00f520085
:1034a800020032000002eb009a0037000002eb0035
:1034b800140798004e0037001e0290007422b900cd
:1034c80004027800f0024200a40b210004824200aa
:1034d80014027800e00f5200490032001e029000ea
:1034e8007422b90004027800f0024200a40b210003
:1034f80004824200940278003e0290001402900078
:10350800848f520032003a001e0290007422b900e3
:1035180004027800ea024200a40b2100048242005f
:10352800940278003e02900014027800848f5200c2
:1035380029003a001e0290007422b9008402780023
:10354800a40b2100048242001403be004e00900028
:10355800104278000481fb00904090008180fb00bd
:10356800c808dd0082027800818272008500780038
:1035780001027800a04090008180fb00304090005c
:103588000080fb004800dd000101780000017100a7
:103598000200780080027800840f5300858f5b005a
:1035a8000f003a00c43707000002be000403780089
:1035b8001e0290007422b90084027800c40c210015
:1035c80004824200060a78000002eb00510037002e
:1035d8000000000003003700000000000100370071
:1035e800000000001e0290000402e8001407980082
:1035f8001e029000e20f5200afff360001003700b4
:10360800000000000042eb00044f78003d00370046
:103618001e407800aaf407007488800068026200df
:10362800e00f520033003200cff407001585800008
:103638003e02900014029000848f52002f003a003e
:103648001e0290007422b90084027800a40b2100a5
:1036580004824200a2002000ce00900004007800fe
:1036680056f407003e029000140378001e029000f2
:103678007422b90084027800440c210004824200bc
:10368800060a78003e029000b402900024029000de
:103698001e0390007433b90086037800660c21007d
:1036a80006834300048bbe003e0290001403900082
:1036b8001e0290007422b90084027800a40c210034
:1036c80004824200060a78007b3707000002be0029
:1036d800040378001e0290007422b9008402780066
:1036e800c40c210004824200060a78000002eb00a4
:1036f800080037000000000001003700000000004b
:103708001e4fe8001e427800e04f5200c0ff320012
:103718000002eb00040078000080fa0000000600b8
:103728000200fa00000f78001e02780014027800e8
:10373800040078006e270700000278009e027800d7
:10374800840a78001e0278001402900004007800b1
:1037580067270700000278009e027800940298000c
:103768001e027800b4029000240290000400be00fb
:103778006d2707000002be001e037800240398008e
:10378800350398001e027800d4029000440290008d
:103798000400be00642707000002be001e03780074
:1037a80044039800550398001e02780074029000a4
:1037b800040078004e270700000278009e02780077
:1037c800f40298001e027800040a900004007800b1
:1037d80047270700000278009e027800840a9800b4
:1037e8001e027800140a90000400780040270700a1
:1037f800000278009e027800940a98000080fa007f
:10380800000006000000fa00881f780056f4070040
:103818001485800084888800b4878000e487880045
:10382800b4878000f4878800c487800004888800f3
:10383800c487800014888800748880006802620049
:10384800e00f52000200320044002000010037005f
:10385800d4002000648888000e11a9000e31a90048
:103868000e51a9000e91a9000eb1a9000ed1a90010
:103878000ef1a9000f11a9000f31a9000f51a900dd
:103888000f71a9000f91a800b410a900b430a900c5
:10389800b470a900b490a900b4878000f4848800ab
:1038a80068092100b524070000027800040c78009c
:1038b80068092100b1240700000278001404980068
:1038c8000082eb009485880014002000248588007d
:1038d8004f0478000080fa00000006000400fa0097
:1038e800881f7800c00020009c350700461107009b
:1038f80000427800044f78001e4278008482fb0062
:10390800040f20000482620042a2de000442780014
:10391800744f52001e427800e04f520002003a00f5
:103928008421200057003700710020000000eb00c0
:103938004e1107004000370033110700004278009d
:10394800144798001e429000e04f52004300320096
:103958001e429000e14f5200360032001e42900095
:10396800e24f520020003a001e427800e24f520017
:103978003c0036000002eb001407980022110700f3
:1039880000427800144798001e429000e44f52000d
:1039980009003a000e82e8000404e8001a11070042
:1039a80000427800044c78000e84e80016110700e5
:1039b80000427800044c78009e0290007421200098
:1039c800848f5200290036009e029000445b20003c
:1039d800848f520002003600445b20002900370023
:1039e8001e029000270037001e427800e14f520067
:1039f80020003600041107000042780014479800a0
:103a08001e4290009e42780084cf52001b0039006d
:103a18001e4290000482fb00840078000000eb0046
:103a2800121107009e4278001e42900004cf5200f7
:103a380001003700000000009e4278000582fb006c
:103a48000402ea004f22de00044278001e4fe9001b
:103a5800e04f5200b8ff3a000900370000000000ac
:103a680007003700000000000500370000000000d4
:103a780003003700000000000100370000000000cc
:103a880084212000040078004f0478000080fa00a8
:103a9800000006002200fa00700f98000117980035
:103aa8007e0a9000d44a9000055798007e0a90003c
:103ab80044039000d40390004607980057079800e5
:103ac8007e0a900024039000b4039000160f98001b
:103ad800270f98000e11a9000e31a9000e51a90058
:103ae8007488800070026200e00f520008003a00fb
:103af800583607000003be0024bc2e00b500200085
:103b08000602420087824a00248888003588880097
:103b180064888000e40f520003003200e50f520071
:103b28002c003200770037000e5290000482fb0010
:103b380064026200e00f52000200320031ff070009
:103b4800270437000e5290000482fb0070026200c6
:103b5800e00f5200090032004e029000de02900091
:103b6800b4848800c58488008040eb0040c0b3005e
:103b7800dffb070023ff0700190437000e529000ef
:103b88000482fb0062026200e00f52000f00320064
:103b98001e0a9000ae0a900061024200e0824a00cc
:103ba800d4848800e58488004cff07000002780070
:103bb800b485880011c0b30020c1b300ccfb070056
:103bc8006400200064888800050437000dff0700a2
:103bd800030437000e5290000482fb006402620066
:103be800e00f5200eb033a000e5290000482fb00f3
:103bf80070026200e00f520017003200b6848000a5
:103c0800c78480004e029000de029000840f5300ab
:103c1800858f5b0010003200b6848000c784800066
:103c2800160f9800270f98004e029000de029000b1
:103c3800b4848800c584880011c0b30040c0b300b4
:103c4800abfb07001e0b9000ae0b9000b6848800fb
:103c5800c7848800e20337000e5290000482fb00fc
:103c680062026200e00f5200cc0332001e0a90008c
:103c7800ae0a900061024200e0824a00d4848800c3
:103c8800e58488007e0a90007402900024858800ec
:103c980012ff070000027800b48588000e529000d9
:103ca8000482fb0070026200e00f52000f00320035
:103cb80011c0b30000c1b3008dfb070074002000e1
:103cc80064888800e33507000003be0024bc2e008a
:103cd800b50020000602420087824a002488880036
:103ce800358888000e91a900bd03370011c0b300c4
:103cf80020c1b3007efb07006400200064888800b0
:103d0800b70337008e139000670798000e52900093
:103d18000482fb006102620004427800e04f520016
:103d2800030032006e0290000402e8006407980065
:103d38000e5290000482fb0062026200e00f520003
:103d4800030032006e0290000402e8006407980045
:103d58000588800014888000848f5200090039008b
:103d6800d5878000c487800084825200168880002e
:103d7800048880000402530004824200340798003b
:103d880005003700158880000488800004825200ee
:103d98000402e90034079800d4848000e584800098
:103da8001e0b9000ae0b90000402530085825b004e
:103db800340f9800450f98003e0a9000540f980061
:103dc8000002eb00740798006e029000e00f5200aa
:103dd800350032003e029000e00f520048003200e9
:103de8003e0a9000ce0a9000e00f5200e08f5a0081
:103df8000a0035003e0290006123b8003e0a900098
:103e0800ce0a9000840f5300858f5b0003003600b4
:103e18001400200074079800140037006e02900008
:103e28006123b8003e0a9000ce0a900006024200c4
:103e380087824a00e00f5200e08f5a000b003400de
:103e4800be0290006e029000048252006123b90005
:103e58003e0a9000ce0a9000840f5300858f5b00c5
:103e68000200350014002000740798003e029000fc
:103e78006123b8003e0a9000ce0a9000840f5300d8
:103e8800858f5b001e003400de0a90006e029000f1
:103e980004824200e00f5200190034001400200090
:103ea80074079800160037003e0a9000ce0a90006a
:103eb800e00f5200e08f5a0003003a00140020007f
:103ec800740798000e0037003e0a9000ce0a900052
:103ed800e00f5200e08f5a00090035003e029000c2
:103ee8006123b8003e0a9000ce0a9000840f530068
:103ef800858f5b00020036001400200074079800cc
:103f08007e029000e00f520009003a000e52900025
:103f18000482fb0064026200e00f520021033a00b1
:103f280011c0b30000c1b300f1fa07002c03370039
:103f38000e5290000482fb0066026200e00f5200fd
:103f4800020032002ffe0700250337000e529000b2
:103f58000482fb0070026200e00f5200130332007b
:103f6800648880006123b800a4ff2f00f5ff2f00ac
:103f78000602420087824a006600200007002000ef
:103f8800860f5200878f5a0059013e0004600100d5
:103f9800060037001e0037001d0037001c003700e0
:103fa8001b0037001a00370046013700b68480002e
:103fb800c78480004e029000de029000840f5300f8
:103fc800858f5b0010003200b6848000c7848000b3
:103fd800160f9800270f98004e029000de029000fe
:103fe800b4848800c584880011c0b30040c0b30001
:103ff800bffa07001e0b9000ae0b9000b684880035
:10400800c7848800f602370074002000648888009e
:10401800e5878000f4848000048252002407980019
:104028002e029000e00f520006003d00c587800078
:10403800b487800004825200ae02900004824200dd
:1040480024079800b6848000c78480002e02900060
:1040580005002000041f430005974b004e03900005
:10406800de0390001e02be000402530085825b003e
:10407800048fbe001e02be00e00f5200e08f5a00ff
:1040880014003400a485800061026200e00f520031
:10409800060032001e03be001400200005002000a8
:1040a800840f5300858f5b00040032008040eb00d2
:1040b80000c1b3008efa0700c90237004e02900013
:1040c800de02900061025200e0825a004407980024
:1040d80055079800b6848000c7848000f584800066
:1040e800f487800004825200cfa2de00041f530030
:1040f80005975b00f5848000f4878000848f520068
:1041080006003100c5878000b48780000482520011
:10411800050020001e1f12001e971a004e02900074
:10412800de0290001e1f52001e975a001e02be009b
:10413800e00f5200e08f5a0050003400c58780001d
:10414800b48780000482520005002000be0f520090
:10415800ae8f5a0049003900b470a900b490a90084
:104168000f11a900f787800027079800f5878000be
:104178001e02780004824200f4878800f5848000db
:104188002e029000848f520011003900f5848000bf
:10419800f4878000848f520023003100b6848000a9
:1041a800c7848000f5878000f48480000482520070
:1041b800050020000602420087824a00b484880075
:1041c800c5848800f4878000f484880016003700ce
:1041d800f5848000c6878000b487800004025300fd
:1041e8000482420024079800f58780002e02900080
:1041f800848f52000c003600b6848000c78480008b
:10420800f58780002e0290000482520005002000ed
:104218000602420087824a00b4848800c584880068
:10422800f4878000f4848800f5878000c4878000c4
:10423800848f520006003900f5878000b687800019
:10424800c48780000402530004824200f487880077
:10425800f5848000c4878000848f520030003900c4
:10426800f5848000b6878000c4878000040253006c
:1042780004824200f484880029003700f587800012
:10428800f4848000848f520025003200a4858000c9
:1042980068026200e00f520020003200a48580000e
:1042a80070026200e00f52001b003200b6848000ea
:1042b800c7848000f5848000f4878000048252005f
:1042c800cfa2de000402530085825b00b48488001c
:1042d800c5848800f5848000f4878000848f5200ac
:1042e8000a003100b6848000c7848000c58780003a
:1042f800b487800004825200cfa2de00040253007b
:1043080085825b00b4848800c5848800f4878000b7
:10431800f48488000f51a800b490a800b470a800d5
:10432800f5878000e4878000848f52001c003a00e3
:10433800758880000480200004826200e00f52002b
:104348000a003a00433407000003be0024bc2e00d4
:10435800b50020000602420087824a0024888800af
:10436800358888000e91a9000d003700b6848000ba
:10437800c78480004e029000de029000840f530034
:10438800858f5b0006003a00a48580006102620008
:10439800e00f5200020032000e91a9000f71a9002f
:1043a8007e0a900074039000ce039000b4848000cd
:1043b800c58480000402780004825300040243008c
:1043c800640f980024858000e00f520004003a0032
:1043d8006e0a9000e00f5200010032000f31a80071
:1043e8006e0a90002485880064888000e80f5200d7
:1043f80017003a00b6848000c78480004e029000ff
:10440800de029000840f5300858f5b003a003a006b
:10441800a485800061026200e00f5200380032007b
:104428000c3407000003be00145e2f005500200066
:104438000602420087824a0024888800358888005e
:104448000e91a8009400200064888800310037008d
:1044580064888000e90f52000e003a000e52900066
:104468000482fb0061026200e00f520026003a005d
:104478004e039000de039000b6848800c78488004d
:104488008040eb0040c1b30099f90700ddfc07004c
:10449800d301370064888000ea0f52001c003a00fc
:1044a800b6848000c78480004e029000de0290002f
:1044b800840f5300858f5b00be013a00d1fc0700d2
:1044c800c7013700b4848000c584800061034200be
:1044d800e0834a004e029000de029000840f5300f1
:1044e800858f5b00b5013a00c6fc0700bc013700a8
:1044f800000000000700370000000000050037003a
:104508000000000003003700000000000100370031
:10451800000000000e5290008482fb00040220007c
:1045280004826200e00f5200a6013a00648880000d
:10453800eb0f5200a501320064888000ea0f520098
:10454800a401320064888000ec0f5200a3013200fd
:104558000e129000e00f5200200132005e0a900017
:10456800e00f52007f003c007e0a90006402900039
:104578004422de006f4262000482fb004222dd001a
:10458800840278005e0a90000482520004007800d9
:10459800723207008e1290005e0a90000482420078
:1045a800041798008e1290003e029000848f5200eb
:1045b80002003600be03900007179800d6848000da
:1045c800e78480000e1290000500200006024200d9
:1045d80087824a00d4848800e584880005888000a2
:1045e8000e12900084824200d4878000848f52008b
:1045f80020003600d587800004888000048252009d
:104608000402e8002407980025112100954278004b
:10461800068880002e0290008041eb000081eb00ac
:104628008540780006007800240207008e1290006a
:104638002e02900004825200251121009542780034
:10464800c68780008041eb000081eb008540780040
:104658000600780019020700c58780000e13900035
:104668002e0290000402530004824200048888004d
:104678000d0037002511210095427800068880003a
:104688000e1290008041eb000081eb00854078001d
:104698000600780009020700058880000e129000c5
:1046a800048242000488880094858000e10f42005b
:1046b800ca00320094858000840278000e129000af
:1046c8000482520094858800358580009485800096
:1046d80004824200240798002e029000e00f520046
:1046e80003003d000082eb0094858800bb00370082
:1046f80094858000e00f5200b8003c00d68480000a
:10470800e78480002e029000050020000602420087
:1047180087824a00d4848800e58488000588800060
:104728002e029000048242000488880005888000d8
:10473800d4878000848f52000700360005888000e7
:10474800d6878000c4878000040253000482ea00f0
:1047580004824200048888000082eb009485880067
:104768009e0037005e0a9000e00f52009b00340064
:104778008e1290005e0a9000848242003e029000f1
:10478800848f520004003600be0290005e0a90003a
:1047980004825200041798007e0a90006402900078
:1047a8004422de006f4262000482fb004222dd00e8
:1047b80004007800e9310700058880005e0a90004f
:1047c800848242000e12900084824200d4878000c6
:1047d800848f520033003600d5878000048880001b
:1047e800848252005e0a90000402ea0004824200b9
:1047f8000402e800240798002e029000e00f5200ff
:1048080017003500251121009542780006888000a0
:104818005e0a9000040343002e0290008041eb00e2
:104828000081eb008540780006007800a3010700ae
:104838008e1290002e029000048252002511210051
:1048480095427800c68780008041eb000081eb002c
:104858008540780006007800980107001c003700a2
:104868002511210095427800068880005e0a900094
:1048780004034300d7878000c48780000482530064
:104888000482ea00040343000e1290008041eb000a
:104898000081eb008540780006007800870107005a
:1048a8000b0037002511210095427800068880000a
:1048b8005e0a9000040343000e1290008041eb0052
:1048c8000081eb0085407800060078007b01070036
:1048d80094858000e10f420005003a005e0a9000ce
:1048e800948588000e129000348588003b003700bc
:1048f80094858000840278005e0a9000848f5200bc
:104908001c003600de0a90000e12900084824200dd
:1049180094858000040378003485800004024300f5
:10492800848f520006003e00de0a90000e129000ae
:104938008482420094858000848f520003003100f5
:104948008e12900035858800070037009485800016
:104958008402780034858000848242005e0a9000d8
:1049680004825200348588005e0a9000948588008d
:104978001a003700de0a90000e129000848242006e
:104988009485800004037800348580000402430085
:10499800848f5200110036009485800084027800cc
:1049a80034858000848242005e0a9000848f520021
:1049b8000a003900358580005e0b90000e129000c9
:1049c8000403430094858000040353003485800069
:1049d8000402530004824200348588006e0290006d
:1049e800e00f52001b00320064888000e70f52007d
:1049f80002003200048880001488880075888000ce
:104a08000408200004826200e00f52000500320012
:104a180011c0b30000c1b30035f80700d2ef07009a
:104a28000c0037000ef1a8007588800004042000ef
:104a380004826200e00f520006003a000ed1a8007e
:104a48009d3207000002be00040278007e02420088
:104a5800548888000e5290000482fb0061026200b4
:104a680004427800e04f52005d003200d484800098
:104a7800e584800061034200e0834a006e029000f2
:104a88006120b8001e0a9000ae0a900000024200a1
:104a980081824a00840f5300858f5b0050003a00e2
:104aa800d4848000e584800061024200e0824a00ec
:104ab800d4848800e5848800648880006123b80075
:104ac800a4ff2f00f5ff2f000602420087824a004c
:104ad8003600200007002000860f5200878f5a00fa
:104ae80027003e000460010003003700080037007b
:104af8000f0037001d003700c400200064888800bc
:104b080011c0b30010c1b300f9f707003400370033
:104b1800b400200064888800673207000002be00e5
:104b280004027800d403b0005488880015003700c8
:104b3800b6848000c78480004e029000de02900098
:104b4800840f5300858f5b0005003a008040eb001e
:104b580000c1b300e6f707002afb07002000370072
:104b6800a400200064888800060037008040eb001d
:104b780000c1b300def7070022fb0700180037006a
:104b88000000000011c0b30000c1b300d8f707004f
:104b9800130037000000000011003700000000007b
:104ba8000f003700000000000d0037000000000073
:104bb8000b0037000000000009003700000000006b
:104bc8000700370000000000050037000000000063
:104bd800030037000000000001003700000000005b
:104be8000080fa00000006000e00fa0060479800f6
:104bf8004107980052079800434f98006e42900072
:104c0800e04f5200020032000002eb00a80037001b
:104c18006e4090002aef07004e029000e00f52000d
:104c280002003a001400200044079800d58780004d
:104c3800b4878000048252000402e9002407980027
:104c4800ce0290005e029000848242002e02900004
:104c5800848f5200020036000002eb0094003700f7
:104c680041ef07004e4a90000482fb006302620095
:104c7800e00f520003003a004e4a90003440b3005f
:104c8800444f98005e02900014079800ce029000ee
:104c98005e02900004824200ae029000048252003c
:104ca800240798004e4a90000482fb0062026200ca
:104cb800e00f5200100032004e4a90000482fb00c0
:104cc8006102620004427800e04f520006003200a0
:104cd8002e0290000402d1009e029000048242003d
:104ce80014079800040037009e0290002e029000de
:104cf8000482420014079800b58780001e029000c5
:104d0800048242000402e800240798000488800016
:104d1800040f780094858000e10f42000d003200f6
:104d280094858000840278003485800004824200e3
:104d38001e0f4200d48780009e0f520005003100ec
:104d4800d5878000c4878000048252000482ea006c
:104d58001e0f4200148880009e0f52001000310080
:104d6800158880002e029000848f520023003100a5
:104d78004e4a90000482fb0064026200e00f520079
:104d8800020032000002eb00490037002e029000ba
:104d9800148888002e0290000488880017003700c5
:104da800148880009e0f520010003600c5878000ce
:104db8002e029000848f5200100031004e4a90005d
:104dc8000482fb0064026200e00f5200020032001d
:104dd8000002eb00360037002e029000148888008d
:104de8002e02900004888800040037002e029000ec
:104df800148888002e029000048888001488800097
:104e08009e0f52001b0036004e4a90000482fb00a1
:104e180064026200e00f520016003200c48780006e
:104e28001e0212002611210016437800c787800051
:104e38002511210095427800864178000701780005
:104e4800854078002e0090001c000700058880002f
:104e580014888000848f5200060031000588800085
:104e6800c48780002e03900004025300048242008d
:104e7800048888002e029000c4878800b4878000c8
:104e8800f4848800b4878000f4878800b4878000a1
:104e9800e487880064888000e70f520003003a0026
:104ea80011c0b30000c1b30011f7070014002000bf
:104eb800040078000080fa00000006000a00fa00ea
:104ec800000f780021479800220798006347980050
:104ed800440798006e4290000482fb00e00f5200e5
:104ee8001a003200e10f520037003a002e429000bb
:104ef8000482fb00e00f520009003200e10f52006b
:104f08002e003a00ae0290001e0278004e0190007a
:104f1800850078000400780028ee07000a003700b2
:104f28001e027800e10f4200020032001e007800e5
:104f3800e20907002e029000ce00900004007800dd
:104f4800550c0700000000001f0037002e4290009b
:104f58000482fb00e00f52000c003200e10f520007
:104f680018003a002e029000e10f420002003200c1
:104f78002e009000ec0907001e027800ce00900079
:104f880004007800b90b07000a0037004e019000b2
:104f9800ae0090001e0078008c0a07000000000098
:104fa8008d0b070000027800e00f5200fcff320072
:104fb80000000000000000000300370000000000af
:104fc80001003700000000000080fa000000060021
:104fd8002000fa00e44228000f000900341f78007e
:104fe8000e02b100044080008e017800020120000a
:104ff8008000eb00040078000127070004408000cf
:105008008e017800020120001100200004007800c1
:10501800fb260700044080008e0178000201200072
:105028002100200004007800f526070004408000d5
:105038008e01780002012000310020000400780071
:10504800ef260700044080008e017800020120004e
:105058004100200004007800e92607000440800091
:105068008e01780002012000510020000400780021
:10507800e3260700044080008e017800020120002a
:105088006100200004007800dd260700044080004d
:105098008e017800020120007100200004007800d1
:1050a800d72607000080fa00000006000000fa007a
:1050b800c0000700c10207008b0307001c0007009f
:1050c800e4538000b4508800b5508000b453800089
:1050d80004824200b4508800b5508000c453800058
:1050e80004824200b4508800b5508000d453800038
:1050f80004824200b4508800b55080009453800068
:1051080004824200b4508800b55080008453800067
:1051180004824200b4508800b55080007453800067
:1051280004824200b45088000080fa0000000600a3
:105138000000fa00250480000408200004826200b0
:10514800e00f52009900320084e0a900e453800087
:105158000402e800e4538800e45380003493880094
:10516800422aa80014508000210020000400780082
:10517800d00007000002780004f0a7000402ea004b
:105188000402e9004f22de00044278000482fb009a
:10519800610262004722dd0046588000f5f72f00c3
:1051a800850263000502720044588800145080008c
:1051b8004100200004007800be00070000027800cb
:1051c80004f0a7000402ea000402e9004f22de000e
:1051d800044278000482fb00610262004722dd007d
:1051e800466c8000f5f72f00850263000502720007
:1051f800446c88001450800081002000040078006e
:10520800ac0007000002780004f0a7000402ea00de
:105218000402e9004f22de00044278000482fb0009
:10522800610262004722dd0066708000f5f72f00fa
:1052380085026300050272006470880014508000c3
:1052480001012000040078009a000700000278009d
:1052580004f0a7000402ea000402e9004f22de007d
:10526800044278000482fb00610262004722dd00ec
:1052780076548000f5f72f0085026300050272005e
:105288007454880014508000010220000400780043
:10529800880007000002780004f0a7000402ea0072
:1052a8000402e9004f22de00044278000482fb0079
:1052b800610262004722dd00e65b8000f5f72f00ff
:1052c8008502630005027200e45b880014508000c8
:1052d800010420000400780076000700000278002e
:1052e80004f0a7000402ea000402e9004f22de00ed
:1052f800044278000482fb00610262004722dd005c
:10530800965f8000f5f72f008502630005027200a2
:10531800945f880014508000010820000400780081
:10532800640007000002780004f0a7000402ea0005
:105338000402e9004f22de00044278000482fb00e8
:10534800610262004722dd00b6638000f5f72f0096
:105358008502630005027200b4638800145080005f
:1053680001102000040078005200070000027800b5
:1053780004f0a7000402ea000402e9004f22de005c
:10538800044278000482fb00610262004722dd00cb
:10539800d6678000f5f72f008502630005027200ca
:1053a800d46788000002eb00145088000080fa00df
:1053b800000006000a00fa00180037008e00780086
:1053c80020802000e63007009e02780044f8210083
:1053d8008482620044402100848f520003003a0016
:1053e8000e0078003b0007000c0037009e02780092
:1053f80044f821008482620044502100848f5200c6
:1054080003003a000e0078004a0507000300370041
:10541800745380000402e800745388002080200040
:105428008130070000027800e00f5200e3ff3a00e5
:1054380084458000b453880044408000c4538800e9
:10544800c44a8000d45388000080fa000000060097
:105458000400fa00000f7800110798001e02780077
:10546800940278001e02900004037800050373007c
:10547800860278001e027800050a78000080fa008b
:10548800000006000400fa00000f780011079800d9
:105498001e027800940278001e0290000482ea003e
:1054a800848262001e027800050a78000080fa00f3
:1054b800000006000400fa00000f780011079800a9
:1054c8001e0290001e026200040078000080fa00ac
:1054d800000006000400fa00100798001e02900061
:1054e800c4029000f4ff2000048f620015c0b300ce
:1054f800f4ef20001e037800840f530001003e00e3
:105508008042eb0014c0b300f6f720009e03780039
:10551800868f5300010036000042eb0004c262008f
:10552800e04f52000a0032001e0290004402900030
:10553800345488001e0290002402900044548800cd
:105548001e02900014029000545488000300370093
:10555800845380000402e800845388000080fa0025
:10556800000006000400fa00100798001e029000d0
:10557800c4029000050f7800f4ff20009e0262002c
:10558800f40f2000848f520004003e0084538000f2
:105598000402e8008453880021003700f4ff20004b
:1055a8009e026200f42f2000848f520003003e0008
:1055b8001e009000a831070019003700f4ff2000f2
:1055c8009e026200f43f2000848f520004003e00d7
:1055d800845380000402e8008453880010003700d8
:1055e800f4ff20009e026200f4ef2000848f520036
:1055f80008003600f4ff20009e026200f4f7200045
:10560800848f520003003e001e00900044010700f2
:1056180003003700845380000402e80084538800a4
:105628000080fa00000006000e00fa0050079800fb
:10563800610798000002eb00040f78006e029000ea
:10564800240798005e02900014079800e1342000b7
:105658000e00780071300700245380000402e8002f
:10566800245388000080fa00000006001000fa00a9
:1056780050079800610798007207980044072a00ad
:10568800040f78007e029000140798005e029000d4
:10569800240798006e029000e10f520003003a00c0
:1056a80004102e00440798000200370014102e0042
:1056b80044079800e13420000e00780057300700b6
:1056c800245380000402e800245388000080fa0074
:1056d800000006000200fa00000f78001e027800a1
:1056e800044088000080fa00000006000000fa006c
:1056f800043a800061026200e00f520004003a00a0
:10570800043a800062026200e00f52000500320095
:105718000002eb00249388000002eb003493880019
:1057280003003700249380000402e80024938800d3
:10573800e4a720008002eb00050a7800e4a7200017
:105748001500200015029800e4a72000250020007d
:1057580025029800e4a720003500200035029800b3
:105768004007a9004027a90040c7a90040e7a900b1
:1057780041e7a9004087a90041c7a90024938000f8
:10578800d450880034938000e45388008f60a900c7
:105798008760a9000405800004c0a10004d0a1000e
:1057a80004e0a000040588000002eb00b41c880097
:1057b8009803a8009823a8009843a80098a3a800d5
:1057c800208020001f300700a08a20001d3007001d
:1057d800209520001b30070004402000841c88000e
:1057e80000000000851c8000040e200084826200f6
:1057f80004082000848f5200faff3a003400200089
:10580800941c880014392000a41c880014802100ee
:105818008419880054802100c41988000002eb0014
:1058280004188800048021004418880044002100de
:1058380084188800c47f2100c4188800c47f210010
:1058480004198800c47f210044198800140020002e
:10585800741b880024002000f41a880034002000fb
:10586800741a8800040c2000241b8800040c2000f3
:10587800a41a8800040c2000241a88000002eb00f7
:10588800741c88000002eb00f41b88000002eb0087
:10589800841c880000000000851c8000040e200085
:1058a80004826200e00f5200fbff3a00e4a52000ea
:1058b800f44f880024a12000e44f8800e4a42000cd
:1058c8000450880024a42000d44f88000002eb0074
:1058d800145088008f60a80054fb250084088800b5
:1058e800147a2000640888000002eb00340888005d
:1058f80084c0a9008cc0a90011e1a800d4fb250030
:1059080094088800b4c424007408880084e0a900be
:105918008ce0a90013e1a8000002eb007452880093
:10592800b4e92800845288000002eb0094528800f1
:1059380014042000a452880044062000b4528800b1
:105948000080fa00000006003600f800809fbe00c4
:10595800829fbe00849fbe00869fbe00889fbe00b7
:105968004400f8004200f8000a00fa008760a90025
:10597800645380000402e80064538800751c8000aa
:105988000408200004826200e00f52001e0032006a
:10599800741c800061026200e00f52000f003a00a0
:1059a800345380000402e80034538800e1382000b2
:1059b8000e00780028028000190280003c2f0700a2
:1059c80019028800280288003e029000745088005e
:1059d8004e029000845088000a003700445380002b
:1059e8000402e80044538800e13820002095200094
:1059f8002802800019028000102f07001902880071
:105a0800280288009603a900f51b800004082000de
:105a180004826200e00f52000b00320054538000f1
:105a28000402e80054538800e13720002080200059
:105a38002802800019028000002f07001902880040
:105a4800280288009623a900741b8000680262005f
:105a5800e00f520014003a00a08a200028028000bb
:105a680019028000f02e0700190288002802880019
:105a780000027800e00f52000b003200e1362000ef
:105a8800a08a200028028000190280004d2f0700fc
:105a980019028800280288009643a900a4538000b0
:105aa8000402e800a4538800b51c8000040220000a
