:020000040000fa
:080000000001040000000000f3
:020000040000fa
:100008003c4d00003c4d00003c4d00003c4d0000c4
:100018003c4d00003c4d00003c4d00003c4d0000b4
:100028003c4d00003c4d00003c4d0000748c00002d
:100038003c4d00003c4d00003c4d00003c4d000094
:100048003c4d00003c4d00003c4d00003c4d000084
:100058003c4d00003c4d00003c4d00003c4d000074
:100068003c4d00003c4d00003c4d00003c4d000064
:100078003c4d00003c4d00003c4d00003c4d000054
:100088003c4d00003c4d00003c4d00008034000019
:100098003c4d00003c4d00003c4d00003c4d000034
:1000a8003c4d00003c4d00003c4d00003c4d000024
:1000b8003c4d00003c4d00003c4d00003c4d000014
:1000c8003c4d00003c4d00003c4d00003c4d000004
:1000d8003c4d00003c4d00003c4d00003c4d0000f4
:1000e8003c4d00003c4d00003c4d00003c4d0000e4
:0800f8003c4d00003c4d0000ee
:020000040000fa
:100108003c4d00003c4d00003c4d00003c4d0000c3
:100118003c4d00003c4d00003c4d00003c4d0000b3
:100128003c4d00003c4d00003c4d0000748c00002c
:100138003c4d00003c4d00003c4d00003c4d000093
:100148003c4d00003c4d00003c4d00003c4d000083
:100158003c4d00003c4d00003c4d00003c4d000073
:100168003c4d00003c4d00003c4d00003c4d000063
:100178003c4d00003c4d00003c4d00003c4d000053
:100188003c4d00003c4d00003c4d00008034000018
:100198003c4d00003c4d00003c4d00003c4d000033
:1001a8003c4d00003c4d00003c4d00003c4d000023
:1001b8003c4d00003c4d00003c4d00003c4d000013
:1001c8003c4d00003c4d00003c4d00003c4d000003
:1001d8003c4d00003c4d00003c4d00003c4d0000f3
:1001e8003c4d00003c4d00003c4d00003c4d0000e3
:0801f8003c4d00003c4d0000ed
:020000040000fa
:100200008fb321000e7f22000e0188000000000045
:10021000000020000000e000020032000001200089
:10022000200288000c00070020eb280001002000bd
:1002300011000700000020000000e0000200320072
:1002400000000200000000006e3c02000000000000
:100250000040da000000fe004440a90060152000c4
:100260000000e0000300320000002000a001880030
:100270004440a8000000060091018800800078003a
:100280000000eb0015003700e280400032a0b4000f
:100290009101ba00e280400032a0b4009102ba009d
:1002a000e280400032a0b4000002eb00472bde00e9
:1002b000f507b200602ce10004003a000059eb00a1
:1002c0008301e900fdff3e00040037006128e100e2
:1002d000010032000082eb00040007001101ba00a7
:1002e0000200e000e8ff3a00000006003159ba00c1
:1002f0008301e9000c0032002159ba008301e900b2
:10030000080032000400e00003003a00e2804000f0
:1003100032a0b400f5ff370011d9ba008301e9001b
:10032000faff3a008100e800e180400032a0b4000a
:10033000000006006022b800060220000000d00085
:100340008180d2000482d2008582d2000000a00009
:100350000202520083825a0003003100020242006e
:1003600083824a000000a1000603e900f3ff3a007f
:1003700000000600889fbe008a9fbe003004be00b9
:100380002005be000404440085844c0006054d0091
:1003900087854d000898be000a90be000440e10029
:1003a00005c8e10006d0e10007d8e10002003100f5
:1003b000680040001008e8004f05be004f04be0072
:1003c000000006001000fa00889fbe008a9fbe0051
:1003d000110020000605be000404be003002be006d
:1003e0002003be00c4b79f00d5b79f00e6b79f00ab
:1003f000f7b79f000802520089825a000a035b0087
:100400008b835b0084bf9f0095bf9f00a6bf9f00aa
:10041000b7bf9f000498be000698be004fb2970079
:10042000dfb297006fb39700ffb397000820e10099
:1004300009a8e1000ab0e1000bb8e10001003900b1
:100440008000eb004f05be00108810004f04be0076
:100450000080fa00000006001400fa00889fbe0029
:100460008a9fbe008c9fbe000006eb003e00070086
:10047000ccb79f00bcb79f00acb79f009cb79f0054
:100480008cb79f000605be000404be000d042000ca
:100490004fb39700bfb29700860343002fb2970077
:1004a000e00f530004003d003d0007000f00400036
:1004b000b0ff070003003700390007000f004000bd
:1004c000c0ff0700cfb2970095bf9f00e08f52009a
:1004d000090035002b000700140020000500200053
:1004e0006033b80000007200818072000201730066
:1004f000838173001c0007000c06e8008d0f560076
:10050000e3ff3a001fba9700e00f520005003d00dc
:100510000802be000a03be0000fe2f000f004000cc
:1005200094ff07004faa9700e00f520008003a001e
:100530000fb497009fb497002fb59700bfb59700f1
:10054000d8b79f00e9b79f00fab79f008bbf9f0005
:100550000c0007004f06be004f05be004f04be0052
:100560000080fa00000006000100070000000600fd
:1005700090b79f00a1b79f00b2b79f00c3b79f007d
:100580000000060001000700000006001fb09700f1
:10059000afb097003fb19700cfb1970000000600c1
:1005a0004f2bde00f9ff070086837300858242002f
:1005b0004f23de00a7b79f0086827200040242002c
:1005c00095b79f00ffaa97004f2bde00858242005f
:1005d0000602720084b79f006faa97004f23de00c7
:1005e0000402420086827200f5af9f004f18de00c1
:1005f00000027200e5ff0700e4af9f00000040002a
:100600008180480002014900838149000802be0040
:100610000a03be00d6ff070000fe2f000000060000
:10062000881f780018002000881f78008aff0700c4
:100630008f87e9004f04780000000600801feb0060
:1006400085ff07008f87e90000000600889fbe0035
:100650008a9fbe00e00f5000e08f5800e00f590065
:10066000e08f59000c003d006044b8006055b800b0
:100670000000540081805c0002015d0083815d0008
:10068000180020001500070008003d0018000700b2
:100690000004eb00050037000004eb000f0007002a
:1006a00002003d001200070018002000dcff0700d8
:1006b000e00f5400060032006022b8006033b8003a
:1006c0000000520081805a0002015b0083815b00c0
:1006d0004f05be004f04be0000000600e00f5200b0
:1006e000e08f5a00e00f5b00e08f5b000000060027
:1006f0006044b8006055b8000402540085825c0074
:1007000006035d0087835d0000000600889fbe0031
:100710008a9fbe008c1f7800e00f5000e08f5800c9
:10072000e00f5900e08f59000d003d006044b80013
:100730006055b8001c0020000000540081805c005f
:1007400002015d0083815d000820e10009a8e1004d
:100750000ab0e1000bb8e1000d003d0008003700d1
:100760000006eb00e00f5200e08f5a00e00f5b0044
:10077000e08f5b0006003d006044b8006055b800a3
:100780000402540085825c0006035d0087835d00df
:10079000aaff0700e00f5600060032006022b800f2
:1007a0006033b8000000520081805a0002015b00f3
:1007b00083815b004f0678004f05be004f04be00ea
:1007c000000006000002780002003700315a78006d
:1007d0000201e900e00f5100fcff3a0000000600b2
:1007e0000002780002003700015a78000201e90097
:1007f000e00f5100fcff3a00000006000002780004
:100800008042eb00b4cf1200fdff3a000080ea0006
:1008100000004200000006000002780006003700d9
:10082000314378000201e900065a7800840278001a
:10083000e04f53000600320084027800e00f5100c0
:10084000f7ff3a0002003700805aeb000201e9008e
:0c085000e00f5100fcff3a000000060021
:020000040000fa
:10085c00ff0f0000ff0f0000ff0f0000ff0f000054
:10086c00ff0f0000ff0f0000ff0f0000ff0f000044
:10087c00ff0f0000ff0f0000ff0f0000ff0f000034
:10088c00ff0f0000ff0f0000ff0f0000850f00009e
:10089c000a0f00008f0e0000140e0000700d0000f7
:1008ac00f50c00007a0c0000ff0b0000850b00001b
:1008bc00000000000000000000000000000000002c
:1008cc00000000000000000000000000000000001c
:1008dc00000000000000000000000000000000000c
:1008ec0000000000000000000000000000000000fc
:1008fc0000000000000000000000000000000000ec
:10090c0000000000000000000000000000000000db
:10091c0000000000000000000000000000000000cb
:10092c0000000000000000000000000000000000bb
:10093c0000000000000000000000000000000000ab
:10094c00000000000000000000000000000000009b
:10095c0028230000803e0000803e0000803e000006
:10096c00803e0000004b0000004b0000004b0000dc
:10097c00004b000000000000000000000000000020
:10098c00000000000000000000000000000000005b
:10099c00983a0000983a0000983a0000983a000003
:1009ac00983a0000983a0000983a0000983a0000f3
:1009bc00000000000000000000000000000000002b
:1009cc00000000000000000000000000000000001b
:1009dc009c1800000807000008070000204e0000cb
:1009ec000807000008070000204e00000807000060
:1009fc0008070000204e0000080700000807000050
:100a0c00204e00000000000000000000000000006c
:100a1c00060500000403000002010000161500008a
:100a2c0014130000121100002625000024230000de
:100a3c002221000036350000343300003231000032
:100a4c00000000000000000000000000000000009a
:100a5c00000000000080000000000000008000008a
:100a6c00000000000080000000000000008000007a
:100a7c00000000000080000000000000008000006a
:100a8c00000000000080000000000000008000005a
:100a9c00000000000000000000000000000000004a
:100aac00000000000000000000000000000000003a
:100abc00000000000000000000000000000000002a
:100acc00000000000000000000000000000000001a
:100adc0000500000c2b4000020000000455400008b
:100aec004d4200004f410000524400000000000045
:0c0afc000c00000020030000640000005b
:020000040000fa
:100b08000200fa00004f780044b321001442780034
:100b18009e4f52001f00320044b321001442780057
:100b2800e24f42000b00320044b321001442780027
:100b38000482fb007e22b90084027800e498210038
:100b480004824200e201200001a121000400780093
:100b58001aff07001e40780034fbb7001e427800d9
:100b6800e24f42000d0032009e4278000582fb00f1
:100b78007e22b90084027800e498210004824200b1
:100b8800e20120008400780000a121000bff07008b
:100b980003003700000000000100370000000000db
:100ba8000080fa00000006000000fa0055b321009a
:100bb8009542780044b321001442780084cf520053
:100bc8002f00320054b3210014427800e24f420053
:100bd8001a003200c79a210054b321001442780049
:100be8000482fb007e22b90004027800fc02420065
:100bf800e4982100048242001443780054b3210091
:100c0800144278000482fb007e22b9008402780036
:100c1800e4982100048242001402780085fd2f0028
:100c2800848242008402200013c0b30007017800c8
:100c38008640780005007800c810070044b32100fa
:100c4800144278000400780035fbb700c5a22100e3
:100c58009542780084d0800087fd2f00848343006c
:100c6800c69a210084022000854178000701780097
:100c780011c0b30006007800b81007000100370063
:100c8800000000000080fa00000006000c00fa00d6
:100c980004a221001407980094d98000e00f5200a4
:100ca80008003a00843007000002be008402780081
:100cb800f47f200084826200044020000482420005
:100cc80094d98800c20320008000eb00409d2100d9
:100cd800c1fe07000042eb00444798000042eb00c9
:100ce800044f78004e0037001e40780084ff07004c
:100cf8001e4078000082fb006622b900840278005a
:100d0800e457280004824200944290005547980016
:100d18001e4078000082fb006622b90004027800b9
:100d28008482e800e4572800048242009402780094
:100d3800350798001e4078000082fb006622b90043
:100d480004027800e4024200e457280004824200ca
:100d580094027800450798005e4290000482fb00e8
:100d6800e00f5200010032002c0037001e009000f6
:100d780050079800be0290004e0290008482420004
:100d88001e02900004824200a402b00014079800da
:100d98009e029000c4ff2100848f5200fcff3e0099
:100da8005e4090002cfab7005e0290008402b0000a
:100db80084d0880085d080003e02900004824200e2
:100dc8000402e80094d0880095d080004e0290007c
:100dd80004824200a4d08800d400200034d18800c6
:100de800287aa90070ff07009e4278000582fb0060
:100df8006622b90084027800e45728000482420081
:100e0800144278000002fd00d3f9b7000002fd008b
:100e1800a40a07001e4fe80001003700ffff370053
:100e28001e427800e04f5200afff32000080fa0007
:100e3800000006000c00fa0010079800210798002f
:100e48006247980043079800244f98000042eb003f
:100e5800044f78007e0037001e40780028ff070006
:100e680034d18000ed0f520075003a004eff0700a4
:100e7800359d2100954278002e4a900084cf52007b
:100e880071003a008421200084ce88006e429000d0
:100e9800e04f520008003a004e029000e4cd88006e
:100ea800287aa8004400200034d18800ce0290009f
:100eb80055d188006000370095d98000f43f2000a4
:100ec800848f52000400360095d9800084382100b0
:100ed800848f5200020036000440200094d9880014
:100ee80094d98000e4cd88000402e80094d98800f1
:100ef800ce039000d7cd8800184207000002be003c
:100f0800f4d0880005d18800289aa8006e42900085
:100f18000482fb00e30f520003003200e40f52008a
:100f28001a003200440037000e82e8009402900054
:100f38000e82e80014027800848242004e0290007b
:100f480084824200e4cd800004826a0054d1880083
:100f58001e029000ae02900014ce880025ce8800b4
:100f68000042eb000002fd00d2f9b7000002fd00cc
:100f7800c40420000500200064cd880075cd8800d9
:100f88002400200034d188002b0037001e02900076
:100f9800ae02900004027800840278002542900096
:100fa8000483fb00354290000482fb004822dd00e8
:100fb80086027800848272000502780004037800b3
:100fc8001e029000ae02900004027800944378005c
:100fd8008782fb00144290000482fb004822dd0057
:100fe8008503780084837300070278008402430035
:100ff8004e02900084824200e4cd800004826a00a0
:1010080054d188001e029000ae02900004027800bd
:10101800a200200084007800209c2100e7fd070042
:101028005400200034d1880011c0b30020c0b300a0
:10103800d7060700000000001e42780008003700ad
:101048000000000001003700000000001e4fe8000b
:101058001e427800e04f52007fff3200e4cfb30019
:10106800044078000080fa00000006000200fa0040
:10107800004f78001e427800e04f52000200320014
:10108800140020000b0037001e4078009cfe07006b
:1010980045d180000400210004826200e00f520064
:1010a80003003200299aa90014002000010037002b
:1010b8000002eb00040078000080fa00000006003f
:1010c8000200fa00004f78001e427800e04f5200fc
:1010d800020032000002eb00080037001e407800d2
:1010e80087fe070034d1800067026a0004f0a70079
:1010f8000402ea000402e9004f22de00040078003e
:101108000080fa00000006000200fa00004f780094
:101118001e427800e04f520044003a001e4078001a
:1011280077fe0700d4d08000e4d0880034d1800056
:1011380005002000e600200007002000860f52006e
:10114800878f5a0033003e00046001000e0037000c
:10115800300037000c0037000b0037002d00370037
:10116800090037000a003700090037002900370056
:101178002800370027003700140037002500370003
:101188002400370020003700c60907002800370070
:1011980011c0b30010c1b3007d060700f4cd800074
:1011a800e00f520005003200b5d08000c4cd8000a9
:1011b800848f5200f6ff3a0001003700000000005b
:1011c8008400200034d188001900370011c0b30012
:1011d80010c1b3006e060700f4cd8000e00f520086
:1011e80005003200b5d08000c4cd8000848f520045
:1011f800f6ff3a000100370000000000c40020009c
:1012080034d188000a003700d400200034d1880087
:10121800070037008040eb0040c1b3005c060700c0
:10122800a0090700000000000100370000000000ce
:101238000080fa00000006000200fa00004f780063
:101248001e427800e04f520006003a001e40780027
:101258002bfe0700287aa9001e407800aaff070085
:1012680001003700000000000080fa0000000600be
:101278000200fa00004f78001e427800e04f52004a
:10128800020032000002eb000a0037001e4078001e
:101298001bfe070044fe0700a2002000219c21003d
:1012a800e0a2210045fd0700d4cd8000c4d188000c
:1012b800e4a22100040078000080fa000000060083
:1012c8000200fa00004f78001e427800e04f5200fa
:1012d8000b003a001e40780009fe070032fe0700a6
:1012e800b5d08000c4cd8000848f52000500320044
:1012f80011c0b30000c1b300250607000100370084
:10130800000000000080fa00000006000400fa0057
:10131800204798002e429000e04f52000200320011
:101328000002eb001d0037002e409000f4fd07007e
:1013380034d18000044f78001e427800e74f5200f5
:10134800050032001e427800eb4f520002003200c6
:101358000002eb0011003700b5d08000c4d0800037
:10136800848f52000900390095d0800084d0800015
:1013780084825200c6d08000b4d08000040253009a
:10138800048242000402e90004003700c5d080004e
:10139800b4d08000048252000402e90004007800fe
:1013a8000080fa00000006000400fa0020479800b8
:1013b800314798002e429000e04f52000200320060
:1013c8000002eb00430037002e409000ccfd0700e0
:1013d8002e409000cdff070000027800040f78002f
:1013e8001e027800e00f520002003a000002eb00f3
:1013f800380037001e027800e10f520002003a0060
:101408002e409000aeff070045d180000410200058
:1014180004826200e00f520009003a0095d0800073
:1014280084d08000048252000402d1009e0f520032
:10143800030039002e409000a1ff0700291aa800d8
:10144800e3034700c5a2210095427800b6d080008a
:101458001400200013c0b30007017800854078000d
:1014680006007800bd0e0700b4d080000402e80032
:10147800b4d08800b5d0800094d08000848f52000a
:101488000200390084d08000b4d088001e027800a1
:10149800e10f520003003a002e40900088ff070039
:1014a8000b00370045d1800004022000048262004e
:1014b800e00f520006003a0028baa800c040070012
:1014c8000002be00040278006c02420014d18800b9
:1014d80014002000040078000080fa0000000600d4
:1014e8000c00fa00604798004107980052079800de
:1014f8000002eb00140798006e429000e04f520083
:10150800020032000002eb00600037006e409000dd
:101518007bfd07006e4090007cff0700000278000a
:10152800240798002e029000e00f520004003a00b1
:101538006e40900062ff07000002eb005300370086
:101548002e029000040f7800ae0290005e02900018
:10155800848f5200020036005e029000040f78006b
:1015680045d180000410200004826200e00f520080
:101578000a003a0095d0800084d08000048252008e
:101588008402d1002e029000848f5200030039009b
:101598006e4090004aff0700291aa800b4d08000c6
:1015a8009e02420094d08000848f520016003900b9
:1015b80095d08000b4d080000482520014079800af
:1015c800ce039000c5a2210095427800b6d08000d5
:1015d8001e02900013c0b300070178008540780010
:1015e800060078005d0e0700ce0290001e029000f3
:1015f80004824200440798001e0290001e0f120049
:1016080084d08000b4d08800ce039000c5a2210009
:1016180095427800b6d080001e02780013c0b3004f
:101628000701780085407800060078004b0e070017
:10163800b4d080001e024200b4d08800ae029000f0
:101648005e029000848f520003003e006e409000be
:101658001bff07000b00370045d180000402200063
:1016680004826200e00f520006003a0028baa8007f
:10167800534007000002be00040278006c024200da
:1016880014d188001e0290001e0242000400780057
:101698000080fa00000006000400fa00004f7800fd
:1016a800110798001e0290000400780051fc070002
:1016b80000027800040178009e0090001e40780027
:1016c80087ff0700000278009e0290000482420013
:1016d800040078000080fa00000006000600fa0006
:1016e800404798004e429000e04f520002003200fe
:1016f8000002eb000c0037004e40900000fd070090
:1017080095d0800084d0800004825200040fe90044
:101718004e409000fdfe0700000278001407980074
:101728001e0290001e021200040078000080fa00d9
:10173800000006000200fa00004f78001e40780002
:101748000c00070000027800e00f5200070032008a
:101758001e407800eafc0700d4d08000e4d088005e
:1017680011c0b30000c1b300090507000080fa00ea
:10177800000006000200fa00004f78001e427800c0
:10178800e04f5200020032000002eb001200370066
:101798001e407800dafc0700d5d08000e4d0800035
:1017a800848f520004003900d5d08000e4d0800036
:1017b8000482520008003700a5d08000e4d08000e1
:1017c80084825200d6d0800094d080000402530056
:1017d800048242000402e800040078000080fa0055
:1017e800000006000600fa0020479800210798002c
:1017f8002e409000dfff070000027800040f7800f9
:101808001e027800e00f520002003a000002eb00ce
:10181800290037002e409000b9fc07002e029000e6
:10182800e00f52000a003200c5a22100954278005c
:10183800e7d080002e039000140020008541780036
:101848000701780011c0b30006007800c30d070037
:10185800e4d080000402e800e4d08800e5d08000ed
:10186800a4d08000848f52000200360094d08000fb
:10187800e4d088001e027800e10f520002003a000e
:10188800295aa8000b00370045d180000402200027
:1018980004826200e00f520006003a0028baa8004d
:1018a800c73f07000002be0004027800d403b0005e
:1018b80014d1880014002000040078000080fa0089
:1018c800000006000a00fa00404798003107980017
:1018d800420798000002eb00040f78004e40900089
:1018e800a4ff070000027800140798001e02900069
:1018f800e00f520002003a000002eb004f003700f0
:101908004e4090007efc0700ce0290001e02900020
:10191800848f5200020036001e029000440798008f
:10192800e5d080004e02900084824200a4d080005e
:10193800848f520019003600a5d08000e4d08000c2
:1019480004825200040fe8003e029000e00f5200ab
:101958000d003200c5a2210095427800e7d0800032
:101968003e0390001e027800854178000701780048
:1019780011c0b30006007800780d07003e02900001
:101988001e024200340798004e0290001e025200c8
:101998004407980094d08000e4d088003e0290006c
:1019a800e00f52000a003200c5a2210095427800db
:1019b800e7d080003e0390004e02900085417800f9
:1019c8000701780011c0b30006007800630d070016
:1019d800e5d080004e02900004824200e4d08800e6
:1019e8004e0290001e024200440798009e0290009a
:1019f8004e029000848252004e029000848f520062
:101a080002003e00295aa8000b00370045d180008b
:101a18000402200004826200e00f520006003a002f
:101a280028baa800663f07000002be00040278003a
:101a3800d403b00014d188004e029000040078004e
:101a48000080fa00000006000600fa0040479800ef
:101a58004e429000e04f5200020032000002eb00bc
:101a68000b0037004e40900025fc0700a5d08000f1
:101a780094d08000048f52004e4090003dff070034
:101a880000027800140798001e0290001e0212003f
:101a9800040078000080fa00000006000e00fa003a
:101aa800604798004107980052079800630798001c
:101ab8006e429000e04f520003003a005e02900030
:101ac800e00f520002003a000002eb004500370028
:101ad8006e4090000afc07006e40900025ff07004a
:101ae8000002780014079800ee0290005e02900051
:101af800848242001e029000848f52000400360047
:101b08009e0290006e0290000482520054079800d2
:101b1800e5d080006e029000048f4200a4d08000bf
:101b28009e0f520005003100a5d0800094d080009f
:101b3800048252000482ea001e0f4200a4d08000f2
:101b48001e0252000402e80024079800de029000fa
:101b58002e029000848f52000a003e00c5a2210088
:101b6800954278004e0390005e029000854178000f
:101b78001e01780011c0b30006007800f70c0700ba
:101b880017003700c5a22100954278004e03900047
:101b98002e029000854178001e01780011c0b30024
:101ba80006007800ed0c0700de0290002e0290007f
:101bb80004825200c5a221009542780097d0800087
:101bc8004e0090002e0390000603400085417800e7
:101bd8000701780011c0b30006007800df0c070089
:101be8005e029000040078000080fa000000060001
:101bf8000600fa002047980021079800ae019000df
:101c0800120020008e0078002e409000a3ff0700ed
:101c18001e427800044078000080fa0000000600a8
:101c28003e00fa0020779800211f9800321f980084
:101c3800431f9800541f9800651f98002e7290004b
:101c4800e04f520003003a003e1a9000e00f5200a5
:101c580002003a000002eb00260137002e709000c7
:101c6800a7fb07002e709000c2fe07000002780054
:101c7800ce1a900005025200140798009e029000a8
:101c88003e1a9000848f5200020031000082eb005f
:101c9800180137005e1a9000e00f5200060032006b
:101ca8009e0290005e1a9000848f52000200360057
:101cb8005e1a900014079800e5d080004e1a900034
:101cc8000482420034079800a5d080003e029000ac
:101cd800848f520007003100a5d0800094d0800086
:101ce800048252000482ea00be029000048242008c
:101cf80034079800be029000050f7800a5d0800038
:101d08003e029000048252000402e8002407980072
:101d18004e1a900034079800be1a90007507980074
:101d28002e1a9000040f98002e1a90009442780002
:101d3800154f98002e1a90000402e800241f9800fe
:101d48000002eb00640798006e1a9000e00f520042
:101d58000c0032009e4a900004c6b30084cf5200a3
:101d6800080036009e4a9000a4c7b30084cf5200f2
:101d780004003e009e4a900004ceb30004c2420014
:101d8800144f980004c2b300244f98002e4a9000c4
:101d98008482fb002e029000848f520002003600dd
:101da8002e029000244f98002e4a90008482fb0057
:101db8001e029000848f5200020036001e0290001e
:101dc800244f98002e4a90000482fb00c5a22100ef
:101dd8009542780072034700854178001e0178001b
:101de80011c0b300060078005c0c07002e4a900072
:101df8000482fb001e0f42002e4a90000482fb0062
:101e0800ae02900004825200240798002e0290002f
:101e1800e00f520004003a0094d08000040f7800cc
:101e28000082eb00240798006e1a9000e00f520021
:101e3800680032000042eb00044f98006000370051
:101e48000e4a90000482fb0004024700a45290004e
:101e580004c6b30084cf5200110036000e4a900029
:101e68000482fb0004024700a4529000a4c7b300f8
:101e780084cf52000a003e000e4a90000483fb0003
:101e88000e4a90000482fb0004024700a45290000e
:101e980004ceb30004c2420086024700a452980050
:101ea8000e4a90000482fb0004024700a4529000ee
:101eb8001e4a900084cf520023003a003e1a900038
:101ec8000402e900341f98003e1a9000e00f520007
:101ed80008003a00be0290007e0290008482520000
:101ee8000e4a90000482fb00048242000402e800cb
:101ef800800037002e1a900094427800154f980001
:101f08002e1a90000402e800241f980014002000f4
:101f1800640798009e4a900004c6b30084cf52001c
:101f2800240036009e4a9000a4c7b30084cf520014
:101f380020003e009e4a900004ceb30004c2420036
:101f4800144f98001b0037007e029000341f980041
:101f58006e029000e00f5200160032008e0a9000c8
:101f6800251f98002e1a900094427800154f98006b
:101f78002e1a90000402e800241f98009e4a900040
:101f880004c6b30084cf5200080036009e4a900071
:101f9800a4c7b30084cf520004003e009e4a9000bc
:101fa80004ceb30004c24200144f98000002eb00b4
:101fb800640798000e4a90000442e800044f980015
:101fc8008e4a90002e4a900084cf52009cff390020
:101fd800370037000042eb00044f9800300037000c
:101fe8000e4a90000482fb0004024700a4529000ad
:101ff8001e4a900084cf520017003a003e1a900003
:102008000402e900341f98003e1a9000e00f5200c5
:1020180008003a00be0290007e02900084825200be
:102028000e4a90000482fb00048242000402e80089
:10203800300037002e1a900094427800154f98000f
:102048002e1a90000402e800241f980014002000b3
:10205800640798000f0037007e029000341f980034
:102068006e029000e00f52000a0032008e0a9000c3
:10207800251f98002e1a900094427800154f98005a
:102088002e1a90000402e800241f98000002eb00ba
:10209800640798000e4a90000442e800044f980034
:1020a8008e4a90002e4a900084cf5200ccff39000f
:1020b8002e4a90000482fb009e0290000482520087
:1020c800140798009e0290003e1a9000848f5200d8
:1020d800020031000082eb00060037002e4a900013
:1020e8000482fb00be02900004824200340798007c
:1020f80024ff3700040078000080fa000000060082
:102108000800fa00004f780011479800120798005d
:1021180023079800340798000e03e800be029000d9
:102128002e0290009e019000120020008600780088
:102138001e407800bafe070000027800040078000c
:102148000080fa00000006000a00fa00881f7800e4
:102158000042eb00044f7800e80137001e40780089
:1021680067fa07000042eb00644798000002eb00a2
:10217800140798000002eb002407980045d180005e
:102188000420200004826200e00f520005003a009b
:1021980045d180000440200004826200e00f520014
:1021a8000b003200e91e070000027800e00f520021
:1021b8000700320004c1b3006447980044d180008e
:1021c8004a22de00614262000482fb001407980084
:1021d80045d180000402200004826200e00f520012
:1021e8000900320018d18000753d07000002be00ca
:1021f8000402780004025400e00f520002003c0080
:1022080004c1b3006447980045d18000040420004d
:1022180004826200e00f52000900320028d18000d9
:10222800673d07000002be00040278000402540063
:10223800e00f520002003c0004c1b300644798005c
:1022480034d18000eb0f52000b003a0028d18000f7
:102258005b3d07000002be0004027800040254003f
:10226800e00f520004003c0014c1b300644798001a
:10227800c400200034d1880034d18000e40f52001b
:1022880063003a000002eb00440798005b00370047
:102298004e0290007422b90004027800f002420055
:1022a800449d21000482420014027800e00f52008d
:1022b800560032004e0290007422b90004027800e1
:1022c800f0024200449d21000482420094027800fa
:1022d80054d18000848f520045003a0032fa07003a
:1022e8004e0290007422b90084027800449d2100b7
:1022f80004824200a200200084007800209c210073
:102308002ef907004e0290007422b90004027800ea
:10231800ea024200449d210004824200140278002f
:10232800d4cd88004e0290007422b90004027800cf
:10233800ec024200449d2100048242001402be00c7
:1023480061024200e0824a00a4cd8800b5cd880031
:1023580025ce800014ce800084824200d4cd800037
:1023680084824200e4cd800004826a0054d188004f
:1023780024c1b300644798006400200034d1880069
:10238800ce029000c4fe2f0004aab900040278000f
:1023980087022000848343004e0290000402e80074
:1023a8007422b90084027800449d2100048242000e
:1023b800040378004e0290007422b9008402780069
:1023c800449d2100048242008402780007027800bc
:1023d80013c0b3000601780011c0b30005007800ef
:1023e800de0a07000002eb0064d08800080037000e
:1023f8004e0290000402e800440798004e02900044
:10240800e20f5200a2ff3600010037000000000072
:102418006e429000e04f5200090032001e02900008
:1024280004f0a7000402ea000402e9004f22de00db
:1024380004427800844078006e409000d401070080
:1024480044d1800070026200e00f52002b003a0075
:1024580034d18000e70f520020013a00bf3c07004a
:102468000003be00f4d0800005d1800004025300b0
:1024780085825b00e00f5200e08f5a001901350099
:1024880044d1800067026200e60f52000e003a0055
:1024980044d180004322de00614262006447980014
:1024a8001e40780018fb07001e40780016fb070046
:1024b8006e429000e04f52000c013a00e400200008
:1024c80034d188000c013700b7f9070021c0b300e8
:1024d80000c1b300ae010700a03c07000003be0026
:1024e80024bc2e00b50020000602420087824a0064
:1024f800f4d0880005d18800ff003700973c07001a
:102508000003be00f4d0800005d18000040253000f
:1025180085825b00e00f5200e08f5a00f50035001d
:10252800a1f9070034d180006123b800e4ff2f002f
:10253800f5ff2f000602420087824a00a60020000d
:1025480007002000860f5200878f5a00a2003e0025
:10255800046001000a00370012003700a0003700ad
:102568003a0037004a0037005e0037006b0037003a
:10257800780037007c0037005a00370088003700a1
:102588008f3c07000002be000402780014d18800c6
:10259800209c2100a43607003400200034d1880094
:1025a80094003700619c2100209c21000b37070014
:1025b80000027800e00f52001d003a00803c07003e
:1025c8000002be008402780014d180000483520007
:1025d80064cd800075cd800004027800840f53001c
:1025e80081003600249d210014427800e54f5200f6
:1025f8000c003e00249d2100144278000442e800ab
:102608000002fd00d2f9b7000002fd0064cd800091
:1026180075cd80000402420085824a0064cd88009e
:1026280075cd88002400200034d18800710037005f
:1026380024c0b300644798000002eb001407980018
:102648005400200034d188006a00370024c0b30049
:10265800644798001400200014079800249d210066
:1026680014427800e34f52006100360044c0b300c2
:102678000002fd00d2f9b7000002fd00042d210080
:102688003501200064cd880075cd880059003700d9
:10269800249d210014427800e14f520005003e00bd
:1026a80024c1b30064479800140020001407980060
:1026b8005000370044d1800068026200e00f5200e9
:1026c8000500320044c1b30064479800140020009c
:1026d800240798004700370024c0b30064479800d7
:1026e80044003700249d210014427800e44f520032
:1026f80005003e0004c1b3006447980014002000a0
:10270800140798003b0037008400200034d188006b
:1027180014c1b3006447980036003700249d210097
:1027280014427800e44f520005003e0014c1b30083
:102738006447980014002000140798002d00370003
:1027480044c1b3006447980014002000240798008f
:102758002800370044c1b3006447980014002000e3
:102768002407980023003700249d21001442780094
:10277800e44f520005003e0004c1b30064479800ce
:1027880014002000140798001a00370044c1b30051
:1027980064479800140020002407980015003700ab
:1027a800249d210014427800e44f520005003e00a9
:1027b80014c1b3006447980014002000140798005f
:1027c8000c00370044c1b30064479800140020008f
:1027d80024079800070037000000000005003700b4
:1027e800000000000300370000000000010037006f
:1027f800000000006e429000e04f520032003200ac
:102808001e029000e00f52002c003200249d21008f
:10281800144278000442e8000002fd00d2f9b70033
:102828000002fd0064cd800075cd800004024200e6
:1028380085824a0064cd880075cd8800c5cd8000aa
:10284800c4d080000482520044079800c5cd80009f
:10285800c4d08000848f52000600310095d08000db
:1028680084d0800004825200ce029000048242008c
:102878004407980086cd800097cd80004e029000d6
:10288800050020000402530085825b0084cd880087
:1028980095cd8800f5cd80004e029000048242005c
:1028a800f4cd8800c4d08000c4cd88008040eb00ff
:1028b8006e409000b60007000300370011c0b30057
:1028c8006e409000b20007002e029000e00f520008
:1028d80009003200f303070007003700000000007a
:1028e800050037000000000003003700000000006a
:1028f80001003700000000001e4fe8001e4278006b
:10290800e04f520015fe32000002eb004407980029
:10291800380037004e0290007422b9000402780093
:10292800f0024200449d2100048242001402780013
:10293800e00f520033003200a13b07000002be0046
:10294800040378004e0290007422b9000402780053
:10295800f2024200449d21000482420014027800e1
:102968008402530034392000848f52001e00360040
:10297800ce029000c4fe2f0004aab9000402780019
:1029880087022000848343004e0290000402e8007e
:102998007422b90084027800449d21000482420018
:1029a800040378004e0290007422b9008402780073
:1029b800449d2100048242008402780007027800c6
:1029c80013c0b3000601780011c0b30005007800f9
:1029d800620907000002eb0064d088004e029000f4
:1029e8000402e900440798004e0290000402e8003f
:1029f800440798004e029000e20f5200c5ff3600cf
:102a080001003700000000004f0478000080fa0041
:102a1800000006002c00fa003017980041179800b3
:102a2800521798003e139000964078000180fb00f2
:102a3800964390008783fb00c83bdd0000027800c6
:102a4800070272008403780007027800a64390000a
:102a58008783fb00364390000683fb004833dd0084
:102a6800870078008680700001037800860278006d
:102a7800340f9800450f98004e1290001403be00c2
:102a8800560f9800670f98000042eb00645f9800ab
:102a980064c0b300745f9800de13900007179800b5
:102aa8000e12900004007800282b0700000278001e
:102ab8000417980076024700c1002000040078003f
:102ac800602b0700000278000482ea0014179800bf
:102ad8005e109000c11e07000002780024179800bd
:102ae8009e1290002e129000848f52000300320034
:102af800a21c070014002000220037000000eb0091
:102b0800e93907000e82e80041012000040078003e
:102b1800352007000e82e80004007800280307002b
:102b28007e0290004422de006f42620025002000f1
:102b38000522dd00744f52009e4078000182fb00a0
:102b4800de1290000482520074025200541798005a
:102b58000e82e800be10900004007800ea01070029
:102b680000027800e00f5200040032000e82e800f4
:102b7800de10900004007800ee0307007f1c0700b9
:102b880014002000040078000080fa00000006000d
:102b98002a00fa00006f9800116f980002f80700e9
:102ba8000e6a90000482fb00610262000442780011
:102bb800e04f520005003200297aa8008e6a900082
:102bc800e4cfb30004c26200046f980028baa900d9
:102bd80028daa90028faa900293aa900295aa9003f
:102be800291aa90000000000581c070000027800fc
:102bf800e00f5200fcff32000e6a90000482fb00d6
:102c080066026200e00f5200030032000002eb008f
:102c1800040f780077003700b5d08000c4cd80005d
:102c2800848f520003003a000002eb00040f780082
:102c380062003700b5d08000c4cd8000848f520078
:102c48001b003600b5d08000c4cd8000048f520030
:102c5800f4cd80009e0f520002003100f1cd8000bb
:102c6800010f780084ce80009e0f520003003100cf
:102c780084ce8000040f7800295aa800c5a221003c
:102c880095427800c6cd80001e0278008541780004
:102c9800060178008040eb0050462100af0807008d
:102ca800c4cd80001e024200c4cd88004300370016
:102cb80095d08000c4cd800004825200341798005b
:102cc800be129000b4d080008482420084d080007c
:102cd800048f5200f4cd80009e0f52000200310094
:102ce800f5cd8000050f780084ce80009e0f52003d
:102cf8000300310081ce8000010f7800295aa80016
:102d08003e1290009e0f5200020036001e0278000c
:102d1800341798003e129000c5a221009542780011
:102d2800c6cd800085417800060178008040eb0020
:102d380050462100890807003e1290001e0212002a
:102d4800341798003e129000e00f52000e00320037
:102d58003e129000c5a221009542780087d08000dd
:102d680090d08000c6cd8000060050005646210055
:102d78000603400085417800070178008040eb0099
:102d88000600780075080700c4cd80001e024200c6
:102d9800c4cd8800c5cd800094d08000848f5200b7
:102da80006003900c5cd800086d0800094d0800010
:102db8000402530004824200c4cd880045d180003b
:102dc8000480200004826200e00f520009003200f3
:102dd800f4cd80009e0f52000600320084ce8000a1
:102de8009e0f5200030032000e6a90000404a000f7
:102df800046f98001e027800e00f520005003a00a8
:102e08000e6a90000482fb0063026200e00f520029
:102e180021003200f4cd80001e025200f4cd88005b
:102e28001e027800e00f5200030032000e6a900084
:102e38000434a000046f98001e6a90000482fb000e
:102e48006102620004427800e04f5200080032003c
:102e58000042eb000002fd00d2f9b7000002fd00bd
:102e6800d41223001500200064cd880075cd880099
:102e78003a3a07000003be0064cd800075cd80009b
:102e88000602420087824a00f4d0880005d18800f3
:102e9800289aa8003a0037001e6a90000482fb00b6
:102ea80062026200e00f52001400320044d1800038
:102eb800674262000442e800674262000482fb0045
:102ec8006702620046d1800085ff2f0085026300fb
:102ed8000502720044d1880084cd800095cd800021
:102ee80061025200e0825a0084cd880095cd8800a6
:102ef80014002000040f78002100370044d180001e
:102f080070026200e00f52001d0032001e6a90003d
:102f18000482fb0061026200e00f520010003a00d8
:102f2800249d210014427800e04f52000c0032002a
:102f3800249d2100144278000442e9000002fd00ab
:102f4800d2f9b7000002fd0064cd800075cd800085
:102f58008502d1000482d30064cd880075cd880035
:102f6800fe3907000003be0064cd800075cd8000e7
:102f78000602420087824a00f4d0880005d1880002
:102f8800e4cd800024079800d4cd80003407980051
:102f980084cd800095cd800044079800550798009f
:102fa800a4cd8000b5cd800064079800750798000f
:102fb8000e0a900004e0a10004f0a100040f98009c
:102fc8000e0a90000400a1000410a1000420a10032
:102fd8000430a100040f98008e6a900015579800dd
:102fe8000002eb00340f980086cd800097cd80005a
:102ff8001e027800050020000602420087824a006f
:1030080084cd880095cd88000e6a90000482fb006c
:1030180062026200e00f52001a0032000e6a90004d
:103028000482fb0070026200e00f520003003a00c5
:103038006022b800640798007507980074ce800075
:1030480062026200e00f5200070032004e02900058
:10305800de02900061025200e0825a0044079800a4
:10306800550798000700370084cd800095cd800073
:1030780061024200e0824a0084cd880095cd880034
:10308800ce39a8000e6a90000482fb00610262003b
:1030980004427800e04f520001003200ce19a80027
:1030a800d5d08000e4d08000848f52000900390018
:1030b800a5d0800094d0800084825200e6d08000a1
:1030c800d4d080000402530004824200140f9800f8
:1030d80005003700e5d08000d4d08000048252007b
:1030e8000402e900140f9800421b07000002780050
:1030f800140798009e029000f4032000848f520069
:1031080003003e000002eb0014079800030037009c
:103118001e0290000404b100140798009e0a900053
:103128001e029000848f5200020036001e0290009a
:10313800140f98006402470004007800a0010700fb
:103148009e007800748f40000e0a90000440a00092
:103158000450a1000460a0000470a100040f9800ae
:103168000e6a90000482fb0062026200e00f5200c7
:10317800150032001e027800640f420024c0b3001c
:10318800045f980044c0b300145f980024802100b5
:10319800540f98000e0a90004422de006f4262002d
:1031a8000442e8006f4262000482fb006f02620082
:1031b8004422dd000e0b9000f5f02f00850263001d
:1031c80005027200040f9800a64d210016437800ee
:1031d8008683fb00b64d2100164378000683fb006a
:1031e8004833dd0087027800868272000503780084
:1031f80006027800c64d2100164378008683fb003e
:10320800d64d2100164378000683fb004833dd00c5
:1032180087007800868070000103780086027800b5
:10322800640f9800750f980014ce800025ce80009a
:1032380004179800151798000042eb00446798009f
:1032480064c0b300546798009e0278003517980050
:103258003e129000040078003c2907000002780024
:10326800341798007c024700c10020000400780051
:1032780074290700000278000482ea00240f9800ed
:10328800d04321006c1c07001e01780061c0b30008
:10329800209c2100a6370700640247004101200056
:1032a80004007800db1e07000e6a90000482fb0011
:1032b80062026200e00f5200040032007802470008
:1032c8004100200004007800d21e070010452100ac
:1032d800741c07001e007800c01c0700000278005c
:1032e8001407980010462100531c07000e82e800be
:1032f8002100200004007800c61e0700941b070068
:103308000080fa00000006000a00fa003007980062
:10331800410798003e02900014029000e00f52000e
:1033280002003a000002eb0022013700e4cfb300ac
:1033380014479800ce029000254290000483fb00b9
:10334800354290000482fb004822dd0086007800a8
:103358008480700001027800840278004e02900098
:10336800144178000283fb00144290000482fb00a1
:103378004822dd0086037800848373000702780002
:10338800848242003e029000140278008482420047
:103398003e0290001402900004826a0024079800fc
:1033a8000042eb00044f78003f0037001e407800d1
:1033b800d3f5070034d18000ed0f520034003200fd
:1033c80034d18000e40f520008003a0055d1800043
:1033d8003e02900014029000848f52002e003a00a2
:1033e8009e407800114798002e00370055d1800084
:1033f8002e029000848f520029003a00eaf5070057
:103408003e02900094029000e4cd8000848f520028
:1034180024003a003e02900094027800d4cd800047
:10342800848f52001f003a004e0390001641780026
:103438000280fb00964390008783fb00c83bdd00b9
:1034480000027800070272008403780007027800ff
:10345800a64390008783fb00364390000683fb0059
:103468004833dd008700780086807000010378000b
:103478008602780016ce800027ce8000860f520084
:10348800878f5a0007003a0014002000c90037004f
:1034980000000000030037000000000001003700b2
:1034a800000000001e4fe8001e427800e04f520066
:1034b800beff32001e429000e24f4200160032006a
:1034c8001e4090008ef50700b7f507001e429000d9
:1034d800e24f4200100032002e01900052d18800c5
:1034e800a2002000ce009000209c2100b3f4070029
:1034f8003e02900014027800d4cd88003e0290006d
:1035080014029000e4cd880084d08000c4cd8800e7
:1035180014002000a70037003e029000e40290004b
:103528000420200004826200e00f520002003a00ea
:103538000002eb009f00370064d08000e00f5200cb
:10354800020032000002eb009a0037000002eb0094
:10355800140798004e0037001e0290007422b9002c
:1035680004027800f0024200449d210004824200d7
:1035780014027800e00f5200490032001e02900049
:103588007422b90004027800f0024200449d210030
:1035980004824200940278003e02900014029000d7
:1035a800848f520032003a001e0290007422b90043
:1035b80004027800ea024200449d2100048242008d
:1035c800940278003e02900014027800848f520022
:1035d80029003a001e0290007422b9008402780083
:1035e800449d2100048242001403be004e00900056
:1035f800104278000481fb00904090008180fb001d
:10360800c808dd0082027800818272008500780097
:1036180001027800a04090008180fb0030409000bb
:103628000080fb004800dd00010178000001710006
:103638000200780080027800840f5300858f5b00b9
:103648000f003a005e3807000002be00040378004d
:103658001e0290007422b90084027800649e210042
:1036680004824200060a78000002eb00510037008d
:1036780000000000030037000000000001003700d0
:10368800000000001e0290000402e80014079800e1
:103698001e029000e20f5200afff36000100370013
:1036a800000000000042eb00044f78003d003700a6
:1036b8001e40780012f5070044d1800068026200bd
:1036c800e00f52003300320037f50700e5cd8000e7
:1036d8003e02900014029000848f52002f003a009e
:1036e8001e0290007422b90084027800449d2100d3
:1036f80004824200a2002000ce009000040078005e
:103708002ef407003e029000140378001e02900079
:103718007422b90084027800e49d210004824200ea
:10372800060a78003e029000b4029000240290003d
:103738001e0390007433b90086037800069e2100aa
:1037480006834300048bbe003e02900014039000e1
:103758001e0290007422b90084027800449e210061
:1037680004824200060a7800153807000002be00ed
:10377800040378001e0290007422b90084027800c5
:10378800649e210004824200060a78000002eb00d1
:1037980008003700000000000100370000000000aa
:1037a8001e4fe8001e427800e04f5200c0ff320072
:1037b8000002eb00040078000080fa000000060018
:1037c8000200fa00000f78001e0278001402780048
:1037d80004007800dd270700000278009e027800c8
:1037e800840a78001e027800140290000400780011
:1037f800d6270700000278009e02780094029800fd
:103808001e027800b4029000240290000400be005a
:10381800dc2707000002be001e037800240398007e
:10382800350398001e027800d402900044029000ec
:103838000400be00d32707000002be001e03780064
:1038480044039800550398001e0278007402900003
:1038580004007800bd270700000278009e02780067
:10386800f40298001e027800040a90000400780010
:10387800b6270700000278009e027800840a9800a4
:103888001e027800140a900004007800af27070091
:10389800000278009e027800940a98000080fa00de
:1038a800000006000000fa00881f7800bef4070038
:1038b800e4cd800054d1880084d08000b4d0880042
:1038c80084d08000c4d0880094d08000d4d08800f0
:1038d80094d08000e4d0880044d18000680262005f
:1038e800e00f5200020032004400200001003700bf
:1038f800d400200034d18800281aa900283aa90049
:10390800285aa900289aa90028baa90028daa900e3
:1039180028faa900291aa900293aa900295aa900b0
:10392800297aa900299aa800ce19a900ce39a90098
:10393800ce79a900ce99a90084d08000c4cd880092
:10394800089b21002425070000027800040c780059
:10395800089b210020250700000278001404980025
:103968000082eb0064ce880014002000f4cd8800ab
:103978004f0478000080fa00000006000400fa00f6
:10398800881f7800c0002000473607007d1c07000c
:1039980000427800044f78001e4278008482fb00c1
:1039a800040f20000482620042a2de000442780074
:1039b800744f52001e427800e04f520002003a0055
:1039c8008421200057003700710020000000eb0020
:1039d800851c0700400037006a1c07000042780079
:1039e800144798001e429000e04f520043003200f6
:1039f8001e429000e14f5200360032001e429000f5
:103a0800e24f520020003a001e427800e24f520076
:103a18003c0036000002eb0014079800591c070010
:103a280000427800144798001e429000e44f52006c
:103a380009003a000e82e8000404e800511c07005f
:103a480000427800044c78000e84e8004d1c070002
:103a580000427800044c78009e02900074212000f7
:103a6800848f5200290036009e029000445b20009b
:103a7800848f520002003600445b20002900370082
:103a88001e029000270037001e427800e14f5200c6
:103a9800200036003b1c07000042780014479800bd
:103aa8001e4290009e42780084cf52001b003900cd
:103ab8001e4290000482fb00840078000000eb00a6
:103ac800491c07009e4278001e42900004cf520015
:103ad80001003700000000009e4278000582fb00cc
:103ae8000402ea004f22de00044278001e4fe9007b
:103af800e04f5200b8ff3a0009003700000000000c
:103b08000700370000000000050037000000000033
:103b1800030037000000000001003700000000002b
:103b280084212000040078004f0478000080fa0007
:103b3800000006002200fa00700f98000117980094
:103b48007e0a9000d44a9000055798007e0a90009b
:103b580044039000d4039000460798005707980044
:103b68007e0a900024039000b4039000160f98007a
:103b7800270f9800281aa900283aa900285aa9004e
:103b880044d1800070026200e00f520008003a0041
:103b9800f23607000003be0024bc2e00b50020004a
:103ba8000602420087824a00f4d0880005d18800c6
:103bb80034d18000e40f520003003200e50f5200b8
:103bc8002c003200770037000e5290000482fb0070
:103bd80064026200e00f52000200320031ff070069
:103be800270437000e5290000482fb007002620026
:103bf800e00f5200090032004e029000de029000f1
:103c080084cd880095cd88008040eb0040c0b3008b
:103c1800dffb070023ff0700190437000e5290004e
:103c28000482fb0062026200e00f52000f003200c3
:103c38001e0a9000ae0a900061024200e0824a002b
:103c4800a4cd8800b5cd88004cff0700000278009d
:103c580084ce880011c0b30020c1b300ccfb07009c
:103c68006400200034d18800050437000dff0700e8
:103c7800030437000e5290000482fb0064026200c5
:103c8800e00f5200eb033a000e5290000482fb0052
:103c980070026200e00f52001700320086cd8000eb
:103ca80097cd80004e029000de029000840f5300f2
:103cb800858f5b001000320086cd800097cd800094
:103cc800160f9800270f98004e029000de02900011
:103cd80084cd880095cd880011c0b30040c0b300e2
:103ce800abfb07001e0b9000ae0b900086cd880042
:103cf80097cd8800e20337000e5290000482fb0043
:103d080062026200e00f5200cc0332001e0a9000eb
:103d1800ae0a900061024200e0824a00a4cd880009
:103d2800b5cd88007e0a900074029000f4cd88001a
:103d380012ff07000002780084ce88000e5290001f
:103d48000482fb0070026200e00f52000f00320094
:103d580011c0b30000c1b3008dfb07007400200040
:103d680034d188007d3607000003be0024bc2e0035
:103d7800b50020000602420087824a00f4d088007d
:103d880005d18800289aa900bd03370011c0b300e7
:103d980020c1b3007efb07006400200034d18800f6
:103da800b70337008e139000670798000e529000f3
:103db8000482fb006102620004427800e04f520076
:103dc800030032006e0290000402e80064079800c5
:103dd8000e5290000482fb0062026200e00f520063
:103de800030032006e0290000402e80064079800a5
:103df800d5d08000e4d08000848f520009003900bb
:103e0800a5d0800094d0800084825200e6d0800043
:103e1800d4d0800004025300048242003407980082
:103e280005003700e5d08000d4d08000048252001d
:103e38000402e90034079800a4cd8000b5cd8000c5
:103e48001e0b9000ae0b90000402530085825b00ad
:103e5800340f9800450f98003e0a9000540f9800c0
:103e68000002eb00740798006e029000e00f520009
:103e7800350032003e029000e00f52004800320048
:103e88003e0a9000ce0a9000e00f5200e08f5a00e0
:103e98000a0035003e0290006123b8003e0a9000f7
:103ea800ce0a9000840f5300858f5b000300360014
:103eb8001400200074079800140037006e02900068
:103ec8006123b8003e0a9000ce0a90000602420024
:103ed80087824a00e00f5200e08f5a000b0034003e
:103ee800be0290006e029000048252006123b90065
:103ef8003e0a9000ce0a9000840f5300858f5b0025
:103f08000200350014002000740798003e0290005b
:103f18006123b8003e0a9000ce0a9000840f530037
:103f2800858f5b001e003400de0a90006e02900050
:103f380004824200e00f52001900340014002000ef
:103f480074079800160037003e0a9000ce0a9000c9
:103f5800e00f5200e08f5a0003003a0014002000de
:103f6800740798000e0037003e0a9000ce0a9000b1
:103f7800e00f5200e08f5a00090035003e02900021
:103f88006123b8003e0a9000ce0a9000840f5300c7
:103f9800858f5b000200360014002000740798002b
:103fa8007e029000e00f520009003a000e52900085
:103fb8000482fb0064026200e00f520021033a0011
:103fc80011c0b30000c1b300f1fa07002c03370099
:103fd8000e5290000482fb0066026200e00f52005d
:103fe800020032002ffe0700250337000e52900012
:103ff8000482fb0070026200e00f520013033200db
:1040080034d180006123b800a4ff2f00f5ff2f00f2
:104018000602420087824a0066002000070020004e
:10402800860f5200878f5a0059013e000460010034
:10403800060037001e0037001d0037001c0037003f
:104048001b0037001a0037004601370086cd800074
:1040580097cd80004e029000de029000840f53003e
:10406800858f5b001000320086cd800097cd8000e0
:10407800160f9800270f98004e029000de0290005d
:1040880084cd880095cd880011c0b30040c0b3002e
:10409800bffa07001e0b9000ae0b900086cd88007b
:1040a80097cd8800f60237007400200034d18800cc
:1040b800b5d08000c4cd8000048252002407980047
:1040c8002e029000e00f520006003d0095d08000bf
:1040d80084d0800004825200ae0290000482420024
:1040e8002407980086cd800097cd80002e0290008e
:1040f80005002000041f430005974b004e03900065
:10410800de0390001e02be000402530085825b009d
:10411800048fbe001e02be00e00f5200e08f5a005e
:104128001400340074ce800061026200e00f520077
:10413800060032001e03be00140020000500200007
:10414800840f5300858f5b00040032008040eb0031
:1041580000c1b3008efa0700c90237004e02900072
:10416800de02900061025200e0825a004407980083
:104178005507980086cd800097cd8000c5cd80007a
:10418800c4d0800004825200cfa2de00041f530076
:1041980005975b00c5cd8000c4d08000848f520095
:1041a8000600310095d0800084d08000048252003f
:1041b800050020001e1f12001e971a004e029000d4
:1041c800de0290001e1f52001e975a001e02be00fb
:1041d800e00f5200e08f5a005000340095d0800064
:1041e80084d080000482520005002000be0f5200d7
:1041f800ae8f5a0049003900ce79a900ce99a9009e
:10420800291aa900c7d0800027079800c5d08000c8
:104218001e02780004824200c4d08800c5cd800008
:104228002e029000848f520011003900c5cd800005
:10423800c4d08000848f52002300310086cd8000d6
:1042480097cd8000c5d08000c4cd80000482520084
:10425800050020000602420087824a0084cd8800bb
:1042680095cd8800c4d08000c4cd880016003700e2
:10427800c5cd800096d0800084d080000402530011
:104288000482420024079800c5d080002e029000c6
:10429800848f52000c00360086cd800097cd8000b8
:1042a800c5d080002e029000048252000500200034
:1042b8000602420087824a0084cd880095cd880096
:1042c800c4d08000c4cd8800c5d0800094d08000c0
:1042d800848f520006003900c5d0800086d0800047
:1042e80094d080000402530004824200c4d08800a5
:1042f800c5cd800094d08000848f520030003900f2
:10430800c5cd800086d0800094d080000402530080
:1043180004824200c4cd880029003700c5d080003f
:10432800c4cd8000848f52002500320074ce8000f6
:1043380068026200e00f52002000320074ce800054
:1043480070026200e00f52001b00320086cd800030
:1043580097cd8000c5cd8000c4d080000482520073
:10436800cfa2de000402530085825b0084cd880062
:1043780095cd8800c5cd8000c4d08000848f5200c0
:104388000a00310086cd800097cd800095d080004e
:1043980084d0800004825200cfa2de0004025300c1
:1043a80085825b0084cd880095cd8800c4d08000cc
:1043b800c4cd8800295aa800ce99a800ce79a800b3
:1043c800c5d08000b4d08000848f52001c003a0011
:1043d80045d180000480200004826200e00f520072
:1043e8000a003a00dd3407000003be0024bc2e009a
:1043f800b50020000602420087824a00f4d08800f7
:1044080005d18800289aa9000d00370086cd8000c4
:1044180097cd80004e029000de029000840f53007a
:10442800858f5b0006003a0074ce8000610262004e
:10443800e00f520002003200289aa900297aa90048
:104448007e0a900074039000ce03900084cd800013
:1044580095cd8000040278000482530004024300d2
:10446800640f9800f4cd8000e00f520004003a0079
:104478006e0a9000e00f520001003200293aa800ad
:104488006e0a9000f4cd880034d18000e80f520005
:1044980017003a0086cd800097cd80004e0290002c
:1044a800de029000840f5300858f5b003a003a00cb
:1044b80074ce800061026200e00f520038003200c2
:1044c800a63407000003be00145e2f00550020002c
:1044d8000602420087824a00f4d0880005d188008d
:1044e800289aa8009400200034d1880031003700b1
:1044f80034d18000e90f52000e003a000e529000ad
:104508000482fb0061026200e00f520026003a00bc
:104518004e039000de03900086cd880097cd88007a
:104528008040eb0040c1b30099f90700ddfc0700ab
:10453800d301370034d18000ea0f52001c003a0042
:1045480086cd800097cd80004e029000de0290005c
:10455800840f5300858f5b00be013a00d1fc070031
:10456800c701370084cd800095cd800061034200eb
:10457800e0834a004e029000de029000840f530050
:10458800858f5b00b5013a00c6fc0700bc01370007
:104598000000000007003700000000000500370099
:1045a8000000000003003700000000000100370091
:1045b800000000000e5290008482fb0004022000dc
:1045c80004826200e00f5200a6013a0034d1800054
:1045d800eb0f5200a501320034d18000ea0f5200df
:1045e800a401320034d18000ec0f5200a301320044
:1045f8000e129000e00f5200200132005e0a900077
:10460800e00f52007f003c007e0a90006402900098
:104618004422de006f4262000482fb004222dd0079
:10462800840278005e0a9000048252000400780038
:104638001d3307008e1290005e0a9000048242002b
:10464800041798008e1290003e029000848f52004a
:1046580002003600be03900007179800a6cd800020
:10466800b7cd80000e12900005002000060242001f
:1046780087824a00a4cd8800b5cd8800d5d08000b7
:104688000e12900084824200a4d08000848f5200d1
:1046980020003600a5d08000d4d0800004825200cb
:1046a8000402e80024079800c5a22100954278007a
:1046b800d6d080002e0290008041eb000081eb00f4
:1046c8008540780006007800240207008e129000ca
:1046d8002e02900004825200c5a221009542780063
:1046e80096d080008041eb000081eb008540780087
:1046f800060078001902070095d080000e1390007c
:104708002e0290000402530004824200d4d0880094
:104718000d003700c5a2210095427800d6d0800050
:104728000e1290008041eb000081eb00854078007c
:104738000600780009020700d5d080000e1290000c
:1047480004824200d4d0880064ce8000e10f420089
:10475800ca00320064ce8000840278000e129000f5
:104768000482520064ce880005ce800064ce8000aa
:1047780004824200240798002e029000e00f5200a5
:1047880003003d000082eb0064ce8800bb003700c8
:1047980064ce8000e00f5200b8003c00a6cd800037
:1047a800b7cd80002e0290000500200006024200ce
:1047b80087824a00a4cd8800b5cd8800d5d0800076
:1047c8002e02900004824200d4d08800d5d0800008
:1047d800a4d08000848f520007003600d5d0800016
:1047e800a6d0800094d08000040253000482ea001e
:1047f80004824200d4d088000082eb0064ce880096
:104808009e0037005e0a9000e00f52009b003400c3
:104818008e1290005e0a9000848242003e02900050
:10482800848f520004003600be0290005e0a900099
:1048380004825200041798007e0a900064029000d7
:104848004422de006f4262000482fb004222dd0047
:104858000400780094320700d5d080005e0a9000ea
:10486800848242000e12900084824200a4d080000c
:10487800848f520033003600a5d08000d4d0800049
:10488800848252005e0a90000402ea000482420018
:104898000402e800240798002e029000e00f52005e
:1048a80017003500c5a2210095427800d6d08000b7
:1048b8005e0a9000040343002e0290008041eb0042
:1048c8000081eb008540780006007800a30107000e
:1048d8008e1290002e02900004825200c5a2210080
:1048e8009542780096d080008041eb000081eb0073
:1048f8008540780006007800980107001c00370002
:10490800c5a2210095427800d6d080005e0a9000aa
:1049180004034300a7d0800094d080000482530091
:104928000482ea00040343000e1290008041eb0069
:104938000081eb00854078000600780087010700b9
:104948000b003700c5a2210095427800d6d0800020
:104958005e0a9000040343000e1290008041eb00b1
:104968000081eb0085407800060078007b01070095
:1049780064ce8000e10f420005003a005e0a900014
:1049880064ce88000e12900004ce88003b003700e9
:1049980064ce8000840278005e0a9000848f520002
:1049a8001c003600de0a90000e129000848242003d
:1049b80064ce80000403780004ce80000402430023
:1049c800848f520006003e00de0a90000e1290000e
:1049d8008482420064ce8000848f5200030031003c
:1049e8008e12900005ce88000700370064ce800044
:1049f8008402780004ce8000848242005e0a90001f
:104a08000482520004ce88005e0a900064ce8800ba
:104a18001a003700de0a90000e12900084824200cd
:104a280064ce80000403780004ce800004024300b2
:104a3800848f52001100360064ce80008402780012
:104a480004ce8000848242005e0a9000848f520067
:104a58000a00390005ce80005e0b90000e1290000f
:104a68000403430064ce80000403530004ce800096
:104a7800040253000482420004ce88006e029000b3
:104a8800e00f52001b00320034d18000e70f5200c3
:104a980002003200d4d08000e4d0880045d18000e4
:104aa8000408200004826200e00f52000500320072
:104ab80011c0b30000c1b30035f807003af0070091
:104ac8000c00370028faa80045d180000404200013
:104ad80004826200e00f520006003a0028daa800bb
:104ae800373307000002be00040278007e0242004d
:104af80024d188000e5290000482fb0061026200fb
:104b080004427800e04f52005d003200a4cd8000de
:104b1800b5cd800061034200e0834a006e02900038
:104b28006120b8001e0a9000ae0a90000002420000
:104b380081824a00840f5300858f5b0050003a0041
:104b4800a4cd8000b5cd800061024200e0824a0019
:104b5800a4cd8800b5cd880034d180006123b80089
:104b6800a4ff2f00f5ff2f000602420087824a00ab
:104b78003600200007002000860f5200878f5a0059
:104b880027003e00046001000300370008003700da
:104b98000f0037001d003700c400200034d1880002
:104ba80011c0b30010c1b300f9f707003400370093
:104bb800b400200034d18800013307000002be0091
:104bc80004027800d403b00024d18800150037000f
:104bd80086cd800097cd80004e029000de029000c6
:104be800840f5300858f5b0005003a008040eb007e
:104bf80000c1b300e6f707002afb070020003700d2
:104c0800a400200034d18800060037008040eb0063
:104c180000c1b300def7070022fb070018003700c9
:104c28000000000011c0b30000c1b300d8f70700ae
:104c380013003700000000001100370000000000da
:104c48000f003700000000000d00370000000000d2
:104c58000b003700000000000900370000000000ca
:104c680007003700000000000500370000000000c2
:104c780003003700000000000100370000000000ba
:104c88000080fa00000006000e00fa006047980055
:104c98004107980052079800434f98006e429000d1
:104ca800e04f5200020032000002eb00a80037007b
:104cb8006e40900092ef07004e029000e00f520005
:104cc80002003a001400200044079800a5d0800094
:104cd80084d08000048252000402e900240798006e
:104ce800ce0290005e029000848242002e02900064
:104cf800848f5200020036000002eb009400370057
:104d0800a9ef07004e4a90000482fb00630262008c
:104d1800e00f520003003a004e4a90003440b300be
:104d2800444f98005e02900014079800ce0290004d
:104d38005e02900004824200ae029000048252009b
:104d4800240798004e4a90000482fb006202620029
:104d5800e00f5200100032004e4a90000482fb001f
:104d68006102620004427800e04f520006003200ff
:104d78002e0290000402d1009e029000048242009c
:104d880014079800040037009e0290002e0290003d
:104d9800048242001407980085d080001e0290000b
:104da800048242000402e80024079800d4d080005e
:104db800040f780064ce8000e10f42000d0032003d
:104dc80064ce80008402780004ce80000482420011
:104dd8001e0f4200a4d080009e0f52000500310033
:104de800a5d0800094d08000048252000482ea009a
:104df8001e0f4200e4d080009e0f520010003100c8
:104e0800e5d080002e029000848f520023003100ec
:104e18004e4a90000482fb0064026200e00f5200d8
:104e2800020032000002eb00490037002e02900019
:104e3800e4d088002e029000d4d0880017003700f4
:104e4800e4d080009e0f52001000360095d08000fc
:104e58002e029000848f5200100031004e4a9000bc
:104e68000482fb0064026200e00f5200020032007c
:104e78000002eb00360037002e029000e4d08800d4
:104e88002e029000d4d08800040037002e02900033
:104e9800e4d088002e029000d4d08800e4d08000ae
:104ea8009e0f52001b0036004e4a90000482fb0001
:104eb80064026200e00f52001600320094d08000b5
:104ec8001e021200c6a221001643780097d0800067
:104ed800c5a2210095427800864178000701780034
:104ee800854078002e0090001c000700d5d0800077
:104ef800e4d08000848f520006003100d5d08000b5
:104f080094d080002e0390000402530004824200d3
:104f1800d4d088002e02900094d0880084d08000dd
:104f2800c4cd880084d08000c4d0880084d080009c
:104f3800b4d0880034d18000e70f520003003a0053
:104f480011c0b30000c1b30011f70700140020001e
:104f5800040078000080fa00000006000a00fa0049
:104f6800000f7800214798002207980063479800af
:104f7800440798006e4290000482fb00e00f520044
:104f88001a003200e10f520037003a002e4290001a
:104f98000482fb00e00f520009003200e10f5200ca
:104fa8002e003a00ae0290001e0278004e019000da
:104fb800850078000400780000ee07000a0037003a
:104fc8001e027800e10f4200020032001e00780045
:104fd800191507002e029000ce00900004007800fa
:104fe8008c170700000000001f0037002e429000b9
:104ff8000482fb00e00f52000c003200e10f520067
:1050080018003a002e029000e10f42000200320020
:105018002e009000231507001e027800ce00900095
:1050280004007800f01607000a0037004e019000cf
:10503800ae0090001e007800c315070000000000b5
:10504800c416070000027800e00f5200fcff32008f
:10505800000000000000000003003700000000000e
:1050680001003700000000000080fa000000060080
:105078000200fa00000f78000080fa000000060025
:105088000000fa0074d980000402e80074d988008e
:10509800c49f20008002eb00050a7800c49f20000e
:1050a8001500200015029800c49f2000250020004c
:1050b80025029800c49f2000350020003502980082
:1050c80074d9800014a2880084d9800044a4880080
:1050d8008f60a9008760a9000405800004c0a100b2
:1050e80004d0a10004e0a000040588000002eb0041
:1050f800b41c88009803a8009823a8009843a80027
:1051080098a3a8000080200090320700808a200021
:105118008e320700009520008c32070004402000e2
:10512800841c880000000000851c8000040e2000fc
:105138008482620004082000848f5200faff3a003b
:1051480034002000941c8800a4392000a41c880086
:10515800148021008419880054802100c419880013
:105168000002eb000418880004802100441888001d
:105178004400210084188800c47f2100c4188800d6
:10518800c47f210004198800c47f210044198800c5
:1051980014002000741b880024002000f41a8800e2
:1051a80034002000741a8800040c2000241b880096
:1051b800040c2000a41a8800040c2000241a88007b
:1051c8000002eb00741c88000002eb00f41b88004e
:1051d8000002eb00841c880000000000851c800091
:1051e800040e200004826200e00f5200fbff3a0028
:1051f8000002eb00d4a488008f60a80054fb2500af
:1052080084088800147a2000640888000002eb00f3
:105218003408880084c0a9008cc0a90011e1a80046
:10522800d4fb250094088800b4c4240074088800be
:1052380084e0a9008ce0a90013e1a8000002eb00bb
:1052480054a48800b4e9280064a488000002eb0094
:1052580074a488001404200084a488004406200054
:1052680094a488000080fa00000006000000fa00fc
:10527800d51c800004f02f008482620056a38000b1
:1052880004f02f0004026300848f52000a003600e5
:1052980055a38000f40f20000482620054a3880004
:1052a80055a38000d61c800004f02f000402630080
:1052b8000482420054a38800d51c8000f40f20000b
:1052c8008482620056a38000f40f20000402630069
:1052d800848f52000a00360055a3800004f02f0086
:1052e8000482620054a3880055a38000d61c800065
:1052f800f40f2000040263000482420054a38800d3
:1053080054342c0034a2880034122f0044a28800a0
:10531800043a8000d4a18800260007004c0007004a
:10532800a60207009e070700c49f20009402780089
:105338000400280004826200e00f520001003200dd
:10534800de08070044a48000f4a18800f5a18000cd
:1053580014a4800004824200f4a18800f5a1800012
:1053680024a4800004824200f4a18800f5a18000f2
:1053780034a4800004824200f4a18800f5a18000d2
:10538800f4a3800004824200f4a18800f5a1800003
:10539800e4a3800004824200f4a18800f5a1800003
:1053a800d4a3800004824200f4a188000080fa009f
:1053b800000006000a00fa00180037008e00780086
:1053c80000802000a83107009e02780044f82100e0
:1053d8008482620044402100848f520003003a0016
:1053e8000e007800670107000c0037009e02780065
:1053f80044f821008482620044502100848f5200c6
:1054080003003a000e00780083010700030037000c
:10541800d4a380000402e800d4a388000080200000
:105428004331070000027800e00f5200e3ff3a0022
:105438007445800014a488003440800024a48800a7
:10544800b44a800034a488000080fa0000000600f6
:105458000000fa0075a18000041020000482620098
:10546800e00f520006003a00c49f200014027800a2
:1054780068026200e00f5200010032005500070088
:10548800250480000404200004826200e00f52001a
:105498004e00320084c0a90075a1800004202000bd
:1054a80004826200e00f520002003a00490007003f
:1054b80046003700245080000402e8002450880089
:1054c8002450800067026200245088002450800025
:1054d800050020007600200007002000860f5200fb
:1054e800878f5a0039003e0004600100070037002a
:1054f80008003700090037000a0037000b003700a2
:105508000c0037000d0037000e003700310007008f
:105518002e003700520007002c0037002d0007002e
:105528002a00370078000700280037002900070004
:1055380026003700890007002400370025000700ef
:1055480022003700345080000402e80034508800fc
:1055580034508000e50f5200020036000002eb00d4
:105568003450880034508000e00f520001003a00a7
:105578008f00070034508000e10f520001003a000c
:105588004c00070034508000e20f520001003a003e
:105598009c00070034508000e30f520001003a00dd
:1055a800b000070034508000e40f520001003a00b8
:1055b800c400070034508000e50f520002003a0092
:1055c800d800070001003700000000000080fa0042
:1055d800000006000a00fa0004002400040f780006
:1055e800c49f20001402780014079800c49f20006c
:1055f8001402900024079800c49f20002402900001
:1056080034079800c49f2000340290004407980093
:10561800e13520000e0078004231070074a38000b5
:105628000402e80074a38800c49f200014027800d4
:105638004322de00614262000482fb0061026200d4
:105648004822dd0076a18000f5ef2f008502630077
:105658000502720074a188000080fa0000000600ac
:105668000a00fa00040a2a00040f78000420240023
:1056780044079800c479800034079800b479800002
:10568800240798000002eb00140798008e007800a9
:10569800808a2000dc300700741b800068026200ea
:1056a800e00f520001003a008760a8000080fa006d
:1056b800000006000a00fa00840a2a00040f780095
:1056c80004202500440798000485800034079800ca
:1056d800848480002407980074848000140798004c
:1056e8008e007800808a2000c7300700741b800075
:1056f80068026200e00f520001003a008760a800cb
:105708000080fa00000006000a00fa00840b2a0054
:10571800040f780004202700440798000002eb00db
:1057280034079800f48f800024079800548f800075
:10573800140798008e007800808a2000b230070095
:10574800741b800068026200e00f520001003a00fa
:105758008760a8000080fa00000006000a00fa002e
:10576800040c2a00040f780004202800440798003d
:105778000002eb0034079800b494800024079800d6
:10578800c4948000140798008e007800808a200056
:105798009d300700741b800068026200e00f520011
:1057a80001003a008760a8000080fa0000000600a7
:1057b8000a00fa00040c2a00040f780014202800bc
:1057c800440798000002eb0034079800e494800036
:1057d80024079800d4948000140798008e0078005d
:1057e800808a200088300700741b800068026200ed
:1057f800e00f520001003a008760a8000080fa001c
:10580800000006000a00fa0084092a00040f780044
:105818000420230044079800e43e21001402780085
:1058280034079800043f21001402780024079800e8
:10583800243f210014027800140798008e00780095
:10584800808a200070300700741b800068026200a4
:10585800e00f520001003a008760a8000080fa00bb
:10586800000006000a00fa0084092a00040f7800e4
:105878001420230044079800443f210014027800b4
:1058880034079800643f2100140278002407980028
:10589800843f210014027800140798008e007800d5
:1058a800808a200058300700741b8000680262005c
:1058b800e00f520001003a008760a8000080fa005b
:1058c800000006000a00fa0084092a00040f780084
:1058d8002420230044079800a43f210014027800e4
:1058e80034079800c43f2100140278002407980068
:1058f800e43f210014027800140798008e00780015
:10590800808a200040300700741b80006802620013
:10591800e00f520001003a008760a8000080fa00fa
:10592800000006000a00fa0084092a00040f780023
:105938003420230044079800044021001402780012
:1059480034079800244021001402780024079800a6
:105958004440210014027800140798008e00780053
:10596800808a200028300700741b800068026200cb
:10597800e00f520001003a008760a8000080fa009a
:10598800000006000400fa00100798001e029000ac
:10599800c4029000f4ff2000048f620015c0b30019
:1059a800f40f20001e037800840f530001003e000e
:1059b8008042eb0014c0b300f61f20009e0378005d
:1059c800868f5300010036000042eb0004c26200db
:1059d800e04f52000b0032001e02900014039000aa
:1059e8001e029000a40290001e0290004402900043
:1059f800060178008500780004007800d3170700b6
:105a080003003700e4a380000402e800e4a3880050
:105a18000080fa00000006001400fa00100f980039
:105a28001e0a9000140278004322de001407980032
:105a38001e0290006f026200140798001e02900078
:105a480015002000042add00240798001e0a900093
:105a58000482e80094027800350798001e0a900036
:105a68006402420094027800450798001e0a9000dc
:105a780034029000540798001e0a900044029000d7
:105a8800640798000060fe003e0290000470a100c8
:105a9800340798001e0290006123b8000082eb00d2
:105aa8008082eb000602420087824a0076002000ce
