:020000040000fa
:080000000001040000000000f3
:020000040000fa
:10000800e84f0000e84f0000e84f0000e84f00000c
:10001800e84f0000e84f0000e84f0000e84f0000fc
:10002800e84f0000e84f0000e84f0000988d0000fe
:10003800e84f0000e84f0000e84f0000e84f0000dc
:10004800e84f0000e84f0000e84f0000e84f0000cc
:10005800e84f0000e84f0000e84f0000e84f0000bc
:10006800e84f0000e84f0000e84f0000e84f0000ac
:10007800e84f0000e84f0000e84f0000e84f00009c
:10008800e84f0000e84f0000e84f00001e35000070
:10009800e84f0000e84f0000e84f0000e84f00007c
:1000a800e84f0000e84f0000e84f0000e84f00006c
:1000b800e84f0000e84f0000e84f0000e84f00005c
:1000c800e84f0000e84f0000e84f0000e84f00004c
:1000d800e84f0000e84f0000e84f0000e84f00003c
:1000e800e84f0000e84f0000e84f0000e84f00002c
:0800f800e84f0000e84f000092
:020000040000fa
:10010800e84f0000e84f0000e84f0000e84f00000b
:10011800e84f0000e84f0000e84f0000e84f0000fb
:10012800e84f0000e84f0000e84f0000988d0000fd
:10013800e84f0000e84f0000e84f0000e84f0000db
:10014800e84f0000e84f0000e84f0000e84f0000cb
:10015800e84f0000e84f0000e84f0000e84f0000bb
:10016800e84f0000e84f0000e84f0000e84f0000ab
:10017800e84f0000e84f0000e84f0000e84f00009b
:10018800e84f0000e84f0000e84f00001e3500006f
:10019800e84f0000e84f0000e84f0000e84f00007b
:1001a800e84f0000e84f0000e84f0000e84f00006b
:1001b800e84f0000e84f0000e84f0000e84f00005b
:1001c800e84f0000e84f0000e84f0000e84f00004b
:1001d800e84f0000e84f0000e84f0000e84f00003b
:1001e800e84f0000e84f0000e84f0000e84f00002b
:0801f800e84f0000e84f000091
:020000040000fa
:100200004f2622000e7f22000e0188000000000011
:10021000000020000000e000020032000001200089
:10022000200288000c00070080ed2800010020005b
:1002300011000700000020000000e0000200320072
:1002400000000200000000008e3d020000000000df
:100250000040da000000fe004440a90060152000c4
:100260000000e0000300320000002000a001880030
:100270004440a8000000060091018800800078003a
:100280000000eb0015003700e280400032a0b4000f
:100290009101ba00e280400032a0b4009102ba009d
:1002a000e280400032a0b4000002eb00472bde00e9
:1002b000f507b200602ce10004003a000059eb00a1
:1002c0008301e900fdff3e00040037006128e100e2
:1002d000010032000082eb00040007001101ba00a7
:1002e0000200e000e8ff3a00000006003159ba00c1
:1002f0008301e9000c0032002159ba008301e900b2
:10030000080032000400e00003003a00e2804000f0
:1003100032a0b400f5ff370011d9ba008301e9001b
:10032000faff3a008100e800e180400032a0b4000a
:10033000000006006022b800060220000000d00085
:100340008180d2000482d2008582d2000000a00009
:100350000202520083825a0003003100020242006e
:1003600083824a000000a1000603e900f3ff3a007f
:1003700000000600efff07000400be0000000600ba
:10038000889fbe008a9fbe003004be002005be00cc
:100390000404440085844c0006054d0087854d000b
:1003a0000898be000a90be000440e10005c8e100c4
:1003b00006d0e10007d8e1000200310068004000eb
:1003c0001008e8004f05be004f04be000000060004
:1003d0001000fa00889fbe008a9fbe001100200016
:1003e0000605be000404be003002be002003be00ad
:1003f000c4b79f00d5b79f00e6b79f00f7b79f002f
:100400000802520089825a000a035b008b835b005a
:1004100084bf9f0095bf9f00a6bf9f00b7bf9f00ee
:100420000498be000698be004fb29700dfb2970056
:100430006fb39700ffb397000820e10009a8e1001f
:100440000ab0e1000bb8e100010039008000eb00c8
:100450004f05be00108810004f04be000080fa0057
:10046000000006001400fa00889fbe008a9fbe00ac
:100470008c9fbe000006eb003e000700ccb79f003b
:10048000bcb79f00acb79f009cb79f008cb79f0084
:100490000605be000404be000d0420004fb3970003
:1004a000bfb29700860343002fb29700e00f5300be
:1004b00004003d003d0007000f004000b0ff0700b2
:1004c00003003700390007000f004000c0ff07009d
:1004d000cfb2970095bf9f00e08f52000900350012
:1004e0002b00070014002000050020006033b80036
:1004f000000072008180720002017300838173002a
:100500001c0007000c06e8008d0f5600e3ff3a00c0
:100510001fba9700e00f520005003d000802be0020
:100520000a03be0000fe2f000f00400094ff0700ea
:100530004faa9700e00f520008003a000fb497004e
:100540009fb497002fb59700bfb59700d8b79f000d
:10055000e9b79f00fab79f008bbf9f000c00070010
:100560004f06be004f05be004f04be000080fa00db
:1005700000000600010007000000060090b79f0081
:10058000a1b79f00b2b79f00c3b79f00000006004d
:1005900001000700000006001fb09700afb09700f1
:1005a0003fb19700cfb19700000006004f2bde004f
:1005b000f9ff070086837300858242004f23de0027
:1005c000a7b79f00868272000402420095b79f0081
:1005d000ffaa97004f2bde008582420006027200c0
:1005e00084b79f006faa97004f23de0004024200e9
:1005f00086827200f5af9f004f18de000002720085
:10060000e5ff0700e4af9f00000040008180480044
:1006100002014900838149000802be000a03be00ae
:10062000d6ff070000fe2f0000000600881f78009c
:1006300018002000881f78008aff07008f87e900d4
:100640004f04780000000600801feb0085ff0700c4
:100650008f87e90000000600889fbe008a9fbe00c9
:10066000e00f5000e08f5800e00f5900e08f590074
:100670000c003d006044b8006055b8000000540014
:1006800081805c0002015d0083815d001800200014
:100690001500070008003d00180007000004eb00eb
:1006a000050037000004eb000f00070002003d00ca
:1006b0001200070018002000dcff0700e00f5400c4
:1006c000060032006022b8006033b800000052001b
:1006d00081805a0002015b0083815b004f05be00f0
:1006e0004f04be0000000600e00f5200e08f5a00e9
:1006f000e00f5b00e08f5b00000006006044b80084
:100700006055b8000402540085825c0006035d0059
:1007100087835d0000000600889fbe008a9fbe00a0
:100720008c1f7800e00f5000e08f5800e00f590058
:10073000e08f59000d003d006044b8006055b800de
:100740001c0020000000540081805c0002015d005c
:1007500083815d000820e10009a8e1000ab0e10002
:100760000bb8e1000d003d00080037000006eb006b
:10077000e00f5200e08f5a00e00f5b00e08f5b005b
:1007800006003d006044b8006055b8000402540003
:1007900085825c0006035d0087835d00aaff070079
:1007a000e00f5600060032006022b8006033b80047
:1007b0000000520081805a0002015b0083815b00cf
:1007c0004f0678004f05be004f04be000000060033
:1007d0000002780002003700315a78000201e90077
:1007e000e00f5100fcff3a00000006000002780014
:1007f00002003700015a78000201e900e00f5100c1
:10080000fcff3a0000000600000278008042eb0086
:10081000b4cf1200fdff3a000080ea000000420061
:10082000000006000002780006003700314378001f
:100830000201e900065a780084027800e04f530074
:100840000600320084027800e00f5100f7ff3a0002
:1008500002003700805aeb000201e900e00f51006e
:08086000fcff3a000000060055
:020000040000fa
:10086800ff0f0000ff0f0000ff0f0000ff0f000048
:10087800ff0f0000ff0f0000ff0f0000ff0f000038
:10088800ff0f0000ff0f0000ff0f0000ff0f000028
:10089800ff0f0000ff0f0000ff0f0000850f000092
:1008a8000a0f00008f0e0000140e0000700d0000eb
:1008b800f50c00007a0c0000ff0b0000850b00000f
:1008c8000000000000000000000000000000000020
:1008d8000000000000000000000000000000000010
:1008e8000000000000000000000000000000000000
:1008f80000000000000000000000000000000000f0
:1009080000000000000000000000000000000000df
:1009180000000000000000000000000000000000cf
:1009280000000000000000000000000000000000bf
:1009380000000000000000000000000000000000af
:10094800000000000000000000000000000000009f
:10095800000000000000000000000000000000008f
:1009680028230000803e0000803e0000803e0000fa
:10097800803e0000004b0000004b0000004b0000d0
:10098800004b000000000000000000000000000014
:10099800000000000000000000000000000000004f
:1009a800983a0000983a0000983a0000983a0000f7
:1009b800983a0000983a0000983a0000983a0000e7
:1009c800000000000000000000000000000000001f
:1009d800000000000000000000000000000000000f
:1009e8009c1800000807000008070000204e0000bf
:1009f8000807000008070000204e00000807000054
:100a080008070000204e0000080700000807000043
:100a1800204e000000000000000000000000000060
:100a2800060500000403000002010000161500007e
:100a380014130000121100002625000024230000d2
:100a48002221000036350000343300003231000026
:100a5800000000000000000000000000000000008e
:100a6800000000000080000000000000008000007e
:100a7800000000000080000000000000008000006e
:100a8800000000000080000000000000008000005e
:100a9800000000000080000000000000008000004e
:100aa800000000000000000000000000000000003e
:100ab800000000000000000000000000000000002e
:100ac800000000000000000000000000000000001e
:100ad800000000000000000000000000000000000e
:100ae80000500000c2b4000020000000455400007f
:100af8004d4200004f410000524400000000000039
:0c0b08000c00000020030000640000004e
:020000040000fa
:100b14000200fa00004f7800448620001442780056
:100b24009e4f52001f003200448620001442780079
:100b3400e24f42000b003200448620001442780049
:100b44000482fb007e22b90084027800640f220034
:100b540004824200e2012000811722000400780090
:100b64001aff07001e40780064e8b7001e427800b0
:100b7400e24f42000d0032009e4278000582fb00e5
:100b84007e22b90084027800640f220004824200ad
:100b9400e201200084007800801722000bff070088
:100ba40003003700000000000100370000000000cf
:100bb4000080fa00000006000000fa0055862000bc
:100bc40095427800448620001442780084cf520075
:100bd4002f0032005486200014427800e24f420075
:100be4001a00320047112200548620001442780073
:100bf4000482fb007e22b90004027800fc02420059
:100c0400640f2200048242001443780054862000ba
:100c1400144278000482fb007e22b900840278002a
:100c2400640f2200048242001402780085fd2f0024
:100c3400848242008402200013c0b30007017800bc
:100c440086407800050078002a11070044862000b9
:100c5400144278000400780065e8b70044192200c3
:100c640094427800c40b810087fd2f0084834300e5
:100c74004611220084022000854178000701780093
:100c840011c0b300060078001a11070001003700f4
:100c9400000000000080fa00000006000c00fa00ca
:100ca40004a221001407980014438000e00f5200ae
:100cb40008003a00883407000002be00840278006d
:100cc400f47f2000848262000440200004824200f9
:100cd40014438800c20320008000eb00c0132200ec
:100ce400c1fe07000042eb00444798000042eb00bd
:100cf400044f7800500037001e40780084ff07003e
:100d04009e4278000582fb006622b90084027800c6
:100d140044582800048242009442900055479800a9
:100d24009e4278000582fb006622b9000402780026
:100d34008482e80044582800048242009402780027
:100d4400350798009e4278000582fb006622b900b0
:100d540004027800e402420044582800048242005d
:100d640094027800450798005e4290000482fb00dc
:100d7400e00f5200010032002e0037001e029000e6
:100d840054079800be0290004e02900084824200f4
:100d94001e02900004824200a402b00014079800ce
:100da4009e029000c4ff2100848f5200fcff3e008d
:100db40044192200de429000054a78005e02900049
:100dc4008402b000c40b8900c50b81003e02900070
:100dd400048242000402e800d40b8900d50b810090
:100de4004e02900004824200e40b8900d4002000eb
:100df400740c8900840c81000430a100840c8900e7
:100e04006dff07009e4278000582fb006622b90050
:100e14008402780044582800048242001442780076
:100e2400b5132200844a7800ca0a07001e4fe8005e
:100e340001003700ffff37001e427800e04f5200e8
:100e4400adff32000080fa00000006000c00fa003a
:100e540010079800210798006247980043079800fc
:100e6400244f98000042eb00044f780081003700c3
:100e74001e40780026ff0700740c8100ed0f52001d
:100e840078003a004cff0700b41322009442780023
:100e94002e4a900084cf520074003a00842120002e
:100ea400c40989006e429000e04f52000a003a00e3
:100eb4004e02900024098900840c81000430a000b3
:100ec400840c890044002000740c8900ce02900038
:100ed400950c89006100370015438000f43f200021
:100ee400848f5200040036001543800084382100aa
:100ef400848f52000200360004402000144388000e
:100f040014438000240989000402e8001443880083
:100f1400ce03900017098900a34207000002be0017
:100f2400340c8900450c8900840c81000440a00025
:100f3400840c89006e4290000482fb00e30f52008f
:100f440003003200e40f520019003200430037005e
:100f54000e82e800940290000e82e80014027800e9
:100f6400848242004e02900084824200240981005f
:100f740004826a00940c89001e029000ae02900064
:100f84005409890065098900a51322000042eb0079
:100f9400844a7800c404200005002000a4088900c5
:100fa400b508890024002000740c89002b00370048
:100fb4001e029000ae0290000402780084027800c1
:100fc400254290000483fb00354290000482fb001c
:100fd4004822dd00860278008482720005027800cf
:100fe400040378001e029000ae0290000402780010
:100ff400944378008782fb00144290000482fb0033
:101004004822dd008503780084837300070278009a
:10101400840243004e02900084824200240981002d
:1010240004826a00940c89001e029000ae029000b3
:1010340004027800a200200084007800a01222009c
:10104400e2fd070054002000740c890011c0b300b5
:1010540020c0b300e8060700000000001e4278002c
:101064000800370000000000010037000000000005
:101074001e4fe8001e427800e04f52007cff320011
:10108400e4cfb300044078000080fa0000000600ba
:101094000200fa00004f78001e427800e04f520030
:1010a40002003200140020000d0037001e407800ba
:1010b40097fe0700850c8100040021000482620071
:1010c400e00f520005003200840c810004c0a1002e
:1010d400840c890014002000010037000002eb009a
:1010e400040078000080fa00000006000200fa0004
:1010f400004f78001e427800e04f52000200320098
:101104000002eb00080037001e40780080fe070054
:10111400740c810067026a0004f0a7000402ea006c
:101124000402e9004f22de00040078000080fa0087
:10113400000006000200fa00004f78001e4278000a
:10114400e04f520044003a001e40780070fe070051
:10115400140c8100240c8900740c8100050020000b
:10116400e600200007002000860f5200878f5a00f7
:1011740033003e00046001000e00370030003700e9
:101184000c0037000b0037002d0037000900370032
:101194000a0037000900370029003700280037000b
:1011a40027003700140037002500370024003700db
:1011b40020003700e70907002800370011c0b300fa
:1011c40010c1b3008c06070034098100e00f5200ff
:1011d40005003200f50b810004098100848f520060
:1011e400f6ff3a00010037000000000084002000f0
:1011f400740c89001900370011c0b30010c1b3008a
:101204007d06070034098100e00f5200050032001a
:10121400f50b810004098100848f5200f6ff3a0027
:101224000100370000000000c4002000740c890095
:101234000a003700d4002000740c8900070037002e
:101244008040eb0040c1b3006b060700c1090700f2
:101254000000000001003700000000000080fa00d8
:10126400000006000200fa00004f78001e427800d9
:10127400e04f520008003a001e40780024fe0700a8
:10128400840c81000430a100840c89001e40780085
:10129400a8ff070001003700000000000080fa00ea
:1012a400000006000200fa00004f78001e42780099
:1012b400e04f5200020032000002eb000a00370047
:1012c4001e40780012fe07003bfe0700a20020002b
:1012d400a1122200601922003cfd070014098100bc
:1012e400040d890064192200040078000080fa00cb
:1012f400000006000200fa00004f78001e42780049
:10130400e04f52000b003a001e40780000fe070038
:1013140029fe0700f50b810004098100848f520027
:101324000500320011c0b30000c1b300320607004b
:1013340001003700000000000080fa0000000600f1
:101344000400fa00204798002e429000e04f52001b
:10135400020032000002eb001d0037002e40900016
:10136400ebfd0700740c8100044f78001e427800e6
:10137400e74f5200050032001e427800eb4f520046
:10138400020032000002eb0011003700f50b81006f
:10139400040c8100848f520009003900d50b8100b0
:1013a400c40b810084825200060c8100f40b81007e
:1013b40004025300048242000402e90004003700de
:1013c400050c8100f40b8100048252000402e90040
:1013d400040078000080fa00000006000400fa000f
:1013e40020479800314798002e429000e04f520069
:1013f400020032000002eb00470037002e4090004c
:10140400c3fd07002e409000cdff070000027800c6
:10141400040f78001e027800e00f520002003a0028
:101424000002eb003c0037001e027800e10f52007e
:1014340002003a002e409000aeff0700850c8100a8
:101444000410200004826200e00f52000b003a00f6
:10145400d50b8100c40b8100048252000402d10028
:101464009e0f5200050039002e409000a1ff070096
:10147400840c81000480a000840c8900e3034700ed
:101484004419220094427800f60b810014002000d5
:1014940013c0b30007017800854078000600780087
:1014a400140f0700f40b81000402e800f40b890018
:1014b400f50b8100d40b8100848f520002003900a7
:1014c400c40b8100f40b89001e027800e10f520066
:1014d40003003a002e40900086ff07000d003700fd
:1014e400850c81000402200004826200e00f520097
:1014f40008003a00840c81000450a000840c890088
:10150400424107000002be00040278006c0242005f
:10151400540c890014002000040078000080fa00b4
:10152400000006000c00fa0060479800410798008c
:10153400520798000002eb00140798006e429000d6
:10154400e04f5200020032000002eb00640037005a
:101554006e4090006efd07006e40900078ff07001b
:1015640000027800240798002e029000e00f520039
:1015740004003a006e4090005eff07000002eb009a
:10158400570037002e029000040f7800ae0290003e
:101594005e029000848f5200020036005e029000ca
:1015a400040f7800850c810004102000048262007e
:1015b400e00f52000c003a00d50b8100c40b8100ef
:1015c400048252008402d1002e029000848f5200c3
:1015d400050039006e40900046ff0700840c81002e
:1015e4000480a000840c8900f40b81009e02420058
:1015f400d40b8100848f520016003900d50b810072
:10160400f40b81000482520014079800ce0390006a
:101614004419220094427800f60b81001e029000c7
:1016240013c0b300070178008540780006007800f5
:10163400b00e0700ce0290001e0290000482420009
:10164400440798001e0290001e0f1200c40b810074
:10165400f40b8900ce0390004419220094427800d0
:10166400f60b81001e02780013c0b3000701780056
:1016740085407800060078009e0e0700f40b810078
:101684001e024200f40b8900ae0290005e0290003c
:10169400848f520003003e006e40900015ff070047
:1016a4000d003700850c81000402200004826200d2
:1016b400e00f520008003a00840c81000450a0009e
:1016c400840c8900d14007000002be0004027800a7
:1016d4006c024200540c89001e0290001e0242005b
:1016e400040078000080fa00000006000400fa00fc
:1016f400004f7800110798001e0290000400780043
:1017040040fc070000027800040178009e0090006d
:101714001e40780083ff0700000278009e029000bc
:1017240004824200040078000080fa0000000600f1
:101734000600fa00404798004e429000e04f5200e5
:10174400020032000002eb000c0037004e40900013
:10175400effc0700d50b8100c40b8100048252000a
:10176400040fe9004e409000f5fe070000027800e7
:10177400140798001e0290001e0212000400780054
:101784000080fa00000006000200fa00004f780012
:101794001e4078000c00070000027800e00f5200a1
:1017a400070032001e407800d9fc0700140c8100a9
:1017b400240c890011c0b30000c1b3000e0507005a
:1017c4000080fa00000006000200fa00004f7800d2
:1017d4001e427800e04f5200020032000002eb008b
:1017e400120037001e407800c9fc0700150c810068
:1017f400240c8100848f520004003900150c8100f0
:10180400240c81000482520008003700e50b81009b
:10181400240c810084825200160c8100d40b8100b8
:1018240004025300048242000402e8000400780029
:101834000080fa00000006000600fa002047980025
:10184400210798002e409000dfff07000002780077
:10185400040f78001e027800e00f520002003a00e4
:101864000002eb002d0037002e409000a8fc07007a
:101874002e029000e00f52000a00320044192200a8
:1018840094427800270c81002e039000140020005d
:10189400854178000701780011c0b3000600780084
:1018a400140e0700240c81000402e800240c8900b3
:1018b400250c8100e40b8100848f52000200360065
:1018c400d40b8100240c89001e027800e10f520021
:1018d40004003a00840c810004a0a000840c890058
:1018e4000d003700850c8100040220000482620090
:1018f400e00f520008003a00840c81000450a0005c
:10190400840c8900414007000002be0004027800f4
:10191400d403b000540c89001400200004007800a3
:101924000080fa00000006000a00fa004047980010
:1019340031079800420798000002eb00040f78007a
:101944004e409000a0ff07000002780014079800a2
:101954001e029000e00f520002003a000002eb0069
:10196400530037004e40900069fc0700ce029000ff
:101974001e029000848f5200020036001e02900066
:1019840044079800250c81004e0290008482420096
:10199400e40b8100848f520019003600e50b8100ae
:1019a400240c810004825200040fe8003e029000df
:1019b400e00f52000d0032004419220094427800d6
:1019c400270c81003e0390001e02780085417800b8
:1019d4000701780011c0b30006007800c50d0700a8
:1019e4003e0290001e024200340798004e0290000e
:1019f4001e02520044079800d40b8100240c890075
:101a04003e029000e00f52000a0032004419220006
:101a140094427800270c81003e0390004e0290000f
:101a2400854178000701780011c0b30006007800f2
:101a3400b00d0700250c81004e0290000482420084
:101a4400240c89004e0290001e02420044079800b4
:101a54009e0290004e029000848252004e0290003a
:101a6400848f520004003e00840c810004a0a00076
:101a7400840c89000d003700850c810004022000cd
:101a840004826200e00f520008003a00840c8100d6
:101a94000450a000840c8900dc3f07000002be0053
:101aa40004027800d403b000540c89004e02900064
:101ab400040078000080fa00000006000600fa0026
:101ac400404798004e429000e04f5200020032001e
:101ad4000002eb000b0037004e4090000cfc0700a6
:101ae400e50b8100d40b8100048f52004e4090001e
:101af40035ff070000027800140798001e029000ca
:101b04001e021200040078000080fa0000000600a3
:101b14000e00fa00604798004107980052079800a9
:101b2400630798006e429000e04f520003003a00b1
:101b34005e029000e00f520002003a000002eb0047
:101b4400450037006e409000f1fb07006e409000a6
:101b54001dff07000002780014079800ee029000b1
:101b64005e029000848242001e029000848f520024
:101b7400040036009e0290006e029000048252001f
:101b840054079800250c81006e029000048f4200d7
:101b9400e40b81009e0f520005003100e50b81002b
:101ba400d40b8100048252000482ea001e0f42001a
:101bb400e40b81001e0252000402e800240798008e
:101bc400de0290002e029000848f52000a003e0034
:101bd40044192200944278004e0390005e02900063
:101be400854178001e01780011c0b300060078001a
:101bf400400d070017003700441922009442780072
:101c04004e0390002e029000854178001e0178005a
:101c140011c0b30006007800360d0700de02900004
:101c24002e02900004825200451922009542780049
:101c3400d70b81004e0090002e0390000603400055
:101c4400854178000701780011c0b30006007800d0
:101c5400280d07005e029000040078000080fa005e
:101c6400000006000600fa002047980021079800ab
:101c7400ae019000120020008e0078002e409000eb
:101c8400a3ff07001e427800044078000080fa0099
:101c9400000006003e00fa0020779800211f9800fb
:101ca400321f9800431f9800541f9800651f980026
:101cb4002e729000e04f520003003a003e1a90004a
:101cc400e00f520002003a000002eb002601370048
:101cd4002e7090008efb07002e709000bafe070055
:101ce40000027800ce1a90000502520014079800f2
:101cf4009e0290003e1a9000848f52000200310030
:101d04000082eb00180137005e1a9000e00f5200c9
:101d1400060032009e0290005e1a9000848f5200ea
:101d2400020036005e1a900014079800250c81000a
:101d34004e1a90000482420034079800e50b81009b
:101d44003e029000848f520007003100e50b8100b1
:101d5400d40b8100048252000482ea00be02900087
:101d64000482420034079800be029000050f7800f8
:101d7400e50b81003e029000048252000402e80058
:101d8400240798004e1a900034079800be1a900059
:101d9400750798002e1a9000040f98002e1a9000d0
:101da40094427800154f98002e1a90000402e8001f
:101db400241f98000002eb00640798006e1a90003c
:101dc400e00f52000c0032009e4a900004c6b3009b
:101dd40084cf5200080036009e4a9000a4c7b30086
:101de40084cf520004003e009e4a900004ceb3000b
:101df40004c24200144f980004c2b300244f980058
:101e04002e4a90008482fb002e029000848f5200a0
:101e1400020036002e029000244f98002e4a9000b3
:101e24008482fb001e029000848f52000200360060
:101e34001e029000244f98002e4a90000482fb005a
:101e440045192200954278007203470085417800c5
:101e54001e01780011c0b30006007800a50c07002d
:101e64002e4a90000482fb001e0f42002e4a90006e
:101e74000482fb00ae029000048252002407980002
:101e84002e029000e00f520004003a00d40b8100af
:101e9400040f78000082eb00240798006e1a90006b
:101ea400e00f5200680032000042eb00044f98003b
:101eb400600037000e4a90000482fb0004024700d1
:101ec400a452900004c6b30084cf5200110036001f
:101ed4000e4a90000482fb0004024700a4529000c2
:101ee400a4c7b30084cf52000a003e000e4a9000fb
:101ef4000483fb000e4a90000482fb0004024700a6
:101f0400a452900004ceb30004c2420086024700eb
:101f1400a45298000e4a90000482fb000402470079
:101f2400a45290001e4a900084cf520023003a002d
:101f34003e1a90000402e900341f98003e1a9000f3
:101f4400e00f520008003a00be0290007e029000aa
:101f5400848252000e4a90000482fb0004824200f4
:101f64000402e800800037002e1a900094427800a2
:101f7400154f98002e1a90000402e800241f9800c0
:101f840014002000640798009e4a900004c6b30021
:101f940084cf5200240036009e4a9000a4c7b300a8
:101fa40084cf520020003e009e4a900004ceb3002d
:101fb40004c24200144f98001b0037007e029000b8
:101fc400341f98006e029000e00f52001600320099
:101fd4008e0a9000251f98002e1a900094427800d3
:101fe400154f98002e1a90000402e800241f980050
:101ff4009e4a900004c6b30084cf52000800360005
:102004009e4a9000a4c7b30084cf520004003e004f
:102014009e4a900004ceb30004c24200144f9800bc
:102024000002eb00640798000e4a90000442e800a6
:10203400044f98008e4a90002e4a900084cf52009c
:102044009cff3900370037000042eb00044f980032
:10205400300037000e4a90000482fb00040247005f
:10206400a45290001e4a900084cf520017003a00f8
:102074003e1a90000402e900341f98003e1a9000b2
:10208400e00f520008003a00be0290007e02900069
:10209400848252000e4a90000482fb0004824200b3
:1020a4000402e800300037002e1a900094427800b1
:1020b400154f98002e1a90000402e800241f98007f
:1020c40014002000640798000f0037007e0290007f
:1020d400341f98006e029000e00f52000a00320094
:1020e4008e0a9000251f98002e1a900094427800c2
:1020f400154f98002e1a90000402e800241f98003f
:102104000002eb00640798000e4a90000442e800c5
:10211400044f98008e4a90002e4a900084cf5200bb
:10212400ccff39002e4a90000482fb009e029000ee
:1021340004825200140798009e0290003e1a9000f8
:10214400848f5200020031000082eb000600370049
:102154002e4a90000482fb00be02900004824200da
:102164003407980024ff3700040078000080fa0048
:10217400000006000800fa00004f7800114798009c
:102184001207980023079800340798000e03e8000c
:10219400be0290002e0290009e01900012002000ca
:1021a400860078001e407800bafe0700000278001e
:1021b400040078000080fa00000006000a00fa001b
:1021c400881f78000042eb00044f7800e5013700d7
:1021d4001e4078004efa07000042eb006447980066
:1021e4000002eb00140798000002eb00240798009b
:1021f400850c81000420200004826200e00f52005c
:1022040005003a00850c810004402000048262002d
:10221400e00f52000b003200232007000002780078
:10222400e00f52000700320004c1b3006447980075
:10223400840c81004a22de00614262000482fb00b9
:1022440014079800850c81000402200004826200b7
:10225400e00f520009003200580c8100eb3d0700ea
:102264000002be000402780004025400e00f520091
:1022740002003c0004c1b30064479800850c81004f
:102284000404200004826200e00f520009003200be
:10229400680c8100dd3d07000002be0004027800e6
:1022a40004025400e00f520002003c0004c1b300d9
:1022b40064479800740c8100eb0f52000b003a0045
:1022c400680c8100d13d07000002be0004027800c2
:1022d40004025400e00f520004003c0014c1b30097
:1022e40064479800c4002000740c8900740c8100b9
:1022f400e40f520063003a000002eb004407980028
:102304005b0037004e0290007422b900040278008a
:10231400f0024200c4132200048242001402780036
:10232400e00f5200560032004e0290007422b900b1
:1023340004027800f0024200c41322000482420026
:1023440094027800940c8100848f520045003a0076
:1023540019fa07004e0290007422b9008402780032
:10236400c413220004824200a200200084007800ea
:10237400a012220015f907004e0290007422b90041
:1023840004027800ea024200c413220004824200dc
:1023940014027800140989004e0290007422b900d6
:1023a40004027800ec024200c413220004824200ba
:1023b4001402be0061024200e0824a00e40889007f
:1023c400f50889006509810054098100848242006e
:1023d40014098100848242002409810004826a0075
:1023e400940c890024c1b300644798006400200061
:1023f400740c8900ce029000c4fe2f0004aab90018
:102404000402780087022000848343004e02900077
:102414000402e8007422b90084027800c413220084
:1024240004824200040378004e0290007422b90032
:1024340084027800c41322000482420084027800db
:102444000702780013c0b3000601780011c0b3007e
:1024540005007800270b07000002eb00a40b89009d
:10246400080037004e0290000402e8004407980078
:102474004e029000e20f5200a2ff36000100370026
:10248400000000006e429000e04f5200090032004c
:102494001e02900004f0a7000402ea000402e9000e
:1024a4004f22de0004427800844078006e409000a1
:1024b400d1010700840c810070026200e00f520019
:1024c4002b003a00740c8100e70f52001d013a0002
:1024d400353d07000003be00340c8100450c81002b
:1024e4000402530085825b00e00f5200e08f5a0023
:1024f40016013500840c810067026200e60f520069
:102504000e003a00840c81004322de006142620026
:10251400644798001e40780006fb07001e407800c0
:1025240004fb07006e429000e04f520009013a009c
:10253400e4002000740c8900090137009ef90700ab
:1025440021c0b30000c1b300ab010700163d070072
:102554000003be0024bc2e00b50020000602420089
:1025640087824a00340c8900450c8900fc0037003e
:102574000d3d07000003be00340c8100450c8100b2
:102584000402530085825b00e00f5200e08f5a0082
:10259400f200350088f90700740c81006123b8004b
:1025a400e4ff2f00f5ff2f000602420087824a0055
:1025b400a600200007002000860f5200878f5a00d3
:1025c400a0003e00046001000a003700120037003a
:1025d4009e00370039003700480037005c003700a0
:1025e40069003700760037007a003700580037005a
:1025f40086003700053d07000002be000402780093
:10260400540c8900a01222003c370700340020003b
:10261400740c890092003700e1122200a0122200fb
:102624009b37070000027800e00f52001c003a00bc
:10263400f63c07000002be0084027800540c8100be
:1026440004835200a4088100b508810004027800c4
:10265400840f53007f003600a41322001442780034
:10266400e54f52000b003e00a413220014427800f0
:102674000442e800a5132200844a7800a4088100db
:10268400b50881000402420085824a00a40889003a
:10269400b508890024002000740c890070003700fc
:1026a40024c0b300644798000002eb0014079800ac
:1026b40054002000740c89006900370024c0b30062
:1026c400644798001400200014079800a413220003
:1026d40014427800e34f520060003600a513220034
:1026e40044c0b300844a7800042d21003501200041
:1026f400a4088900b508890059003700a4132200f2
:1027040014427800e14f520005003e0024c1b3009a
:102714006447980014002000140798005000370004
:10272400840c810068026200e00f52000500320050
:1027340044c1b300644798001400200024079800a3
:102744004700370024c0b3006447980044003700b2
:10275400a413220014427800e44f520005003e0006
:1027640004c1b300644798001400200014079800c3
:102774003b00370084002000740c890014c1b300ae
:102784006447980036003700a413220014427800ee
:10279400e44f520005003e0014c1b30064479800a2
:1027a40014002000140798002d00370044c1b30022
:1027b400644798001400200024079800280037007c
:1027c40044c1b30064479800140020002407980013
:1027d40023003700a413220014427800e44f52006f
:1027e40005003e0004c1b3006447980014002000b3
:1027f400140798001a00370044c1b30064479800d6
:10280400140020002407980015003700a4132200a8
:1028140014427800e44f520005003e0014c1b30096
:102824006447980014002000140798000c00370037
:1028340044c1b300644798001400200024079800a2
:10284400070037000000000005003700000000000a
:102854000300370000000000010037000000000002
:102864006e429000e04f5200310032001e02900090
:10287400e00f52002b003200a4132200144278000f
:102884000442e800a5132200844a7800a4088100c9
:10289400b50881000402420085824a00a408890028
:1028a400b508890005098100040c810004825200e6
:1028b4004407980005098100040c8100848f5200ac
:1028c40006003100d50b8100c40b81000482520044
:1028d400ce0290000482420044079800c60881009a
:1028e400d70881004e029000050020000402530026
:1028f40085825b00c4088900d508890035098100f8
:102904004e0290000482420034098900040c8100c4
:10291400040989008040eb006e409000b600070077
:102924000300370011c0b3006e409000b2000700ee
:102934002e029000e00f5200090032000504070047
:102944000700370000000000050037000000000009
:102954000300370000000000010037000000000001
:102964001e4fe8001e427800e04f520018fe32006d
:102974000002eb0044079800380037004e02900034
:102984007422b90004027800f0024200c413220049
:102994000482420014027800e00f52003300320037
:1029a4001a3c07000002be00040378004e029000a7
:1029b4007422b90004027800f2024200c413220017
:1029c4000482420014027800840253003439200047
:1029d400848f52001e003600ce029000c4fe2f00e9
:1029e40004aab9000402780087022000848343000b
:1029f4004e0290000402e8007422b90084027800b8
:102a0400c413220004824200040378004e029000a2
:102a14007422b90084027800c413220004824200a4
:102a2400840278000702780013c0b300060178001e
:102a340011c0b30005007800ae0907000002eb00e6
:102a4400a40b89004e0290000402e9004407980098
:102a54004e0290000402e800440798004e029000e1
:102a6400e20f5200c5ff36000100370000000000ed
:102a74004f0478000080fa00000006002c00fa00e1
:102a84003017980041179800521798003e13900091
:102a9400964078000180fb00964390008783fb00fa
:102aa400c83bdd000002780007027200840378004e
:102ab40007027800a64390008783fb00364390000a
:102ac4000683fb004833dd008700780086807000b1
:102ad4000103780086027800340f9800450f9800af
:102ae4004e1290001403be00560f9800670f980012
:102af4000042eb00645f980064c0b300745f980008
:102b0400de139000071798000e129000040078005e
:102b1400162f070000027800041798007602470079
:102b2400c1002000040078004e2f07000002780046
:102b34000482ea00141798005e109000fe1f07003c
:102b440000027800241798009e1290002e12900024
:102b5400848f520003003200df1d070014002000a0
:102b6400220037000000eb00743a07000e82e800f0
:102b74004101200004007800722107000e82e80061
:102b8400040078003a0307007e0290004422de002d
:102b94006f426200250020000522dd00744f5200c0
:102ba4009e4078000182fb00de12900004825200f5
:102bb40074025200541798000e82e800be10900070
:102bc40004007800fc01070000027800e00f5200c6
:102bd400040032000e82e800de1090000400780049
:102be4001c040700bc1d070014002000040078002a
:102bf4000080fa00000006002a00fa00006f980026
:102c0400116f9800ecf707000e6a90000482fb0035
:102c14006102620004427800e04f52000700320073
:102c2400840c810004b0a000840c89008e6a90009a
:102c3400e4cfb30004c26200046f9800840c8100e6
:102c44000450a100840c8900840c81000460a1005c
:102c5400840c8900840c81000470a100840c890018
:102c6400840c81000490a100840c8900840c8100f0
:102c740004a0a100840c8900840c81000480a100bc
:102c8400840c890000000000871d07000002780002
:102c9400e00f5200fcff32000e6a90000482fb0039
:102ca40066026200e00f5200030032000002eb00f3
:102cb400040f78007b003700f50b810004098100c4
:102cc400848f520003003a000002eb00040f7800e6
:102cd40066003700f50b810004098100848f5200df
:102ce4001d003600f50b810004098100048f520099
:102cf400340981009e0f5200020031003109810025
:102d0400010f7800c40981009e0f520005003100b4
:102d1400c4098100040f7800840c810004a0a00081
:102d2400840c890044192200944278000609810029
:102d34001e02780085417800060178008040eb008f
:102d440050462100eb080700040981001e024200de
:102d54000409890045003700d50b8100040981006e
:102d64000482520034179800be129000f40b8100c4
:102d740084824200c40b8100048f52003409810014
:102d84009e0f52000200310035098100050f7800c2
:102d9400c40981009e0f520005003100c70981005b
:102da400070f7800840c810004a0a000840c890023
:102db4003e1290009e0f5200020036009e007800e2
:102dc400311798003e129000451922009542780070
:102dd4000609810085417800060178008040eb00f7
:102de40050462100c30807003e1290001e02120044
:102df400341798003e129000e00f52000e0032008b
:102e04003e1290004519220095427800c70b8100bc
:102e1400d00b8100060981000600500056462100af
:102e24000603400085417800070178008040eb00ec
:102e340006007800af080700040981001e02420062
:102e44000409890005098100d40b8100848f520094
:102e54000600390005098100c60b8100d40b8100ee
:102e6400040253000482420004098900850c810095
:102e74000480200004826200e00f52000900320046
:102e8400340981009e0f520006003200c4098100fb
:102e94009e0f5200030032000e6a90000404a0004a
:102ea400046f98001e027800e00f520005003a00fb
:102eb4000e6a90000482fb0063026200e00f52007d
:102ec40022003200340981001e02520034098900b4
:102ed4001e027800e00f5200030032000e6a9000d8
:102ee4000434a000046f98001e6a90000482fb0062
:102ef4006102620004427800e04f52000700320091
:102f0400a51322000042eb00844a7800d412230067
:102f140015002000a4088900b5088900a23a07001a
:102f24000003be00a4088100b50881000602420027
:102f340087824a00340c8900450c8900840c810086
:102f44000440a000840c8900390037001e6a9000f8
:102f54000482fb0062026200e00f5200140032009f
:102f6400840c8100674262000442e8006742620008
:102f74000482fb0067026200860c810085ff2f003b
:102f84008502630005027200840c8900c408810074
:102f9400d508810061025200e0825a00c408890009
:102fa400d508890014002000040f780020003700a1
:102fb400840c810070026200e00f52001c00320099
:102fc4001e6a90000482fb0061026200e00f52005e
:102fd4000f003a00a413220014427800e04f52007c
:102fe4000b003200a4132200144278000442e900ca
:102ff400a5132200844a7800a4088100b508810042
:103004008502d1000482d300a4088900b508890090
:10301400653a07000003be00a4088100b5088100da
:103024000602420087824a00340c8900450c89005c
:1030340024098100240798001409810034079800aa
:10304400c4088100d50881004407980055079800fa
:10305400e4088100f508810064079800750798006a
:103064000e0a900004e0a10004f0a100040f9800ef
:103074000e0a90000400a1000410a1000420a10085
:103084000430a100040f98000e6a900014579800b1
:103094000002eb00340f9800c6088100d7088100b5
:1030a4001e027800050020000602420087824a00c2
:1030b400c4088900d50889000e6a90000482fb00c8
:1030c40062026200e00f52001c0032000e6a90009f
:1030d4000482fb0070026200e00f520003003a0019
:1030e4006022b8006407980075079800b40981004d
:1030f40062026200e00f5200070032004e029000ac
:10310400de02900061025200e0825a0044079800f7
:103114005507980009003700c4088100d5088100cc
:1031240061024200e0824a00c4088900d50889008f
:10313400b40981000410a000b40989000e6a90004b
:103144000482fb006102620004427800e04f5200f6
:1031540003003200b40981000400a000b40989000e
:10316400150c8100240c8100848f52000900390061
:10317400e50b8100d40b810084825200260c81006f
:10318400140c81000402530004824200140f9800be
:1031940005003700250c8100140c810004825200c4
:1031a4000402e900140f9800691c0700000278006b
:1031b400140798009e029000f4032000848f5200ac
:1031c40003003e000002eb001407980003003700e0
:1031d4001e0290000404b100140798009e0a900097
:1031e4001e029000848f5200020036001e029000de
:1031f400140f980064024700040078009c01070043
:103204009e027800748f42000e0a90000440a000d1
:103214000450a1000460a0000470a100040f9800f1
:103224000e6a90000482fb0062026200e00f52000a
:10323400150032009e037800648f430024c0b3005d
:10324400045f980044c0b300145f980024802100f8
:10325400540f98000e0a90004422de006f42620070
:103264000442e8006f4262000482fb006f026200c5
:103274004422dd000e0b9000f5f02f008502630060
:1032840005027200040f9800e6d2210096407800ef
:103294000183fb00f7d22100174278008483fb00ee
:1032a400c83bdd00070373000602780006d3210043
:1032b400964378000783fb0017d3210097407800da
:1032c4008183fb00c83bdd0007037300860278009e
:1032d400640f9800750f98005409810065098100f6
:1032e40004179800151798000042eb0044679800f3
:1032f40064c0b300546798009e02780035179800a4
:103304003e12900004007800182d07000002780097
:10331400341798007c024700c100200004007800a4
:10332400502d0700000278000482ea00240f980060
:10333400d0432100971d07001e01780061c0b3002f
:10334400a012220023380700640247004101200034
:1033540004007800062007000e6a90000482fb0037
:1033640062026200e00f520004003200780247005b
:103374004100200004007800fd1f070010452100d3
:103384009f1d07001e007800eb1d07000002780057
:1033940014079800104621007e1d07000e82e800e5
:1033a4002100200004007800f11f0700bf1c070063
:1033b4000080fa00000006000a00fa0030079800b6
:1033c400410798003e02900014029000e00f520062
:1033d40002003a000002eb0022013700e4cfb30000
:1033e40014479800ce029000254290000483fb000d
:1033f400354290000482fb004822dd0086007800fc
:103404008480700001027800840278004e029000eb
:10341400144178000283fb00144290000482fb00f4
:103424004822dd0086037800848373000702780055
:10343400848242003e02900014027800848242009a
:103444003e0290001402900004826a00240798004f
:103454000042eb00044f78003f0037001e40780024
:10346400abf50700740c8100ed0f520034003200fc
:10347400740c8100e40f520008003a00950c81009e
:103484003e02900014029000848f52002e003a00f5
:103494009e407800114798002e003700950c81005b
:1034a4002e029000848f520029003a00c2f50700d2
:1034b4003e0290009402900024098100848f5200ff
:1034c40024003a003e02900094027800140981001e
:1034d400848f52001f003a004e039000164178007a
:1034e4000280fb00964390008783fb00c83bdd000d
:1034f4000002780007027200840378000702780053
:10350400a64390008783fb00364390000683fb00ac
:103514004833dd008700780086807000010378005e
:10352400860278005609810067098100860f5200df
:10353400878f5a0007003a0014002000c9003700a2
:103544000000000003003700000000000100370005
:10355400000000001e4fe8001e427800e04f5200b9
:10356400beff32001e429000e24f420016003200bd
:103574001e40900066f507008ff507001e4290007c
:10358400e24f4200100032002e019000920c89009c
:10359400a2002000ce009000a01222008bf40700ad
:1035a4003e02900014027800140989003e02900043
:1035b4001402900024098900c40b810004098900c5
:1035c40014002000a70037003e029000e40290009f
:1035d4000420200004826200e00f520002003a003e
:1035e4000002eb009f003700a40b8100e00f5200a3
:1035f400020032000002eb009a0037000002eb00e8
:10360400140798004e0037001e0290007422b9007f
:1036140004027800f0024200c41322000482420033
:1036240014027800e00f5200490032001e0290009c
:103634007422b90004027800f0024200c41322008c
:1036440004824200940278003e029000140290002a
:10365400848f520032003a001e0290007422b90096
:1036640004027800ea024200c413220004824200e9
:10367400940278003e02900014027800848f520075
:1036840029003a001e0290007422b90084027800d6
:10369400c4132200048242001403be004e009000b2
:1036a400104278000481fb00904090008180fb0070
:1036b400c808dd00820278008182720085007800eb
:1036c40001027800a04090008180fb00304090000f
:1036d4000080fb004800dd0001017800000171005a
:1036e4000200780080027800840f5300858f5b000d
:1036f4000f003a00c53807000002be00040378003a
:103704001e0290007422b90084027800e41422009e
:1037140004824200060a78000002eb0051003700e0
:103724000000000003003700000000000100370023
:10373400000000001e0290000402e8001407980034
:103744001e029000e20f5200afff36000100370066
:10375400000000000042eb00044f78003d003700f9
:103764001e407800eaf40700840c810068026200bd
:10377400e00f5200330032000ff5070025098100e5
:103784003e02900014029000848f52002f003a00f1
:103794001e0290007422b90084027800c41322002f
:1037a40004824200a2002000ce00900004007800b1
:1037b40006f407003e029000140378001e029000f5
:1037c4007422b90084027800641422000482420046
:1037d400060a78003e029000b40290002402900091
:1037e4001e0390007433b900860378008614220007
:1037f40006834300048bbe003e0290001403900035
:103804001e0290007422b90084027800c4142200bd
:1038140004824200060a78007c3807000002be00d9
:10382400040378001e0290007422b9008402780018
:10383400e414220004824200060a78000002eb002d
:1038440008003700000000000100370000000000fd
:103854001e4fe8001e427800e04f5200c0ff3200c5
:103864000002eb00040078000080fa00000006006b
:103874000200fa00000f78001e027800140278009b
:1038840004007800b92b0700000278009e0278003b
:10389400840a78001e027800140290000400780064
:1038a400b22b0700000278009e0278009402980070
:1038b4001e027800b4029000240290000400be00ae
:1038c400b82b07000002be001e03780024039800f2
:1038d400350398001e027800d40290004402900040
:1038e4000400be00af2b07000002be001e037800d8
:1038f40044039800550398001e0278007402900057
:1039040004007800992b0700000278009e027800da
:10391400f40298001e027800040a90000400780063
:10392400922b0700000278009e027800840a980017
:103934001e027800140a9000040078008b2b070004
:10394400000278009e027800940a98000080fa0031
:10395400000006000000fa00881f780096f40700b3
:1039640024098100940c8900c40b8100f40b8900a4
:10397400c40b8100040c8900d40b8100140c890051
:10398400d40b8100240c8900840c8100680262003d
:10399400e00f520002003200440020000100370012
:1039a400d4002000740c8900840c81000400a10060
:1039b4000410a1000420a100840c8900840c81005f
:1039c4000440a100840c8900840c81000450a100ef
:1039d400840c8900840c81000460a100840c89009b
:1039e400840c81000470a100840c8900840c810083
:1039f4000480a100840c8900840c81000490a1003f
:103a0400840c8900840c810004a0a100840c89002a
:103a1400840c810004b0a100840c8900840c810012
:103a240004c0a000840c8900b40981000400a10032
:103a3400b4098900b40981000410a100b409890003
:103a4400b40981000430a100b4098900b4098100db
:103a54000440a100b4098900c40b81000409890051
:103a640088112200e428070000027800040c780082
:103a740088112200e028070000027800140498004e
:103a84000082eb00a4098900140020003409890095
:103a94004f0478000080fa00000006000400fa00d9
:103aa400881f7800c0002000a43607008c1d070082
:103ab40000427800044f78001e4278008482fb00a4
:103ac400040f20000482620042a2de000442780057
:103ad400744f52001e427800e04f520002003a0038
:103ae4008421200057003700710020000000eb0003
:103af400941d070040003700791d0700004278003c
:103b0400144798001e429000e04f520043003200d8
:103b14001e429000e14f5200360032001e429000d7
:103b2400e24f520020003a001e427800e24f520059
:103b34003c0036000002eb0014079800681d0700e3
:103b440000427800144798001e429000e44f52004f
:103b540009003a000e82e8000404e800601d070032
:103b640000427800044c78000e84e8005c1d0700d5
:103b740000427800044c78009e02900074212000da
:103b8400848f5200290036009e029000445b20007e
:103b9400848f520002003600445b20002900370065
:103ba4001e029000270037001e427800e14f5200a9
:103bb400200036004a1d0700004278001447980090
:103bc4001e4290009e42780084cf52001b003900b0
:103bd4001e4290000482fb00840078000000eb0089
:103be400581d07009e4278001e42900004cf5200e8
:103bf40001003700000000009e4278000582fb00af
:103c04000402ea004f22de00044278001e4fe9005d
:103c1400e04f5200b8ff3a000900370000000000ee
:103c24000700370000000000050037000000000016
:103c3400030037000000000001003700000000000e
:103c440084212000040078004f0478000080fa00ea
:103c5400000006002200fa00700f98000117980077
:103c64007e0a9000d44a9000055798007e0a90007e
:103c740044039000d4039000460798005707980027
:103c84007e0a900024039000b4039000160f98005d
:103c9400270f9800840c81000400a1000410a100e7
:103ca4000420a100840c8900840c8100700262004d
:103cb400e00f520008003a003b3707000003be0043
:103cc40024bc2e00b50020000602420087824a0070
:103cd400340c8900450c8900740c8100e40f5200f7
:103ce40003003200e50f52002c0032007900370047
:103cf4000e5290000482fb0064026200e00f520046
:103d04000200320013ff0700430437000e529000f4
:103d14000482fb0070026200e00f520009003200ce
:103d24004e029000de029000c4088900d508890084
:103d34008040eb0040c0b300affb070005ff070065
:103d4400350437000e5290000482fb0062026200c8
:103d5400e00f52000f0032001e0a9000ae0a9000dd
:103d640061024200e0824a00e4088900f508890003
:103d74004aff070000027800c409890011c0b3009b
:103d840020c1b3009cfb070064002000740c890070
:103d940021043700effe07001f0437000e52900085
:103da4000482fb0064026200e00f520007043a0040
:103db4000e5290000482fb0070026200e00f520079
:103dc40017003200c6088100d70881004e02900017
:103dd400de029000840f5300858f5b0010003200d8
:103de400c6088100d7088100160f9800270f980095
:103df4004e029000de029000c4088900d5088900b4
:103e040011c0b30040c0b3007bfb07001e0b900041
:103e1400ae0b9000c6088900d7088900fe0337005e
:103e24000e5290000482fb0062026200e00f520016
:103e3400e80332001e0a9000ae0a900061024200bc
:103e4400e0824a00e4088900f50889007e0a9000af
:103e5400740290003409890010ff07000002780002
:103e6400c40989000e5290000482fb0070026200b3
:103e7400e00f52001100320011c0b30000c1b300c2
:103e84005dfb070074002000740c8900c63607002f
:103e94000003be0024bc2e00b50020000602420030
:103ea40087824a00340c8900450c8900840c810007
:103eb4000440a100840c8900d703370011c0b3006b
:103ec40020c1b3004cfb070064002000740c89007f
:103ed400d10337008e139000670798000e529000ac
:103ee4000482fb006102620004427800e04f520049
:103ef400030032006e0290000402e8006407980098
:103f04000e5290000482fb0062026200e00f520035
:103f1400030032006e0290000402e8006407980077
:103f2400150c8100240c8100848f52000900390093
:103f3400e50b8100d40b810084825200260c8100a1
:103f4400140c8100040253000482420034079800d8
:103f540005003700250c8100140c810004825200f6
:103f64000402e90034079800e4088100f5088100a0
:103f74001e0b9000ae0b90000402530085825b0080
:103f8400340f9800450f98003e0a9000540f980093
:103f94000002eb00740798006e029000e00f5200dc
:103fa400350032003e029000e00f5200480032001b
:103fb4003e0a9000ce0a9000e00f5200e08f5a00b3
:103fc4000a0035003e0290006123b8003e0a9000ca
:103fd400ce0a9000840f5300858f5b0003003600e7
:103fe4001400200074079800140037006e0290003b
:103ff4006123b8003e0a9000ce0a900006024200f7
:1040040087824a00e00f5200e08f5a000b00340010
:10401400be0290006e029000048252006123b90037
:104024003e0a9000ce0a9000840f5300858f5b00f7
:104034000200350014002000740798003e0290002e
:104044006123b8003e0a9000ce0a9000840f53000a
:10405400858f5b001e003400de0a90006e02900023
:1040640004824200e00f52001900340014002000c2
:1040740074079800160037003e0a9000ce0a90009c
:10408400e00f5200e08f5a0003003a0014002000b1
:10409400740798000e0037003e0a9000ce0a900084
:1040a400e00f5200e08f5a00090035003e029000f4
:1040b4006123b8003e0a9000ce0a9000840f53009a
:1040c400858f5b00020036001400200074079800fe
:1040d4007e029000e00f520009003a000e52900058
:1040e4000482fb0064026200e00f52003b033a00ca
:1040f40011c0b30000c1b300bffa07004603370084
:104104000e5290000482fb0066026200e00f52002f
:10411400020032000ffe07003f0337000e529000ea
:104124000482fb0070026200e00f52002d03320093
:10413400740c81006123b800a4ff2f00f5ff2f0049
:104144000602420087824a00660020000700200021
:10415400860f5200878f5a006f013e0004600100f1
:10416400060037001e0037001d0037001c00370012
:104174001b0037001a0037005c013700c6088100b5
:10418400d70881004e029000de029000840f530095
:10419400858f5b0010003200c6088100d7088100bb
:1041a400160f9800270f98004e029000de02900030
:1041b400c4088900d508890011c0b30040c0b30009
:1041c4008dfa07001e0b9000ae0b9000c608890004
:1041d400d70889001003370074002000740c89008c
:1041e400f50b810004098100048252002407980021
:1041f4002e029000e00f520006003d00d50b810016
:10420400c40b810004825200ae029000048242007a
:1042140024079800c6088100d70881002e02900068
:1042240005002000041f430005974b004e03900037
:10423400de0390001e02be000402530085825b0070
:10424400048fbe001e02be00e00f5200e08f5a0031
:1042540014003400b409810061026200e00f5200ce
:10426400060032001e03be001400200005002000da
:10427400840f5300858f5b00040032008040eb0004
:1042840000c1b3005cfa0700e30237004e0290005d
:10429400de02900061025200e0825a004407980056
:1042a40055079800c6088100d708810005098100d8
:1042b400040c810004825200cfa2de00041f5300cc
:1042c40005975b0005098100040c8100848f52006e
:1042d40006003100d50b8100c40b8100048252001a
:1042e400050020001e1f12001e971a004e029000a7
:1042f400de0290001e1f52001e975a001e02be00ce
:10430400e00f5200e08f5a0056003400d50b8100b4
:10431400c40b81000482520005002000be0f52002d
:10432400ae8f5a004f003900b40981000430a10057
:10433400b4098900b40981000440a100b4098900ca
:10434400840c81000480a100840c8900070c810086
:1043540027079800050c81001e02780004824200a1
:10436400040c8900050981002e029000848f5200fc
:104374001100390005098100040c8100848f52006a
:1043840023003100c6088100d7088100050c810094
:104394000409810004825200050020000602420044
:1043a40087824a00c4088900d5088900040c81006a
:1043b400040989001600370005098100d60b810025
:1043c400c40b8100040253000482420024079800b5
:1043d400050c81002e029000848f52000c003600e0
:1043e400c6088100d7088100050c81002e029000c8
:1043f40004825200050020000602420087824a001f
:10440400c4088900d5088900040c810004098900c6
:10441400050c8100d40b8100848f52000600390002
:10442400050c8100c60b8100d40b810004025300eb
:1044340004824200040c890005098100d40b810028
:10444400848f52003600390005098100c60b8100b3
:10445400d40b810004025300048242000409890041
:104464002f003700050c810004098100848f52005d
:104474002b003200b409810068026200e00f520090
:1044840024003200b409810070026200e00f52007f
:104494001d003200c6088100d7088100050981008b
:1044a400040c810004825200cfa2de0004025300f7
:1044b40085825b00c4088900d5088900050981004c
:1044c400040c8100848f52000a003100c608810068
:1044d400d7088100d50b8100c40b810004825200ef
:1044e400cfa2de000402530085825b00c408890069
:1044f400d5088900040c810004098900840c81001a
:1045040004a0a000840c8900b40981000440a00028
:10451400b4098900b40981000430a000b4098900f9
:10452400050c8100f40b8100848f520022003a00b4
:10453400850c81000480200004826200e00f520098
:104544000c003a00183507000003be0024bc2e00fe
:10455400b50020000602420087824a00340c89001c
:10456400450c8900840c81000440a100840c89005e
:1045740011003700c6088100d70881004e02900060
:10458400de029000840f5300858f5b000a003a001e
:10459400b409810061026200e00f5200060032009b
:1045a400840c81000440a100840c8900840c8100e7
:1045b40004b0a100840c89007e0a9000740390006a
:1045c400ce039000c4088100d5088100040278005d
:1045d4000482530004024300640f980034098100ec
:1045e400e00f520006003a006e0a9000e00f5200fd
:1045f40003003200840c81000490a000840c890024
:104604006e0a900034098900740c8100e80f52008e
:1046140019003a00c6088100d70881004e029000b4
:10462400de029000840f5300858f5b003c003a004b
:10463400b409810061026200e00f52003a003200c6
:10464400d93407000003be00145e2f00550020007b
:104654000602420087824a00340c8900450c890016
:10466400840c81000440a000840c89009400200084
:10467400740c890031003700740c8100e90f52007a
:104684000e003a000e5290000482fb0061026200a8
:10469400e00f520026003a004e039000de03900023
:1046a400c6088900d70889008040eb0040c1b300e8
:1046b40051f90700a7fc0700d7013700740c8100eb
:1046c400ea0f52001c003a00c6088100d708810096
:1046d4004e029000de029000840f5300858f5b0031
:1046e400c2013a009bfc0700cb013700c4088100db
:1046f400d508810061034200e0834a004e02900025
:10470400de029000840f5300858f5b00b9013a00ec
:1047140090fc0700c00137000000000007003700cc
:10472400000000000500370000000000030037000f
:104734000000000001003700000000000e5290004d
:104744008482fb000402200004826200e00f520015
:10475400aa013a00740c8100eb0f5200a901320047
:10476400740c8100ea0f5200a8013200740c81001d
:10477400ec0f5200a70132000e129000e00f52001d
:10478400200132005e0a9000e00f52007f003c00de
:104794007e0a9000640290004422de006f426200b0
:1047a4000482fb004222dd00840278005e0a90004d
:1047b4000482520004007800603307008e129000d7
:1047c4005e0a900004824200041798008e12900042
:1047d4003e029000848f520002003600be03900017
:1047e40007179800e6088100f70881000e12900070
:1047f400050020000602420087824a00e40889007e
:10480400f5088900150c81000e1290008482420084
:10481400e40b8100848f520020003600e50b8100f8
:10482400140c8100048252000402e800240798005a
:104834004419220094427800160c81002e02900044
:104844008041eb000081eb00854078000600780091
:10485400280207008e1290002e029000048252005b
:104864004519220095427800d60b81008041eb0067
:104874000081eb0085407800060078001d020700e7
:10488400d50b81000e1390002e02900004025300f9
:1048940004824200140c89000d00370044192200e0
:1048a40094427800160c81000e1290008041eb00b7
:1048b4000081eb0085407800060078000d020700b7
:1048c400150c81000e12900004824200140c890021
:1048d400a4098100e10f4200ca003200a40981004a
:1048e400840278000e12900004825200a409890008
:1048f40045098100a409810004824200240798002c
:104904002e029000e00f520003003d000082eb00f5
:10491400a4098900bb003700a4098100e00f5200fc
:10492400b8003c00e6088100f70881002e029000e0
:10493400050020000602420087824a00e40889003c
:10494400f5088900150c81002e02900004824200b3
:10495400140c8900150c8100e40b8100848f520033
:1049640007003600150c8100e60b8100d40b810092
:10497400040253000482ea0004824200140c8900f9
:104984000082eb00a40989009e0037005e0a9000b3
:10499400e00f52009b0034008e1290005e0a9000db
:1049a400848242003e029000848f5200040036004c
:1049b400be0290005e0a9000048252000417980020
:1049c4007e0a9000640290004422de006f4262007e
:1049d4000482fb004222dd0004007800d732070085
:1049e400150c81005e0a9000848242000e12900031
:1049f40084824200e40b8100848f5200330036002d
:104a0400e50b8100140c8100848252005e0a900040
:104a14000402ea00048242000402e8002407980029
:104a24002e029000e00f52001700350044192200b6
:104a340094427800160c81005e0a9000040343003f
:104a44002e0290008041eb000081eb00854078004d
:104a540006007800a70107008e1290002e02900035
:104a6400048252004519220095427800d60b810039
:104a74008041eb000081eb0085407800060078005f
:104a84009c0107001c00370044192200944278005e
:104a9400160c81005e0a900004034300e70b8100ba
:104aa400d40b8100048253000482ea00040343000f
:104ab4000e1290008041eb000081eb0085407800ed
:104ac400060078008b0107000b0037004419220010
:104ad40094427800160c81005e0a9000040343009f
:104ae4000e1290008041eb000081eb0085407800bd
:104af400060078007f010700a4098100e10f42004d
:104b040005003a005e0a9000a40989000e12900084
:104b1400440989003b003700a4098100840278001d
:104b24005e0a9000848f52001c003600de0a90005a
:104b34000e12900084824200a409810004037800cc
:104b44004409810004024300848f520006003e00a1
:104b5400de0a90000e12900084824200a4098100b3
:104b6400848f5200030031008e12900045098900a1
:104b740007003700a40981008402780044098100f9
:104b8400848242005e0a9000048252004409890033
:104b94005e0a9000a40989001a003700de0a90001a
:104ba4000e12900084824200a4098100040378005c
:104bb4004409810004024300848f5200110036002e
:104bc400a40981008402780044098100848242009f
:104bd4005e0a9000848f52000a0039004509810062
:104be4005e0b90000e12900004034300a4098100a0
:104bf4000403530044098100040253000482420068
:104c0400440989006e029000e00f52001f00320038
:104c1400740c8100e70f520002003200140c810072
:104c2400240c8900850c81000408200004826200a1
:104c3400e00f52000500320011c0b30000c1b30000
:104c4400edf70700dcef070010003700840c81004b
:104c54000470a000840c8900850c810004042000e9
:104c640004826200e00f520008003a00840c8100c4
:104c74000460a000840c8900643307000002be00b5
:104c8400040278007e024200640c89000e529000f7
:104c94000482fb006102620004427800e04f52008b
:104ca4005d003200e4088100f508810061034200e0
:104cb400e0834a006e0290006120b8001e0a900052
:104cc400ae0a90000002420081824a00840f530021
:104cd400858f5b0050003a00e4088100f5088100ec
:104ce40061024200e0824a00e4088900f508890074
:104cf400740c81006123b800a4ff2f00f5ff2f007e
:104d04000602420087824a00360020000700200085
:104d1400860f5200878f5a0027003e00046001006e
:104d240003003700080037000f0037001d0037006c
:104d3400c4002000740c890011c0b30010c1b3007a
:104d4400adf7070034003700b4002000740c89006c
:104d54002e3307000002be0004027800d403b00022
:104d6400640c890015003700c6088100d70881004b
:104d74004e029000de029000840f5300858f5b008a
:104d840005003a008040eb0000c1b3009af7070029
:104d9400f0fa070020003700a4002000740c8900fa
:104da400060037008040eb0000c1b30092f7070013
:104db400e8fa0700180037000000000011c0b30033
:104dc40000c1b3008cf70700130037000000000097
:104dd40011003700000000000f0037000000000041
:104de4000d003700000000000b0037000000000039
:104df4000900370000000000070037000000000031
:104e04000500370000000000030037000000000028
:104e140001003700000000000080fa0000000600d6
:104e24000e00fa0060479800410798005207980066
:104e3400434f98006e429000e04f5200020032004f
:104e44000002eb00a80037006e40900030ef07002e
:104e54004e029000e00f520002003a0014002000bd
:104e640044079800e50b8100c40b810004825200c2
:104e74000402e90024079800ce0290005e0290002c
:104e8400848242002e029000848f52000200360079
:104e94000002eb009400370047ef07004e4a9000f1
:104ea4000482fb0063026200e00f520003003a0038
:104eb4004e4a90003440b300444f98005e02900084
:104ec40014079800ce0290005e0290000482420013
:104ed400ae02900004825200240798004e4a9000cb
:104ee4000482fb0062026200e00f520010003200f4
:104ef4004e4a90000482fb00610262000442780082
:104f0400e04f5200060032002e0290000402d1004d
:104f14009e029000048242001407980004003700a7
:104f24009e0290002e029000048242001407980012
:104f3400c50b81001e029000048242000402e800b6
:104f440024079800140c8100040f7800a409810040
:104f5400e10f42000d003200a409810084027800b0
:104f640044098100048242001e0f4200e40b8100c8
:104f74009e0f520005003100e50b8100d40b810027
:104f8400048252000482ea001e0f4200240c8100b5
:104f94009e0f520010003100250c81002e0290005b
:104fa400848f5200230031004e4a90000482fb009b
:104fb40064026200e00f5200020032000002eb00c3
:104fc400490037002e029000240c89002e02900024
:104fd400140c890017003700240c81009e0f520026
:104fe40010003600d50b81002e029000848f5200f1
:104ff400100031004e4a90000482fb0064026200fb
:10500400e00f5200020032000002eb0036003700cd
:105014002e029000240c89002e029000140c8900aa
:10502400040037002e029000240c89002e02900008
:10503400140c8900240c81009e0f52001b003600c2
:105044004e4a90000482fb0064026200e00f5200aa
:1050540016003200d40b81001e02120045192200f2
:1050640015437800d70b810045192200954278003a
:105074008641780007017800854078002e00900072
:105084001c000700150c8100240c8100848f520041
:1050940006003100150c8100d40b81002e03900012
:1050a4000402530004824200140c89002e02900072
:1050b400d40b8900c40b810004098900c40b81004e
:1050c400040c8900c40b8100f40b8900740c81006a
:1050d400e70f520003003a0011c0b30000c1b3004f
:1050e400c5f6070014002000040078000080fa00d0
:1050f400000006000a00fa00000f7800214798001b
:105104002207980063479800440798006e42900075
:105114000482fb00e00f52001a003200e10f52003b
:1051240037003a002e4290000482fb00e00f520048
:1051340009003200e10f52002e003a00ae02900046
:105144001e0278004e01900085007800040078006b
:105154009eed07000a0037001e027800e10f4200ae
:10516400020032001e0078000a1607002e0290008a
:10517400ce009000040078007d18070000000000b5
:105184001f0037002e4290000482fb00e00f520003
:105194000c003200e10f520018003a002e02900079
:1051a400e10f4200020032002e00900014160700a6
:1051b4001e027800ce00900004007800e11707007a
:1051c4000a0037004e019000ae0090001e007800e7
:1051d400b416070000000000b517070000027800ad
:1051e400e00f5200fcff320000000000000000004d
:1051f4000300370000000000010037000000000039
:105204000080fa00000006000200fa00000f780097
:105214000080fa00000006000000fa00e44280006a
:105224000402e800e4428800048220008002eb00cb
:10523400050a780004822000150020001502980059
:10524400048220002500200025029800048220000a
:105254003500200035029800e4428000b4a48800a0
:10526400f4428000e4a688008f60a9008760a9004a
:105274000405800004c0a10004d0a10004e0a00043
:10528400040588000002eb00b41c88009803a80001
:105294009823a8009843a80098a3a800a0862000fb
:1052a400bd32070020912000bb320700a09b2000e4
:1052b400b932070004402000841c8800000000006c
:1052c400851c8000040e20008482620004082000f3
:1052d400848f5200faff3a0034002000941c8800a6
:1052e400a4392000a41c880014802100841988009b
:1052f40054802100c41988000002eb0004188800bf
:105304000480210044188800440021008418880087
:10531400c47f2100c4188800c47f210004198800b8
:10532400c47f21004419880014002000741b8800e5
:1053340024002000f41a880034002000741a880025
:10534400040c2000241b8800040c2000a41a8800ec
:10535400040c2000241a88000002eb00741c88004e
:105364000002eb00f41b88000002eb00841c8800a0
:1053740000000000851c8000040e200004826200ee
:10538400e00f5200fbff3a000002eb0074a7880014
:105394008f60a80054fb250084088800147a20003c
:1053a400640888000002eb003408880084c0a90067
:1053b4008cc0a90011e1a800d4fb25009408880042
:1053c400b4c424007408880084e0a9008ce0a90017
:1053d40013e1a8000002eb00f4a68800b4e9280059
:1053e40004a788000002eb0014a78800140420001e
:1053f40024a788004406200034a788000080fa000f
:10540400000006000000fa00d51c800004f02f0004
:1054140084826200f6a5800004f02f000402630079
:10542400848f52000a003600f5a58000f40f200096
:1054340004826200f4a58800f5a58000d61c8000d3
:1054440004f02f000402630004824200f4a58800e3
:10545400d51c8000f40f200084826200f6a5800031
:10546400f40f200004026300848f52000a00360007
:10547400f5a5800004f02f0004826200f4a58800e2
:10548400f5a58000d61c8000f40f20000402630000
:1054940004824200f4a5880054342c00d4a488006b
:1054a40034122f00e4a48800043a800074a4880015
:1054b400260007004c000700860207008807070043
:1054c4000482200094027800040028000482620010
:1054d400e00f520001003200e2080700e4a6800059
:1054e40094a4880095a48000b4a68000048242009d
:1054f40094a4880095a48000c4a68000048242007d
:1055040094a4880095a48000d4a68000048242005c
:1055140094a4880095a4800094a68000048242008c
:1055240094a4880095a4800084a68000048242008c
:1055340094a4880095a4800074a68000048242008c
:1055440094a488000080fa00000006000a00fa0013
:10555400180037008e007800a0862000d53107009f
:105564009e02780044f821008482620044402100b5
:10557400848f520003003a000e0078006701070090
:105584000c0037009e02780044f8210084826200f7
:1055940044502100848f520003003a000e0078002a
:1055a400830107000300370074a680000402e800aa
:1055b40074a68800a08620007031070000027800dd
:1055c400e00f5200e3ff3a00c4488000b4a688000c
:1055d40084438000c4a68800044e8000d4a68800ba
:1055e4000080fa00000006000000fa0015a4800004
:1055f4000410200004826200e00f520006003a000a
:10560400048220001402780068026200e00f520055
:105614000100320055000700250480000404200026
:1056240004826200e00f52004e00320084c0a900e0
:1056340015a480000420200004826200e00f5200c0
:1056440002003a0049000700460037004441800048
:105654000402e8004441880044418000670262007b
:105664004441880044418000050020007600200069
:1056740007002000860f5200878f5a0039003e0031
:1056840004600100070037000800370009003700f4
:105694000a0037000b0037000c0037000d003700fc
:1056a4000e003700310007002e00370052000700bb
:1056b4002c0037002d0007002a003700780007006f
:1056c400280037002900070026003700890007005a
:1056d40024003700250007002200370054418000d1
:1056e4000402e8005441880054418000e50f520050
:1056f400020036000002eb0054418800544180004f
:10570400e00f520001003a008f000700544180006e
:10571400e10f520001003a004c00070054418000a0
:10572400e20f520001003a009c000700544180003f
:10573400e30f520001003a00b0000700544180001a
:10574400e40f520001003a00c400070054418000f5
:10575400e50f520002003a00d800070001003700ac
:10576400000000000080fa00000006000a00fa00b1
:1057740004002400040f780004822000140278003e
:105784001407980004822000140290002407980053
:105794000482200024029000340798000482200030
:1057a4003402900044079800e13520000e00780090
:1057b4006f31070014a680000402e80014a68800d4
:1057c40004822000140278004322de006142620059
:1057d4000482fb00610262004822dd0016a48000fe
:1057e400f5ef2f00850263000502720014a48800ff
:1057f4000080fa00000006000a00fa00040a2a00e9
:10580400040f78000420240044079800847c80005e
:1058140034079800747c8000240798000002eb0091
:10582400140798008e0078002091200009310700a9
:10583400741b800068026200e00f520001003a000d
:105844008760a8000080fa00000006000a00fa0041
:10585400840a2a00040f78000420250044079800d5
:10586400c487800034079800448780002407980088
:1058740034878000140798008e007800209120005f
:10588400f4300700741b800068026200e00f5200cd
:1058940001003a008760a8000080fa0000000600ba
:1058a4000a00fa00840b2a00040f78000420270061
:1058b400440798000002eb0034079800949280009b
:1058c40024079800f4918000140798008e00780053
:1058d40020912000df300700741b80006802620002
:1058e400e00f520001003a008760a8000080fa002f
:1058f400000006000a00fa00040c2a00040f7800d5
:1059040004202800440798000002eb0034079800a4
:105914005497800024079800649780001407980027
:105924008e00780020912000ca300700741b80008c
:1059340068026200e00f520001003a008760a8008c
:105944000080fa00000006000a00fa00040c2a0095
:10595400040f780014202800440798000002eb008c
:105964003407980084978000240798007497800077
:10597400140798008e00780020912000b5300700ad
:10598400741b800068026200e00f520001003a00bc
:105994008760a8000080fa00000006000a00fa00f0
:1059a40084092a00040f7800042023004407980087
:1059b4002444210014027800340798004444210050
:1059c400140278002407980064442100140278002b
:1059d400140798008e007800209120009d30070065
:1059e400741b800068026200e00f520001003a005c
:1059f4008760a8000080fa00000006000a00fa0090
:105a040084092a00040f7800142023004407980016
:105a1400844421001402780034079800a44421002f
:105a24001402780024079800c4442100140278006a
:105a3400140798008e00780020912000853007001c
:105a4400741b800068026200e00f520001003a00fb
:105a54008760a8000080fa00000006000a00fa002f
:105a640084092a00040f78002420230044079800a6
:105a7400e44421001402780034079800044521000e
:105a840014027800240798002445210014027800a9
:105a9400140798008e007800209120006d300700d4
:105aa400741b800068026200e00f520001003a009b
:105ab4008760a8000080fa00000006000a00fa00cf
