:020000040000fa
:080000000001040000000000f3
:020000040000fa
:10000800fe4c0000fe4c0000fe4c0000fe4c0000c0
:10001800fe4c0000fe4c0000fe4c0000fe4c0000b0
:10002800fe4c0000fe4c0000fe4c0000368c000028
:10003800fe4c0000fe4c0000fe4c0000fe4c000090
:10004800fe4c0000fe4c0000fe4c0000fe4c000080
:10005800fe4c0000fe4c0000fe4c0000fe4c000070
:10006800fe4c0000fe4c0000fe4c0000fe4c000060
:10007800fe4c0000fe4c0000fe4c0000fe4c000050
:10008800fe4c0000fe4c0000fe4c000076340000e0
:10009800fe4c0000fe4c0000fe4c0000fe4c000030
:1000a800fe4c0000fe4c0000fe4c0000fe4c000020
:1000b800fe4c0000fe4c0000fe4c0000fe4c000010
:1000c800fe4c0000fe4c0000fe4c0000fe4c000000
:1000d800fe4c0000fe4c0000fe4c0000fe4c0000f0
:1000e800fe4c0000fe4c0000fe4c0000fe4c0000e0
:0800f800fe4c0000fe4c00006c
:020000040000fa
:10010800fe4c0000fe4c0000fe4c0000fe4c0000bf
:10011800fe4c0000fe4c0000fe4c0000fe4c0000af
:10012800fe4c0000fe4c0000fe4c0000368c000027
:10013800fe4c0000fe4c0000fe4c0000fe4c00008f
:10014800fe4c0000fe4c0000fe4c0000fe4c00007f
:10015800fe4c0000fe4c0000fe4c0000fe4c00006f
:10016800fe4c0000fe4c0000fe4c0000fe4c00005f
:10017800fe4c0000fe4c0000fe4c0000fe4c00004f
:10018800fe4c0000fe4c0000fe4c000076340000df
:10019800fe4c0000fe4c0000fe4c0000fe4c00002f
:1001a800fe4c0000fe4c0000fe4c0000fe4c00001f
:1001b800fe4c0000fe4c0000fe4c0000fe4c00000f
:1001c800fe4c0000fe4c0000fe4c0000fe4c0000ff
:1001d800fe4c0000fe4c0000fe4c0000fe4c0000ef
:1001e800fe4c0000fe4c0000fe4c0000fe4c0000df
:0801f800fe4c0000fe4c00006b
:020000040000fa
:10020000af9d21000e7f22000e018800000000003b
:10021000000020000000e000020032000001200089
:10022000200288000c00070040e7280001002000a1
:1002300011000700000020000000e0000200320072
:100240000000020000000000643c0200000000000a
:100250000040da000000fe004440a90060152000c4
:100260000000e0000300320000002000a001880030
:100270004440a8000000060091018800800078003a
:100280000000eb0015003700e280400032a0b4000f
:100290009101ba00e280400032a0b4009102ba009d
:1002a000e280400032a0b4000002eb00472bde00e9
:1002b000f507b200602ce10004003a000059eb00a1
:1002c0008301e900fdff3e00040037006128e100e2
:1002d000010032000082eb00040007001101ba00a7
:1002e0000200e000e8ff3a00000006003159ba00c1
:1002f0008301e9000c0032002159ba008301e900b2
:10030000080032000400e00003003a00e2804000f0
:1003100032a0b400f5ff370011d9ba008301e9001b
:10032000faff3a008100e800e180400032a0b4000a
:10033000000006006022b800060220000000d00085
:100340008180d2000482d2008582d2000000a00009
:100350000202520083825a0003003100020242006e
:1003600083824a000000a1000603e900f3ff3a007f
:1003700000000600889fbe008a9fbe003004be00b9
:100380002005be000404440085844c0006054d0091
:1003900087854d000898be000a90be000440e10029
:1003a00005c8e10006d0e10007d8e10002003100f5
:1003b000680040001008e8004f05be004f04be0072
:1003c000000006001000fa00889fbe008a9fbe0051
:1003d000110020000605be000404be003002be006d
:1003e0002003be00c4b79f00d5b79f00e6b79f00ab
:1003f000f7b79f000802520089825a000a035b0087
:100400008b835b0084bf9f0095bf9f00a6bf9f00aa
:10041000b7bf9f000498be000698be004fb2970079
:10042000dfb297006fb39700ffb397000820e10099
:1004300009a8e1000ab0e1000bb8e10001003900b1
:100440008000eb004f05be00108810004f04be0076
:100450000080fa00000006001400fa00889fbe0029
:100460008a9fbe008c9fbe000006eb003e00070086
:10047000ccb79f00bcb79f00acb79f009cb79f0054
:100480008cb79f000605be000404be000d042000ca
:100490004fb39700bfb29700860343002fb2970077
:1004a000e00f530004003d003d0007000f00400036
:1004b000b0ff070003003700390007000f004000bd
:1004c000c0ff0700cfb2970095bf9f00e08f52009a
:1004d000090035002b000700140020000500200053
:1004e0006033b80000007200818072000201730066
:1004f000838173001c0007000c06e8008d0f560076
:10050000e3ff3a001fba9700e00f520005003d00dc
:100510000802be000a03be0000fe2f000f004000cc
:1005200094ff07004faa9700e00f520008003a001e
:100530000fb497009fb497002fb59700bfb59700f1
:10054000d8b79f00e9b79f00fab79f008bbf9f0005
:100550000c0007004f06be004f05be004f04be0052
:100560000080fa00000006000100070000000600fd
:1005700090b79f00a1b79f00b2b79f00c3b79f007d
:100580000000060001000700000006001fb09700f1
:10059000afb097003fb19700cfb1970000000600c1
:1005a0004f2bde00f9ff070086837300858242002f
:1005b0004f23de00a7b79f0086827200040242002c
:1005c00095b79f00ffaa97004f2bde00858242005f
:1005d0000602720084b79f006faa97004f23de00c7
:1005e0000402420086827200f5af9f004f18de00c1
:1005f00000027200e5ff0700e4af9f00000040002a
:100600008180480002014900838149000802be0040
:100610000a03be00d6ff070000fe2f000000060000
:10062000881f780018002000881f78008aff0700c4
:100630008f87e9004f04780000000600801feb0060
:1006400085ff07008f87e90000000600889fbe0035
:100650008a9fbe00e00f5000e08f5800e00f590065
:10066000e08f59000c003d006044b8006055b800b0
:100670000000540081805c0002015d0083815d0008
:10068000180020001500070008003d0018000700b2
:100690000004eb00050037000004eb000f0007002a
:1006a00002003d001200070018002000dcff0700d8
:1006b000e00f5400060032006022b8006033b8003a
:1006c0000000520081805a0002015b0083815b00c0
:1006d0004f05be004f04be0000000600e00f5200b0
:1006e000e08f5a00e00f5b00e08f5b000000060027
:1006f0006044b8006055b8000402540085825c0074
:1007000006035d0087835d0000000600889fbe0031
:100710008a9fbe008c1f7800e00f5000e08f5800c9
:10072000e00f5900e08f59000d003d006044b80013
:100730006055b8001c0020000000540081805c005f
:1007400002015d0083815d000820e10009a8e1004d
:100750000ab0e1000bb8e1000d003d0008003700d1
:100760000006eb00e00f5200e08f5a00e00f5b0044
:10077000e08f5b0006003d006044b8006055b800a3
:100780000402540085825c0006035d0087835d00df
:10079000aaff0700e00f5600060032006022b800f2
:1007a0006033b8000000520081805a0002015b00f3
:1007b00083815b004f0678004f05be004f04be00ea
:1007c000000006000002780002003700315a78006d
:1007d0000201e900e00f5100fcff3a0000000600b2
:1007e0000002780002003700015a78000201e90097
:1007f000e00f5100fcff3a00000006000002780004
:100800008042eb00b4cf1200fdff3a000080ea0006
:1008100000004200000006000002780006003700d9
:10082000314378000201e900065a7800840278001a
:10083000e04f53000600320084027800e00f5100c0
:10084000f7ff3a0002003700805aeb000201e9008e
:0c085000e00f5100fcff3a000000060021
:020000040000fa
:10085c00ff0f0000ff0f0000ff0f0000ff0f000054
:10086c00ff0f0000ff0f0000ff0f0000ff0f000044
:10087c00ff0f0000ff0f0000ff0f0000ff0f000034
:10088c00ff0f0000ff0f0000ff0f0000850f00009e
:10089c000a0f00008f0e0000140e0000700d0000f7
:1008ac00f50c00007a0c0000ff0b0000850b00001b
:1008bc00000000000000000000000000000000002c
:1008cc00000000000000000000000000000000001c
:1008dc00000000000000000000000000000000000c
:1008ec0000000000000000000000000000000000fc
:1008fc0000000000000000000000000000000000ec
:10090c0000000000000000000000000000000000db
:10091c0000000000000000000000000000000000cb
:10092c0000000000000000000000000000000000bb
:10093c0000000000000000000000000000000000ab
:10094c00000000000000000000000000000000009b
:10095c0028230000803e0000803e0000803e000006
:10096c00803e0000004b0000004b0000004b0000dc
:10097c00004b000000000000000000000000000020
:10098c00000000000000000000000000000000005b
:10099c00983a0000983a0000983a0000983a000003
:1009ac00983a0000983a0000983a0000983a0000f3
:1009bc00000000000000000000000000000000002b
:1009cc00000000000000000000000000000000001b
:1009dc009c1800000807000008070000204e0000cb
:1009ec000807000008070000204e00000807000060
:1009fc0008070000204e0000080700000807000050
:100a0c00204e00000000000000000000000000006c
:100a1c00060500000403000002010000161500008a
:100a2c0014130000121100002625000024230000de
:100a3c002221000036350000343300003231000032
:100a4c00000000000000000000000000000000009a
:100a5c00000000000080000000000000008000008a
:100a6c00000000000080000000000000008000007a
:100a7c00000000000080000000000000008000006a
:100a8c00000000000080000000000000008000005a
:100a9c00000000000000000000000000000000004a
:100aac00000000000000000000000000000000003a
:100abc00000000000000000000000000000000002a
:100acc00000000000000000000000000000000001a
:100adc0000500000c2b4000020000000455400008b
:100aec004d4200004f410000524400000000000045
:0c0afc000c00000020030000640000005b
:020000040000fa
:100b08000200fa00004f7800649d2100144278002a
:100b18009e4f52001f003200649d2100144278004d
:100b2800e24f42000b003200649d2100144278001d
:100b38000482fb007e22b90084027800048321002d
:100b480004824200e2012000218b21000400780089
:100b58001aff07001e407800d6f9b7001e42780039
:100b6800e24f42000d0032009e4278000582fb00f1
:100b78007e22b900840278000483210004824200a6
:100b8800e201200084007800208b21000bff070081
:100b980003003700000000000100370000000000db
:100ba8000080fa00000006000000fa00759d210090
:100bb80095427800649d21001442780084cf520049
:100bc8002f003200749d210014427800e24f420049
:100bd8001a003200e7842100749d21001442780035
:100be8000482fb007e22b90004027800fc02420065
:100bf800048321000482420014437800749d21007c
:100c0800144278000482fb007e22b9008402780036
:100c180004832100048242001402780085fd2f001d
:100c2800848242008402200013c0b30007017800c8
:100c38008640780005007800c8100700649d2100f0
:100c48001442780004007800d7f9b700e58c210039
:100c58009542780094c5800087fd2f008483430067
:100c6800e68421008402200085417800070178008d
:100c780011c0b30006007800b81007000100370063
:100c8800000000000080fa00000006000c00fa00d6
:100c980004a2210014079800a4ce8000e00f52009f
:100ca80008003a00653007000002be0084027800a0
:100cb800f47f200084826200044020000482420005
:100cc800a4ce8800c20320008000eb0060872100ca
:100cd800c1fe07000042eb00444798000042eb00c9
:100ce800044f78004e0037001e40780084ff07004c
:100cf8001e4078000082fb006622b900840278005a
:100d0800e457280004824200944290005547980016
:100d18001e4078000082fb006622b90004027800b9
:100d28008482e800e4572800048242009402780094
:100d3800350798001e4078000082fb006622b90043
:100d480004027800e4024200e457280004824200ca
:100d580094027800450798005e4290000482fb00e8
:100d6800e00f5200010032002c0037001e009000f6
:100d780050079800be0290004e0290008482420004
:100d88001e02900004824200a402b00014079800da
:100d98009e029000c4ff2100848f5200fcff3e0099
:100da8005e409000cef8b7005e0290008402b0006a
:100db80094c5880095c580003e02900004824200d8
:100dc8000402e800a4c58800a5c580004e02900072
:100dd80004824200b4c58800d400200044c68800bc
:100de800ca78a90070ff07009e4278000582fb00c0
:100df8006622b90084027800e45728000482420081
:100e0800144278000002fd0075f8b7000002fd00ea
:100e1800a40a07001e4fe80001003700ffff370053
:100e28001e427800e04f5200afff32000080fa0007
:100e3800000006000c00fa0010079800210798002f
:100e48006247980043079800244f98000042eb003f
:100e5800044f78007e0037001e40780028ff070006
:100e680044c68000ed0f520075003a004eff07009f
:100e780055872100954278002e4a900084cf520071
:100e880071003a008421200094c388006e429000cb
:100e9800e04f520008003a004e029000f4c2880069
:100ea800ca78a8004400200044c68800ce029000fa
:100eb80065c6880060003700a5ce8000f43f20009a
:100ec800848f520004003600a5ce800084382100ab
:100ed800848f52000200360004402000a4ce88000f
:100ee800a4ce8000f4c288000402e800a4ce8800e2
:100ef800ce039000e7c28800f94107000002be0057
:100f080004c6880015c68800ca98a8006e429000da
:100f18000482fb00e30f520003003200e40f52008a
:100f28001a003200440037000e82e8009402900054
:100f38000e82e80014027800848242004e0290007b
:100f480084824200f4c2800004826a0064c6880079
:100f58001e029000ae02900024c3880035c38800aa
:100f68000042eb000002fd0074f8b7000002fd002b
:100f7800c40420000500200074c2880085c28800cf
:100f88002400200044c688002b0037001e02900071
:100f9800ae02900004027800840278002542900096
:100fa8000483fb00354290000482fb004822dd00e8
:100fb80086027800848272000502780004037800b3
:100fc8001e029000ae02900004027800944378005c
:100fd8008782fb00144290000482fb004822dd0057
:100fe8008503780084837300070278008402430035
:100ff8004e02900084824200f4c2800004826a009b
:1010080064c688001e029000ae02900004027800b8
:10101800a20020008400780040862100e7fd070038
:101028005400200044c6880011c0b30020c0b3009b
:10103800d7060700000000001e42780008003700ad
:101048000000000001003700000000001e4fe8000b
:101058001e427800e04f52007fff3200e4cfb30019
:10106800044078000080fa00000006000200fa0040
:10107800004f78001e427800e04f52000200320014
:10108800140020000b0037001e4078009cfe07006b
:1010980055c680000400210004826200e00f52005f
:1010a80003003200cb98a90014002000010037008b
:1010b8000002eb00040078000080fa00000006003f
:1010c8000200fa00004f78001e427800e04f5200fc
:1010d800020032000002eb00080037001e407800d2
:1010e80087fe070044c6800067026a0004f0a70074
:1010f8000402ea000402e9004f22de00040078003e
:101108000080fa00000006000200fa00004f780094
:101118001e427800e04f520044003a001e4078001a
:1011280077fe0700e4c58000f4c5880044c6800047
:1011380005002000e600200007002000860f52006e
:10114800878f5a0033003e00046001000e0037000c
:10115800300037000c0037000b0037002d00370037
:10116800090037000a003700090037002900370056
:101178002800370027003700140037002500370003
:101188002400370020003700c60907002800370070
:1011980011c0b30010c1b3007d06070004c380006e
:1011a800e00f520005003200c5c58000d4c280009f
:1011b800848f5200f6ff3a0001003700000000005b
:1011c8008400200044c688001900370011c0b3000d
:1011d80010c1b3006e06070004c38000e00f520080
:1011e80005003200c5c58000d4c28000848f52003b
:1011f800f6ff3a000100370000000000c40020009c
:1012080044c688000a003700d400200044c688007d
:10121800070037008040eb0040c1b3005c060700c0
:10122800a0090700000000000100370000000000ce
:101238000080fa00000006000200fa00004f780063
:101248001e427800e04f520006003a001e40780027
:101258002bfe0700ca78a9001e407800aaff0700e5
:1012680001003700000000000080fa0000000600be
:101278000200fa00004f78001e427800e04f52004a
:10128800020032000002eb000a0037001e4078001e
:101298001bfe070044fe0700a20020004186210033
:1012a800008d210045fd0700e4c28000d4c68800f7
:1012b800048d2100040078000080fa000000060078
:1012c8000200fa00004f78001e427800e04f5200fa
:1012d8000b003a001e40780009fe070032fe0700a6
:1012e800c5c58000d4c28000848f5200050032003a
:1012f80011c0b30000c1b300250607000100370084
:10130800000000000080fa00000006000400fa0057
:10131800204798002e429000e04f52000200320011
:101328000002eb001d0037002e409000f4fd07007e
:1013380044c68000044f78001e427800e74f5200f0
:10134800050032001e427800eb4f520002003200c6
:101358000002eb0011003700c5c58000d4c580002d
:10136800848f520009003900a5c5800094c580000b
:1013780084825200d6c58000c4c580000402530090
:10138800048242000402e90004003700d5c5800049
:10139800c4c58000048252000402e90004007800f9
:1013a8000080fa00000006000400fa0020479800b8
:1013b800314798002e429000e04f52000200320060
:1013c8000002eb00430037002e409000ccfd0700e0
:1013d8002e409000cdff070000027800040f78002f
:1013e8001e027800e00f520002003a000002eb00f3
:1013f800380037001e027800e10f520002003a0060
:101408002e409000aeff070055c680000410200053
:1014180004826200e00f520009003a00a5c580006e
:1014280094c58000048252000402d1009e0f52002d
:10143800030039002e409000a1ff0700cb18a80038
:10144800e3034700e58c210095427800c6c580007b
:101458001400200013c0b30007017800854078000d
:1014680006007800bd0e0700c4c580000402e8002d
:10147800c4c58800c5c58000a4c58000848f5200fb
:101488000200390094c58000c4c588001e02780097
:10149800e10f520003003a002e40900088ff070039
:1014a8000b00370055c68000040220000482620049
:1014b800e00f520006003a00cab8a800a140070091
:1014c8000002be00040278006c02420024c68800b4
:1014d80014002000040078000080fa0000000600d4
:1014e8000c00fa00604798004107980052079800de
:1014f8000002eb00140798006e429000e04f520083
:10150800020032000002eb00600037006e409000dd
:101518007bfd07006e4090007cff0700000278000a
:10152800240798002e029000e00f520004003a00b1
:101538006e40900062ff07000002eb005300370086
:101548002e029000040f7800ae0290005e02900018
:10155800848f5200020036005e029000040f78006b
:1015680055c680000410200004826200e00f52007b
:101578000a003a00a5c5800094c580000482520084
:101588008402d1002e029000848f5200030039009b
:101598006e4090004aff0700cb18a800c4c5800021
:1015a8009e024200a4c58000848f520016003900b4
:1015b800a5c58000c4c580000482520014079800a5
:1015c800ce039000e58c210095427800c6c58000c6
:1015d8001e02900013c0b300070178008540780010
:1015e800060078005d0e0700ce0290001e029000f3
:1015f80004824200440798001e0290001e0f120049
:1016080094c58000c4c58800ce039000e58c2100f5
:1016180095427800c6c580001e02780013c0b3004a
:101628000701780085407800060078004b0e070017
:10163800c4c580001e024200c4c58800ae029000e6
:101648005e029000848f520003003e006e409000be
:101658001bff07000b00370055c68000040220005e
:1016680004826200e00f520006003a00cab8a800df
:10167800344007000002be00040278006c024200f9
:1016880024c688001e0290001e0242000400780052
:101698000080fa00000006000400fa00004f7800fd
:1016a800110798001e0290000400780051fc070002
:1016b80000027800040178009e0090001e40780027
:1016c80087ff0700000278009e0290000482420013
:1016d800040078000080fa00000006000600fa0006
:1016e800404798004e429000e04f520002003200fe
:1016f8000002eb000c0037004e40900000fd070090
:10170800a5c5800094c5800004825200040fe9003a
:101718004e409000fdfe0700000278001407980074
:101728001e0290001e021200040078000080fa00d9
:10173800000006000200fa00004f78001e40780002
:101748000c00070000027800e00f5200070032008a
:101758001e407800eafc0700e4c58000f4c5880054
:1017680011c0b30000c1b300090507000080fa00ea
:10177800000006000200fa00004f78001e427800c0
:10178800e04f5200020032000002eb001200370066
:101798001e407800dafc0700e5c58000f4c580002b
:1017a800848f520004003900e5c58000f4c580002c
:1017b8000482520008003700b5c58000f4c58000d7
:1017c80084825200e6c58000a4c58000040253004c
:1017d800048242000402e800040078000080fa0055
:1017e800000006000600fa0020479800210798002c
:1017f8002e409000dfff070000027800040f7800f9
:101808001e027800e00f520002003a000002eb00ce
:10181800290037002e409000b9fc07002e029000e6
:10182800e00f52000a003200e58c21009542780052
:10183800f7c580002e039000140020008541780031
:101848000701780011c0b30006007800c30d070037
:10185800f4c580000402e800f4c58800f5c58000de
:10186800b4c58000848f520002003600a4c58000f1
:10187800f4c588001e027800e10f520002003a0009
:10188800cb58a8000b00370055c680000402200082
:1018980004826200e00f520006003a00cab8a800ad
:1018a800a83f07000002be0004027800d403b0007d
:1018b80024c6880014002000040078000080fa0084
:1018c800000006000a00fa00404798003107980017
:1018d800420798000002eb00040f78004e40900089
:1018e800a4ff070000027800140798001e02900069
:1018f800e00f520002003a000002eb004f003700f0
:101908004e4090007efc0700ce0290001e02900020
:10191800848f5200020036001e029000440798008f
:10192800f5c580004e02900084824200b4c5800054
:10193800848f520019003600b5c58000f4c58000b8
:1019480004825200040fe8003e029000e00f5200ab
:101958000d003200e58c210095427800f7c5800023
:101968003e0390001e027800854178000701780048
:1019780011c0b30006007800780d07003e02900001
:101988001e024200340798004e0290001e025200c8
:1019980044079800a4c58000f4c588003e02900062
:1019a800e00f52000a003200e58c210095427800d1
:1019b800f7c580003e0390004e02900085417800f4
:1019c8000701780011c0b30006007800630d070016
:1019d800f5c580004e02900004824200f4c58800dc
:1019e8004e0290001e024200440798009e0290009a
:1019f8004e029000848252004e029000848f520062
:101a080002003e00cb58a8000b00370055c68000e6
:101a18000402200004826200e00f520006003a002f
:101a2800cab8a800473f07000002be0004027800b9
:101a3800d403b00024c688004e0290000400780049
:101a48000080fa00000006000600fa0040479800ef
:101a58004e429000e04f5200020032000002eb00bc
:101a68000b0037004e40900025fc0700b5c58000ec
:101a7800a4c58000048f52004e4090003dff07002f
:101a880000027800140798001e0290001e0212003f
:101a9800040078000080fa00000006000e00fa003a
:101aa800604798004107980052079800630798001c
:101ab8006e429000e04f520003003a005e02900030
:101ac800e00f520002003a000002eb004500370028
:101ad8006e4090000afc07006e40900025ff07004a
:101ae8000002780014079800ee0290005e02900051
:101af800848242001e029000848f52000400360047
:101b08009e0290006e0290000482520054079800d2
:101b1800f5c580006e029000048f4200b4c58000b5
:101b28009e0f520005003100b5c58000a4c5800095
:101b3800048252000482ea001e0f4200b4c58000ed
:101b48001e0252000402e80024079800de029000fa
:101b58002e029000848f52000a003e00e58c21007e
:101b6800954278004e0390005e029000854178000f
:101b78001e01780011c0b30006007800f70c0700ba
:101b880017003700e58c2100954278004e0390003d
:101b98002e029000854178001e01780011c0b30024
:101ba80006007800ed0c0700de0290002e0290007f
:101bb80004825200e58c210095427800a7c5800078
:101bc8004e0090002e0390000603400085417800e7
:101bd8000701780011c0b30006007800df0c070089
:101be8005e029000040078000080fa000000060001
:101bf8000600fa002047980021079800ae019000df
:101c0800120020008e0078002e409000a3ff0700ed
:101c18001e427800044078000080fa0000000600a8
:101c28003e00fa0020779800211f9800321f980084
:101c3800431f9800541f9800651f98002e7290004b
:101c4800e04f520003003a003e1a9000e00f5200a5
:101c580002003a000002eb00260137002e709000c7
:101c6800a7fb07002e709000c2fe07000002780054
:101c7800ce1a900005025200140798009e029000a8
:101c88003e1a9000848f5200020031000082eb005f
:101c9800180137005e1a9000e00f5200060032006b
:101ca8009e0290005e1a9000848f52000200360057
:101cb8005e1a900014079800f5c580004e1a90002f
:101cc8000482420034079800b5c580003e029000a7
:101cd800848f520007003100b5c58000a4c580007c
:101ce800048252000482ea00be029000048242008c
:101cf80034079800be029000050f7800b5c5800033
:101d08003e029000048252000402e8002407980072
:101d18004e1a900034079800be1a90007507980074
:101d28002e1a9000040f98002e1a90009442780002
:101d3800154f98002e1a90000402e800241f9800fe
:101d48000002eb00640798006e1a9000e00f520042
:101d58000c0032009e4a900004c6b30084cf5200a3
:101d6800080036009e4a9000a4c7b30084cf5200f2
:101d780004003e009e4a900004ceb30004c2420014
:101d8800144f980004c2b300244f98002e4a9000c4
:101d98008482fb002e029000848f520002003600dd
:101da8002e029000244f98002e4a90008482fb0057
:101db8001e029000848f5200020036001e0290001e
:101dc800244f98002e4a90000482fb00e58c2100e5
:101dd8009542780072034700854178001e0178001b
:101de80011c0b300060078005c0c07002e4a900072
:101df8000482fb001e0f42002e4a90000482fb0062
:101e0800ae02900004825200240798002e0290002f
:101e1800e00f520004003a00a4c58000040f7800c7
:101e28000082eb00240798006e1a9000e00f520021
:101e3800680032000042eb00044f98006000370051
:101e48000e4a90000482fb0004024700a45290004e
:101e580004c6b30084cf5200110036000e4a900029
:101e68000482fb0004024700a4529000a4c7b300f8
:101e780084cf52000a003e000e4a90000483fb0003
:101e88000e4a90000482fb0004024700a45290000e
:101e980004ceb30004c2420086024700a452980050
:101ea8000e4a90000482fb0004024700a4529000ee
:101eb8001e4a900084cf520023003a003e1a900038
:101ec8000402e900341f98003e1a9000e00f520007
:101ed80008003a00be0290007e0290008482520000
:101ee8000e4a90000482fb00048242000402e800cb
:101ef800800037002e1a900094427800154f980001
:101f08002e1a90000402e800241f980014002000f4
:101f1800640798009e4a900004c6b30084cf52001c
:101f2800240036009e4a9000a4c7b30084cf520014
:101f380020003e009e4a900004ceb30004c2420036
:101f4800144f98001b0037007e029000341f980041
:101f58006e029000e00f5200160032008e0a9000c8
:101f6800251f98002e1a900094427800154f98006b
:101f78002e1a90000402e800241f98009e4a900040
:101f880004c6b30084cf5200080036009e4a900071
:101f9800a4c7b30084cf520004003e009e4a9000bc
:101fa80004ceb30004c24200144f98000002eb00b4
:101fb800640798000e4a90000442e800044f980015
:101fc8008e4a90002e4a900084cf52009cff390020
:101fd800370037000042eb00044f9800300037000c
:101fe8000e4a90000482fb0004024700a4529000ad
:101ff8001e4a900084cf520017003a003e1a900003
:102008000402e900341f98003e1a9000e00f5200c5
:1020180008003a00be0290007e02900084825200be
:102028000e4a90000482fb00048242000402e80089
:10203800300037002e1a900094427800154f98000f
:102048002e1a90000402e800241f980014002000b3
:10205800640798000f0037007e029000341f980034
:102068006e029000e00f52000a0032008e0a9000c3
:10207800251f98002e1a900094427800154f98005a
:102088002e1a90000402e800241f98000002eb00ba
:10209800640798000e4a90000442e800044f980034
:1020a8008e4a90002e4a900084cf5200ccff39000f
:1020b8002e4a90000482fb009e0290000482520087
:1020c800140798009e0290003e1a9000848f5200d8
:1020d800020031000082eb00060037002e4a900013
:1020e8000482fb00be02900004824200340798007c
:1020f80024ff3700040078000080fa000000060082
:102108000800fa00004f780011479800120798005d
:1021180023079800340798000e03e800be029000d9
:102128002e0290009e019000120020008600780088
:102138001e407800bafe070000027800040078000c
:102148000080fa00000006000a00fa00881f7800e4
:102158000042eb00044f7800e80137001e40780089
:1021680067fa07000042eb00644798000002eb00a2
:10217800140798000002eb002407980055c6800059
:102188000420200004826200e00f520005003a009b
:1021980055c680000440200004826200e00f52000f
:1021a8000b003200ca1e070000027800e00f520040
:1021b8000700320004c1b3006447980054c6800089
:1021c8004a22de00614262000482fb001407980084
:1021d80055c680000402200004826200e00f52000d
:1021e8000900320028c68000563d07000002be00e4
:1021f8000402780004025400e00f520002003c0080
:1022080004c1b3006447980055c680000404200048
:1022180004826200e00f52000900320038c68000d4
:10222800483d07000002be00040278000402540082
:10223800e00f520002003c0004c1b300644798005c
:1022480044c68000eb0f52000b003a0038c68000ed
:102258003c3d07000002be0004027800040254005e
:10226800e00f520004003c0014c1b300644798001a
:10227800c400200044c6880044c68000e40f520011
:1022880063003a000002eb00440798005b00370047
:102298004e0290007422b90004027800f002420055
:1022a800648721000482420014027800e00f520083
:1022b800560032004e0290007422b90004027800e1
:1022c800f0024200648721000482420094027800f0
:1022d80064c68000848f520045003a0032fa070035
:1022e8004e0290007422b9008402780064872100ad
:1022f80004824200a2002000840078004086210069
:102308002ef907004e0290007422b90004027800ea
:10231800ea02420064872100048242001402780025
:10232800e4c288004e0290007422b90004027800ca
:10233800ec02420064872100048242001402be00bd
:1023480061024200e0824a00b4c28800c5c2880027
:1023580035c3800024c3800084824200e4c2800028
:1023680084824200f4c2800004826a0064c6880045
:1023780024c1b300644798006400200044c6880064
:10238800ce029000c4fe2f0004aab900040278000f
:1023980087022000848343004e0290000402e80074
:1023a8007422b90084027800648721000482420004
:1023b800040378004e0290007422b9008402780069
:1023c80064872100048242008402780007027800b2
:1023d80013c0b3000601780011c0b30005007800ef
:1023e800de0a07000002eb0074c588000800370009
:1023f8004e0290000402e800440798004e02900044
:10240800e20f5200a2ff3600010037000000000072
:102418006e429000e04f5200090032001e02900008
:1024280004f0a7000402ea000402e9004f22de00db
:1024380004427800844078006e409000d401070080
:1024480054c6800070026200e00f52002b003a0070
:1024580044c68000e70f520020013a00a03c070064
:102468000003be0004c6800015c6800004025300a5
:1024780085825b00e00f5200e08f5a001901350099
:1024880054c6800067026200e60f52000e003a0050
:1024980054c680004322de0061426200644798000f
:1024a8001e40780018fb07001e40780016fb070046
:1024b8006e429000e04f52000c013a00e400200008
:1024c80044c688000c013700b7f9070021c0b300e3
:1024d80000c1b300ae010700813c07000003be0045
:1024e80024bc2e00b50020000602420087824a0064
:1024f80004c6880015c68800ff003700783c07002e
:102508000003be0004c6800015c680000402530004
:1025180085825b00e00f5200e08f5a00f50035001d
:10252800a1f9070044c680006123b800e4ff2f002a
:10253800f5ff2f000602420087824a00a60020000d
:1025480007002000860f5200878f5a00a2003e0025
:10255800046001000a00370012003700a0003700ad
:102568003a0037004a0037005e0037006b0037003a
:10257800780037007c0037005a00370088003700a1
:10258800703c07000002be000402780024c68800e0
:1025980040862100853607003400200044c68800a4
:1025a800940037008186210040862100ec36070020
:1025b80000027800e00f52001d003a00613c07005d
:1025c8000002be008402780024c680000483520002
:1025d80074c2800085c2800004027800840f530012
:1025e800810036004487210014427800e54f5200ec
:1025f8000c003e0044872100144278000442e800a1
:102608000002fd0074f8b7000002fd0074c28000eb
:1026180085c280000402420085824a0074c2880094
:1026280085c288002400200044c688007100370055
:1026380024c0b300644798000002eb001407980018
:102648005400200044c688006a00370024c0b30044
:10265800644798001400200014079800448721005c
:1026680014427800e34f52006100360044c0b300c2
:102678000002fd0074f8b7000002fd00042d2100df
:102688003501200074c2880085c2880059003700cf
:102698004487210014427800e14f520005003e00b3
:1026a80024c1b30064479800140020001407980060
:1026b8005000370054c6800068026200e00f5200e4
:1026c8000500320044c1b30064479800140020009c
:1026d800240798004700370024c0b30064479800d7
:1026e800440037004487210014427800e44f520028
:1026f80005003e0004c1b3006447980014002000a0
:10270800140798003b0037008400200044c6880066
:1027180014c1b3006447980036003700448721008d
:1027280014427800e44f520005003e0014c1b30083
:102738006447980014002000140798002d00370003
:1027480044c1b3006447980014002000240798008f
:102758002800370044c1b3006447980014002000e3
:10276800240798002300370044872100144278008a
:10277800e44f520005003e0004c1b30064479800ce
:1027880014002000140798001a00370044c1b30051
:1027980064479800140020002407980015003700ab
:1027a8004487210014427800e44f520005003e009f
:1027b80014c1b3006447980014002000140798005f
:1027c8000c00370044c1b30064479800140020008f
:1027d80024079800070037000000000005003700b4
:1027e800000000000300370000000000010037006f
:1027f800000000006e429000e04f520032003200ac
:102808001e029000e00f52002c0032004487210085
:10281800144278000442e8000002fd0074f8b70092
:102828000002fd0074c2800085c2800004024200dc
:1028380085824a0074c2880085c28800d5c280009b
:10284800d4c580000482520044079800d5c2800095
:10285800d4c58000848f520006003100a5c58000d1
:1028680094c5800004825200ce0290000482420087
:102878004407980096c28000a7c280004e029000cc
:10288800050020000402530085825b0094c2880082
:10289800a5c2880005c380004e0290000482420051
:1028a80004c38800d4c58000d4c288008040eb00ef
:1028b8006e409000b60007000300370011c0b30057
:1028c8006e409000b20007002e029000e00f520008
:1028d80009003200f303070007003700000000007a
:1028e800050037000000000003003700000000006a
:1028f80001003700000000001e4fe8001e4278006b
:10290800e04f520015fe32000002eb004407980029
:10291800380037004e0290007422b9000402780093
:10292800f002420064872100048242001402780009
:10293800e00f520033003200823b07000002be0065
:10294800040378004e0290007422b9000402780053
:10295800f2024200648721000482420014027800d7
:102968008402530034392000848f52001e00360040
:10297800ce029000c4fe2f0004aab9000402780019
:1029880087022000848343004e0290000402e8007e
:102998007422b9008402780064872100048242000e
:1029a800040378004e0290007422b9008402780073
:1029b80064872100048242008402780007027800bc
:1029c80013c0b3000601780011c0b30005007800f9
:1029d800620907000002eb0074c588004e029000ef
:1029e8000402e900440798004e0290000402e8003f
:1029f800440798004e029000e20f5200c5ff3600cf
:102a080001003700000000004f0478000080fa0041
:102a1800000006002c00fa003017980041179800b3
:102a2800521798003e139000964078000180fb00f2
:102a3800964390008783fb00c83bdd0000027800c6
:102a4800070272008403780007027800a64390000a
:102a58008783fb00364390000683fb004833dd0084
:102a6800870078008680700001037800860278006d
:102a7800340f9800450f98004e1290001403be00c2
:102a8800560f9800670f98000042eb00645f9800ab
:102a980064c0b300745f9800de13900007179800b5
:102aa8000e12900004007800092b0700000278003d
:102ab8000417980076024700c1002000040078003f
:102ac800412b0700000278000482ea0014179800de
:102ad8005e109000a21e07000002780024179800dc
:102ae8009e1290002e129000848f52000300320034
:102af800831c070014002000220037000000eb00b0
:102b0800ca3907000e82e80041012000040078005d
:102b1800162007000e82e80004007800280307004a
:102b28007e0290004422de006f42620025002000f1
:102b38000522dd00744f52009e4078000182fb00a0
:102b4800de1290000482520074025200541798005a
:102b58000e82e800be10900004007800ea01070029
:102b680000027800e00f5200040032000e82e800f4
:102b7800de10900004007800ee030700601c0700d8
:102b880014002000040078000080fa00000006000d
:102b98002a00fa00006f9800116f980002f80700e9
:102ba8000e6a90000482fb00610262000442780011
:102bb800e04f520005003200cb78a8008e6a9000e2
:102bc800e4cfb30004c26200046f9800cab8a90039
:102bd800cad8a900caf8a900cb38a900cb58a900bf
:102be800cb18a90000000000391c0700000278007b
:102bf800e00f5200fcff32000e6a90000482fb00d6
:102c080066026200e00f5200030032000002eb008f
:102c1800040f780077003700c5c58000d4c2800053
:102c2800848f520003003a000002eb00040f780082
:102c380062003700c5c58000d4c28000848f52006e
:102c48001b003600c5c58000d4c28000048f520026
:102c580004c380009e0f52000200310001c38000af
:102c6800010f780094c380009e0f520003003100ca
:102c780094c38000040f7800cb58a800e58c21008d
:102c880095427800d6c280001e02780085417800ff
:102c9800060178008040eb0050462100af0807008d
:102ca800d4c280001e024200d4c28800430037000c
:102cb800a5c58000d4c28000048252003417980051
:102cc800be129000c4c580008482420094c5800072
:102cd800048f520004c380009e0f5200020031008e
:102ce80005c38000050f780094c380009e0f520032
:102cf8000300310091c38000010f7800cb58a80071
:102d08003e1290009e0f5200020036001e0278000c
:102d1800341798003e129000e58c21009542780007
:102d2800d6c2800085417800060178008040eb001b
:102d380050462100890807003e1290001e0212002a
:102d4800341798003e129000e00f52000e00320037
:102d58003e129000e58c21009542780097c58000ce
:102d6800a0c58000d6c2800006005000564621004b
:102d78000603400085417800070178008040eb0099
:102d88000600780075080700d4c280001e024200c1
:102d9800d4c28800d5c28000a4c58000848f5200a8
:102da80006003900d5c2800096c58000a4c5800001
:102db8000402530004824200d4c2880055c6800031
:102dc8000480200004826200e00f520009003200f3
:102dd80004c380009e0f52000600320094c3800096
:102de8009e0f5200030032000e6a90000404a000f7
:102df800046f98001e027800e00f520005003a00a8
:102e08000e6a90000482fb0063026200e00f520029
:102e18002100320004c380001e02520004c388004f
:102e28001e027800e00f5200030032000e6a900084
:102e38000434a000046f98001e6a90000482fb000e
:102e48006102620004427800e04f5200080032003c
:102e58000042eb000002fd0074f8b7000002fd001c
:102e6800d41223001500200074c2880085c288008f
:102e78001b3a07000003be0074c2800085c28000b0
:102e88000602420087824a0004c6880015c68800e8
:102e9800ca98a8003a0037001e6a90000482fb0016
:102ea80062026200e00f52001400320054c6800033
:102eb800674262000442e800674262000482fb0045
:102ec8006702620056c6800085ff2f0085026300f6
:102ed8000502720054c6880094c28000a5c2800012
:102ee80061025200e0825a0094c28800a5c288009c
:102ef80014002000040f78002100370054c6800019
:102f080070026200e00f52001d0032001e6a90003d
:102f18000482fb0061026200e00f520010003a00d8
:102f28004487210014427800e04f52000c00320020
:102f380044872100144278000442e9000002fd00a1
:102f480074f8b7000002fd0074c2800085c28000da
:102f58008502d1000482d30074c2880085c288002b
:102f6800df3907000003be0074c2800085c28000fc
:102f78000602420087824a0004c6880015c68800f7
:102f8800f4c2800024079800e4c280003407980047
:102f980094c28000a5c28000440798005507980095
:102fa800b4c28000c5c28000640798007507980005
:102fb8000e0a900004e0a10004f0a100040f98009c
:102fc8000e0a90000400a1000410a1000420a10032
:102fd8000430a100040f98008e6a900015579800dd
:102fe8000002eb00340f980096c28000a7c2800050
:102ff8001e027800050020000602420087824a006f
:1030080094c28800a5c288000e6a90000482fb0062
:1030180062026200e00f52001a0032000e6a90004d
:103028000482fb0070026200e00f520003003a00c5
:103038006022b800640798007507980084c3800070
:1030480062026200e00f5200070032004e02900058
:10305800de02900061025200e0825a0044079800a4
:10306800550798000700370094c28000a5c2800069
:1030780061024200e0824a0094c28800a5c288002a
:103088007038a8000e6a90000482fb00610262009a
:1030980004427800e04f5200010032007018a80086
:1030a800e5c58000f4c58000848f5200090039000e
:1030b800b5c58000a4c5800084825200f6c5800092
:1030c800e4c580000402530004824200140f9800f3
:1030d80005003700f5c58000e4c580000482520071
:1030e8000402e900140f9800231b0700000278006f
:1030f800140798009e029000f4032000848f520069
:1031080003003e000002eb0014079800030037009c
:103118001e0290000404b100140798009e0a900053
:103128001e029000848f5200020036001e0290009a
:10313800140f98006402470004007800a0010700fb
:103148009e007800748f40000e0a90000440a00092
:103158000450a1000460a0000470a100040f9800ae
:103168000e6a90000482fb0062026200e00f5200c7
:10317800150032001e027800640f420024c0b3001c
:10318800045f980044c0b300145f980024802100b5
:10319800540f98000e0a90004422de006f4262002d
:1031a8000442e8006f4262000482fb006f02620082
:1031b8004422dd000e0b9000f5f02f00850263001d
:1031c80005027200040f9800c637210016437800e4
:1031d8008683fb00d6372100164378000683fb0060
:1031e8004833dd0087027800868272000503780084
:1031f80006027800e6372100164378008683fb0034
:10320800f6372100164378000683fb004833dd00bb
:1032180087007800868070000103780086027800b5
:10322800640f9800750f980024c3800035c3800090
:1032380004179800151798000042eb00446798009f
:1032480064c0b300546798009e0278003517980050
:103258003e129000040078001d2907000002780043
:10326800341798007c024700c10020000400780051
:1032780055290700000278000482ea00240f98000c
:10328800d04321004d1c07001e01780061c0b30027
:10329800408621008737070064024700410120006b
:1032a80004007800bc1e07000e6a90000482fb0030
:1032b80062026200e00f5200040032007802470008
:1032c8004100200004007800b31e070010452100cb
:1032d800551c07001e007800a11c0700000278009a
:1032e8001407980010462100341c07000e82e800dd
:1032f8002100200004007800a71e0700751b0700a6
:103308000080fa00000006000a00fa003007980062
:10331800410798003e02900014029000e00f52000e
:1033280002003a000002eb0022013700e4cfb300ac
:1033380014479800ce029000254290000483fb00b9
:10334800354290000482fb004822dd0086007800a8
:103358008480700001027800840278004e02900098
:10336800144178000283fb00144290000482fb00a1
:103378004822dd0086037800848373000702780002
:10338800848242003e029000140278008482420047
:103398003e0290001402900004826a0024079800fc
:1033a8000042eb00044f78003f0037001e407800d1
:1033b800d3f5070044c68000ed0f520034003200f8
:1033c80044c68000e40f520008003a0065c6800039
:1033d8003e02900014029000848f52002e003a00a2
:1033e8009e407800114798002e00370065c680007f
:1033f8002e029000848f520029003a00eaf5070057
:103408003e02900094029000f4c28000848f520023
:1034180024003a003e02900094027800e4c2800042
:10342800848f52001f003a004e0390001641780026
:103438000280fb00964390008783fb00c83bdd00b9
:1034480000027800070272008403780007027800ff
:10345800a64390008783fb00364390000683fb0059
:103468004833dd008700780086807000010378000b
:103478008602780026c3800037c38000860f52007a
:10348800878f5a0007003a0014002000c90037004f
:1034980000000000030037000000000001003700b2
:1034a800000000001e4fe8001e427800e04f520066
:1034b800beff32001e429000e24f4200160032006a
:1034c8001e4090008ef50700b7f507001e429000d9
:1034d800e24f4200100032002e01900062c68800c0
:1034e800a2002000ce00900040862100b3f407001f
:1034f8003e02900014027800e4c288003e02900068
:1035080014029000f4c2880094c58000d4c28800d8
:1035180014002000a70037003e029000e40290004b
:103528000420200004826200e00f520002003a00ea
:103538000002eb009f00370074c58000e00f5200c6
:10354800020032000002eb009a0037000002eb0094
:10355800140798004e0037001e0290007422b9002c
:1035680004027800f00242006487210004824200cd
:1035780014027800e00f5200490032001e02900049
:103588007422b90004027800f00242006487210026
:1035980004824200940278003e02900014029000d7
:1035a800848f520032003a001e0290007422b90043
:1035b80004027800ea024200648721000482420083
:1035c800940278003e02900014027800848f520022
:1035d80029003a001e0290007422b9008402780083
:1035e80064872100048242001403be004e0090004c
:1035f800104278000481fb00904090008180fb001d
:10360800c808dd0082027800818272008500780097
:1036180001027800a04090008180fb0030409000bb
:103628000080fb004800dd00010178000001710006
:103638000200780080027800840f5300858f5b00b9
:103648000f003a003f3807000002be00040378006c
:103658001e0290007422b900840278008488210038
:1036680004824200060a78000002eb00510037008d
:1036780000000000030037000000000001003700d0
:10368800000000001e0290000402e80014079800e1
:103698001e029000e20f5200afff36000100370013
:1036a800000000000042eb00044f78003d003700a6
:1036b8001e40780012f5070054c6800068026200b8
:1036c800e00f52003300320037f50700f5c28000e2
:1036d8003e02900014029000848f52002f003a009e
:1036e8001e0290007422b9008402780064872100c9
:1036f80004824200a2002000ce009000040078005e
:103708002ef407003e029000140378001e02900079
:103718007422b900840278000488210004824200df
:10372800060a78003e029000b4029000240290003d
:103738001e0390007433b9008603780026882100a0
:1037480006834300048bbe003e02900014039000e1
:103758001e0290007422b900840278006488210057
:1037680004824200060a7800f63707000002be000d
:10377800040378001e0290007422b90084027800c5
:103788008488210004824200060a78000002eb00c7
:1037980008003700000000000100370000000000aa
:1037a8001e4fe8001e427800e04f5200c0ff320072
:1037b8000002eb00040078000080fa000000060018
:1037c8000200fa00000f78001e0278001402780048
:1037d80004007800be270700000278009e027800e7
:1037e800840a78001e027800140290000400780011
:1037f800b7270700000278009e027800940298001c
:103808001e027800b4029000240290000400be005a
:10381800bd2707000002be001e037800240398009d
:10382800350398001e027800d402900044029000ec
:103838000400be00b42707000002be001e03780083
:1038480044039800550398001e0278007402900003
:10385800040078009e270700000278009e02780086
:10386800f40298001e027800040a90000400780010
:1038780097270700000278009e027800840a9800c3
:103888001e027800140a90000400780090270700b0
:10389800000278009e027800940a98000080fa00de
:1038a800000006000000fa00881f7800bef4070038
:1038b800f4c2800064c6880094c58000c4c588002e
:1038c80094c58000d4c58800a4c58000e4c58800dc
:1038d800a4c58000f4c5880054c680006802620050
:1038e800e00f5200020032004400200001003700bf
:1038f800d400200044c68800ca18a900ca38a90004
:10390800ca58a900ca98a900cab8a900cad8a90063
:10391800caf8a900cb18a900cb38a900cb58a90030
:10392800cb78a900cb98a8007018a9007038a90016
:103938007078a9007098a90094c58000d4c2880046
:10394800288521000525070000027800040c78006e
:10395800288521000125070000027800140498003a
:103968000082eb0074c388001400200004c38800a0
:103978004f0478000080fa00000006000400fa00f6
:10398800881f7800c0002000283607005e1c07004a
:1039980000427800044f78001e4278008482fb00c1
:1039a800040f20000482620042a2de000442780074
:1039b800744f52001e427800e04f520002003a0055
:1039c8008421200057003700710020000000eb0020
:1039d800661c0700400037004b1c070000427800b7
:1039e800144798001e429000e04f520043003200f6
:1039f8001e429000e14f5200360032001e429000f5
:103a0800e24f520020003a001e427800e24f520076
:103a18003c0036000002eb00140798003a1c07002f
:103a280000427800144798001e429000e44f52006c
:103a380009003a000e82e8000404e800321c07007e
:103a480000427800044c78000e84e8002e1c070021
:103a580000427800044c78009e02900074212000f7
:103a6800848f5200290036009e029000445b20009b
:103a7800848f520002003600445b20002900370082
:103a88001e029000270037001e427800e14f5200c6
:103a9800200036001c1c07000042780014479800dc
:103aa8001e4290009e42780084cf52001b003900cd
:103ab8001e4290000482fb00840078000000eb00a6
:103ac8002a1c07009e4278001e42900004cf520034
:103ad80001003700000000009e4278000582fb00cc
:103ae8000402ea004f22de00044278001e4fe9007b
:103af800e04f5200b8ff3a0009003700000000000c
:103b08000700370000000000050037000000000033
:103b1800030037000000000001003700000000002b
:103b280084212000040078004f0478000080fa0007
:103b3800000006002200fa00700f98000117980094
:103b48007e0a9000d44a9000055798007e0a90009b
:103b580044039000d4039000460798005707980044
:103b68007e0a900024039000b4039000160f98007a
:103b7800270f9800ca18a900ca38a900ca58a9006e
:103b880054c6800070026200e00f520008003a003c
:103b9800d33607000003be0024bc2e00b500200069
:103ba8000602420087824a0004c6880015c68800bb
:103bb80044c68000e40f520003003200e50f5200b3
:103bc8002c003200770037000e5290000482fb0070
:103bd80064026200e00f52000200320031ff070069
:103be800270437000e5290000482fb007002620026
:103bf800e00f5200090032004e029000de029000f1
:103c080094c28800a5c288008040eb0040c0b30081
:103c1800dffb070023ff0700190437000e5290004e
:103c28000482fb0062026200e00f52000f003200c3
:103c38001e0a9000ae0a900061024200e0824a002b
:103c4800b4c28800c5c288004cff07000002780093
:103c580094c3880011c0b30020c1b300ccfb070097
:103c68006400200044c68800050437000dff0700e3
:103c7800030437000e5290000482fb0064026200c5
:103c8800e00f5200eb033a000e5290000482fb0052
:103c980070026200e00f52001700320096c28000e6
:103ca800a7c280004e029000de029000840f5300ed
:103cb800858f5b001000320096c28000a7c280008a
:103cc800160f9800270f98004e029000de02900011
:103cd80094c28800a5c2880011c0b30040c0b300d8
:103ce800abfb07001e0b9000ae0b900096c288003d
:103cf800a7c28800e20337000e5290000482fb003e
:103d080062026200e00f5200cc0332001e0a9000eb
:103d1800ae0a900061024200e0824a00b4c2880004
:103d2800c5c288007e0a90007402900004c388000f
:103d380012ff07000002780094c388000e5290001a
:103d48000482fb0070026200e00f52000f00320094
:103d580011c0b30000c1b3008dfb07007400200040
:103d680044c688005e3607000003be0024bc2e004f
:103d7800b50020000602420087824a0004c6880077
:103d880015c68800ca98a900bd03370011c0b30042
:103d980020c1b3007efb07006400200044c68800f1
:103da800b70337008e139000670798000e529000f3
:103db8000482fb006102620004427800e04f520076
:103dc800030032006e0290000402e80064079800c5
:103dd8000e5290000482fb0062026200e00f520063
:103de800030032006e0290000402e80064079800a5
:103df800e5c58000f4c58000848f520009003900b1
:103e0800b5c58000a4c5800084825200f6c5800034
:103e1800e4c580000402530004824200340798007d
:103e280005003700f5c58000e4c580000482520013
:103e38000402e90034079800b4c28000c5c28000bb
:103e48001e0b9000ae0b90000402530085825b00ad
:103e5800340f9800450f98003e0a9000540f9800c0
:103e68000002eb00740798006e029000e00f520009
:103e7800350032003e029000e00f52004800320048
:103e88003e0a9000ce0a9000e00f5200e08f5a00e0
:103e98000a0035003e0290006123b8003e0a9000f7
:103ea800ce0a9000840f5300858f5b000300360014
:103eb8001400200074079800140037006e02900068
:103ec8006123b8003e0a9000ce0a90000602420024
:103ed80087824a00e00f5200e08f5a000b0034003e
:103ee800be0290006e029000048252006123b90065
:103ef8003e0a9000ce0a9000840f5300858f5b0025
:103f08000200350014002000740798003e0290005b
:103f18006123b8003e0a9000ce0a9000840f530037
:103f2800858f5b001e003400de0a90006e02900050
:103f380004824200e00f52001900340014002000ef
:103f480074079800160037003e0a9000ce0a9000c9
:103f5800e00f5200e08f5a0003003a0014002000de
:103f6800740798000e0037003e0a9000ce0a9000b1
:103f7800e00f5200e08f5a00090035003e02900021
:103f88006123b8003e0a9000ce0a9000840f5300c7
:103f9800858f5b000200360014002000740798002b
:103fa8007e029000e00f520009003a000e52900085
:103fb8000482fb0064026200e00f520021033a0011
:103fc80011c0b30000c1b300f1fa07002c03370099
:103fd8000e5290000482fb0066026200e00f52005d
:103fe800020032002ffe0700250337000e52900012
:103ff8000482fb0070026200e00f520013033200db
:1040080044c680006123b800a4ff2f00f5ff2f00ed
:104018000602420087824a0066002000070020004e
:10402800860f5200878f5a0059013e000460010034
:10403800060037001e0037001d0037001c0037003f
:104048001b0037001a0037004601370096c280006f
:10405800a7c280004e029000de029000840f530039
:10406800858f5b001000320096c28000a7c28000d6
:10407800160f9800270f98004e029000de0290005d
:1040880094c28800a5c2880011c0b30040c0b30024
:10409800bffa07001e0b9000ae0b900096c2880076
:1040a800a7c28800f60237007400200044c68800c2
:1040b800c5c58000d4c2800004825200240798003d
:1040c8002e029000e00f520006003d00a5c58000ba
:1040d80094c5800004825200ae029000048242001f
:1040e8002407980096c28000a7c280002e02900084
:1040f80005002000041f430005974b004e03900065
:10410800de0390001e02be000402530085825b009d
:10411800048fbe001e02be00e00f5200e08f5a005e
:104128001400340084c3800061026200e00f520072
:10413800060032001e03be00140020000500200007
:10414800840f5300858f5b00040032008040eb0031
:1041580000c1b3008efa0700c90237004e02900072
:10416800de02900061025200e0825a004407980083
:104178005507980096c28000a7c28000d5c280006b
:10418800d4c5800004825200cfa2de00041f530071
:1041980005975b00d5c28000d4c58000848f52008b
:1041a80006003100a5c5800094c580000482520035
:1041b800050020001e1f12001e971a004e029000d4
:1041c800de0290001e1f52001e975a001e02be00fb
:1041d800e00f5200e08f5a0050003400a5c580005f
:1041e80094c580000482520005002000be0f5200d2
:1041f800ae8f5a00490039007078a9007098a9005c
:10420800cb18a900d7c5800027079800d5c580001e
:104218001e02780004824200d4c58800d5c28000fe
:104228002e029000848f520011003900d5c2800000
:10423800d4c58000848f52002300310096c28000cc
:10424800a7c28000d5c58000d4c280000482520075
:10425800050020000602420087824a0094c28800b6
:10426800a5c28800d4c58000d4c2880016003700d3
:10427800d5c28000a6c5800094c580000402530002
:104288000482420024079800d5c580002e029000c1
:10429800848f52000c00360096c28000a7c28000ae
:1042a800d5c580002e02900004825200050020002f
:1042b8000602420087824a0094c28800a5c288008c
:1042c800d4c58000d4c28800d5c58000a4c58000ac
:1042d800848f520006003900d5c5800096c580003d
:1042e800a4c580000402530004824200d4c588009b
:1042f800d5c28000a4c58000848f520030003900e8
:10430800d5c2800096c58000a4c580000402530071
:1043180004824200d4c2880029003700d5c5800035
:10432800d4c28000848f52002500320084c38000ec
:1043380068026200e00f52002000320084c380004f
:1043480070026200e00f52001b00320096c280002b
:10435800a7c28000d5c28000d4c580000482520064
:10436800cfa2de000402530085825b0094c288005d
:10437800a5c28800d5c28000d4c58000848f5200b1
:104388000a00310096c28000a7c28000a5c580003f
:1043980094c5800004825200cfa2de0004025300bc
:1043a80085825b0094c28800a5c28800d4c58000bd
:1043b800d4c28800cb58a8007098a8007078a800cc
:1043c800d5c58000c4c58000848f52001c003a0007
:1043d80055c680000480200004826200e00f52006d
:1043e8000a003a00be3407000003be0024bc2e00b9
:1043f800b50020000602420087824a0004c68800f1
:1044080015c68800ca98a9000d00370096c280001a
:10441800a7c280004e029000de029000840f530075
:10442800858f5b0006003a0084c380006102620049
:10443800e00f520002003200ca98a900cb78a90008
:104448007e0a900074039000ce03900094c280000e
:10445800a5c28000040278000482530004024300cd
:10446800640f980004c38000e00f520004003a0073
:104478006e0a9000e00f520001003200cb38a8000d
:104488006e0a900004c3880044c68000e80f5200fa
:1044980017003a0096c28000a7c280004e02900022
:1044a800de029000840f5300858f5b003a003a00cb
:1044b80084c3800061026200e00f520038003200bd
:1044c800873407000003be00145e2f00550020004b
:1044d8000602420087824a0004c6880015c6880082
:1044e800ca98a8009400200044c68800310037000c
:1044f80044c68000e90f52000e003a000e529000a8
:104508000482fb0061026200e00f520026003a00bc
:104518004e039000de03900096c28800a7c2880070
:104528008040eb0040c1b30099f90700ddfc0700ab
:10453800d301370044c68000ea0f52001c003a003d
:1045480096c28000a7c280004e029000de02900052
:10455800840f5300858f5b00be013a00d1fc070031
:10456800c701370094c28000a5c2800061034200e1
:10457800e0834a004e029000de029000840f530050
:10458800858f5b00b5013a00c6fc0700bc01370007
:104598000000000007003700000000000500370099
:1045a8000000000003003700000000000100370091
:1045b800000000000e5290008482fb0004022000dc
:1045c80004826200e00f5200a6013a0044c680004f
:1045d800eb0f5200a501320044c68000ea0f5200da
:1045e800a401320044c68000ec0f5200a30132003f
:1045f8000e129000e00f5200200132005e0a900077
:10460800e00f52007f003c007e0a90006402900098
:104618004422de006f4262000482fb004222dd0079
:10462800840278005e0a9000048252000400780038
:10463800fe3207008e1290005e0a9000048242004b
:10464800041798008e1290003e029000848f52004a
:1046580002003600be03900007179800b6c280001b
:10466800c7c280000e12900005002000060242001a
:1046780087824a00b4c28800c5c28800e5c58000a8
:104688000e12900084824200b4c58000848f5200cc
:1046980020003600b5c58000e4c5800004825200c1
:1046a8000402e80024079800e58c21009542780070
:1046b800e6c580002e0290008041eb000081eb00ef
:1046c8008540780006007800240207008e129000ca
:1046d8002e02900004825200e58c21009542780059
:1046e800a6c580008041eb000081eb008540780082
:1046f8000600780019020700a5c580000e13900077
:104708002e0290000402530004824200e4c588008f
:104718000d003700e58c210095427800e6c5800041
:104728000e1290008041eb000081eb00854078007c
:104738000600780009020700e5c580000e12900007
:1047480004824200e4c5880074c38000e10f42007f
:10475800ca00320074c38000840278000e129000f0
:104768000482520074c3880015c3800074c380009b
:1047780004824200240798002e029000e00f5200a5
:1047880003003d000082eb0074c38800bb003700c3
:1047980074c38000e00f5200b8003c00b6c280002d
:1047a800c7c280002e0290000500200006024200c9
:1047b80087824a00b4c28800c5c28800e5c5800067
:1047c8002e02900004824200e4c58800e5c58000fe
:1047d800b4c58000848f520007003600e5c580000c
:1047e800b6c58000a4c58000040253000482ea0014
:1047f80004824200e4c588000082eb0074c388008c
:104808009e0037005e0a9000e00f52009b003400c3
:104818008e1290005e0a9000848242003e02900050
:10482800848f520004003600be0290005e0a900099
:1048380004825200041798007e0a900064029000d7
:104848004422de006f4262000482fb004222dd0047
:104858000400780075320700e5c580005e0a900004
:10486800848242000e12900084824200b4c5800007
:10487800848f520033003600b5c58000e4c580003f
:10488800848252005e0a90000402ea000482420018
:104898000402e800240798002e029000e00f52005e
:1048a80017003500e58c210095427800e6c58000a8
:1048b8005e0a9000040343002e0290008041eb0042
:1048c8000081eb008540780006007800a30107000e
:1048d8008e1290002e02900004825200e58c210076
:1048e80095427800a6c580008041eb000081eb006e
:1048f8008540780006007800980107001c00370002
:10490800e58c210095427800e6c580005e0a90009b
:1049180004034300b7c58000a4c580000482530087
:104928000482ea00040343000e1290008041eb0069
:104938000081eb00854078000600780087010700b9
:104948000b003700e58c210095427800e6c5800011
:104958005e0a9000040343000e1290008041eb00b1
:104968000081eb0085407800060078007b01070095
:1049780074c38000e10f420005003a005e0a90000f
:1049880074c388000e12900014c388003b003700df
:1049980074c38000840278005e0a9000848f5200fd
:1049a8001c003600de0a90000e129000848242003d
:1049b80074c380000403780014c380000402430019
:1049c800848f520006003e00de0a90000e1290000e
:1049d8008482420074c38000848f52000300310037
:1049e8008e12900015c388000700370074c380003a
:1049f8008402780014c38000848242005e0a90001a
:104a08000482520014c388005e0a900074c38800b0
:104a18001a003700de0a90000e12900084824200cd
:104a280074c380000403780014c3800004024300a8
:104a3800848f52001100360074c38000840278000d
:104a480014c38000848242005e0a9000848f520062
:104a58000a00390015c380005e0b90000e1290000a
:104a68000403430074c380000403530014c380008c
:104a7800040253000482420014c388006e029000ae
:104a8800e00f52001b00320044c68000e70f5200be
:104a980002003200e4c58000f4c5880055c68000d5
:104aa8000408200004826200e00f52000500320072
:104ab80011c0b30000c1b30035f807003af0070091
:104ac8000c003700caf8a80055c68000040420006e
:104ad80004826200e00f520006003a00cad8a8001b
:104ae800183307000002be00040278007e0242006c
:104af80034c688000e5290000482fb0061026200f6
:104b080004427800e04f52005d003200b4c28000d9
:104b1800c5c2800061034200e0834a006e02900033
:104b28006120b8001e0a9000ae0a90000002420000
:104b380081824a00840f5300858f5b0050003a0041
:104b4800b4c28000c5c2800061024200e0824a000f
:104b5800b4c28800c5c2880044c680006123b8007a
:104b6800a4ff2f00f5ff2f000602420087824a00ab
:104b78003600200007002000860f5200878f5a0059
:104b880027003e00046001000300370008003700da
:104b98000f0037001d003700c400200044c68800fd
:104ba80011c0b30010c1b300f9f707003400370093
:104bb800b400200044c68800e23207000002be00ac
:104bc80004027800d403b00034c68800150037000a
:104bd80096c28000a7c280004e029000de029000bc
:104be800840f5300858f5b0005003a008040eb007e
:104bf80000c1b300e6f707002afb070020003700d2
:104c0800a400200044c68800060037008040eb005e
:104c180000c1b300def7070022fb070018003700c9
:104c28000000000011c0b30000c1b300d8f70700ae
:104c380013003700000000001100370000000000da
:104c48000f003700000000000d00370000000000d2
:104c58000b003700000000000900370000000000ca
:104c680007003700000000000500370000000000c2
:104c780003003700000000000100370000000000ba
:104c88000080fa00000006000e00fa006047980055
:104c98004107980052079800434f98006e429000d1
:104ca800e04f5200020032000002eb00a80037007b
:104cb8006e40900092ef07004e029000e00f520005
:104cc80002003a001400200044079800b5c580008f
:104cd80094c58000048252000402e9002407980069
:104ce800ce0290005e029000848242002e02900064
:104cf800848f5200020036000002eb009400370057
:104d0800a9ef07004e4a90000482fb00630262008c
:104d1800e00f520003003a004e4a90003440b300be
:104d2800444f98005e02900014079800ce0290004d
:104d38005e02900004824200ae029000048252009b
:104d4800240798004e4a90000482fb006202620029
:104d5800e00f5200100032004e4a90000482fb001f
:104d68006102620004427800e04f520006003200ff
:104d78002e0290000402d1009e029000048242009c
:104d880014079800040037009e0290002e0290003d
:104d9800048242001407980095c580001e02900006
:104da800048242000402e80024079800e4c5800059
:104db800040f780074c38000e10f42000d00320038
:104dc80074c380008402780014c380000482420007
:104dd8001e0f4200b4c580009e0f5200050031002e
:104de800b5c58000a4c58000048252000482ea0090
:104df8001e0f4200f4c580009e0f520010003100c3
:104e0800f5c580002e029000848f520023003100e7
:104e18004e4a90000482fb0064026200e00f5200d8
:104e2800020032000002eb00490037002e02900019
:104e3800f4c588002e029000e4c5880017003700ea
:104e4800f4c580009e0f520010003600a5c58000f2
:104e58002e029000848f5200100031004e4a9000bc
:104e68000482fb0064026200e00f5200020032007c
:104e78000002eb00360037002e029000f4c58800cf
:104e88002e029000e4c58800040037002e0290002e
:104e9800f4c588002e029000e4c58800f4c580009f
:104ea8009e0f52001b0036004e4a90000482fb0001
:104eb80064026200e00f520016003200a4c58000b0
:104ec8001e021200e68c210016437800a7c5800058
:104ed800e58c21009542780086417800070178002a
:104ee800854078002e0090001c000700e5c5800072
:104ef800f4c58000848f520006003100e5c58000ab
:104f0800a4c580002e0390000402530004824200ce
:104f1800e4c588002e029000a4c5880094c58000ce
:104f2800d4c2880094c58000d4c5880094c5800088
:104f3800c4c5880044c68000e70f520003003a0049
:104f480011c0b30000c1b30011f70700140020001e
:104f5800040078000080fa00000006000a00fa0049
:104f6800000f7800214798002207980063479800af
:104f7800440798006e4290000482fb00e00f520044
:104f88001a003200e10f520037003a002e4290001a
:104f98000482fb00e00f520009003200e10f5200ca
:104fa8002e003a00ae0290001e0278004e019000da
:104fb800850078000400780000ee07000a0037003a
:104fc8001e027800e10f4200020032001e00780045
:104fd800fa1407002e029000ce009000040078001a
:104fe8006d170700000000001f0037002e429000d8
:104ff8000482fb00e00f52000c003200e10f520067
:1050080018003a002e029000e10f42000200320020
:105018002e009000041507001e027800ce009000b4
:1050280004007800d11607000a0037004e019000ee
:10503800ae0090001e007800a415070000000000d4
:10504800a516070000027800e00f5200fcff3200ae
:10505800000000000000000003003700000000000e
:1050680001003700000000000080fa000000060080
:105078000200fa00000f78000080fa000000060025
:105088000000fa0084ce80000402e80084ce880084
:1050980084a620008002eb00050a780084a6200080
:1050a800150020001502980084a620002500200085
:1050b8002502980084a620003500200035029800bb
:1050c80084ce80002450880094ce80003453880019
:1050d8008f60a9008760a9000405800004c0a100b2
:1050e80004d0a10004e0a000040588000002eb0041
:1050f800b41c88009803a8009823a8009843a80027
:1051080098a3a8000080200071320700808a200040
:105118006f320700009520006d3207000440200020
:10512800841c880000000000851c8000040e2000fc
:105138008482620004082000848f5200faff3a003b
:1051480034002000941c8800a4392000a41c880086
:10515800148021008419880054802100c419880013
:105168000002eb000418880004802100441888001d
:105178004400210084188800c47f2100c4188800d6
:10518800c47f210004198800c47f210044198800c5
:1051980014002000741b880024002000f41a8800e2
:1051a80034002000741a8800040c2000241b880096
:1051b800040c2000a41a8800040c2000241a88007b
:1051c8000002eb00741c88000002eb00f41b88004e
:1051d8000002eb00841c880000000000851c800091
:1051e800040e200004826200e00f5200fbff3a0028
:1051f80084a42000a49a8800c49f2000949a880060
:1052080084a32000b49a8800c4a22000849a88004d
:105218000002eb00c49a88008f60a80054fb2500a8
:1052280084088800147a2000640888000002eb00d3
:105238003408880084c0a9008cc0a90011e1a80026
:10524800d4fb250094088800b4c42400740888009e
:1052580084e0a9008ce0a90013e1a8000002eb009b
:10526800c4518800b4e92800d45188000002eb003a
:10527800e451880014042000f451880044062000fa
:10528800045288000080fa00000006000000fa00be
:10529800d51c800004f02f008482620046528000f2
:1052a80004f02f0004026300848f52000a003600c5
:1052b80045528000f40f20000482620044528800a6
:1052c80045528000d61c800004f02f0004026300c1
:1052d8000482420044528800d51c8000f40f20004c
:1052e8008482620046528000f40f200004026300aa
:1052f800848f52000a0036004552800004f02f00c7
:10530800048262004452880045528000d61c800006
:10531800f40f200004026300048242004452880013
:1053280054342c004450880034122f005450880004
:10533800043a8000e44f8800260007004c0007006c
:10534800990207009107070084a6200094027800bc
:105358000400280004826200e00f520001003200bd
:10536800d10807003453800004508800055080009d
:1053780004538000048242000450880005508000d5
:1053880014538000048242000450880005508000b5
:105398002453800004824200045088000550800095
:1053a800e4528000048242000450880005508000c6
:1053b800d4528000048242000450880005508000c6
:1053c800c452800004824200045088000080fa0021
:1053d800000006000a00fa00180037008e00780066
:1053e80000802000813107009e02780044f82100e7
:1053f8008482620044402100848f520003003a00f6
:105408000e007800670107000c0037009e02780044
:1054180044f821008482620044502100848f5200a5
:1054280003003a000e0078008301070003003700ec
:10543800c45280000402e800c452880000802000a2
:105448001c31070000027800e00f5200e3ff3a0029
:105458007445800004538800344080001453880049
:10546800b44a8000245388000080fa000000060037
:105478000000fa00655180000410200004826200d8
:10548800e00f520006003a0084a6200014027800bb
:1054980068026200e00f5200010032005500070068
:1054a800250480000404200004826200e00f5200fa
:1054b8004e00320084c0a9006551800004202000fd
:1054c80004826200e00f520002003a00490007001f
:1054d80046003700845380000402e80084538800a3
:1054e80084538000670262008453880084538000dc
:1054f800050020007600200007002000860f5200db
:10550800878f5a0039003e00046001000700370009
:1055180008003700090037000a0037000b00370081
:105528000c0037000d0037000e003700310007006f
:105538002e003700520007002c0037002d0007000e
:105548002a003700780007002800370029000700e4
:1055580026003700890007002400370025000700cf
:1055680022003700945380000402e8009453880016
:1055780094538000e50f5200020036000002eb0051
:105588009453880094538000e00f520001003a00c1
:105598008f00070094538000e10f520001003a0089
:1055a8004c00070094538000e20f520001003a00bb
:1055b8009c00070094538000e30f520001003a005a
:1055c800b000070094538000e40f520001003a0035
:1055d800c400070094538000e50f520002003a000f
:1055e800d800070001003700000000000080fa0022
:1055f800000006000a00fa0004002400040f7800e6
:1056080084a62000140278001407980084a62000bd
:10561800140290002407980084a620002402900019
:105628003407980084a620003402900044079800ac
:10563800e13520000e0078001b310700645280001d
:105648000402e8006452880084a62000140278004e
:105658004322de00614262000482fb0061026200b4
:105668004822dd0066518000f5ef2f0085026300b7
:1056780005027200645188000080fa0000000600ec
:105688000a00fa00040a2a00040f78000420240003
:1056980044079800247d800034079800147d80001a
:1056a800240798000002eb00140798008e00780089
:1056b800808a2000b5300700741b800068026200f1
:1056c800e00f520001003a008760a8000080fa004d
:1056d800000006000a00fa00840a2a00040f780075
:1056e800042025004407980034858000340798007a
:1056f800b484800024079800a484800014079800cc
:105708008e007800808a2000a0300700741b80007b
:1057180068026200e00f520001003a008760a800aa
:105728000080fa00000006000a00fa00840b2a0034
:10573800040f780004202700440798000002eb00bb
:1057480034079800748d800024079800d48c80005a
:10575800140798008e007800808a20008b3007009c
:10576800741b800068026200e00f520001003a00da
:105778008760a8000080fa00000006000a00fa000e
:10578800040c2a00040f780004202800440798001d
:105798000002eb0034079800f4908000240798007a
:1057a80004918000140798008e007800808a2000f9
:1057b80076300700741b800068026200e00f520018
:1057c80001003a008760a8000080fa000000060087
:1057d8000a00fa00040c2a00040f7800142028009c
:1057e800440798000002eb003407980024918000d9
:1057f8002407980014918000140798008e00780000
:10580800808a200061300700741b800068026200f3
:10581800e00f520001003a008760a8000080fa00fb
:10582800000006000a00fa0084092a00040f780024
:1058380004202300440798006433210014027800f0
:105848003407980084332100140278002407980054
:10585800a433210014027800140798008e00780001
:10586800808a200049300700741b800068026200ab
:10587800e00f520001003a008760a8000080fa009b
:10588800000006000a00fa0084092a00040f7800c4
:105898001420230044079800c43321001402780020
:1058a80034079800e4332100140278002407980094
:1058b8000434210014027800140798008e00780040
:1058c800808a200031300700741b80006802620063
:1058d800e00f520001003a008760a8000080fa003b
:1058e800000006000a00fa0084092a00040f780064
:1058f800242023004407980024342100140278004f
:1059080034079800443421001402780024079800d2
:105918006434210014027800140798008e0078007f
:10592800808a200019300700741b8000680262001a
:10593800e00f520001003a008760a8000080fa00da
:10594800000006000a00fa0084092a00040f780003
:10595800342023004407980084342100140278007e
:1059680034079800a4342100140278002407980012
:10597800c434210014027800140798008e007800bf
:10598800808a200001300700741b800068026200d2
:10599800e00f520001003a008760a8000080fa007a
:1059a800000006000400fa00100798001e0290008c
:1059b800c4029000f4ff2000048f620015c0b300f9
:1059c800f40f20001e037800840f530001003e00ee
:1059d8008042eb0014c0b300f61f20009e0378003d
:1059e800868f5300010036000042eb0004c26200bb
:1059f800e04f52000b0032001e029000140390008a
:105a08001e029000a40290001e0290004402900022
:105a1800060178008500780004007800ac170700bc
:105a280003003700d45280000402e800d4528800f2
:105a38000080fa00000006001400fa00100f980019
:105a48001e0a9000140278004322de001407980012
:105a58001e0290006f026200140798001e02900058
:105a680015002000042add00240798001e0a900073
:105a78000482e80094027800350798001e0a900016
:105a88006402420094027800450798001e0a9000bc
:105a980034029000540798001e0a900044029000b7
:105aa800640798000060fe003e0290000470a100a8
