:020000040000fa
:080000000001040000000000f3
:020000040000fa
:100008009a0100009a0100009a0100009a0100007c
:100018009a0100009a0100009a0100009a0100006c
:100028009a0100009a0100009a0100009a0100005c
:100038009a0100009a0100009a0100009a0100004c
:100048009a0100009a0100009a0100009a0100003c
:100058009a0100009a0100009a0100009a0100002c
:100068009a0100009a0100009a0100009a0100001c
:100078009a0100009a0100009a0100009a0100000c
:100088009a0100009a0100009a010000a2050000f0
:100098009a0100009a0100009a0100009a010000ec
:1000a8009a0100009a0100009a0100009a010000dc
:1000b8009a0100009a0100009a0100009a010000cc
:1000c8009a0100009a0100009a0100009a010000bc
:1000d8009a0100009a0100009a0100009a010000ac
:1000e8009a0100009a0100009a0100009a0100009c
:0800f8009a0100009a010000ca
:020000040000fa
:100108009a0100009a0100009a0100009a0100007b
:100118009a0100009a0100009a0100009a0100006b
:100128009a0100009a0100009a0100009a0100005b
:100138009a0100009a0100009a0100009a0100004b
:100148009a0100009a0100009a0100009a0100003b
:100158009a0100009a0100009a0100009a0100002b
:100168009a0100009a0100009a0100009a0100001b
:100178009a0100009a0100009a0100009a0100000b
:100188009a0100009a0100009a010000a2050000ef
:100198009a0100009a0100009a0100009a010000eb
:1001a8009a0100009a0100009a0100009a010000db
:1001b8009a0100009a0100009a0100009a010000cb
:1001c8009a0100009a0100009a0100009a010000bb
:1001d8009a0100009a0100009a0100009a010000ab
:1001e8009a0100009a0100009a0100009a0100009b
:0801f8009a0100009a010000c9
:020000040000fa
:10020000aff020000e7f22000e01880000000000e9
:10021000000020000000e000020032000001200089
:10022000200288000c00070040a1210001002000ee
:1002300011000700000020000000e0000200320072
:100240000000020000000000c417020000000000cf
:100250000040da000000fe004440a9000000200039
:100260000000e0000300320000002000a001880030
:100270004440a8000000060091018800800078003a
:100280000000eb0015003700e280400032a0b4000f
:100290009101ba00e280400032a0b4009102ba009d
:1002a000e280400032a0b4000002eb00472bde00e9
:1002b000f507b200602ce10004003a000059eb00a1
:1002c0008301e900fdff3e00040037006128e100e2
:1002d000010032000082eb00040007001101ba00a7
:1002e0000200e000e8ff3a00000006003159ba00c1
:1002f0008301e9000c0032002159ba008301e900b2
:10030000080032000400e00003003a00e2804000f0
:1003100032a0b400f5ff370011d9ba008301e9001b
:10032000faff3a008100e800e180400032a0b4000a
:10033000000006000040da000000fe006022b80065
:10034000060220000000d0008180d2000482d2008a
:100350008582d2000000a0000202520083825a006f
:10036000030031000202420083824a000000a10023
:0c0370000603e900f3ff3a00000006005d
:020000040000fa
:10037c000000fa001400070082020700800007004a
:10038c00020007000080fa00000006000000fa00de
:10039c00250480000408200004826200e00f520053
:1003ac000700320084e0a900d45380000402e80066
:1003bc00d4538800145280000400a000145288000a
:1003cc000080fa00000006000a00fa00180037004e
:1003dc008e00780000802000d20b07009e0278006f
:1003ec0044f821008482620044402100848f520032
:1003fc0003003a000e0078001a0007000c003700ca
:10040c009e02780044f8210084826200445021004e
:10041c00848f520003003a000e007800ed040700b0
:10042c0003003700645380000402e8006453880022
:10043c00008020006d0b070000027800e00f5200d6
:10044c00e3ff3a0074458000a453880034408000d8
:10045c00b4538800b44a8000c45388000080fa006a
:10046c00000006000400fa00100798001e0290001d
:10047c00c4029000050f7800f4ff20009e02620079
:10048c00f40f2000848f520004003e00745380004f
:10049c000402e800745388001c003700f4ff2000ad
:1004ac009e026200f42f2000848f520003003e0055
:1004bc001e009000e60b070014003700f4ff20002c
:1004cc009e026200f43f2000848f520004003e0024
:1004dc00745380000402e800745388000b0037004a
:1004ec00f4ff20009e026200f44f2000848f520023
:1004fc0003003e001e0090000600070003003700ba
:10050c00745380000402e800745388000080fa00e1
:10051c00000006000200fa00000f78000080fa00cc
:10052c00000006001200fa005007980061079800be
:10053c0072079800030f980004002400040f780041
:10054c000e0a9000140798007e0290002407980071
:10055c006e029000340798005e02900044079800e9
:10056c00e13520000e0078009d0b0700045380003d
:10057c000402e800045388000080fa000000060022
:10058c000a00fa00250480000404200004826200a2
:10059c00e00f52007800320084c0a900e4538000c0
:1005ac000402e800e4538800e45380006702620010
:1005bc00e4538800e45380000500200076002000fe
:1005cc0007002000860f5200878f5a006a003e00f9
:1005dc0004600100070037000c0037001f003700d3
:1005ec002000370032003700370037004a00370050
:1005fc004b0037008001eb000001eb008000eb00aa
:10060c000000eb00c7ff07005b0037005c00070031
:10061c0000027800e00f52000e00320084092a001c
:10062c00040f780004082300440798000002eb0034
:10063c00340798000002eb00240798000002eb003e
:10064c0014079800e13420000e007800640b0700ba
:10065c00490037005f000700470037006d000700b6
:10066c0045003700848b2a00040f78000410270003
:10067c00440798000002eb00340798008466800061
:10068c002407980074668000140798008e00780088
:10069c00808a20000b0b0700741b8000680262002c
:1006ac00e00f520031003a008760a800320037009a
:1006bc008001eb000001eb008000eb000000eb0080
:1006cc0098ff07002c0037002d000700000278006f
:1006dc00e00f52000e00320084092a00040f78004b
:1006ec0004082300440798000002eb00340798002c
:1006fc000002eb00240798000002eb00140798009e
:10070c00e13420000e007800350b07001a0037008a
:10071c0030000700180037005300070016003700a0
:10072c00048c2a00040f7800141028004407980049
:10073c000002eb0034079800a46a8000240798009c
:10074c00946a8000140798008e007800808a20003c
:10075c00dc0a0700741b800068026200e00f520084
:10076c0004003a008760a800030037000000000076
:10077c0001003700000000000080fa0000000600b5
:10078c000200fa0024508000040f7800055080000d
:10079c00e41f240004826200e00f520002003200c9
:1007ac000002eb00040f780015508000e41f2400b9
:1007bc0004826200e00f5200020032000002eb00e3
:1007cc00040f78001e027800040078000080fa0004
:1007dc00000006000a00fa0084092a00040f7800c1
:1007ec0014082300440798000002eb00340798001b
:1007fc000002eb00240798000002eb00140798009d
:10080c00e13420000e007800f50a07000080fa00a1
:10081c00000006000a00fa00048a2a00040f78007f
:10082c000410240044079800645780003407980093
:10083c0054578000240798000002eb00140798001e
:10084c008e007800808a20009e0a0700741b8000ae
:10085c0068026200e00f520001003a008760a800b5
:10086c000080fa00000006000a00fa00048c2a003e
:10087c00040f780004102800440798000002eb00d5
:10088c0034079800746a800024079800846a8000fa
:10089c00140798008e007800808a2000890a0700cf
:1008ac00741b800068026200e00f520001003a00e5
:1008bc008760a8000080fa00000006000e00fa0015
:1008cc0050079800610798000002eb00040f7800b5
:1008dc006e029000240798005e02900014079800a6
:1008ec00e13420000e007800bd0a0700145380008c
:1008fc000402e800145388000080fa00000006008f
:10090c001000fa00500798006107980072079800d1
:10091c0044072a00040f78007e0290001407980008
:10092c005e029000240798006e029000e10f5200c6
:10093c0003003a0004102e00440798000200370010
:10094c0014102e0044079800e13420000e007800ab
:10095c00a30a0700145380000402e8001453880013
:10096c000080fa00000006000000fa008f60a90069
:10097c008760a9000405800004c0a10004d0a10078
:10098c0004e0a000040588000002eb00b41c880001
:10099c009803a8009823a8009843a80098a3a8003f
:1009ac0000802000980a0700808a2000960a070021
:1009bc0000952000940a070004402000841c880045
:1009cc0000000000851c8000040e20008482620060
:1009dc0004082000848f5200faff3a0034002000f3
:1009ec00941c880014392000a41c88001480210059
:1009fc008419880054802100c41988000002eb007f
:100a0c000418880004802100441888004400210048
:100a1c0084188800c47f2100c4188800c47f21007a
:100a2c0004198800c47f2100441988001400200098
:100a3c00741b880024002000f41a88003400200065
:100a4c00741a8800040c2000241b8800040c20005d
:100a5c00a41a8800040c2000241a88000002eb0061
:100a6c00741c88000002eb00f41b88000002eb00f1
:100a7c00841c880000000000851c8000040e2000ef
:100a8c0004826200e00f5200fbff3a00c4a5200074
:100a9c00e44f880004a12000d44f8800c4a4200097
:100aac00f44f880004a42000c44f88008f60a80075
:100abc0054fb250084088800147a20006408880000
:100acc000002eb003408880084c0a9008cc0a90087
:100adc0011e1a800d4fb250094088800b4c42400bc
:100aec007408880084e0a9008ce0a90013e1a80038
:100afc000002eb006452880004d82800745288006d
:100b0c00441f200084528800140420009452880052
:100b1c00940c2000a45288000002eb00c452880000
:100b2c0014002000b452880054002000d4528800d5
:100b3c000080fa00000006003600f800809fbe001e
:100b4c00829fbe00849fbe00869fbe000c00fa00f0
:100b5c008760a900545380000402e80054538800b5
:100b6c00751c80000408200004826200e00f520013
:100b7c0017003200741c800061026200e00f52000a
:100b8c000c003a00245380000402e800245388002f
:100b9c000e82e800e138200004007800b509070057
:100bac004e029000545088005e0290006450880001
:100bbc0006003700345380000402e80034538800e8
:100bcc00e1382000009520008d0907009603a9004c
:100bdc00f51b80000408200004826200e00f520024
:100bec003d003200445380000402e8004453880066
:100bfc00851b800044f8210084826200445021004f
:100c0c00848f520030003a00841b8000040f78005f
:100c1c001e0278004322de00040f78001e027800ca
:100c2c006f0f62001e02780015002000042add0000
:100c3c00040f7800b41b800061026200044278004b
:100c4c00e04f52000a003200045080001e02620085
:100c5c00e00f52000a003a00045080001e0272009d
:100c6c000450880014002000345088000400370021
:100c7c00055080001e82ea00048262000450880045
:100c8c00b41b800062026200e00f52000a003200c6
:100c9c00145080001e026200e00f52000a003a005d
:100cac00145080001e0272001450880014002000a2
:100cbc003450880004003700155080001e82ea0072
:100ccc000482620014508800e1372000008020006c
:100cdc004b0907009623a900741b80006802620070
:100cec00e00f52000c003a00808a20003f090700f8
:100cfc0000027800e00f520007003200e1362000bd
:100d0c00808a2000a00907009643a9009453800014
:100d1c000402e80094538800b51c800004022000f3
:100d2c0004826200e00f520005003200f452800091
:100d3c000402e800f452880096a3a90008003700ca
:100d4c00451780000400220004826200e00f52006c
:100d5c0002003200e9a2a90001003700e9a2a800b4
:100d6c00d41c8000e45288000080fa004f03be00bf
:100d7c004f02be004f01be004f00be003600f9000e
:100d8c00004006001200fa008b0237006802470090
:100d9c00840078000095200062090700ce009000c6
:100dac00310798003e0290004322de003407980081
:100dbc00be029000f40f20000482620034079800f9
:100dcc003e0290006f026200eb0f520000013e00e9
:100ddc003e0290004422de006123b8000082eb004a
:100dec008082eb000602420087824a0076002000d7
:100dfc0007002000860f5200878f5a0041003e00ea
:100e0c0004600100070037000d00370013003700a5
:100e1c00190037001f003700250037002b00370062
:100e2c003100370004b02000040f780004b5200016
:100e3c001407980004b320002407980032003700f0
:100e4c00a4d72000040f7800a4dc2000140798001d
:100e5c00a4da2000240798002b003700e4df2000e0
:100e6c00040f7800e4e4200014079800e4e220006a
:100e7c002407980024003700a4a82000040f780051
:100e8c00a4ad200014079800a4ab20002407980000
:100e9c001d00370044b72000040f780044bc20002c
:100eac001407980044ba2000240798001600370055
:100ebc00a4be2000040f7800a4c3200014079800df
:100ecc00a4c12000240798000f003700e4c62000be
:100edc00040f7800e4cb200014079800e4c920002c
:100eec002407980008003700e4ce2000040f780097
:100efc00e4d3200014079800e4d1200024079800c4
:100f0c0001003700000000003e0290006f026200fa
:100f1c0005002000b600200007002000860f5200bc
:100f2c00878f5a001f023e00046001000b0037003f
:100f3c0017003700230037002f0037003b00370025
:100f4c0047003700530037005f0037006b00370055
:100f5c007700370083003700900037008e0a90002e
:100f6c001e027800050a7800fe0290001e0278002e
:100f7c0015029800ee0290001e02780025029800df
:100f8c00de0290001e027800350298000a0237003b
:100f9c008e0a90001e02780045029800fe02900016
:100fac001e02780055029800ee0290001e02780096
:100fbc0065029800de0290001e027800750298000f
:100fcc00fd0137008e0a90001e027800050a980079
:100fdc00fe0290001e027800150a9800ee029000a6
:100fec001e027800250a9800de0290001e0278008e
:100ffc00350a9800f00137008e0a90001e02780026
:10100c00450a9800fe0290001e027800550a9800ce
:10101c00ee0290001e027800650a9800de02900035
:10102c001e027800750a9800e30137008e0a9000c2
:10103c001e02780005129800fe0290001e02780035
:10104c0015129800ee0290001e02780025129800ee
:10105c00de0290001e02780035129800d60137008f
:10106c008e0a90001e02780045129800fe02900035
:10107c001e02780055129800ee0290001e027800b5
:10108c0065129800de0290001e027800751298001e
:10109c00c90137008e0a90001e029000050a7800e4
:1010ac00fe0290001e02900015029800ee029000c5
:1010bc001e02900025029800de0290001e02900095
:1010cc0035029800bc0137008e0a90001e02900079
:1010dc0045029800fe0290001e02900055029800f6
:1010ec00ee0290001e02900065029800de02900055
:1010fc001e02900075029800af0137008e0a900016
:10110c002e029000050a7800fe0290002e0290003c
:10111c0015029800ee0290002e0290002502980015
:10112c00de0290002e02900035029800a2013700da
:10113c008e0a90002e02900045029800fe0290004c
:10114c002e02900055029800ee0290002e029000a4
:10115c0065029800de0290002e0290007502980045
:10116c00950137008e0a90002e029000050a980017
:10117c00fe0290002e029000150a9800ee029000dc
:10118c002e029000250a9800de0290002e0290009c
:10119c00350a980000000000870137008e0a900085
:1011ac002e029000450a9800fe0290002e0290003c
:1011bc00550a9800ee0290002e029000650a9800e5
:1011cc00de0290002e029000750a98007a0137001a
:1011dc003e0290006123b80044fe2f00f5ff2f0063
:1011ec000602420087824a002607200007002000e2
:1011fc00860f5200878f5a006c013e00046001007c
:10120c00820037006b0137006a0137006901370033
:10121c006801370067013700660137006501370048
:10122c006401370063013700620137006101370048
:10123c00600137005f0137005e0137005d01370048
:10124c005c0137009100370099003700bd00370072
:10125c005801370057013700560137005501370048
:10126c005401370053013700520137005101370048
:10127c00500137004f0137004e0137004d01370048
:10128c004c0137004b0137004a0137004901370048
:10129c004801370047013700460137004501370048
:1012ac004401370043013700420137004101370048
:1012bc00400137003f0137003e0137003d01370048
:1012cc00420037004a0037003a0137003901370035
:1012dc003801370037013700360137003501370048
:1012ec003401370033013700320137003101370048
:1012fc00300137002f0137002e0137002d01370048
:10130c004b003700510037005900370029013700d6
:10131c002801370027013700260137002501370047
:10132c002401370023013700220137002101370047
:10133c00200137001f0137001e0137001d01370047
:10134c00d0003700d8003700e00037001901370013
:10135c001801370017013700160137001501370047
:10136c001401370013013700120137001101370047
:10137c00100137000f0137000e0137000d01370047
:10138c00db003700e30037000a01370009013700a2
:10139c000801370007013700060137000501370047
:1013ac000401370003013700020137000101370047
:1013bc0000013700ff003700fe003700fd0037004a
:1013cc00dd003700e5003700ed0037000e0a900015
:1013dc00c47388007e029000e47388006e02900053
:1013ec00f47388005e02900004748800f2003700e9
:1013fc007e029000745788006e029000845788001b
:10140c005e02900094578800eb0037000e0a9000a3
:10141c00045b88007e029000145b88006e029000d2
:10142c00245b88005e029000345b8800e200370089
:10143c000e0a9000c47388007e0290001474880019
:10144c006e02900024748800db0037000e0a9000b6
:10145c00c47388007e029000347488006e02900081
:10146c00447488005e02900054748800d2003700e7
:10147c000e0a9000c45e88007e029000d45e880044
:10148c006e029000e45e8800cb0037000e0a9000dc
:10149c00d46e88007e029000e46e88006e0290008c
:1014ac00046f88005e029000f46e8800c200370062
:1014bc000e0a900005002000146f8800256f88002c
:1014cc00146f8000256f8000c022dd000400200016
:1014dc00146f8800256f8800166f8000276f8000be
:1014ec007e029000050020000602420087824a001e
:1014fc00146f8800256f88006e0290000500200094
:10150c00346f8800456f8800346f8000456f800011
:10151c00c022dd0004002000346f8800456f880075
:10152c00366f8000476f80005e029000050020003f
:10153c000602420087824a00346f8800456f88009b
:10154c009d0037000e0a90000500200006002000c8
:10155c0007002000a0de20000498be000690be000c
:10156c00a4de20005403be004402be0086037800b3
:10157c0005037800840278000002eb00a0de200056
:10158c000498be000690be00a4de20003400be000d
:10159c002401be007e029000050020000600200001
:1015ac00070020000002420081824a0002034b0027
:1015bc0083834b00a0de20000498be000690be0082
:1015cc00a4de20005403be004402be008603780053
:1015dc0005037800840278000002eb00a0de2000f6
:1015ec000498be000690be00a4de20003400be00ad
:1015fc002401be006e0290000500200006002000b1
:10160c00070020000002420081824a0002034b00c6
:10161c0083834b00a0de20000498be000690be0021
:10162c00a4de20005403be004402be0086037800f2
:10163c0005037800840278000002eb00a0de200095
:10164c000498be000690be00a4de20003400be004c
:10165c002401be005e029000050020000600200060
:10166c00070020000002420081824a0002034b0066
:10167c0083834b00a0de20000498be000690be00c1
:10168c004d0037000e0a9000546288007e029000d4
:10169c00646288006e029000746288005e029000a2
:1016ac0084628800440037000e0a9000a46288000f
:1016bc007e029000946288006e029000b4628800f2
:1016cc005e029000c46288003b0037000e0a900056
:1016dc00d46288007e029000e46288006e02900062
:1016ec00f46288005e0290000463880032003700c8
:1016fc000e0a9000946688007e029000a466880012
:10170c006e029000b46688005e029000c466880089
:10171c00290037000e0a9000d46688007e029000e3
:10172c00e46688006e029000f46688005e02900009
:10173c0004678800200037000e0a9000b46a880005
:10174c007e029000c46a88006e029000d46a880001
:10175c005e029000e46a8800170037000e0a9000c1
:10176c00f46a88007e029000046b88006e02900080
:10177c00146b88005e029000246b88000e0037000a
:10178c000e0a9000346b88007e029000446b880037
:10179c006e029000546b88005e029000646b8800af
:1017ac0005003700000000000300370000000000b7
:1017bc000100370000000000009520008b06070098
:1017cc0000027800e00f520070fd3a000080fa0031
:1017dc00000006000400fa00100798001e0290009a
:1017ec00140278004322de00040f78001e027800f9
:1017fc006f0f62001e0278006123b8000082eb00bc
:10180c008082eb000602420087824a0076002000ac
:10181c0007002000860f5200878f5a0095003e006b
:10182c00046001000700370017003700270037005d
:10183c003700370047003700580037006900370081
:10184c007a0037001e02900014029000a457880002
:10185c001e02900024029000b45788001e029000d3
:10186c0034029000c45788001e029000440290007d
:10187c00d4578800445080000410a00044508800c5
:10188c000060fe007f0037001e02900014029000e2
:10189c00746b88001e02900024029000846b8800f8
:1018ac001e02900034029000946b88001e0290007f
:1018bc0044029000a46b8800445080000420a000d7
:1018cc00445088000060fe006e0037001e0290003d
:1018dc0014029000946f88001e0290002402900065
:1018ec00a46f88001e02900034029000b46f880030
:1018fc001e02900044029000c46f88004450800087
:10190c000430a000445088000060fe005d003700e9
:10191c001e02900014029000f45388001e029000e6
:10192c0024029000045488001e029000340290009f
:10193c00145488001e029000440290002454880025
:10194c00445080000440a000445088000060fe0019
:10195c004c0037001e02900014029000445b88007b
:10196c001e02900024029000545b88001e0290001e
:10197c0034029000645b88001e02900044029000c8
:10198c00745b880045508000040220000502720040
:10199c00445088000060fe003a0037001e029000a0
:1019ac0014029000f45e88001e0290002402900045
:1019bc00045f88001e02900034029000145f8800bf
:1019cc001e02900044029000245f88004550800065
:1019dc000404200005027200445088000060fe00e0
:1019ec00280037001e029000140290001463880037
:1019fc001e02900024029000246388001e029000b6
:101a0c0034029000346388001e029000440290005f
:101a1c0044638800455080000408200005027200d1
:101a2c00445088000060fe00160037001e02900033
:101a3c0014029000146788001e029000240290008b
:101a4c00246788001e0290003402900034678800de
:101a5c001e029000440290004467880045508000ac
:101a6c000410200005027200445088000060fe0043
:101a7c0004003700845380000402e800845388007b
:101a8c000000000045508000e41f200084826200aa
:101a9c00e41f2000848f520004003a000002eb0087
:101aac00540888000002eb00445088000080fa00c3
:101abc00000006000a00fa00000f780012079800d8
:101acc002307980034079800450798001e027800f9
:101adc00144090006033b8001e029000ae029000db
:101aec003e019000ce01900001022b00ad030700d7
:101afc000080fa00000006000e00fa004007980073
:101b0c0051079800620798004e0290001402900052
:101b1c008402d1005e029000848f52005300360084
:101b2c006e0290004822de00044f78006e02900096
:101b3c00144798005e0290000402420014079800bb
:101b4c001e0290004822de00444798001e029000be
:101b5c00544798004e0290001442900004407800c4
:101b6c00ce03070000027800340798004e02900064
:101b7c001442900004407800e9030700000278004a
:101b8c00be02900005027200340798004e029000cd
:101b9c00944290004e0290001442780085407800e8
:101bac00044078002004070000027800be02900078
:101bbc0005027200340798004e0290001442900007
:101bcc00844078004e409000170407000002780013
:101bdc00be02900005027200340798004e0290007d
:101bec0014429000844078005e4090000e04070080
:101bfc0000027800be0290000502720034079800c3
:101c0c004e02900014429000844078001e409000d8
:101c1c000504070000027800be0290000502720065
:101c2c00340798004e0290001442900084407800d3
:101c3c001e407800fc03070000027800be029000f2
:101c4c0005027200340798004e0290001442900076
:101c5c00044078006404070000027800be02900083
:101c6c000502720034079800020037000082eb0076
:101c7c00340798000080fa00000006000c00fa00ff
:101c8c0040079800510798004e02900014029000f3
:101c9c008402d1005e029000848f52006c003600ea
:101cac005e02900004024200140798001e0290008d
:101cbc004822de00444798001e02900054479800ca
:101ccc004e02900014429000044078007303070009
:101cdc0000027800340798004e02900014429000e5
:101cec00044078008e03070000027800be029000ca
:101cfc0005027200340798004e0290009442900046
:101d0c004e02900014427800854078000440780020
:101d1c00c503070000027800be02900005027200a5
:101d2c00340798004e0290001442900084407800d2
:101d3c004e409000bc03070000027800be029000e9
:101d4c0005027200340798004e0290001442900075
:101d5c00844078005e409000b303070000027800d6
:101d6c00be02900005027200340798004e029000eb
:101d7c0014429000044078008a03070000027800a7
:101d8c00be02900005027200340798004e029000cb
:101d9c00944290004e029000144278000404a0007b
:101dac0085407800044078009f030700000278000b
:101dbc00be02900005027200340798004e0290009b
:101dcc001442900004407800ce0307000002780013
:101ddc00044f78004e0290001442900004407800aa
:101dec002204070000027800be0290000502720077
:101dfc00340798004e029000144290000440780082
:101e0c00c003070000027800144798004e029000af
:101e1c001442900004407800360407000002780059
:101e2c00be02900005027200340798004e0290002a
:101e3c001442900004407800eb0307000002780085
:101e4c00be029000050272003407980006003700ad
:101e5c000082eb00340798000042eb00044f78003e
:101e6c000042eb00144798001e4290000482fb00d5
:101e7c00140798001e0290004822dd0014079800f9
:101e8c009e4278000582fb009e0290000482420074
:101e9c00140798001e029000040078000080fa00dd
:101eac00000006001200fa00500798006107980025
:101ebc0072079800030f98007e029000e00f52000a
:101ecc00640032007e029000f00f520002003600d7
:101edc0004012000740798005e0290001402900028
:101eec00c522de006e029000848f5200570036002f
:101efc006e0290004522dd00240798002e0290000f
:101f0c004822de00644798002e0290007447980027
:101f1c005e0290001442900004407800df0207003b
:101f2c0000027800040f78005e02900014429000ca
:101f3c0004407800fa020700000278001e0f7200bd
:101f4c005e029000944290005e0290001442780071
:101f5c0085407800044078003303070000027800c5
:101f6c001e0f72005e0290001442900084407800b4
:101f7c006e4090002c030700000278001e0f7200c8
:101f8c005e02900014429000844078007e409000e5
:101f9c0025030700000278001e0f72000002eb0000
:101fac00140798001e0037001e0290000402420025
:101fbc008e0a900004824200140278004822de004f
:101fcc00044f98001e029000040242008e0a9000fa
:101fdc000482420014027800144f98005e029000b4
:101fec0014429000844078001e4890000e030700b5
:101ffc00000278001e0f72005e02900014429000e6
:10200c00844078000e489000070307000002780017
:10201c001e0f72001e0290000402e80014079800c4
:10202c009e0290007e029000848f5200deff3900e9
:10203c005e02900014429000044078006a0307008e
:10204c00000278001e0f7200020037000082eb00c5
:10205c00040f78000080fa00000006001200fa005d
:10206c00500798006107980072079800030f9800ba
:10207c007e029000e00f5200cc0032007e029000f5
:10208c00f00f520002003600040120007407980083
:10209c005e02900014029000c522de006e029000d9
:1020ac00848f5200bb0036006e0290004522dd008a
:1020bc00240798002e0290004822de006447980006
:1020cc002e029000744798005e029000144290001b
:1020dc00044078007102070000027800040f7800b9
:1020ec005e02900014429000044078008c020700bd
:1020fc00000278001e0f72005e0290009442900065
:10210c005e0290001442780085407800044078000c
:10211c00c5020700000278001e0f72005e029000dc
:10212c0014429000844078006e409000be0207007c
:10213c00000278001e0f72005e02900014429000a4
:10214c00844078007e409000b702070000027800bf
:10215c001e0f72005e029000144290000440780042
:10216c0090020700000278001e0f72005e029000c1
:10217c00944290005e029000144278000404a00087
:10218c008540780004407800a70207000002780020
:10219c001e0f72000002eb00140798003a00370083
:1021ac005e0290001442900004407800d5020700b3
:1021bc0000027800044f98005e02900014429000d8
:1021cc000440780029030700000278001e0f7200fb
:1021dc005e0290001442900004407800c90207008f
:1021ec0000027800144f98005e0290001442900098
:1021fc00044078001d030700000278001e0f7200d7
:10220c001e029000040242008e0a9000848242005a
:10221c001e4a90000482fb00840a78001e02900083
:10222c00040242008e0a9000848242001e0290003a
:10223c00040242000e0b90000402430014027800ca
:10224c004822dd00840a78001e029000040242003d
:10225c008e0a9000848242001e029000040242000a
:10226c000e0b900004024300140378000e4a9000f9
:10227c000482fb0004024300840a78001e029000d2
:10228c000402e800140798007e0290008402e90022
:10229c001e029000848f5200c1ff3e005e0290002f
:1022ac001442900004407800960207000002780067
:1022bc00044f98005e029000144290000440780095
:1022cc00ea020700000278001e0f72005e02900006
:1022dc0014429000044078008a0207000002780043
:1022ec00144f98005e029000144290000440780055
:1022fc0000030700000278001e0f72001e029000ff
:10230c00040242008e0a9000848242001e4a900011
:10231c000482fb00840a78001e0290000402420032
:10232c008e0a9000848242001e0290000402420039
:10233c000e0b900004024300140278004822dd00ca
:10234c00840a78001e029000040242008e0a90005b
:10235c00848242001e029000040242000e0b900088
:10236c0004024300140378000e4a90000482fb0020
:10237c0004024300840a78005e029000144290002c
:10238c000440780098020700000278001e0f7200cb
:10239c00060037000082eb00040f78000042eb00cf
:1023ac00044f98000042eb00144f98000080fa0094
:1023bc00000006001400fa0040479800310798000e
:1023cc004207980053079800640798007507980017
:1023dc00060f9800170f98003e029000f401b3000e
:1023ec00340798000e0b90009e0b9000463add00cf
:1023fc00ca32de00850272004632dd006e019000aa
:10240c00fe0190000400be00c9f707000002be00e8
:10241c00048fbe0004202000050020001e03be0017
:10242c00840f5300858f5b0003003e0014002000d6
:10243c00047888003200370034802000050020002a
:10244c001e03be00840f5300858f5b000d003e0001
:10245c0044002000047888001e02be004e2bdd00d4
:10246c004222de0004027300c22ade00048fbe008a
:10247c00be029000e4ff2f00048262003407980033
:10248c001f003700f4002200050020001e03be00d0
:10249c00840f5300858f5b000d003e00040120006b
:1024ac00047888001e02be004c2bdd004422de00a6
:1024bc0004027300c42ade00048fbe00be0290002a
:1024cc00d4ff2f0004826200340798000c00370000
:1024dc0004042000047888001e02be004a2bdd0094
:1024ec004622de0004027300c62ade00048fbe0002
:1024fc00be029000c4ff2f000482620034079800d3
:10250c00041c2000050020001e03be00840f530095
:10251c00858f5b0008003600047880004322dd00c4
:10252c0004788800be02900034fe2f000482620002
:10253c0034079800570037000418200005002000cd
:10254c001e03be00840f5300858f5b00090036000c
:10255c00047880006722b9000402780004788800af
:10256c00be02900074fe2f000482620034079800b3
:10257c004800370004142000050020001e03be0094
:10258c00840f5300858f5b000900360004788000af
:10259c006622b9000402780004788800be0290001c
:1025ac00b4fe2f0004826200340798003900370013
:1025bc0004102000050020001e03be00840f5300f1
:1025cc00858f5b0009003600047880006522b90015
:1025dc000402780004788800be029000f4fe2f00fc
:1025ec0004826200340798002a003700040c200093
:1025fc00050020001e03be00840f5300858f5b0076
:10260c0008003600047880004222dd00047888003f
:10261c00be02900034ff2f00048262003407980041
:10262c001c00370004082000050020001e03be001b
:10263c00840f5300858f5b000900360004788000fe
:10264c006322b9000402780004788800be0290006e
:10265c0074ff2f0004826200340798000d003700cd
:10266c0004042000050020001e03be00840f53004c
:10267c00858f5b000700360004788000040242005e
:10268c0004788800be029000b4ff2f000482620020
:10269c0034079800047880004222dd00047888001a
:1026ac004e429000e14f520004003a003e0290006e
:1026bc00141188005e039000061188004e429000b1
:1026cc00e24f520004003a003e0290004411880090
:1026dc005e039000361188000080fa0000000600ae
:1026ec000c00fa0040079800214f98000042eb00c4
:1026fc00044f78002e4a9000e14f520054003a00eb
:10270c008500a9004e029000241188000002eb0005
:10271c0034079800180037003e0290000402e800cd
:10272c003407980004788000be029000848f520019
:10273c000300360034c0b300044f78000e0037009d
:10274c00051180000404200004826200e00f520096
:10275c000300320044c0b300044f78000600370079
:10276c000411800062026200e00f520002003a0085
:10277c0014c0b300044f78001e427800e04f5200a2
:10278c00e5ff3200200037003e0290000402e80012
:10279c003407980004788000be029000848f5200a9
:1027ac000300360034c0b300044f78001600370025
:1027bc00051180000404200004826200e00f520026
:1027cc000300320044c0b300044f78000e00370001
:1027dc00250480000410200004826200e00f5200e7
:1027ec000300320024c0b300044f78000600370009
:1027fc000411800061026200e00f520002003200fe
:10280c0024c0b300044f78001e427800e14f520000
:10281c00ddff32001e427800e24f520005003a0004
:10282c00241180000500200014079800250798004b
:10283c000700370004002000151121001407980030
:10284c0025079800147880000402e80014788800aa
:10285c002e4a9000e24f52004d003a008740a900ea
:10286c004e029000541188000002eb0034079800cf
:10287c00180037003e0290000402e800340798006c
:10288c0004788000be029000848f52000300360052
:10289c0034c0b300044f78000e00370035118000af
:1028ac000404200004826200e00f52000300320096
:1028bc0044c0b300044f7800060037003411800088
:1028cc0062026200e00f520002003a0014c0b30032
:1028dc00044f78001e427800e04f5200e5ff3200b2
:1028ec00190037003e0290000402e80034079800fb
:1028fc0004788000be029000848f520003003600e2
:10290c0034c0b300044f78000f003700351180003d
:10291c000404200004826200e00f52000300320025
:10292c0044c0b300044f7800070037003504800022
:10293c000440200004826200e00f520002003200ca
:10294c0024c0b300044f78001e427800e14f5200bf
:10295c00e4ff32001e427800e24f520005003a00bc
:10296c0054118000050020001407980025079800da
:10297c0007003700040020001511210014079800ef
:10298c0025079800247880000402e8002478880049
:10299c001e029000ae0290000400be000080fa00ff
:1029ac00000006001400fa00404798003107980018
:1029bc004207980053079800640798007507980021
:1029cc00060f9800170f98004e019000de01900042
:1029dc006e009000fe00900055f607000002be004d
:1029ec00048fbe001e0278004422dd00447888006b
:1029fc006e029000fe02900052cd2d0023032000a9
:102a0c000400be004af607000002be001e1f1200a2
:102a1c001e971a000082eb008082eb001e0f420012
:102a2c005e974a001e03be00140020000500200023
:102a3c00840f5300858f5b0003003e0024002000b0
:102a4c0005002000048fbe00f4ff2f0005002000bd
:102a5c001e03be00840f5300858f5b0003003600fd
:102a6c002400200005002000048fbe004e42900080
:102a7c00e04f5200030032004e429000e14f5200f2
:102a8c0004003a00be029000351088001e02780047
:102a9c00241088000080fa00000006000600fa00ee
:102aac00404798000002eb00140798004e4290003b
:102abc00e04f5200030032004e429000e14f5200b2
:102acc0013003a000002eb00040f78000b003700f3
:102adc001e0fe800447880009e027800848f52001c
:102aec000600360004a02f001407980034788000ec
:102afc000402e80034788800050037004510800097
:102b0c000400240004826200e00f5200f0ff3a003f
:102b1c001e029000040078000080fa0000000600fd
:102b2c000600fa00404798000002eb0014079800da
:102b3c004e429000e04f5200030032004e42900093
:102b4c00e14f520013003a000602a8000002eb000d
:102b5c00040f78000b0037001e0fe800447880004b
:102b6c009e027800848f52000600360004a02f00cd
:102b7c0014079800347880000402e8003478880048
:102b8c00040037003410800061026200e00f520034
:102b9c00f1ff3a001e029000040078000080fa0059
:102bac00000006000600fa00404798000002eb0007
:102bbc00140798004e429000e04f52000300320080
:102bcc004e429000e14f520013003a000622a8003a
:102bdc000002eb00040f78000b0037001e0fe8001a
:102bec00447880009e027800848f520006003600e4
:102bfc0004a02f0014079800347880000402e80029
:102c0c0034788800040037003410800062026200bf
:102c1c00e00f5200f1ff3a001e0290000400780011
:102c2c000080fa00000006000600fa0040479800f9
:102c3c00514798000002eb00140798005e42900088
:102c4c00e04f5200030032005e429000e14f520010
:102c5c0028003a004e4290000482fb0014108800b9
:102c6c000002eb00040f78000c0037001e0fe80088
:102c7c00447880009e027800848f52000700360052
:102c8c0004a02f0014079800347880000402e80098
:102c9c0034788800000000001100370045108000d7
:102cac000400240004826200e00f5200efff3200a7
:102cbc000b0037001e0fe800447880009e0278005d
:102ccc00848f52000600360004a02f0014079800d1
:102cdc00347880000402e80034788800050037005e
:102cec00451080000400240004826200e00f5200b2
:102cfc00f0ff3a001e029000040078000080fa00f9
:102d0c00000006000600fa00404798000002eb00a5
:102d1c00140798004e429000e04f5200030032001e
:102d2c004e429000e14f52002b003a000662a80080
:102d3c000002eb00040f78000c0037001e0fe800b7
:102d4c00447880009e027800848f52000700360081
:102d5c0004a02f0014079800347880000402e800c7
:102d6c003478880000000000100037003410800018
:102d7c0068026200e00f5200f0ff3a000b003700cf
:102d8c001e0fe800447880009e027800848f520069
:102d9c000600360004a02f00140798003478800039
:102dac000402e800347888000400370044108000e6
:102dbc0062026200e00f5200f1ff32001e0290002e
:102dcc00e00f520004003a0005108000f40f2000c0
:102ddc0004826200140798001e0290000400780020
:102dec000080fa00000006000600fa004047980038
:102dfc000002eb00140798004e429000e04f520086
:102e0c00030032004e429000e14f520013003a0092
:102e1c000642a8000002eb00040f78000b003700fc
:102e2c001e0fe800447880009e027800848f5200c8
:102e3c000600360004a02f00140798003478800098
:102e4c000402e80034788800040037003410800055
:102e5c0064026200e00f5200f1ff3a001e02900083
:102e6c00040078000080fa00000006000600fa005a
:102e7c00404798000002eb00040f78000002eb00c2
:102e8c00140798004e429000e04f520003003200ad
:102e9c004e429000e14f520012003a0006a2a900e7
:102eac000682a8000b0037001e0fe8004478800053
:102ebc009e027800848f52000600360004a02f007a
:102ecc0014079800347880000402e80034788800f5
:102edc00040037003410800070026200e00f5200d2
:102eec00f1ff3a001e029000040078000080fa0006
:102efc00000006000600fa00404798000002eb00b4
:102f0c00040f78000002eb00140798004e4290006a
:102f1c00e04f5200030032004e429000e14f52004d
:102f2c0012003a0006a2a8000682a8000b00370087
:102f3c001e0fe800447880009e027800848f5200b7
:102f4c000600360004a02f00140798003478800087
:102f5c000402e80034788800040037003410800044
:102f6c0070026200e00f5200f1ff3a001e02900066
:102f7c00040078000080fa00000006000000fa004f
:102f8c0079f607008000070004052000047688000d
:102f9c00140520001476880024052000247688006f
:102fac0034052000347688004405200044768800df
:102fbc00540520005476880064052000647688004f
:102fcc0074052000747688008405200084768800bf
:102fdc009405200094768800a4052000a47688002f
:102fec00b4052000b4768800c4052000c47688009f
:102ffc00d4052000d4768800e4052000e47688000f
:10300c00f4052000f476880003ec20000201200077
:10301c0051002000c0e92000a2fb070001052000a0
:10302c00c0e9200015fb0700000278000475880039
:10303c0011052000c0e9200010fb070000027800f9
:10304c001475880021052000c0e920000bfb070047
:10305c00000278002475880031052000c0e92000aa
:10306c0006fb07000002780034758800410520003b
:10307c00c0e9200001fb07000002780044758800bd
:10308c0051052000c0e92000fcfa0700000278007e
:10309c005475880061052000c0e92000f7fa07008c
:1030ac00000278006475880071052000c0e92000da
:1030bc00f2fa070000027800747588008105200080
:1030cc00c0e92000edfa0700000278008475880042
:1030dc0091052000c0e92000e8fa07000002780002
:1030ec0094758800a1052000c0e92000e3fa0700d0
:1030fc0000027800a4758800b1052000c0e920000a
:10310c00defa070000027800b4758800c1052000c3
:10311c00c0e92000d9fa070000027800c4758800c5
:10312c00d1052000c0e92000d4fa07000002780085
:10313c00d4758800e1052000c0e92000cffa070013
:10314c0000027800e4758800f1052000c0e9200039
:10315c00cafa070000027800f475880003ee20001c
:10316c00b200200051002000c0e92000bbfb07008a
:10317c0084382100846688000471220074668800fb
:10318c007bf40700feff37000000fa00c0e2a90044
:10319c00e5a2a90004cab300040078009ceeb700b5
:1031ac000042eb00040078009deeb7000400220002
:1031bc00f474880004a821006500200002d02200cd
:1031cc0013132000c0e920003afa07000080fa002f
:1031dc0000000600100190009000780001005100e2
:1031ec000000e900f000b2000000060010019000a1
:1031fc009000780002805000f000b2000000060041
:10320c001170a6001a003700e40140009309e80091
:10321c00900190001001e800f200b2000310e100f0
:10322c0010003200100178006a11b800e80140006b
:10323c00828141006e815000921978006601410034
:10324c00b2197800b2197800b2197800b219780066
:10325c001001e800f200b20002087800e60140001c
:10326c009309e900e60140009309e8001170a10000
:10327c00000006001170a600090037006e81500096
:10328c001218780066014100321878003218780064
:10329c0032187800321878001170a100080037003d
:1032ac00827f2100021878000200200002187800aa
:1032bc0002187800021878000218780031003700e4
:1032cc0000000600e40140009309e8009001900022
:1032dc001001e800f200b2000310e1000e00320011
:1032ec00100178006a11b800e801400082814100a9
:1032fc00b1197800b1197800b1197800b1197800ba
:10330c00b11978001001e800f200b2000208780050
:10331c00e60140009309e900e60140009309e8004a
:10332c000000060010019000900178000310e100ed
:10333c0008003a00837f21008318780003002000e6
:10334c008318780083187800831878008318780025
:10335c000c0037006a11b8006801410000014100ff
:10336c00b2187800b2187800b2187800b218780049
:10337c00b2187800100190000201e800f200b200cf
:10338c0012009800000006001130a700130037004f
:10339c0010019000900178000310e1000f00320042
:1033ac006a11b8006801410000014100ee81500033
:1033bc00b2097800e6814100b2197800b2197800a0
:1033cc00b2197800b21978001130a00010019000e9
:1033dc000201e800f200b2001200980000000600a2
:1033ec001130a1006e815000300978006601410057
:1033fc0030197800301978003019780030197800bd
:10340c001130a000000006000018eb000018eb00c3
:0c341c000018eb000008eb0000000600a8
:020000040000fa
:10342800060f00000400000000000000000f00006c
:1034380006000000000000009c0e00006400000070
:1034480000000000000800009c06000000000000ca
:043458000000000070
:020000040000fa
:10345c000400fa00100798001e029000c4029000ad
:10346c00050f7800745380000402e8007453880040
:08347c000080fa0000000600c8
:020000040000fa
:0200000401f009
:04000000efbf00004e
:020000040000fa
:0200000401f009
:04000400e7ff000012
:020000040000fa
:0200000401f009
:040008004cff0000a9
:020000040000fa
:0200000401f009
:04000c00ffff0000f2
:020000040000fa
:0200000401f009
:04001000ffff0000ee
:020000040000fa
:0200000401f009
:04001400ffff0000ea
:020000040000fa
:0200000401f009
:04001800ffff0000e6
:00000001FF
