:020000040000fa
:080000000001040000000000f3
:020000040000fa
:10000800504d0000504d0000504d0000504d000074
:10001800504d0000504d0000504d0000504d000064
:10002800504d0000504d0000504d0000748a0000f3
:10003800504d0000504d0000504d0000504d000044
:10004800504d0000504d0000504d0000504d000034
:10005800504d0000504d0000504d0000504d000024
:10006800504d0000504d0000504d0000504d000014
:10007800504d0000504d0000504d0000504d000004
:10008800504d0000504d0000504d000094340000c9
:10009800504d0000504d0000504d0000504d0000e4
:1000a800504d0000504d0000504d0000504d0000d4
:1000b800504d0000504d0000504d0000504d0000c4
:1000c800504d0000504d0000504d0000504d0000b4
:1000d800504d0000504d0000504d0000504d0000a4
:1000e800504d0000504d0000504d0000504d000094
:0800f800504d0000504d0000c6
:020000040000fa
:10010800504d0000504d0000504d0000504d000073
:10011800504d0000504d0000504d0000504d000063
:10012800504d0000504d0000504d0000748a0000f2
:10013800504d0000504d0000504d0000504d000043
:10014800504d0000504d0000504d0000504d000033
:10015800504d0000504d0000504d0000504d000023
:10016800504d0000504d0000504d0000504d000013
:10017800504d0000504d0000504d0000504d000003
:10018800504d0000504d0000504d000094340000c8
:10019800504d0000504d0000504d0000504d0000e3
:1001a800504d0000504d0000504d0000504d0000d3
:1001b800504d0000504d0000504d0000504d0000c3
:1001c800504d0000504d0000504d0000504d0000b3
:1001d800504d0000504d0000504d0000504d0000a3
:1001e800504d0000504d0000504d0000504d000093
:0801f800504d0000504d0000c5
:020000040000fa
:100200004fa621000e7f22000e0188000000000092
:10021000000020000000e000020032000001200089
:10022000200288000c00070020cb280001002000dd
:1002300011000700000020000000e0000200320072
:100240000000020000000000823c020000000000ec
:100250000040da000000fe004440a90060152000c4
:100260000000e0000300320000002000a001880030
:100270004440a8000000060091018800800078003a
:100280000000eb0015003700e280400032a0b4000f
:100290009101ba00e280400032a0b4009102ba009d
:1002a000e280400032a0b4000002eb00472bde00e9
:1002b000f507b200602ce10004003a000059eb00a1
:1002c0008301e900fdff3e00040037006128e100e2
:1002d000010032000082eb00040007001101ba00a7
:1002e0000200e000e8ff3a00000006003159ba00c1
:1002f0008301e9000c0032002159ba008301e900b2
:10030000080032000400e00003003a00e2804000f0
:1003100032a0b400f5ff370011d9ba008301e9001b
:10032000faff3a008100e800e180400032a0b4000a
:10033000000006006022b800060220000000d00085
:100340008180d2000482d2008582d2000000a00009
:100350000202520083825a0003003100020242006e
:1003600083824a000000a1000603e900f3ff3a007f
:1003700000000600889fbe008a9fbe003004be00b9
:100380002005be000404440085844c0006054d0091
:1003900087854d000898be000a90be000440e10029
:1003a00005c8e10006d0e10007d8e10002003100f5
:1003b000680040001008e8004f05be004f04be0072
:1003c000000006001000fa00889fbe008a9fbe0051
:1003d000110020000605be000404be003002be006d
:1003e0002003be00c4b79f00d5b79f00e6b79f00ab
:1003f000f7b79f000802520089825a000a035b0087
:100400008b835b0084bf9f0095bf9f00a6bf9f00aa
:10041000b7bf9f000498be000698be004fb2970079
:10042000dfb297006fb39700ffb397000820e10099
:1004300009a8e1000ab0e1000bb8e10001003900b1
:100440008000eb004f05be00108810004f04be0076
:100450000080fa00000006001400fa00889fbe0029
:100460008a9fbe008c9fbe000006eb003e00070086
:10047000ccb79f00bcb79f00acb79f009cb79f0054
:100480008cb79f000605be000404be000d042000ca
:100490004fb39700bfb29700860343002fb2970077
:1004a000e00f530004003d003d0007000f00400036
:1004b000b0ff070003003700390007000f004000bd
:1004c000c0ff0700cfb2970095bf9f00e08f52009a
:1004d000090035002b000700140020000500200053
:1004e0006033b80000007200818072000201730066
:1004f000838173001c0007000c06e8008d0f560076
:10050000e3ff3a001fba9700e00f520005003d00dc
:100510000802be000a03be0000fe2f000f004000cc
:1005200094ff07004faa9700e00f520008003a001e
:100530000fb497009fb497002fb59700bfb59700f1
:10054000d8b79f00e9b79f00fab79f008bbf9f0005
:100550000c0007004f06be004f05be004f04be0052
:100560000080fa00000006000100070000000600fd
:1005700090b79f00a1b79f00b2b79f00c3b79f007d
:100580000000060001000700000006001fb09700f1
:10059000afb097003fb19700cfb1970000000600c1
:1005a0004f2bde00f9ff070086837300858242002f
:1005b0004f23de00a7b79f0086827200040242002c
:1005c00095b79f00ffaa97004f2bde00858242005f
:1005d0000602720084b79f006faa97004f23de00c7
:1005e0000402420086827200f5af9f004f18de00c1
:1005f00000027200e5ff0700e4af9f00000040002a
:100600008180480002014900838149000802be0040
:100610000a03be00d6ff070000fe2f000000060000
:10062000881f780018002000881f78008aff0700c4
:100630008f87e9004f04780000000600801feb0060
:1006400085ff07008f87e90000000600889fbe0035
:100650008a9fbe00e00f5000e08f5800e00f590065
:10066000e08f59000c003d006044b8006055b800b0
:100670000000540081805c0002015d0083815d0008
:10068000180020001500070008003d0018000700b2
:100690000004eb00050037000004eb000f0007002a
:1006a00002003d001200070018002000dcff0700d8
:1006b000e00f5400060032006022b8006033b8003a
:1006c0000000520081805a0002015b0083815b00c0
:1006d0004f05be004f04be0000000600e00f5200b0
:1006e000e08f5a00e00f5b00e08f5b000000060027
:1006f0006044b8006055b8000402540085825c0074
:1007000006035d0087835d0000000600889fbe0031
:100710008a9fbe008c1f7800e00f5000e08f5800c9
:10072000e00f5900e08f59000d003d006044b80013
:100730006055b8001c0020000000540081805c005f
:1007400002015d0083815d000820e10009a8e1004d
:100750000ab0e1000bb8e1000d003d0008003700d1
:100760000006eb00e00f5200e08f5a00e00f5b0044
:10077000e08f5b0006003d006044b8006055b800a3
:100780000402540085825c0006035d0087835d00df
:10079000aaff0700e00f5600060032006022b800f2
:1007a0006033b8000000520081805a0002015b00f3
:1007b00083815b004f0678004f05be004f04be00ea
:1007c000000006000002780002003700315a78006d
:1007d0000201e900e00f5100fcff3a0000000600b2
:1007e0000002780002003700015a78000201e90097
:1007f000e00f5100fcff3a00000006000002780004
:100800008042eb00b4cf1200fdff3a000080ea0006
:1008100000004200000006000002780006003700d9
:10082000314378000201e900065a7800840278001a
:10083000e04f53000600320084027800e00f5100c0
:10084000f7ff3a0002003700805aeb000201e9008e
:0c085000e00f5100fcff3a000000060021
:020000040000fa
:10085c00ff0f0000ff0f0000ff0f0000ff0f000054
:10086c00ff0f0000ff0f0000ff0f0000ff0f000044
:10087c00ff0f0000ff0f0000ff0f0000ff0f000034
:10088c00ff0f0000ff0f0000ff0f0000850f00009e
:10089c000a0f00008f0e0000140e0000700d0000f7
:1008ac00f50c00007a0c0000ff0b0000850b00001b
:1008bc00000000000000000000000000000000002c
:1008cc00000000000000000000000000000000001c
:1008dc00000000000000000000000000000000000c
:1008ec0000000000000000000000000000000000fc
:1008fc0000000000000000000000000000000000ec
:10090c0000000000000000000000000000000000db
:10091c0000000000000000000000000000000000cb
:10092c0000000000000000000000000000000000bb
:10093c0000000000000000000000000000000000ab
:10094c00000000000000000000000000000000009b
:10095c0028230000803e0000803e0000803e000006
:10096c00803e0000004b0000004b0000004b0000dc
:10097c00004b000000000000000000000000000020
:10098c00000000000000000000000000000000005b
:10099c00983a0000983a0000983a0000983a000003
:1009ac00983a0000983a0000983a0000983a0000f3
:1009bc00000000000000000000000000000000002b
:1009cc00000000000000000000000000000000001b
:1009dc009c1800000807000008070000204e0000cb
:1009ec000807000008070000204e00000807000060
:1009fc0008070000204e0000080700000807000050
:100a0c00204e00000000000000000000000000006c
:100a1c00060500000403000002010000161500008a
:100a2c0014130000121100002625000024230000de
:100a3c002221000036350000343300003231000032
:100a4c00000000000000000000000000000000009a
:100a5c00000000000080000000000000008000008a
:100a6c00000000000080000000000000008000007a
:100a7c00000000000080000000000000008000006a
:100a8c00000000000080000000000000008000005a
:100a9c00000000000000000000000000000000004a
:100aac00000000000000000000000000000000003a
:100abc00000000000000000000000000000000002a
:100acc00000000000000000000000000000000001a
:100adc0000500000c2b4000020000000455400008b
:100aec004d4200004f410000524400000000000045
:0c0afc000c00000020030000640000005b
:020000040000fa
:100b08000200fa00004f780004a621001442780081
:100b18009e4f52001f00320004a6210014427800a4
:100b2800e24f42000b00320004a621001442780074
:100b38000482fb007e22b90084027800a48b210085
:100b480004824200e2012000c193210004007800e1
:100b58001aff07001e40780060fab7001e427800ae
:100b6800e24f42000d0032009e4278000582fb00f1
:100b78007e22b90084027800a48b210004824200fe
:100b8800e201200084007800c09321000bff0700d9
:100b980003003700000000000100370000000000db
:100ba8000080fa00000006000000fa0015a62100e7
:100bb8009542780004a621001442780084cf5200a0
:100bc8002f00320014a6210014427800e24f4200a0
:100bd8001a003200878d210014a6210014427800e3
:100be8000482fb007e22b90004027800fc02420065
:100bf800a48b2100048242001443780014a621002b
:100c0800144278000482fb007e22b9008402780036
:100c1800a48b2100048242001402780085fd2f0075
:100c2800848242008402200013c0b30007017800c8
:100c38008640780005007800c810070004a6210047
:100c4800144278000400780061fab7008595210005
:100c580095427800e4c9800087fd2f008483430013
:100c6800868d2100840220008541780007017800e4
:100c780011c0b30006007800b81007000100370063
:100c8800000000000080fa00000006000c00fa00d6
:100c980004a2210014079800f4d28000e00f52004b
:100ca80008003a00842f07000002be008402780082
:100cb800f47f200084826200044020000482420005
:100cc800f4d28800c20320008000eb0000902100cd
:100cd800c1fe07000042eb00444798000042eb00c9
:100ce800044f78004e0037001e40780084ff07004c
:100cf8001e4078000082fb006622b900840278005a
:100d0800e457280004824200944290005547980016
:100d18001e4078000082fb006622b90004027800b9
:100d28008482e800e4572800048242009402780094
:100d3800350798001e4078000082fb006622b90043
:100d480004027800e4024200e457280004824200ca
:100d580094027800450798005e4290000482fb00e8
:100d6800e00f5200010032002c0037001e009000f6
:100d780050079800be0290004e0290008482420004
:100d88001e02900004824200a402b00014079800da
:100d98009e029000c4ff2100848f5200fcff3e0099
:100da8005e40900058f9b7005e0290008402b000df
:100db800e4c98800e5c980003e0290000482420030
:100dc8000402e800f4c98800f5c980004e029000ca
:100dd8000482420004ca8800d400200094ca880013
:100de8005479a90070ff07009e4278000582fb0035
:100df8006622b90084027800e45728000482420081
:100e0800144278000002fd00fff8b7000002fd0060
:100e1800a40a07001e4fe80001003700ffff370053
:100e28001e427800e04f5200afff32000080fa0007
:100e3800000006000c00fa0010079800210798002f
:100e48006247980043079800244f98000042eb003f
:100e5800044f78007e0037001e40780028ff070006
:100e680094ca8000ed0f520075003a004eff07004b
:100e7800f58f2100954278002e4a900084cf5200c9
:100e880071003a0084212000e4c788006e42900077
:100e9800e04f520008003a004e02900044c7880014
:100ea8005479a8004400200094ca8800ce0290001b
:100eb800b5ca880060003700f5d28000f43f2000f2
:100ec800848f520004003600f5d280008438210057
:100ed800848f52000200360004402000f4d28800bb
:100ee800f4d2800044c788000402e800f4d28800e5
:100ef800ce03900037c78800184107000002be00e3
:100f080054ca880065ca88005499a8006e429000a7
:100f18000482fb00e30f520003003200e40f52008a
:100f28001a003200440037000e82e8009402900054
:100f38000e82e80014027800848242004e0290007b
:100f48008482420044c7800004826a00b4ca8800d0
:100f58001e029000ae02900074c7880085c7880002
:100f68000042eb000002fd00fef8b7000002fd00a1
:100f7800c404200005002000c4c68800d5c6880027
:100f88002400200094ca88002b0037001e0290001d
:100f9800ae02900004027800840278002542900096
:100fa8000483fb00354290000482fb004822dd00e8
:100fb80086027800848272000502780004037800b3
:100fc8001e029000ae02900004027800944378005c
:100fd8008782fb00144290000482fb004822dd0057
:100fe8008503780084837300070278008402430035
:100ff8004e0290008482420044c7800004826a0046
:10100800b4ca88001e029000ae0290000402780064
:10101800a200200084007800e08e2100e7fd070090
:101028005400200094ca880011c0b30020c0b30047
:10103800d7060700000000001e42780008003700ad
:101048000000000001003700000000001e4fe8000b
:101058001e427800e04f52007fff3200e4cfb30019
:10106800044078000080fa00000006000200fa0040
:10107800004f78001e427800e04f52000200320014
:10108800140020000b0037001e4078009cfe07006b
:10109800a5ca80000400210004826200e00f52000b
:1010a800030032005599a900140020000100370000
:1010b8000002eb00040078000080fa00000006003f
:1010c8000200fa00004f78001e427800e04f5200fc
:1010d800020032000002eb00080037001e407800d2
:1010e80087fe070094ca800067026a0004f0a70020
:1010f8000402ea000402e9004f22de00040078003e
:101108000080fa00000006000200fa00004f780094
:101118001e427800e04f520044003a001e4078001a
:1011280077fe070034ca800044ca880094ca800049
:1011380005002000e600200007002000860f52006e
:10114800878f5a0033003e00046001000e0037000c
:10115800300037000c0037000b0037002d00370037
:10116800090037000a003700090037002900370056
:101178002800370027003700140037002500370003
:101188002400370020003700c60907002800370070
:1011980011c0b30010c1b3007d06070054c780001a
:1011a800e00f52000500320015ca800024c78000f5
:1011b800848f5200f6ff3a0001003700000000005b
:1011c8008400200094ca88001900370011c0b300b9
:1011d80010c1b3006e06070054c78000e00f52002c
:1011e8000500320015ca800024c78000848f520091
:1011f800f6ff3a000100370000000000c40020009c
:1012080094ca88000a003700d400200094ca8800d5
:10121800070037008040eb0040c1b3005c060700c0
:10122800a0090700000000000100370000000000ce
:101238000080fa00000006000200fa00004f780063
:101248001e427800e04f520006003a001e40780027
:101258002bfe07005479a9001e407800aaff07005a
:1012680001003700000000000080fa0000000600be
:101278000200fa00004f78001e427800e04f52004a
:10128800020032000002eb000a0037001e4078001e
:101298001bfe070044fe0700a2002000e18e21008b
:1012a800a095210045fd070034c7800024cb8800a5
:1012b800a4952100040078000080fa0000000600d0
:1012c8000200fa00004f78001e427800e04f5200fa
:1012d8000b003a001e40780009fe070032fe0700a6
:1012e80015ca800024c78000848f52000500320090
:1012f80011c0b30000c1b300250607000100370084
:10130800000000000080fa00000006000400fa0057
:10131800204798002e429000e04f52000200320011
:101328000002eb001d0037002e409000f4fd07007e
:1013380094ca8000044f78001e427800e74f52009c
:10134800050032001e427800eb4f520002003200c6
:101358000002eb001100370015ca800024ca800083
:10136800848f520009003900f5c98000e4c9800063
:101378008482520026ca800014ca800004025300e6
:10138800048242000402e9000400370025ca8000f4
:1013980014ca8000048252000402e90004007800a4
:1013a8000080fa00000006000400fa0020479800b8
:1013b800314798002e429000e04f52000200320060
:1013c8000002eb00430037002e409000ccfd0700e0
:1013d8002e409000cdff070000027800040f78002f
:1013e8001e027800e00f520002003a000002eb00f3
:1013f800380037001e027800e10f520002003a0060
:101408002e409000aeff0700a5ca800004102000ff
:1014180004826200e00f520009003a00f5c980001a
:10142800e4c98000048252000402d1009e0f5200d9
:10143800030039002e409000a1ff07005519a800ad
:10144800e3034700859521009542780016ca80007d
:101458001400200013c0b30007017800854078000d
:1014680006007800bd0e070014ca80000402e800d8
:1014780014ca880015ca8000f4c98000848f5200fd
:1014880002003900e4c9800014ca88001e027800ee
:10149800e10f520003003a002e40900088ff070039
:1014a8000b003700a5ca80000402200004826200f5
:1014b800e00f520006003a0054b9a800c03f0700e8
:1014c8000002be00040278006c02420074ca880060
:1014d80014002000040078000080fa0000000600d4
:1014e8000c00fa00604798004107980052079800de
:1014f8000002eb00140798006e429000e04f520083
:10150800020032000002eb00600037006e409000dd
:101518007bfd07006e4090007cff0700000278000a
:10152800240798002e029000e00f520004003a00b1
:101538006e40900062ff07000002eb005300370086
:101548002e029000040f7800ae0290005e02900018
:10155800848f5200020036005e029000040f78006b
:10156800a5ca80000410200004826200e00f520027
:101578000a003a00f5c98000e4c9800004825200dc
:101588008402d1002e029000848f5200030039009b
:101598006e4090004aff07005519a80014ca800041
:1015a8009e024200f4c98000848f52001600390060
:1015b800f5c9800014ca80000482520014079800fc
:1015c800ce039000859521009542780016ca8000c8
:1015d8001e02900013c0b300070178008540780010
:1015e800060078005d0e0700ce0290001e029000f3
:1015f80004824200440798001e0290001e0f120049
:10160800e4c9800014ca8800ce03900085952100a3
:101618009542780016ca80001e02780013c0b300f5
:101628000701780085407800060078004b0e070017
:1016380014ca80001e02420014ca8800ae0290003c
:101648005e029000848f520003003e006e409000be
:101658001bff07000b003700a5ca8000040220000a
:1016680004826200e00f520006003a0054b9a80054
:10167800533f07000002be00040278006c024200db
:1016880074ca88001e0290001e02420004007800fe
:101698000080fa00000006000400fa00004f7800fd
:1016a800110798001e0290000400780051fc070002
:1016b80000027800040178009e0090001e40780027
:1016c80087ff0700000278009e0290000482420013
:1016d800040078000080fa00000006000600fa0006
:1016e800404798004e429000e04f520002003200fe
:1016f8000002eb000c0037004e40900000fd070090
:10170800f5c98000e4c9800004825200040fe90092
:101718004e409000fdfe0700000278001407980074
:101728001e0290001e021200040078000080fa00d9
:10173800000006000200fa00004f78001e40780002
:101748000c00070000027800e00f5200070032008a
:101758001e407800eafc070034ca800044ca8800aa
:1017680011c0b30000c1b300090507000080fa00ea
:10177800000006000200fa00004f78001e427800c0
:10178800e04f5200020032000002eb001200370066
:101798001e407800dafc070035ca800044ca800081
:1017a800848f52000400390035ca800044ca800082
:1017b800048252000800370005ca800044ca80002d
:1017c8008482520036ca8000f4c9800004025300a3
:1017d800048242000402e800040078000080fa0055
:1017e800000006000600fa0020479800210798002c
:1017f8002e409000dfff070000027800040f7800f9
:101808001e027800e00f520002003a000002eb00ce
:10181800290037002e409000b9fc07002e029000e6
:10182800e00f52000a0032008595210095427800a9
:1018380047ca80002e0390001400200085417800dc
:101848000701780011c0b30006007800c30d070037
:1018580044ca80000402e80044ca880045ca8000df
:1018680004ca8000848f520002003600f4c9800048
:1018780044ca88001e027800e10f520002003a00b4
:101888005559a8000b003700a5ca800004022000a3
:1018980004826200e00f520006003a0054b9a80022
:1018a800c73e07000002be0004027800d403b0005f
:1018b80074ca880014002000040078000080fa0030
:1018c800000006000a00fa00404798003107980017
:1018d800420798000002eb00040f78004e40900089
:1018e800a4ff070000027800140798001e02900069
:1018f800e00f520002003a000002eb004f003700f0
:101908004e4090007efc0700ce0290001e02900020
:10191800848f5200020036001e029000440798008f
:1019280045ca80004e0290008482420004ca8000aa
:10193800848f52001900360005ca800044ca80000e
:1019480004825200040fe8003e029000e00f5200ab
:101958000d003200859521009542780047ca800025
:101968003e0390001e027800854178000701780048
:1019780011c0b30006007800780d07003e02900001
:101988001e024200340798004e0290001e025200c8
:1019980044079800f4c9800044ca88003e029000b9
:1019a800e00f52000a003200859521009542780028
:1019b80047ca80003e0390004e029000854178009f
:1019c8000701780011c0b30006007800630d070016
:1019d80045ca80004e0290000482420044ca880032
:1019e8004e0290001e024200440798009e0290009a
:1019f8004e029000848252004e029000848f520062
:101a080002003e005559a8000b003700a5ca800007
:101a18000402200004826200e00f520006003a002f
:101a280054b9a800663e07000002be000402780010
:101a3800d403b00074ca88004e02900004007800f5
:101a48000080fa00000006000600fa0040479800ef
:101a58004e429000e04f5200020032000002eb00bc
:101a68000b0037004e40900025fc070005ca800097
:101a7800f4c98000048f52004e4090003dff0700db
:101a880000027800140798001e0290001e0212003f
:101a9800040078000080fa00000006000e00fa003a
:101aa800604798004107980052079800630798001c
:101ab8006e429000e04f520003003a005e02900030
:101ac800e00f520002003a000002eb004500370028
:101ad8006e4090000afc07006e40900025ff07004a
:101ae8000002780014079800ee0290005e02900051
:101af800848242001e029000848f52000400360047
:101b08009e0290006e0290000482520054079800d2
:101b180045ca80006e029000048f420004ca80000b
:101b28009e0f52000500310005ca8000f4c98000ec
:101b3800048252000482ea001e0f420004ca800098
:101b48001e0252000402e80024079800de029000fa
:101b58002e029000848f52000a003e0085952100d5
:101b6800954278004e0390005e029000854178000f
:101b78001e01780011c0b30006007800f70c0700ba
:101b88001700370085952100954278004e03900094
:101b98002e029000854178001e01780011c0b30024
:101ba80006007800ed0c0700de0290002e0290007f
:101bb800048252008595210095427800f7c980007b
:101bc8004e0090002e0390000603400085417800e7
:101bd8000701780011c0b30006007800df0c070089
:101be8005e029000040078000080fa000000060001
:101bf8000600fa002047980021079800ae019000df
:101c0800120020008e0078002e409000a3ff0700ed
:101c18001e427800044078000080fa0000000600a8
:101c28003e00fa0020779800211f9800321f980084
:101c3800431f9800541f9800651f98002e7290004b
:101c4800e04f520003003a003e1a9000e00f5200a5
:101c580002003a000002eb00260137002e709000c7
:101c6800a7fb07002e709000c2fe07000002780054
:101c7800ce1a900005025200140798009e029000a8
:101c88003e1a9000848f5200020031000082eb005f
:101c9800180137005e1a9000e00f5200060032006b
:101ca8009e0290005e1a9000848f52000200360057
:101cb8005e1a90001407980045ca80004e1a9000da
:101cc800048242003407980005ca80003e02900052
:101cd800848f52000700310005ca8000f4c98000d3
:101ce800048252000482ea00be029000048242008c
:101cf80034079800be029000050f780005ca8000de
:101d08003e029000048252000402e8002407980072
:101d18004e1a900034079800be1a90007507980074
:101d28002e1a9000040f98002e1a90009442780002
:101d3800154f98002e1a90000402e800241f9800fe
:101d48000002eb00640798006e1a9000e00f520042
:101d58000c0032009e4a900004c6b30084cf5200a3
:101d6800080036009e4a9000a4c7b30084cf5200f2
:101d780004003e009e4a900004ceb30004c2420014
:101d8800144f980004c2b300244f98002e4a9000c4
:101d98008482fb002e029000848f520002003600dd
:101da8002e029000244f98002e4a90008482fb0057
:101db8001e029000848f5200020036001e0290001e
:101dc800244f98002e4a90000482fb00859521003c
:101dd8009542780072034700854178001e0178001b
:101de80011c0b300060078005c0c07002e4a900072
:101df8000482fb001e0f42002e4a90000482fb0062
:101e0800ae02900004825200240798002e0290002f
:101e1800e00f520004003a00f4c98000040f780073
:101e28000082eb00240798006e1a9000e00f520021
:101e3800680032000042eb00044f98006000370051
:101e48000e4a90000482fb0004024700a45290004e
:101e580004c6b30084cf5200110036000e4a900029
:101e68000482fb0004024700a4529000a4c7b300f8
:101e780084cf52000a003e000e4a90000483fb0003
:101e88000e4a90000482fb0004024700a45290000e
:101e980004ceb30004c2420086024700a452980050
:101ea8000e4a90000482fb0004024700a4529000ee
:101eb8001e4a900084cf520023003a003e1a900038
:101ec8000402e900341f98003e1a9000e00f520007
:101ed80008003a00be0290007e0290008482520000
:101ee8000e4a90000482fb00048242000402e800cb
:101ef800800037002e1a900094427800154f980001
:101f08002e1a90000402e800241f980014002000f4
:101f1800640798009e4a900004c6b30084cf52001c
:101f2800240036009e4a9000a4c7b30084cf520014
:101f380020003e009e4a900004ceb30004c2420036
:101f4800144f98001b0037007e029000341f980041
:101f58006e029000e00f5200160032008e0a9000c8
:101f6800251f98002e1a900094427800154f98006b
:101f78002e1a90000402e800241f98009e4a900040
:101f880004c6b30084cf5200080036009e4a900071
:101f9800a4c7b30084cf520004003e009e4a9000bc
:101fa80004ceb30004c24200144f98000002eb00b4
:101fb800640798000e4a90000442e800044f980015
:101fc8008e4a90002e4a900084cf52009cff390020
:101fd800370037000042eb00044f9800300037000c
:101fe8000e4a90000482fb0004024700a4529000ad
:101ff8001e4a900084cf520017003a003e1a900003
:102008000402e900341f98003e1a9000e00f5200c5
:1020180008003a00be0290007e02900084825200be
:102028000e4a90000482fb00048242000402e80089
:10203800300037002e1a900094427800154f98000f
:102048002e1a90000402e800241f980014002000b3
:10205800640798000f0037007e029000341f980034
:102068006e029000e00f52000a0032008e0a9000c3
:10207800251f98002e1a900094427800154f98005a
:102088002e1a90000402e800241f98000002eb00ba
:10209800640798000e4a90000442e800044f980034
:1020a8008e4a90002e4a900084cf5200ccff39000f
:1020b8002e4a90000482fb009e0290000482520087
:1020c800140798009e0290003e1a9000848f5200d8
:1020d800020031000082eb00060037002e4a900013
:1020e8000482fb00be02900004824200340798007c
:1020f80024ff3700040078000080fa000000060082
:102108000800fa00004f780011479800120798005d
:1021180023079800340798000e03e800be029000d9
:102128002e0290009e019000120020008600780088
:102138001e407800bafe070000027800040078000c
:102148000080fa00000006000a00fa00881f7800e4
:102158000042eb00044f7800e80137001e40780089
:1021680067fa07000042eb00644798000002eb00a2
:10217800140798000002eb0024079800a5ca800005
:102188000420200004826200e00f520005003a009b
:10219800a5ca80000440200004826200e00f5200bb
:1021a8000b003200f31e070000027800e00f520017
:1021b8000700320004c1b30064479800a4ca800035
:1021c8004a22de00614262000482fb001407980084
:1021d800a5ca80000402200004826200e00f5200b9
:1021e8000900320078ca8000753c07000002be0072
:1021f8000402780004025400e00f520002003c0080
:1022080004c1b30064479800a5ca800004042000f4
:1022180004826200e00f52000900320088ca800080
:10222800673c07000002be00040278000402540064
:10223800e00f520002003c0004c1b300644798005c
:1022480094ca8000eb0f52000b003a0088ca800045
:102258005b3c07000002be00040278000402540040
:10226800e00f520004003c0014c1b300644798001a
:10227800c400200094ca880094ca8000e40f520069
:1022880063003a000002eb00440798005b00370047
:102298004e0290007422b90004027800f002420055
:1022a800049021000482420014027800e00f5200da
:1022b800560032004e0290007422b90004027800e1
:1022c800f002420004902100048242009402780047
:1022d800b4ca8000848f520045003a0032fa0700e1
:1022e8004e0290007422b900840278000490210004
:1022f80004824200a200200084007800e08e2100c1
:102308002ef907004e0290007422b90004027800ea
:10231800ea0242000490210004824200140278007c
:1023280034c788004e0290007422b9000402780075
:10233800ec02420004902100048242001402be0014
:1023480061024200e0824a0004c7880015c788007d
:1023580085c7800074c780008482420034c780002b
:102368008482420044c7800004826a00b4ca88009c
:1023780024c1b300644798006400200094ca880010
:10238800ce029000c4fe2f0004aab900040278000f
:1023980087022000848343004e0290000402e80074
:1023a8007422b9008402780004902100048242005b
:1023b800040378004e0290007422b9008402780069
:1023c8000490210004824200840278000702780009
:1023d80013c0b3000601780011c0b30005007800ef
:1023e800de0a07000002eb00c4c9880008003700b5
:1023f8004e0290000402e800440798004e02900044
:10240800e20f5200a2ff3600010037000000000072
:102418006e429000e04f5200090032001e02900008
:1024280004f0a7000402ea000402e9004f22de00db
:1024380004427800844078006e409000d401070080
:10244800a4ca800070026200e00f52002b003a001c
:1024580094ca8000e70f520020013a00bf3b0700f2
:102468000003be0054ca800065ca800004025300fd
:1024780085825b00e00f5200e08f5a001901350099
:10248800a4ca800067026200e60f52000e003a00fc
:10249800a4ca80004322de006142620064479800bb
:1024a8001e40780018fb07001e40780016fb070046
:1024b8006e429000e04f52000c013a00e400200008
:1024c80094ca88000c013700b7f9070021c0b3008f
:1024d80000c1b300ae010700a03b07000003be0027
:1024e80024bc2e00b50020000602420087824a0064
:1024f80054ca880065ca8800ff003700973b070068
:102508000003be0054ca800065ca8000040253005c
:1025180085825b00e00f5200e08f5a00f50035001d
:10252800a1f9070094ca80006123b800e4ff2f00d6
:10253800f5ff2f000602420087824a00a60020000d
:1025480007002000860f5200878f5a00a2003e0025
:10255800046001000a00370012003700a0003700ad
:102568003a0037004a0037005e0037006b0037003a
:10257800780037007c0037005a00370088003700a1
:102588008f3b07000002be000402780074ca88006e
:10259800e08e2100a43507003400200094ca88008a
:1025a80094003700218f2100e08e21000b360700b0
:1025b80000027800e00f52001d003a00803b07003f
:1025c8000002be008402780074ca800004835200ae
:1025d800c4c68000d5c6800004027800840f53006a
:1025e80081003600e48f210014427800e54f520044
:1025f8000c003e00e48f2100144278000442e800f9
:102608000002fd00fef8b7000002fd00c4c680000d
:10261800d5c680000402420085824a00c4c68800ec
:10262800d5c688002400200094ca880071003700ad
:1026380024c0b300644798000002eb001407980018
:102648005400200094ca88006a00370024c0b300f0
:10265800644798001400200014079800e48f2100b4
:1026680014427800e34f52006100360044c0b300c2
:102678000002fd00fef8b7000002fd00042d210055
:1026880035012000c4c68800d5c688005900370027
:10269800e48f210014427800e14f520005003e000b
:1026a80024c1b30064479800140020001407980060
:1026b80050003700a4ca800068026200e00f520090
:1026c8000500320044c1b30064479800140020009c
:1026d800240798004700370024c0b30064479800d7
:1026e80044003700e48f210014427800e44f520080
:1026f80005003e0004c1b3006447980014002000a0
:10270800140798003b0037008400200094ca880012
:1027180014c1b3006447980036003700e48f2100e5
:1027280014427800e44f520005003e0014c1b30083
:102738006447980014002000140798002d00370003
:1027480044c1b3006447980014002000240798008f
:102758002800370044c1b3006447980014002000e3
:102768002407980023003700e48f210014427800e2
:10277800e44f520005003e0004c1b30064479800ce
:1027880014002000140798001a00370044c1b30051
:1027980064479800140020002407980015003700ab
:1027a800e48f210014427800e44f520005003e00f7
:1027b80014c1b3006447980014002000140798005f
:1027c8000c00370044c1b30064479800140020008f
:1027d80024079800070037000000000005003700b4
:1027e800000000000300370000000000010037006f
:1027f800000000006e429000e04f520032003200ac
:102808001e029000e00f52002c003200e48f2100dd
:10281800144278000442e8000002fd00fef8b70008
:102828000002fd00c4c68000d5c680000402420034
:1028380085824a00c4c68800d5c6880025c780009e
:1028480024ca8000048252004407980025c78000eb
:1028580024ca8000848f520006003100f5c9800028
:10286800e4c9800004825200ce0290000482420033
:1028780044079800e6c68000f7c680004e02900024
:10288800050020000402530085825b00e4c688002e
:10289800f5c6880055c780004e02900004824200a9
:1028a80054c7880024ca800024c788008040eb00f1
:1028b8006e409000b60007000300370011c0b30057
:1028c8006e409000b20007002e029000e00f520008
:1028d80009003200f303070007003700000000007a
:1028e800050037000000000003003700000000006a
:1028f80001003700000000001e4fe8001e4278006b
:10290800e04f520015fe32000002eb004407980029
:10291800380037004e0290007422b9000402780093
:10292800f002420004902100048242001402780060
:10293800e00f520033003200a13a07000002be0047
:10294800040378004e0290007422b9000402780053
:10295800f20242000490210004824200140278002e
:102968008402530034392000848f52001e00360040
:10297800ce029000c4fe2f0004aab9000402780019
:1029880087022000848343004e0290000402e8007e
:102998007422b90084027800049021000482420065
:1029a800040378004e0290007422b9008402780073
:1029b8000490210004824200840278000702780013
:1029c80013c0b3000601780011c0b30005007800f9
:1029d800620907000002eb00c4c988004e0290009b
:1029e8000402e900440798004e0290000402e8003f
:1029f800440798004e029000e20f5200c5ff3600cf
:102a080001003700000000004f0478000080fa0041
:102a1800000006002c00fa003017980041179800b3
:102a2800521798003e139000964078000180fb00f2
:102a3800964390008783fb00c83bdd0000027800c6
:102a4800070272008403780007027800a64390000a
:102a58008783fb00364390000683fb004833dd0084
:102a6800870078008680700001037800860278006d
:102a7800340f9800450f98004e1290001403be00c2
:102a8800560f9800670f98000042eb00645f9800ab
:102a980064c0b300745f9800de13900007179800b5
:102aa8000e12900004007800282a0700000278001f
:102ab8000417980076024700c1002000040078003f
:102ac800602a0700000278000482ea0014179800c0
:102ad8005e109000cb1e07000002780024179800b3
:102ae8009e1290002e129000848f52000300320034
:102af800ac1c070014002000220037000000eb0087
:102b0800e93807000e82e80041012000040078003f
:102b18003f2007000e82e800040078002803070021
:102b28007e0290004422de006f42620025002000f1
:102b38000522dd00744f52009e4078000182fb00a0
:102b4800de1290000482520074025200541798005a
:102b58000e82e800be10900004007800ea01070029
:102b680000027800e00f5200040032000e82e800f4
:102b7800de10900004007800ee030700891c0700af
:102b880014002000040078000080fa00000006000d
:102b98002a00fa00006f9800116f980002f80700e9
:102ba8000e6a90000482fb00610262000442780011
:102bb800e04f5200050032005579a8008e6a900057
:102bc800e4cfb30004c26200046f980054b9a900ae
:102bd80054d9a90054f9a9005539a9005559a90093
:102be8005519a90000000000621c070000027800c7
:102bf800e00f5200fcff32000e6a90000482fb00d6
:102c080066026200e00f5200030032000002eb008f
:102c1800040f78007700370015ca800024c78000a9
:102c2800848f520003003a000002eb00040f780082
:102c38006200370015ca800024c78000848f5200c4
:102c48001b00360015ca800024c78000048f52007c
:102c580054c780009e0f52000200310051c7800007
:102c6800010f7800e4c780009e0f52000300310076
:102c7800e4c78000040f78005559a8008595210005
:102c88009542780026c780001e02780085417800aa
:102c9800060178008040eb0050462100af0807008d
:102ca80024c780001e02420024c788004300370062
:102cb800f5c9800024c780000482520034179800a8
:102cc800be12900014ca800084824200e4c98000c9
:102cd800048f520054c780009e0f5200020031003a
:102ce80055c78000050f7800e4c780009e0f52008a
:102cf80003003100e1c78000010f78005559a80092
:102d08003e1290009e0f5200020036001e0278000c
:102d1800341798003e12900085952100954278005e
:102d280026c7800085417800060178008040eb00c6
:102d380050462100890807003e1290001e0212002a
:102d4800341798003e129000e00f52000e00320037
:102d58003e1290008595210095427800e7c98000d1
:102d6800f0c9800026c780000600500056462100a2
:102d78000603400085417800070178008040eb0099
:102d8800060078007508070024c780001e0242006c
:102d980024c7880025c78000f4c98000848f5200aa
:102da8000600390025c78000e6c98000f4c9800004
:102db800040253000482420024c78800a5ca800088
:102dc8000480200004826200e00f520009003200f3
:102dd80054c780009e0f520006003200e4c78000ee
:102de8009e0f5200030032000e6a90000404a000f7
:102df800046f98001e027800e00f520005003a00a8
:102e08000e6a90000482fb0063026200e00f520029
:102e18002100320054c780001e02520054c78800a7
:102e28001e027800e00f5200030032000e6a900084
:102e38000434a000046f98001e6a90000482fb000e
:102e48006102620004427800e04f5200080032003c
:102e58000042eb000002fd00fef8b7000002fd0092
:102e6800d412230015002000c4c68800d5c68800e7
:102e78003a3907000003be00c4c68000d5c68000ea
:102e88000602420087824a0054ca880065ca880040
:102e98005499a8003a0037001e6a90000482fb008b
:102ea80062026200e00f520014003200a4ca8000df
:102eb800674262000442e800674262000482fb0045
:102ec80067026200a6ca800085ff2f0085026300a2
:102ed80005027200a4ca8800e4c68000f5c6800016
:102ee80061025200e0825a00e4c68800f5c68800f4
:102ef80014002000040f780021003700a4ca8000c5
:102f080070026200e00f52001d0032001e6a90003d
:102f18000482fb0061026200e00f520010003a00d8
:102f2800e48f210014427800e04f52000c00320078
:102f3800e48f2100144278000442e9000002fd00f9
:102f4800fef8b7000002fd00c4c68000d5c68000a8
:102f58008502d1000482d300c4c68800d5c6880083
:102f6800fe3807000003be00c4c68000d5c6800036
:102f78000602420087824a0054ca880065ca88004f
:102f880044c780002407980034c78000340798009d
:102f9800e4c68000f5c680004407980055079800ed
:102fa80004c7800015c7800064079800750798005b
:102fb8000e0a900004e0a10004f0a100040f98009c
:102fc8000e0a90000400a1000410a1000420a10032
:102fd8000430a100040f98008e6a900015579800dd
:102fe8000002eb00340f9800e6c68000f7c68000a8
:102ff8001e027800050020000602420087824a006f
:10300800e4c68800f5c688000e6a90000482fb00ba
:1030180062026200e00f52001a0032000e6a90004d
:103028000482fb0070026200e00f520003003a00c5
:103038006022b8006407980075079800d4c780001c
:1030480062026200e00f5200070032004e02900058
:10305800de02900061025200e0825a0044079800a4
:103068005507980007003700e4c68000f5c68000c1
:1030780061024200e0824a00e4c68800f5c6880082
:10308800fa38a8000e6a90000482fb006102620010
:1030980004427800e04f520001003200fa18a800fc
:1030a80035ca800044ca8000848f52000900390064
:1030b80005ca8000f4c980008482520046ca800094
:1030c80034ca80000402530004824200140f98009e
:1030d8000500370045ca800034ca800004825200c7
:1030e8000402e900140f98004c1b07000002780046
:1030f800140798009e029000f4032000848f520069
:1031080003003e000002eb0014079800030037009c
:103118001e0290000404b100140798009e0a900053
:103128001e029000848f5200020036001e0290009a
:10313800140f98006402470004007800a0010700fb
:103148009e007800748f40000e0a90000440a00092
:103158000450a1000460a0000470a100040f9800ae
:103168000e6a90000482fb0062026200e00f5200c7
:10317800150032001e027800640f420024c0b3001c
:10318800045f980044c0b300145f980024802100b5
:10319800540f98000e0a90004422de006f4262002d
:1031a8000442e8006f4262000482fb006f02620082
:1031b8004422dd000e0b9000f5f02f00850263001d
:1031c80005027200040f9800664d2100164378002e
:1031d8008683fb00764d2100164378000683fb00aa
:1031e8004833dd0087027800868272000503780084
:1031f80006027800864d2100164378008683fb007e
:10320800964d2100164378000683fb004833dd0005
:1032180087007800868070000103780086027800b5
:10322800640f9800750f980074c7800085c78000e8
:1032380004179800151798000042eb00446798009f
:1032480064c0b300546798009e0278003517980050
:103258003e129000040078003c2807000002780025
:10326800341798007c024700c10020000400780051
:1032780074280700000278000482ea00240f9800ee
:10328800d0432100761c07001e01780061c0b300fe
:10329800e08e2100a63607006402470041012000a5
:1032a80004007800e51e07000e6a90000482fb0007
:1032b80062026200e00f5200040032007802470008
:1032c8004100200004007800dc1e070010452100a2
:1032d8007e1c07001e007800ca1c07000002780048
:1032e80014079800104621005d1c07000e82e800b4
:1032f8002100200004007800d01e07009e1b070054
:103308000080fa00000006000a00fa003007980062
:10331800410798003e02900014029000e00f52000e
:1033280002003a000002eb0022013700e4cfb300ac
:1033380014479800ce029000254290000483fb00b9
:10334800354290000482fb004822dd0086007800a8
:103358008480700001027800840278004e02900098
:10336800144178000283fb00144290000482fb00a1
:103378004822dd0086037800848373000702780002
:10338800848242003e029000140278008482420047
:103398003e0290001402900004826a0024079800fc
:1033a8000042eb00044f78003f0037001e407800d1
:1033b800d3f5070094ca8000ed0f520034003200a4
:1033c80094ca8000e40f520008003a00b5ca800091
:1033d8003e02900014029000848f52002e003a00a2
:1033e8009e407800114798002e003700b5ca80002b
:1033f8002e029000848f520029003a00eaf5070057
:103408003e0290009402900044c78000848f5200ce
:1034180024003a003e0290009402780034c78000ed
:10342800848f52001f003a004e0390001641780026
:103438000280fb00964390008783fb00c83bdd00b9
:1034480000027800070272008403780007027800ff
:10345800a64390008783fb00364390000683fb0059
:103468004833dd008700780086807000010378000b
:103478008602780076c7800087c78000860f5200d2
:10348800878f5a0007003a0014002000c90037004f
:1034980000000000030037000000000001003700b2
:1034a800000000001e4fe8001e427800e04f520066
:1034b800beff32001e429000e24f4200160032006a
:1034c8001e4090008ef50700b7f507001e429000d9
:1034d800e24f4200100032002e019000b2ca88006c
:1034e800a2002000ce009000e08e2100b3f4070077
:1034f8003e0290001402780034c788003e02900013
:103508001402900044c78800e4c9800024c78800da
:1035180014002000a70037003e029000e40290004b
:103528000420200004826200e00f520002003a00ea
:103538000002eb009f003700c4c98000e00f520072
:10354800020032000002eb009a0037000002eb0094
:10355800140798004e0037001e0290007422b9002c
:1035680004027800f0024200049021000482420024
:1035780014027800e00f5200490032001e02900049
:103588007422b90004027800f0024200049021007d
:1035980004824200940278003e02900014029000d7
:1035a800848f520032003a001e0290007422b90043
:1035b80004027800ea0242000490210004824200da
:1035c800940278003e02900014027800848f520022
:1035d80029003a001e0290007422b9008402780083
:1035e80004902100048242001403be004e009000a3
:1035f800104278000481fb00904090008180fb001d
:10360800c808dd0082027800818272008500780097
:1036180001027800a04090008180fb0030409000bb
:103628000080fb004800dd00010178000001710006
:103638000200780080027800840f5300858f5b00b9
:103648000f003a005e3707000002be00040378004e
:103658001e0290007422b90084027800249121008f
:1036680004824200060a78000002eb00510037008d
:1036780000000000030037000000000001003700d0
:10368800000000001e0290000402e80014079800e1
:103698001e029000e20f5200afff36000100370013
:1036a800000000000042eb00044f78003d003700a6
:1036b8001e40780012f50700a4ca80006802620064
:1036c800e00f52003300320037f5070045c780008d
:1036d8003e02900014029000848f52002f003a009e
:1036e8001e0290007422b900840278000490210020
:1036f80004824200a2002000ce009000040078005e
:103708002ef407003e029000140378001e02900079
:103718007422b90084027800a49021000482420037
:10372800060a78003e029000b4029000240290003d
:103738001e0390007433b90086037800c6902100f8
:1037480006834300048bbe003e02900014039000e1
:103758001e0290007422b9008402780004912100ae
:1037680004824200060a7800153707000002be00ee
:10377800040378001e0290007422b90084027800c5
:103788002491210004824200060a78000002eb001e
:1037980008003700000000000100370000000000aa
:1037a8001e4fe8001e427800e04f5200c0ff320072
:1037b8000002eb00040078000080fa000000060018
:1037c8000200fa00000f78001e0278001402780048
:1037d80004007800dd260700000278009e027800c9
:1037e800840a78001e027800140290000400780011
:1037f800d6260700000278009e02780094029800fe
:103808001e027800b4029000240290000400be005a
:10381800dc2607000002be001e037800240398007f
:10382800350398001e027800d402900044029000ec
:103838000400be00d32607000002be001e03780065
:1038480044039800550398001e0278007402900003
:1038580004007800bd260700000278009e02780068
:10386800f40298001e027800040a90000400780010
:10387800b6260700000278009e027800840a9800a5
:103888001e027800140a900004007800af26070092
:10389800000278009e027800940a98000080fa00de
:1038a800000006000000fa00881f7800bef4070038
:1038b80044c78000b4ca8800e4c9800014ca8800dc
:1038c800e4c9800024ca8800f4c9800034ca88008a
:1038d800f4c9800044ca8800a4ca80006802620053
:1038e800e00f5200020032004400200001003700bf
:1038f800d400200094ca88005419a9005439a9009a
:103908005459a9005499a90054b9a90054d9a90037
:1039180054f9a9005519a9005539a9005559a90004
:103928005579a9005599a800fa18a900fa38a900ec
:10393800fa78a900fa98a900e4c9800024c7880089
:10394800c88d21002424070000027800040c7800a8
:10395800c88d210020240700000278001404980074
:103968000082eb00c4c788001400200054c78800f8
:103978004f0478000080fa00000006000400fa00f6
:10398800881f7800c000200047350700871c070003
:1039980000427800044f78001e4278008482fb00c1
:1039a800040f20000482620042a2de000442780074
:1039b800744f52001e427800e04f520002003a0055
:1039c8008421200057003700710020000000eb0020
:1039d8008f1c070040003700741c07000042780065
:1039e800144798001e429000e04f520043003200f6
:1039f8001e429000e14f5200360032001e429000f5
:103a0800e24f520020003a001e427800e24f520076
:103a18003c0036000002eb0014079800631c070006
:103a280000427800144798001e429000e44f52006c
:103a380009003a000e82e8000404e8005b1c070055
:103a480000427800044c78000e84e800571c0700f8
:103a580000427800044c78009e02900074212000f7
:103a6800848f5200290036009e029000445b20009b
:103a7800848f520002003600445b20002900370082
:103a88001e029000270037001e427800e14f5200c6
:103a980020003600451c07000042780014479800b3
:103aa8001e4290009e42780084cf52001b003900cd
:103ab8001e4290000482fb00840078000000eb00a6
:103ac800531c07009e4278001e42900004cf52000b
:103ad80001003700000000009e4278000582fb00cc
:103ae8000402ea004f22de00044278001e4fe9007b
:103af800e04f5200b8ff3a0009003700000000000c
:103b08000700370000000000050037000000000033
:103b1800030037000000000001003700000000002b
:103b280084212000040078004f0478000080fa0007
:103b3800000006002200fa00700f98000117980094
:103b48007e0a9000d44a9000055798007e0a90009b
:103b580044039000d4039000460798005707980044
:103b68007e0a900024039000b4039000160f98007a
:103b7800270f98005419a9005439a9005459a900cd
:103b8800a4ca800070026200e00f520008003a00e8
:103b9800f23507000003be0024bc2e00b50020004b
:103ba8000602420087824a0054ca880065ca880013
:103bb80094ca8000e40f520003003200e50f52005f
:103bc8002c003200770037000e5290000482fb0070
:103bd80064026200e00f52000200320031ff070069
:103be800270437000e5290000482fb007002620026
:103bf800e00f5200090032004e029000de029000f1
:103c0800e4c68800f5c688008040eb0040c0b300d9
:103c1800dffb070023ff0700190437000e5290004e
:103c28000482fb0062026200e00f52000f003200c3
:103c38001e0a9000ae0a900061024200e0824a002b
:103c480004c7880015c788004cff070000027800e9
:103c5800e4c7880011c0b30020c1b300ccfb070043
:103c68006400200094ca8800050437000dff07008f
:103c7800030437000e5290000482fb0064026200c5
:103c8800e00f5200eb033a000e5290000482fb0052
:103c980070026200e00f520017003200e6c6800092
:103ca800f7c680004e029000de029000840f530099
:103cb800858f5b0010003200e6c68000f7c68000e2
:103cc800160f9800270f98004e029000de02900011
:103cd800e4c68800f5c6880011c0b30040c0b30030
:103ce800abfb07001e0b9000ae0b9000e6c68800e9
:103cf800f7c68800e20337000e5290000482fb00ea
:103d080062026200e00f5200cc0332001e0a9000eb
:103d1800ae0a900061024200e0824a0004c78800af
:103d280015c788007e0a90007402900054c7880066
:103d380012ff070000027800e4c788000e529000c6
:103d48000482fb0070026200e00f52000f00320094
:103d580011c0b30000c1b3008dfb07007400200040
:103d680094ca88007d3507000003be0024bc2e00dd
:103d7800b50020000602420087824a0054ca880023
:103d880065ca88005499a900bd03370011c0b30063
:103d980020c1b3007efb07006400200094ca88009d
:103da800b70337008e139000670798000e529000f3
:103db8000482fb006102620004427800e04f520076
:103dc800030032006e0290000402e80064079800c5
:103dd8000e5290000482fb0062026200e00f520063
:103de800030032006e0290000402e80064079800a5
:103df80035ca800044ca8000848f52000900390007
:103e080005ca8000f4c980008482520046ca800036
:103e180034ca800004025300048242003407980028
:103e28000500370045ca800034ca80000482520069
:103e38000402e9003407980004c7800015c7800011
:103e48001e0b9000ae0b90000402530085825b00ad
:103e5800340f9800450f98003e0a9000540f9800c0
:103e68000002eb00740798006e029000e00f520009
:103e7800350032003e029000e00f52004800320048
:103e88003e0a9000ce0a9000e00f5200e08f5a00e0
:103e98000a0035003e0290006123b8003e0a9000f7
:103ea800ce0a9000840f5300858f5b000300360014
:103eb8001400200074079800140037006e02900068
:103ec8006123b8003e0a9000ce0a90000602420024
:103ed80087824a00e00f5200e08f5a000b0034003e
:103ee800be0290006e029000048252006123b90065
:103ef8003e0a9000ce0a9000840f5300858f5b0025
:103f08000200350014002000740798003e0290005b
:103f18006123b8003e0a9000ce0a9000840f530037
:103f2800858f5b001e003400de0a90006e02900050
:103f380004824200e00f52001900340014002000ef
:103f480074079800160037003e0a9000ce0a9000c9
:103f5800e00f5200e08f5a0003003a0014002000de
:103f6800740798000e0037003e0a9000ce0a9000b1
:103f7800e00f5200e08f5a00090035003e02900021
:103f88006123b8003e0a9000ce0a9000840f5300c7
:103f9800858f5b000200360014002000740798002b
:103fa8007e029000e00f520009003a000e52900085
:103fb8000482fb0064026200e00f520021033a0011
:103fc80011c0b30000c1b300f1fa07002c03370099
:103fd8000e5290000482fb0066026200e00f52005d
:103fe800020032002ffe0700250337000e52900012
:103ff8000482fb0070026200e00f520013033200db
:1040080094ca80006123b800a4ff2f00f5ff2f0099
:104018000602420087824a0066002000070020004e
:10402800860f5200878f5a0059013e000460010034
:10403800060037001e0037001d0037001c0037003f
:104048001b0037001a00370046013700e6c680001b
:10405800f7c680004e029000de029000840f5300e5
:10406800858f5b0010003200e6c68000f7c680002e
:10407800160f9800270f98004e029000de0290005d
:10408800e4c68800f5c6880011c0b30040c0b3007c
:10409800bffa07001e0b9000ae0b9000e6c6880022
:1040a800f7c68800f60237007400200094ca88001a
:1040b80015ca800024c78000048252002407980093
:1040c8002e029000e00f520006003d00f5c9800066
:1040d800e4c9800004825200ae02900004824200cb
:1040e80024079800e6c68000f7c680002e029000dc
:1040f80005002000041f430005974b004e03900065
:10410800de0390001e02be000402530085825b009d
:10411800048fbe001e02be00e00f5200e08f5a005e
:1041280014003400d4c7800061026200e00f52001e
:10413800060032001e03be00140020000500200007
:10414800840f5300858f5b00040032008040eb0031
:1041580000c1b3008efa0700c90237004e02900072
:10416800de02900061025200e0825a004407980083
:1041780055079800e6c68000f7c6800025c780006e
:1041880024ca800004825200cfa2de00041f53001c
:1041980005975b0025c7800024ca8000848f5200e1
:1041a80006003100f5c98000e4c98000048252008d
:1041b800050020001e1f12001e971a004e029000d4
:1041c800de0290001e1f52001e975a001e02be00fb
:1041d800e00f5200e08f5a0050003400f5c980000b
:1041e800e4c980000482520005002000be0f52007e
:1041f800ae8f5a0049003900fa78a900fa98a90048
:104208005519a90027ca80002707980025ca8000e9
:104218001e0278000482420024ca880025c7800054
:104228002e029000848f52001100390025c78000ab
:1042380024ca8000848f520023003100e6c6800023
:10424800f7c6800025ca800024c780000482520077
:10425800050020000602420087824a00e4c6880062
:10426800f5c6880024ca800024c7880016003700d5
:1042780025c78000f6c98000e4c980000402530005
:10428800048242002407980025ca80002e0290006c
:10429800848f52000c003600e6c68000f7c6800006
:1042a80025ca80002e0290000482520005002000da
:1042b8000602420087824a00e4c68800f5c68800e4
:1042c80024ca800024c7880025ca8000f4c9800059
:1042d800848f52000600390025ca8000e6c9800094
:1042e800f4c98000040253000482420024ca8800f2
:1042f80025c78000f4c98000848f5200300039003f
:1043080025c78000e6c98000f4c980000402530074
:104318000482420024c788002900370025ca80008b
:1043280024c78000848f520025003200d4c7800043
:1043380068026200e00f520020003200d4c78000fb
:1043480070026200e00f52001b003200e6c68000d7
:10435800f7c6800025c7800024ca80000482520066
:10436800cfa2de000402530085825b00e4c6880009
:10437800f5c6880025c7800024ca8000848f5200b3
:104388000a003100e6c68000f7c68000f5c9800043
:10439800e4c9800004825200cfa2de000402530068
:1043a80085825b00e4c68800f5c6880024ca8000c0
:1043b80024c788005559a800fa98a800fa78a800d8
:1043c80025ca800014ca8000848f52001c003a005d
:1043d800a5ca80000480200004826200e00f520019
:1043e8000a003a00dd3307000003be0024bc2e009b
:1043f800b50020000602420087824a0054ca88009d
:1044080065ca88005499a9000d003700e6c68000e7
:10441800f7c680004e029000de029000840f530021
:10442800858f5b0006003a00d4c7800061026200f5
:10443800e00f5200020032005499a9005579a900f2
:104448007e0a900074039000ce039000e4c68000ba
:10445800f5c6800004027800048253000402430079
:10446800640f980054c78000e00f520004003a001f
:104478006e0a9000e00f5200010032005539a80082
:104488006e0a900054c7880094ca8000e80f520052
:1044980017003a00e6c68000f7c680004e0290007a
:1044a800de029000840f5300858f5b003a003a00cb
:1044b800d4c7800061026200e00f52003800320069
:1044c800a63307000003be00145e2f00550020002d
:1044d8000602420087824a0054ca880065ca8800da
:1044e8005499a8009400200094ca8800310037002d
:1044f80094ca8000e90f52000e003a000e52900054
:104508000482fb0061026200e00f520026003a00bc
:104518004e039000de039000e6c68800f7c68800c8
:104528008040eb0040c1b30099f90700ddfc0700ab
:10453800d301370094ca8000ea0f52001c003a00e9
:10454800e6c68000f7c680004e029000de029000aa
:10455800840f5300858f5b00be013a00d1fc070031
:10456800c7013700e4c68000f5c680006103420039
:10457800e0834a004e029000de029000840f530050
:10458800858f5b00b5013a00c6fc0700bc01370007
:104598000000000007003700000000000500370099
:1045a8000000000003003700000000000100370091
:1045b800000000000e5290008482fb0004022000dc
:1045c80004826200e00f5200a6013a0094ca8000fb
:1045d800eb0f5200a501320094ca8000ea0f520086
:1045e800a401320094ca8000ec0f5200a3013200eb
:1045f8000e129000e00f5200200132005e0a900077
:10460800e00f52007f003c007e0a90006402900098
:104618004422de006f4262000482fb004222dd0079
:10462800840278005e0a9000048252000400780038
:104638001d3207008e1290005e0a9000048242002c
:10464800041798008e1290003e029000848f52004a
:1046580002003600be0390000717980006c78000c6
:1046680017c780000e1290000500200006024200c5
:1046780087824a0004c7880015c7880035ca8000a9
:104688000e1290008482420004ca8000848f520077
:104698002000360005ca800034ca80000482520017
:1046a8000402e800240798008595210095427800c7
:1046b80036ca80002e0290008041eb000081eb009a
:1046c8008540780006007800240207008e129000ca
:1046d8002e029000048252008595210095427800b0
:1046e800f6c980008041eb000081eb00854078002e
:1046f8000600780019020700f5c980000e13900023
:104708002e029000040253000482420034ca88003a
:104718000d003700859521009542780036ca800043
:104728000e1290008041eb000081eb00854078007c
:10473800060078000902070035ca80000e129000b2
:104748000482420034ca8800c4c78000e10f4200d6
:10475800ca003200c4c78000840278000e1290009c
:1047680004825200c4c7880065c78000c4c780009f
:1047780004824200240798002e029000e00f5200a5
:1047880003003d000082eb00c4c78800bb0037006f
:10479800c4c78000e00f5200b8003c0006c7800084
:1047a80017c780002e029000050020000602420074
:1047b80087824a0004c7880015c7880035ca800068
:1047c8002e0290000482420034ca880035ca800054
:1047d80004ca8000848f52000700360035ca800062
:1047e80006ca8000f4c98000040253000482ea006b
:1047f8000482420034ca88000082eb00c4c78800e3
:104808009e0037005e0a9000e00f52009b003400c3
:104818008e1290005e0a9000848242003e02900050
:10482800848f520004003600be0290005e0a900099
:1048380004825200041798007e0a900064029000d7
:104848004422de006f4262000482fb004222dd0047
:10485800040078009431070035ca80005e0a900091
:10486800848242000e1290008482420004ca8000b2
:10487800848f52003300360005ca800034ca800095
:10488800848252005e0a90000402ea000482420018
:104898000402e800240798002e029000e00f52005e
:1048a80017003500859521009542780036ca8000aa
:1048b8005e0a9000040343002e0290008041eb0042
:1048c8000081eb008540780006007800a30107000e
:1048d8008e1290002e0290000482520085952100cd
:1048e80095427800f6c980008041eb000081eb001a
:1048f8008540780006007800980107001c00370002
:10490800859521009542780036ca80005e0a90009d
:104918000403430007ca8000f4c9800004825300de
:104928000482ea00040343000e1290008041eb0069
:104938000081eb00854078000600780087010700b9
:104948000b003700859521009542780036ca800013
:104958005e0a9000040343000e1290008041eb00b1
:104968000081eb0085407800060078007b01070095
:10497800c4c78000e10f420005003a005e0a9000bb
:10498800c4c788000e12900064c788003b00370037
:10499800c4c78000840278005e0a9000848f5200a9
:1049a8001c003600de0a90000e129000848242003d
:1049b800c4c780000403780064c780000402430071
:1049c800848f520006003e00de0a90000e1290000e
:1049d80084824200c4c78000848f520003003100e3
:1049e8008e12900065c7880007003700c4c7800092
:1049f8008402780064c78000848242005e0a9000c6
:104a08000482520064c788005e0a9000c4c7880008
:104a18001a003700de0a90000e12900084824200cd
:104a2800c4c780000403780064c780000402430000
:104a3800848f520011003600c4c7800084027800b9
:104a480064c78000848242005e0a9000848f52000e
:104a58000a00390065c780005e0b90000e129000b6
:104a680004034300c4c780000403530064c78000e4
:104a7800040253000482420064c788006e0290005a
:104a8800e00f52001b00320094ca8000e70f52006a
:104a98000200320034ca800044ca8800a5ca8000d7
:104aa8000408200004826200e00f52000500320072
:104ab80011c0b30000c1b30035f807003af0070091
:104ac8000c00370054f9a800a5ca8000040420008f
:104ad80004826200e00f520006003a0054d9a80090
:104ae800373207000002be00040278007e0242004e
:104af80084ca88000e5290000482fb0061026200a2
:104b080004427800e04f52005d00320004c7800084
:104b180015c7800061034200e0834a006e029000de
:104b28006120b8001e0a9000ae0a90000002420000
:104b380081824a00840f5300858f5b0050003a0041
:104b480004c7800015c7800061024200e0824a0065
:104b580004c7880015c7880094ca80006123b8007c
:104b6800a4ff2f00f5ff2f000602420087824a00ab
:104b78003600200007002000860f5200878f5a0059
:104b880027003e00046001000300370008003700da
:104b98000f0037001d003700c400200094ca8800a9
:104ba80011c0b30010c1b300f9f707003400370093
:104bb800b400200094ca8800013207000002be0039
:104bc80004027800d403b00084ca880015003700b6
:104bd800e6c68000f7c680004e029000de02900014
:104be800840f5300858f5b0005003a008040eb007e
:104bf80000c1b300e6f707002afb070020003700d2
:104c0800a400200094ca8800060037008040eb000a
:104c180000c1b300def7070022fb070018003700c9
:104c28000000000011c0b30000c1b300d8f70700ae
:104c380013003700000000001100370000000000da
:104c48000f003700000000000d00370000000000d2
:104c58000b003700000000000900370000000000ca
:104c680007003700000000000500370000000000c2
:104c780003003700000000000100370000000000ba
:104c88000080fa00000006000e00fa006047980055
:104c98004107980052079800434f98006e429000d1
:104ca800e04f5200020032000002eb00a80037007b
:104cb8006e40900092ef07004e029000e00f520005
:104cc80002003a00140020004407980005ca80003a
:104cd800e4c98000048252000402e9002407980015
:104ce800ce0290005e029000848242002e02900064
:104cf800848f5200020036000002eb009400370057
:104d0800a9ef07004e4a90000482fb00630262008c
:104d1800e00f520003003a004e4a90003440b300be
:104d2800444f98005e02900014079800ce0290004d
:104d38005e02900004824200ae029000048252009b
:104d4800240798004e4a90000482fb006202620029
:104d5800e00f5200100032004e4a90000482fb001f
:104d68006102620004427800e04f520006003200ff
:104d78002e0290000402d1009e029000048242009c
:104d880014079800040037009e0290002e0290003d
:104d98000482420014079800e5c980001e029000b2
:104da800048242000402e8002407980034ca800004
:104db800040f7800c4c78000e10f42000d003200e4
:104dc800c4c780008402780064c78000048242005f
:104dd8001e0f420004ca80009e0f520005003100d9
:104de80005ca8000f4c98000048252000482ea00e7
:104df8001e0f420044ca80009e0f5200100031006e
:104e080045ca80002e029000848f52002300310092
:104e18004e4a90000482fb0064026200e00f5200d8
:104e2800020032000002eb00490037002e02900019
:104e380044ca88002e02900034ca88001700370040
:104e480044ca80009e0f520010003600f5c9800049
:104e58002e029000848f5200100031004e4a9000bc
:104e68000482fb0064026200e00f5200020032007c
:104e78000002eb00360037002e02900044ca88007a
:104e88002e02900034ca8800040037002e029000d9
:104e980044ca88002e02900034ca880044ca8000a0
:104ea8009e0f52001b0036004e4a90000482fb0001
:104eb80064026200e00f520016003200f4c980005c
:104ec8001e0212008695210016437800f7c980005b
:104ed8008595210095427800864178000701780081
:104ee800854078002e0090001c00070035ca80001d
:104ef80044ca8000848f52000600310035ca800001
:104f0800f4c980002e03900004025300048242007a
:104f180034ca88002e029000f4c98800e4c98000d1
:104f280024c78800e4c9800024ca8800e4c9800036
:104f380014ca880094ca8000e70f520003003a00a0
:104f480011c0b30000c1b30011f70700140020001e
:104f5800040078000080fa00000006000a00fa0049
:104f6800000f7800214798002207980063479800af
:104f7800440798006e4290000482fb00e00f520044
:104f88001a003200e10f520037003a002e4290001a
:104f98000482fb00e00f520009003200e10f5200ca
:104fa8002e003a00ae0290001e0278004e019000da
:104fb800850078000400780000ee07000a0037003a
:104fc8001e027800e10f4200020032001e00780045
:104fd800231507002e029000ce00900004007800f0
:104fe80096170700000000001f0037002e429000af
:104ff8000482fb00e00f52000c003200e10f520067
:1050080018003a002e029000e10f42000200320020
:105018002e0090002d1507001e027800ce0090008b
:1050280004007800fa1607000a0037004e019000c5
:10503800ae0090001e007800cd15070000000000ab
:10504800ce16070000027800e00f5200fcff320085
:10505800000000000000000003003700000000000e
:1050680001003700000000000080fa000000060080
:105078000200fa00000f78000080fa000000060025
:105088000000fa00d4d280000402e800d4d28800dc
:10509800c49f20008002eb00050a7800c49f20000e
:1050a8001500200015029800c49f2000250020004c
:1050b80025029800c49f2000350020003502980082
:1050c800d4d28000f4a18800e4d2800024a488000f
:1050d8008f60a9008760a9000405800004c0a100b2
:1050e80004d0a10004e0a000040588000002eb0041
:1050f800b41c88009803a8009823a8009843a80027
:1051080098a3a8000080200090310700808a200022
:105118008e310700009520008c31070004402000e4
:10512800841c880000000000851c8000040e2000fc
:105138008482620004082000848f5200faff3a003b
:1051480034002000941c8800a4392000a41c880086
:10515800148021008419880054802100c419880013
:105168000002eb000418880004802100441888001d
:105178004400210084188800c47f2100c4188800d6
:10518800c47f210004198800c47f210044198800c5
:1051980014002000741b880024002000f41a8800e2
:1051a80034002000741a8800040c2000241b880096
:1051b800040c2000a41a8800040c2000241a88007b
:1051c8000002eb00741c88000002eb00f41b88004e
:1051d8000002eb00841c880000000000851c800091
:1051e800040e200004826200e00f5200fbff3a0028
:1051f8000002eb00b4a488008f60a80054fb2500cf
:1052080084088800147a2000640888000002eb00f3
:105218003408880084c0a9008cc0a90011e1a80046
:10522800d4fb250094088800b4c4240074088800be
:1052380084e0a9008ce0a90013e1a8000002eb00bb
:1052480034a48800b4e9280044a488000002eb00d4
:1052580054a488001404200064a488004406200094
:1052680074a488000080fa00000006000000fa001c
:10527800d51c800004f02f008482620036a38000d1
:1052880004f02f0004026300848f52000a003600e5
:1052980035a38000f40f20000482620034a3880044
:1052a80035a38000d61c800004f02f0004026300a0
:1052b8000482420034a38800d51c8000f40f20002b
:1052c8008482620036a38000f40f20000402630089
:1052d800848f52000a00360035a3800004f02f00a6
:1052e8000482620034a3880035a38000d61c8000a5
:1052f800f40f2000040263000482420034a38800f3
:1053080054342c0014a2880034122f0024a28800e0
:10531800043a8000b4a18800260007004c0007006a
:10532800a6020700a8070700c49f2000940278007f
:105338000400280004826200e00f520001003200dd
:10534800e808070024a48000d4a18800d5a1800023
:10535800f4a3800004824200d4a18800d5a1800073
:1053680004a4800004824200d4a18800d5a1800052
:1053780014a4800004824200d4a18800d5a1800032
:10538800d4a3800004824200d4a18800d5a1800063
:10539800c4a3800004824200d4a18800d5a1800063
:1053a800b4a3800004824200d4a188000080fa00df
:1053b800000006000a00fa00180037008e00780086
:1053c80000802000a83007009e02780044f82100e1
:1053d8008482620044402100848f520003003a0016
:1053e8000e007800670107000c0037009e02780065
:1053f80044f821008482620044502100848f5200c6
:1054080003003a000e00780083010700030037000c
:10541800b4a380000402e800b4a388000080200040
:105428004330070000027800e00f5200e3ff3a0023
:1054380074458000f4a388003440800004a48800e8
:10544800b44a800014a488000080fa000000060016
:105458000000fa0055a180000410200004826200b8
:10546800e00f520006003a00c49f200014027800a2
:1054780068026200e00f5200010032005500070088
:10548800250480000404200004826200e00f52001a
:105498004e00320084c0a90055a1800004202000dd
:1054a80004826200e00f520002003a00490007003f
:1054b80046003700245080000402e8002450880089
:1054c8002450800067026200245088002450800025
:1054d800050020007600200007002000860f5200fb
:1054e800878f5a0039003e0004600100070037002a
:1054f80008003700090037000a0037000b003700a2
:105508000c0037000d0037000e003700310007008f
:105518002e003700520007002c0037002d0007002e
:105528002a00370078000700280037002900070004
:1055380026003700890007002400370025000700ef
:1055480022003700345080000402e80034508800fc
:1055580034508000e50f5200020036000002eb00d4
:105568003450880034508000e00f520001003a00a7
:105578008f00070034508000e10f520001003a000c
:105588004c00070034508000e20f520001003a003e
:105598009c00070034508000e30f520001003a00dd
:1055a800b000070034508000e40f520001003a00b8
:1055b800c400070034508000e50f520002003a0092
:1055c800d800070001003700000000000080fa0042
:1055d800000006000a00fa0004002400040f780006
:1055e800c49f20001402780014079800c49f20006c
:1055f8001402900024079800c49f20002402900001
:1056080034079800c49f2000340290004407980093
:10561800e13520000e0078004230070054a38000d6
:105628000402e80054a38800c49f200014027800f4
:105638004322de00614262000482fb0061026200d4
:105648004822dd0056a18000f5ef2f008502630097
:105658000502720054a188000080fa0000000600cc
:105668000a00fa00040a2a00040f78000420240023
:1056780044079800c479800034079800b479800002
:10568800240798000002eb00140798008e007800a9
:10569800808a2000dc2f0700741b800068026200eb
:1056a800e00f520001003a008760a8000080fa006d
:1056b800000006000a00fa00840a2a00040f780095
:1056c80004202500440798000485800034079800ca
:1056d800848480002407980074848000140798004c
:1056e8008e007800808a2000c72f0700741b800076
:1056f80068026200e00f520001003a008760a800cb
:105708000080fa00000006000a00fa00840b2a0054
:10571800040f780004202700440798000002eb00db
:1057280034079800d48f800024079800348f8000b5
:10573800140798008e007800808a2000b22f070096
:10574800741b800068026200e00f520001003a00fa
:105758008760a8000080fa00000006000a00fa002e
:10576800040c2a00040f780004202800440798003d
:105778000002eb00340798009494800024079800f6
:10578800a4948000140798008e007800808a200076
:105798009d2f0700741b800068026200e00f520012
:1057a80001003a008760a8000080fa0000000600a7
:1057b8000a00fa00040c2a00040f780014202800bc
:1057c800440798000002eb0034079800c494800056
:1057d80024079800b4948000140798008e0078007d
:1057e800808a2000882f0700741b800068026200ee
:1057f800e00f520001003a008760a8000080fa001c
:10580800000006000a00fa0084092a00040f780044
:105818000420230044079800a43e210014027800c5
:1058280034079800c43e2100140278002407980029
:10583800e43e210014027800140798008e007800d6
:10584800808a2000702f0700741b800068026200a5
:10585800e00f520001003a008760a8000080fa00bb
:10586800000006000a00fa0084092a00040f7800e4
:105878001420230044079800043f210014027800f4
:1058880034079800243f2100140278002407980068
:10589800443f210014027800140798008e00780015
:1058a800808a2000582f0700741b8000680262005d
:1058b800e00f520001003a008760a8000080fa005b
:1058c800000006000a00fa0084092a00040f780084
:1058d8002420230044079800643f21001402780024
:1058e80034079800843f21001402780024079800a8
:1058f800a43f210014027800140798008e00780055
:10590800808a2000402f0700741b80006802620014
:10591800e00f520001003a008760a8000080fa00fa
:10592800000006000a00fa0084092a00040f780023
:105938003420230044079800c43f21001402780053
:1059480034079800e43f21001402780024079800e7
:105958000440210014027800140798008e00780093
:10596800808a2000282f0700741b800068026200cc
:10597800e00f520001003a008760a8000080fa009a
:10598800000006000400fa00100798001e029000ac
:10599800c4029000f4ff2000048f620015c0b30019
:1059a800f40f20001e037800840f530001003e000e
:1059b8008042eb0014c0b300f61f20009e0378005d
:1059c800868f5300010036000042eb0004c26200db
:1059d800e04f52000b0032001e02900014039000aa
:1059e8001e029000a40290001e0290004402900043
:1059f800060178008500780004007800dd170700ac
:105a080003003700c4a380000402e800c4a3880090
:105a18000080fa00000006001400fa00100f980039
:105a28001e0a9000140278004322de001407980032
:105a38001e0290006f026200140798001e02900078
:105a480015002000042add00240798001e0a900093
:105a58000482e80094027800350798001e0a900036
:105a68006402420094027800450798001e0a9000dc
:105a780034029000540798001e0a900044029000d7
:105a8800640798000060fe003e0290000470a100c8
:105a9800340798001e0290006123b8000082eb00d2
:105aa8008082eb000602420087824a0076002000ce
