:020000040000fa
:080000000001040000000000f3
:020000040000fa
:10000800a84a0000a84a0000a84a0000a84a000020
:10001800a84a0000a84a0000a84a0000a84a000010
:10002800a84a0000a84a0000a84a0000ea8900007f
:10003800a84a0000a84a0000a84a0000a84a0000f0
:10004800a84a0000a84a0000a84a0000a84a0000e0
:10005800a84a0000a84a0000a84a0000a84a0000d0
:10006800a84a0000a84a0000a84a0000a84a0000c0
:10007800a84a0000a84a0000a84a0000a84a0000b0
:10008800a84a0000a84a0000a84a0000523400000c
:10009800a84a0000a84a0000a84a0000a84a000090
:1000a800a84a0000a84a0000a84a0000a84a000080
:1000b800a84a0000a84a0000a84a0000a84a000070
:1000c800a84a0000a84a0000a84a0000a84a000060
:1000d800a84a0000a84a0000a84a0000a84a000050
:1000e800a84a0000a84a0000a84a0000a84a000040
:0800f800a84a0000a84a00001c
:020000040000fa
:10010800a84a0000a84a0000a84a0000a84a00001f
:10011800a84a0000a84a0000a84a0000a84a00000f
:10012800a84a0000a84a0000a84a0000ea8900007e
:10013800a84a0000a84a0000a84a0000a84a0000ef
:10014800a84a0000a84a0000a84a0000a84a0000df
:10015800a84a0000a84a0000a84a0000a84a0000cf
:10016800a84a0000a84a0000a84a0000a84a0000bf
:10017800a84a0000a84a0000a84a0000a84a0000af
:10018800a84a0000a84a0000a84a0000523400000b
:10019800a84a0000a84a0000a84a0000a84a00008f
:1001a800a84a0000a84a0000a84a0000a84a00007f
:1001b800a84a0000a84a0000a84a0000a84a00006f
:1001c800a84a0000a84a0000a84a0000a84a00005f
:1001d800a84a0000a84a0000a84a0000a84a00004f
:1001e800a84a0000a84a0000a84a0000a84a00003f
:0801f800a84a0000a84a00001b
:020000040000fa
:10020000effa21000e7f22000e018800000000009e
:10021000000020000000e000020032000001200089
:10022000200288000c00070080c228000100200086
:1002300011000700000020000000e0000200320072
:100240000000020000000000ee3b02000000000081
:100250000040da000000fe004440a90060152000c4
:100260000000e0000300320000002000a001880030
:100270004440a8000000060091018800800078003a
:100280000000eb0015003700e280400032a0b4000f
:100290009101ba00e280400032a0b4009102ba009d
:1002a000e280400032a0b4000002eb00472bde00e9
:1002b000f507b200602ce10004003a000059eb00a1
:1002c0008301e900fdff3e00040037006128e100e2
:1002d000010032000082eb00040007001101ba00a7
:1002e0000200e000e8ff3a00000006003159ba00c1
:1002f0008301e9000c0032002159ba008301e900b2
:10030000080032000400e00003003a00e2804000f0
:1003100032a0b400f5ff370011d9ba008301e9001b
:10032000faff3a008100e800e180400032a0b4000a
:10033000000006006022b800060220000000d00085
:100340008180d2000482d2008582d2000000a00009
:100350000202520083825a0003003100020242006e
:1003600083824a000000a1000603e900f3ff3a007f
:1003700000000600889fbe008a9fbe003004be00b9
:100380002005be000404440085844c0006054d0091
:1003900087854d000898be000a90be000440e10029
:1003a00005c8e10006d0e10007d8e10002003100f5
:1003b000680040001008e8004f05be004f04be0072
:1003c000000006001000fa00889fbe008a9fbe0051
:1003d000110020000605be000404be003002be006d
:1003e0002003be00c4b79f00d5b79f00e6b79f00ab
:1003f000f7b79f000802520089825a000a035b0087
:100400008b835b0084bf9f0095bf9f00a6bf9f00aa
:10041000b7bf9f000498be000698be004fb2970079
:10042000dfb297006fb39700ffb397000820e10099
:1004300009a8e1000ab0e1000bb8e10001003900b1
:100440008000eb004f05be00108810004f04be0076
:100450000080fa00000006001400fa00889fbe0029
:100460008a9fbe008c9fbe000006eb003e00070086
:10047000ccb79f00bcb79f00acb79f009cb79f0054
:100480008cb79f000605be000404be000d042000ca
:100490004fb39700bfb29700860343002fb2970077
:1004a000e00f530004003d003d0007000f00400036
:1004b000b0ff070003003700390007000f004000bd
:1004c000c0ff0700cfb2970095bf9f00e08f52009a
:1004d000090035002b000700140020000500200053
:1004e0006033b80000007200818072000201730066
:1004f000838173001c0007000c06e8008d0f560076
:10050000e3ff3a001fba9700e00f520005003d00dc
:100510000802be000a03be0000fe2f000f004000cc
:1005200094ff07004faa9700e00f520008003a001e
:100530000fb497009fb497002fb59700bfb59700f1
:10054000d8b79f00e9b79f00fab79f008bbf9f0005
:100550000c0007004f06be004f05be004f04be0052
:100560000080fa00000006000100070000000600fd
:1005700090b79f00a1b79f00b2b79f00c3b79f007d
:100580000000060001000700000006001fb09700f1
:10059000afb097003fb19700cfb1970000000600c1
:1005a0004f2bde00f9ff070086837300858242002f
:1005b0004f23de00a7b79f0086827200040242002c
:1005c00095b79f00ffaa97004f2bde00858242005f
:1005d0000602720084b79f006faa97004f23de00c7
:1005e0000402420086827200f5af9f004f18de00c1
:1005f00000027200e5ff0700e4af9f00000040002a
:100600008180480002014900838149000802be0040
:100610000a03be00d6ff070000fe2f000000060000
:10062000881f780018002000881f78008aff0700c4
:100630008f87e9004f04780000000600801feb0060
:1006400085ff07008f87e90000000600889fbe0035
:100650008a9fbe00e00f5000e08f5800e00f590065
:10066000e08f59000c003d006044b8006055b800b0
:100670000000540081805c0002015d0083815d0008
:10068000180020001500070008003d0018000700b2
:100690000004eb00050037000004eb000f0007002a
:1006a00002003d001200070018002000dcff0700d8
:1006b000e00f5400060032006022b8006033b8003a
:1006c0000000520081805a0002015b0083815b00c0
:1006d0004f05be004f04be0000000600e00f5200b0
:1006e000e08f5a00e00f5b00e08f5b000000060027
:1006f0006044b8006055b8000402540085825c0074
:1007000006035d0087835d0000000600889fbe0031
:100710008a9fbe008c1f7800e00f5000e08f5800c9
:10072000e00f5900e08f59000d003d006044b80013
:100730006055b8001c0020000000540081805c005f
:1007400002015d0083815d000820e10009a8e1004d
:100750000ab0e1000bb8e1000d003d0008003700d1
:100760000006eb00e00f5200e08f5a00e00f5b0044
:10077000e08f5b0006003d006044b8006055b800a3
:100780000402540085825c0006035d0087835d00df
:10079000aaff0700e00f5600060032006022b800f2
:1007a0006033b8000000520081805a0002015b00f3
:1007b00083815b004f0678004f05be004f04be00ea
:1007c000000006000002780002003700315a78006d
:1007d0000201e900e00f5100fcff3a0000000600b2
:1007e0000002780002003700015a78000201e90097
:1007f000e00f5100fcff3a00000006000002780004
:100800008042eb00b4cf1200fdff3a000080ea0006
:1008100000004200000006000002780006003700d9
:10082000314378000201e900065a7800840278001a
:10083000e04f53000600320084027800e00f5100c0
:10084000f7ff3a0002003700805aeb000201e9008e
:0c085000e00f5100fcff3a000000060021
:020000040000fa
:10085c00ff0f0000ff0f0000ff0f0000ff0f000054
:10086c00ff0f0000ff0f0000ff0f0000ff0f000044
:10087c00ff0f0000ff0f0000ff0f0000ff0f000034
:10088c00ff0f0000ff0f0000ff0f0000850f00009e
:10089c000a0f00008f0e0000140e0000700d0000f7
:1008ac00f50c00007a0c0000ff0b0000850b00001b
:1008bc00000000000000000000000000000000002c
:1008cc00000000000000000000000000000000001c
:1008dc00000000000000000000000000000000000c
:1008ec0000000000000000000000000000000000fc
:1008fc0000000000000000000000000000000000ec
:10090c0000000000000000000000000000000000db
:10091c0000000000000000000000000000000000cb
:10092c0000000000000000000000000000000000bb
:10093c0000000000000000000000000000000000ab
:10094c00000000000000000000000000000000009b
:10095c0028230000803e0000803e0000803e000006
:10096c00803e0000004b0000004b0000004b0000dc
:10097c00004b000000000000000000000000000020
:10098c00000000000000000000000000000000005b
:10099c00983a0000983a0000983a0000983a000003
:1009ac00983a0000983a0000983a0000983a0000f3
:1009bc00000000000000000000000000000000002b
:1009cc00000000000000000000000000000000001b
:1009dc009c1800000807000008070000204e0000cb
:1009ec000807000008070000204e00000807000060
:1009fc0008070000204e0000080700000807000050
:100a0c00204e00000000000000000000000000006c
:100a1c00060500000403000002010000161500008a
:100a2c0014130000121100002625000024230000de
:100a3c002221000036350000343300003231000032
:100a4c00000000000000000000000000000000009a
:100a5c00000000000080000000000000008000008a
:100a6c00000000000080000000000000008000007a
:100a7c00000000000080000000000000008000006a
:100a8c00000000000080000000000000008000005a
:100a9c00000000000000000000000000000000004a
:100aac00000000000000000000000000000000003a
:100abc00000000000000000000000000000000002a
:100acc00000000000000000000000000000000001a
:100adc0000500000c2b4000020000000455400008b
:100aec004d4200004f410000524400000000000045
:0c0afc000c000000ff000000640000007f
:020000040000fa
:100b08000200fa00004f7800a4fa2100144278008d
:100b18009e4f52001f003200a4fa210014427800b0
:100b2800e24f42000b003200a4fa21001442780080
:100b38000482fb007e22b90084027800e4e02100f0
:100b480004824200e201200001e92100040078004b
:100b58001aff07001e407800aaffb7001e4278005f
:100b6800e24f42000d0032009e4278000582fb00f1
:100b78007e22b90084027800e4e021000482420069
:100b8800e20120008400780000e921000bff070043
:100b980003003700000000000100370000000000db
:100ba8000080fa00000006000000fa00b5fa2100f3
:100bb80095427800a4fa21001442780084cf5200ac
:100bc8002f003200b4fa210014427800e24f4200ac
:100bd8001a003200c7e22100b4fa2100144278005a
:100be8000482fb007e22b90004027800fc02420065
:100bf800e4e021000482420014437800b4fa2100a2
:100c0800144278000482fb007e22b9008402780036
:100c1800e4e02100048242001402780085fd2f00e0
:100c2800848242008402200013c0b30007017800c8
:100c38008640780005007800c8100700a4fa210053
:100c48001442780004007800abffb700c5ea210021
:100c58009542780084f4800087fd2f008483430048
:100c6800c6e221008402200085417800070178004f
:100c780011c0b30006007800b81007000100370063
:100c8800000000000080fa00000006000c00fa00d6
:100c9800b4d221001407980044fd8000e00f5200f0
:100ca80008003a003f2f07000002be0084027800c7
:100cb800f47f200084826200044020000482420005
:100cc80044fd8800c20320008000eb0040e52100bd
:100cd800c1fe07000042eb00444798000042eb00c9
:100ce800044f78004e0037001e40780084ff07004c
:100cf8001e4078000082fb006622b900840278005a
:100d0800e457280004824200944290005547980016
:100d18001e4078000082fb006622b90004027800b9
:100d28008482e800e4572800048242009402780094
:100d3800350798001e4078000082fb006622b90043
:100d480004027800e4024200e457280004824200ca
:100d580094027800450798005e4290000482fb00e8
:100d6800e00f5200010032002c0037001e009000f6
:100d780050079800be0290004e0290008482420004
:100d88001e02900004824200a402b00014079800da
:100d98009e029000c4ff2100848f5200fcff3e0099
:100da8005e409000acfeb7005e0290008402b00086
:100db80084f4880085f480003e029000048242009a
:100dc8000402e80094f4880095f480004e02900034
:100dd80004824200a4f48800d400200034f588007e
:100de800a87ea90070ff07009e4278000582fb00dc
:100df8006622b90084027800e45728000482420081
:100e0800144278000002fd0053feb7000002fd0006
:100e1800a40a07001e4fe80001003700ffff370053
:100e28001e427800e04f5200afff32000080fa0007
:100e3800000006000c00fa0010079800210798002f
:100e48006247980043079800244f98000042eb003f
:100e5800044f78007e0037001e40780028ff070006
:100e680034f58000ed0f520075003a004eff070080
:100e780035e52100954278002e4a900084cf520033
:100e880071003a008421200084f288006e429000ac
:100e9800e04f520008003a004e029000e4f188004a
:100ea800a87ea8004400200034f58800ce029000f7
:100eb80055f588006000370045fd8000f43f2000ac
:100ec800848f52000400360045fd800084382100dc
:100ed800848f5200020036000440200044fd880040
:100ee80044fd8000e4f188000402e80044fd880025
:100ef800ce039000d7f18800d34007000002be005f
:100f0800f4f4880005f58800a89ea8006e429000b9
:100f18000482fb00e30f520003003200e40f52008a
:100f28001a003200440037000e82e8009402900054
:100f38000e82e80014027800848242004e0290007b
:100f480084824200e4f1800004826a0054f588003b
:100f58001e029000ae02900014f2880025f288006c
:100f68000042eb000002fd0052feb7000002fd0047
:100f7800c40420000500200064f1880075f1880091
:100f88002400200034f588002b0037001e02900052
:100f9800ae02900004027800840278002542900096
:100fa8000483fb00354290000482fb004822dd00e8
:100fb80086027800848272000502780004037800b3
:100fc8001e029000ae02900004027800944378005c
:100fd8008782fb00144290000482fb004822dd0057
:100fe8008503780084837300070278008402430035
:100ff8004e02900084824200e4f1800004826a007c
:1010080054f588001e029000ae0290000402780099
:10101800a20020008400780020e42100e7fd0700fa
:101028005400200034f5880011c0b30020c0b3007c
:10103800d7060700000000001e42780008003700ad
:101048000000000001003700000000001e4fe8000b
:101058001e427800e04f52007fff3200e4cfb30019
:10106800044078000080fa00000006000200fa0040
:10107800004f78001e427800e04f52000200320014
:10108800140020000b0037001e4078009cfe07006b
:1010980045f580000400210004826200e00f520040
:1010a80003003200a99ea9001400200001003700a7
:1010b8000002eb00040078000080fa00000006003f
:1010c8000200fa00004f78001e427800e04f5200fc
:1010d800020032000002eb00080037001e407800d2
:1010e80087fe070034f5800067026a0004f0a70055
:1010f8000402ea000402e9004f22de00040078003e
:101108000080fa00000006000200fa00004f780094
:101118001e427800e04f520044003a001e4078001a
:1011280077fe0700d4f48000e4f4880034f58000ea
:1011380005002000e600200007002000860f52006e
:10114800878f5a0033003e00046001000e0037000c
:10115800300037000c0037000b0037002d00370037
:10116800090037000a003700090037002900370056
:101178002800370027003700140037002500370003
:101188002400370020003700c60907002800370070
:1011980011c0b30010c1b3007d060700f4f1800050
:1011a800e00f520005003200b5f48000c4f1800061
:1011b800848f5200f6ff3a0001003700000000005b
:1011c8008400200034f588001900370011c0b300ee
:1011d80010c1b3006e060700f4f18000e00f520062
:1011e80005003200b5f48000c4f18000848f5200fd
:1011f800f6ff3a000100370000000000c40020009c
:1012080034f588000a003700d400200034f588003f
:10121800070037008040eb0040c1b3005c060700c0
:10122800a0090700000000000100370000000000ce
:101238000080fa00000006000200fa00004f780063
:101248001e427800e04f520006003a001e40780027
:101258002bfe0700a87ea9001e407800aaff070001
:1012680001003700000000000080fa0000000600be
:101278000200fa00004f78001e427800e04f52004a
:10128800020032000002eb000a0037001e4078001e
:101298001bfe070044fe0700a200200021e42100f5
:1012a800e0ea210045fd0700d4f18000c4f588007c
:1012b800e4ea2100040078000080fa00000006003b
:1012c8000200fa00004f78001e427800e04f5200fa
:1012d8000b003a001e40780009fe070032fe0700a6
:1012e800b5f48000c4f18000848f520005003200fc
:1012f80011c0b30000c1b300250607000100370084
:10130800000000000080fa00000006000400fa0057
:10131800204798002e429000e04f52000200320011
:101328000002eb001d0037002e409000f4fd07007e
:1013380034f58000044f78001e427800e74f5200d1
:10134800050032001e427800eb4f520002003200c6
:101358000002eb0011003700b5f48000c4f48000ef
:10136800848f52000900390095f4800084f48000cd
:1013780084825200c6f48000b4f480000402530052
:10138800048242000402e90004003700c5f480002a
:10139800b4f48000048252000402e90004007800da
:1013a8000080fa00000006000400fa0020479800b8
:1013b800314798002e429000e04f52000200320060
:1013c8000002eb00430037002e409000ccfd0700e0
:1013d8002e409000cdff070000027800040f78002f
:1013e8001e027800e00f520002003a000002eb00f3
:1013f800380037001e027800e10f520002003a0060
:101408002e409000aeff070045f580000410200034
:1014180004826200e00f520009003a0095f480004f
:1014280084f48000048252000402d1009e0f52000e
:10143800030039002e409000a1ff0700a91ea80054
:10144800e3034700c5ea210095427800b6f480001e
:101458001400200013c0b30007017800854078000d
:1014680006007800bd0e0700b4f480000402e8000e
:10147800b4f48800b5f4800094f48000848f52009e
:101488000200390084f48000b4f488001e02780059
:10149800e10f520003003a002e40900088ff070039
:1014a8000b00370045f5800004022000048262002a
:1014b800e00f520006003a00a8bea8007b3f0700d4
:1014c8000002be00040278006c02420014f5880095
:1014d80014002000040078000080fa0000000600d4
:1014e8000c00fa00604798004107980052079800de
:1014f8000002eb00140798006e429000e04f520083
:10150800020032000002eb00600037006e409000dd
:101518007bfd07006e4090007cff0700000278000a
:10152800240798002e029000e00f520004003a00b1
:101538006e40900062ff07000002eb005300370086
:101548002e029000040f7800ae0290005e02900018
:10155800848f5200020036005e029000040f78006b
:1015680045f580000410200004826200e00f52005c
:101578000a003a0095f4800084f480000482520046
:101588008402d1002e029000848f5200030039009b
:101598006e4090004aff0700a91ea800b4f480001e
:1015a8009e02420094f48000848f52001600390095
:1015b80095f48000b4f48000048252001407980067
:1015c800ce039000c5ea210095427800b6f4800069
:1015d8001e02900013c0b300070178008540780010
:1015e800060078005d0e0700ce0290001e029000f3
:1015f80004824200440798001e0290001e0f120049
:1016080084f48000b4f48800ce039000c5ea210079
:1016180095427800b6f480001e02780013c0b3002b
:101628000701780085407800060078004b0e070017
:10163800b4f480001e024200b4f48800ae029000a8
:101648005e029000848f520003003e006e409000be
:101658001bff07000b00370045f58000040220003f
:1016680004826200e00f520006003a00a8bea800fb
:101678000e3f07000002be00040278006c02420020
:1016880014f588001e0290001e0242000400780033
:101698000080fa00000006000400fa00004f7800fd
:1016a800110798001e0290000400780051fc070002
:1016b80000027800040178009e0090001e40780027
:1016c80087ff0700000278009e0290000482420013
:1016d800040078000080fa00000006000600fa0006
:1016e800404798004e429000e04f520002003200fe
:1016f8000002eb000c0037004e40900000fd070090
:1017080095f4800084f4800004825200040fe900fc
:101718004e409000fdfe0700000278001407980074
:101728001e0290001e021200040078000080fa00d9
:10173800000006000200fa00004f78001e40780002
:101748000c00070000027800e00f5200070032008a
:101758001e407800eafc0700d4f48000e4f4880016
:1017680011c0b30000c1b300090507000080fa00ea
:10177800000006000200fa00004f78001e427800c0
:10178800e04f5200020032000002eb001200370066
:101798001e407800dafc0700d5f48000e4f48000ed
:1017a800848f520004003900d5f48000e4f48000ee
:1017b8000482520008003700a5f48000e4f4800099
:1017c80084825200d6f4800094f48000040253000e
:1017d800048242000402e800040078000080fa0055
:1017e800000006000600fa0020479800210798002c
:1017f8002e409000dfff070000027800040f7800f9
:101808001e027800e00f520002003a000002eb00ce
:10181800290037002e409000b9fc07002e029000e6
:10182800e00f52000a003200c5ea21009542780014
:10183800e7f480002e039000140020008541780012
:101848000701780011c0b30006007800c30d070037
:10185800e4f480000402e800e4f48800e5f4800081
:10186800a4f48000848f52000200360094f48000b3
:10187800e4f488001e027800e10f520002003a00ea
:10188800a95ea8000b00370045f58000040220007f
:1018980004826200e00f520006003a00a8bea800c9
:1018a800823e07000002be0004027800d403b000a4
:1018b80014f5880014002000040078000080fa0065
:1018c800000006000a00fa00404798003107980017
:1018d800420798000002eb00040f78004e40900089
:1018e800a4ff070000027800140798001e02900069
:1018f800e00f520002003a000002eb004f003700f0
:101908004e4090007efc0700ce0290001e02900020
:10191800848f5200020036001e029000440798008f
:10192800e5f480004e02900084824200a4f4800016
:10193800848f520019003600a5f48000e4f480007a
:1019480004825200040fe8003e029000e00f5200ab
:101958000d003200c5ea210095427800e7f48000c6
:101968003e0390001e027800854178000701780048
:1019780011c0b30006007800780d07003e02900001
:101988001e024200340798004e0290001e025200c8
:101998004407980094f48000e4f488003e02900024
:1019a800e00f52000a003200c5ea21009542780093
:1019b800e7f480003e0390004e02900085417800d5
:1019c8000701780011c0b30006007800630d070016
:1019d800e5f480004e02900004824200e4f488009e
:1019e8004e0290001e024200440798009e0290009a
:1019f8004e029000848252004e029000848f520062
:101a080002003e00a95ea8000b00370045f58000e3
:101a18000402200004826200e00f520006003a002f
:101a2800a8bea800213e07000002be0004027800fc
:101a3800d403b00014f588004e029000040078002a
:101a48000080fa00000006000600fa0040479800ef
:101a58004e429000e04f5200020032000002eb00bc
:101a68000b0037004e40900025fc0700a5f48000cd
:101a780094f48000048f52004e4090003dff070010
:101a880000027800140798001e0290001e0212003f
:101a9800040078000080fa00000006000e00fa003a
:101aa800604798004107980052079800630798001c
:101ab8006e429000e04f520003003a005e02900030
:101ac800e00f520002003a000002eb004500370028
:101ad8006e4090000afc07006e40900025ff07004a
:101ae8000002780014079800ee0290005e02900051
:101af800848242001e029000848f52000400360047
:101b08009e0290006e0290000482520054079800d2
:101b1800e5f480006e029000048f4200a4f4800077
:101b28009e0f520005003100a5f4800094f4800057
:101b3800048252000482ea001e0f4200a4f48000ce
:101b48001e0252000402e80024079800de029000fa
:101b58002e029000848f52000a003e00c5ea210040
:101b6800954278004e0390005e029000854178000f
:101b78001e01780011c0b30006007800f70c0700ba
:101b880017003700c5ea2100954278004e039000ff
:101b98002e029000854178001e01780011c0b30024
:101ba80006007800ed0c0700de0290002e0290007f
:101bb80004825200c5ea21009542780097f480001b
:101bc8004e0090002e0390000603400085417800e7
:101bd8000701780011c0b30006007800df0c070089
:101be8005e029000040078000080fa000000060001
:101bf8000600fa002047980021079800ae019000df
:101c0800120020008e0078002e409000a3ff0700ed
:101c18001e427800044078000080fa0000000600a8
:101c28003e00fa0020779800211f9800321f980084
:101c3800431f9800541f9800651f98002e7290004b
:101c4800e04f520003003a003e1a9000e00f5200a5
:101c580002003a000002eb00260137002e709000c7
:101c6800a7fb07002e709000c2fe07000002780054
:101c7800ce1a900005025200140798009e029000a8
:101c88003e1a9000848f5200020031000082eb005f
:101c9800180137005e1a9000e00f5200060032006b
:101ca8009e0290005e1a9000848f52000200360057
:101cb8005e1a900014079800e5f480004e1a900010
:101cc8000482420034079800a5f480003e02900088
:101cd800848f520007003100a5f4800094f480003e
:101ce800048252000482ea00be029000048242008c
:101cf80034079800be029000050f7800a5f4800014
:101d08003e029000048252000402e8002407980072
:101d18004e1a900034079800be1a90007507980074
:101d28002e1a9000040f98002e1a90009442780002
:101d3800154f98002e1a90000402e800241f9800fe
:101d48000002eb00640798006e1a9000e00f520042
:101d58000c0032009e4a900004c6b30084cf5200a3
:101d6800080036009e4a9000a4c7b30084cf5200f2
:101d780004003e009e4a900004ceb30004c2420014
:101d8800144f980004c2b300244f98002e4a9000c4
:101d98008482fb002e029000848f520002003600dd
:101da8002e029000244f98002e4a90008482fb0057
:101db8001e029000848f5200020036001e0290001e
:101dc800244f98002e4a90000482fb00c5ea2100a7
:101dd8009542780072034700854178001e0178001b
:101de80011c0b300060078005c0c07002e4a900072
:101df8000482fb001e0f42002e4a90000482fb0062
:101e0800ae02900004825200240798002e0290002f
:101e1800e00f520004003a0094f48000040f7800a8
:101e28000082eb00240798006e1a9000e00f520021
:101e3800680032000042eb00044f98006000370051
:101e48000e4a90000482fb0004024700a45290004e
:101e580004c6b30084cf5200110036000e4a900029
:101e68000482fb0004024700a4529000a4c7b300f8
:101e780084cf52000a003e000e4a90000483fb0003
:101e88000e4a90000482fb0004024700a45290000e
:101e980004ceb30004c2420086024700a452980050
:101ea8000e4a90000482fb0004024700a4529000ee
:101eb8001e4a900084cf520023003a003e1a900038
:101ec8000402e900341f98003e1a9000e00f520007
:101ed80008003a00be0290007e0290008482520000
:101ee8000e4a90000482fb00048242000402e800cb
:101ef800800037002e1a900094427800154f980001
:101f08002e1a90000402e800241f980014002000f4
:101f1800640798009e4a900004c6b30084cf52001c
:101f2800240036009e4a9000a4c7b30084cf520014
:101f380020003e009e4a900004ceb30004c2420036
:101f4800144f98001b0037007e029000341f980041
:101f58006e029000e00f5200160032008e0a9000c8
:101f6800251f98002e1a900094427800154f98006b
:101f78002e1a90000402e800241f98009e4a900040
:101f880004c6b30084cf5200080036009e4a900071
:101f9800a4c7b30084cf520004003e009e4a9000bc
:101fa80004ceb30004c24200144f98000002eb00b4
:101fb800640798000e4a90000442e800044f980015
:101fc8008e4a90002e4a900084cf52009cff390020
:101fd800370037000042eb00044f9800300037000c
:101fe8000e4a90000482fb0004024700a4529000ad
:101ff8001e4a900084cf520017003a003e1a900003
:102008000402e900341f98003e1a9000e00f5200c5
:1020180008003a00be0290007e02900084825200be
:102028000e4a90000482fb00048242000402e80089
:10203800300037002e1a900094427800154f98000f
:102048002e1a90000402e800241f980014002000b3
:10205800640798000f0037007e029000341f980034
:102068006e029000e00f52000a0032008e0a9000c3
:10207800251f98002e1a900094427800154f98005a
:102088002e1a90000402e800241f98000002eb00ba
:10209800640798000e4a90000442e800044f980034
:1020a8008e4a90002e4a900084cf5200ccff39000f
:1020b8002e4a90000482fb009e0290000482520087
:1020c800140798009e0290003e1a9000848f5200d8
:1020d800020031000082eb00060037002e4a900013
:1020e8000482fb00be02900004824200340798007c
:1020f80024ff3700040078000080fa000000060082
:102108000800fa00004f780011479800120798005d
:1021180023079800340798000e03e800be029000d9
:102128002e0290009e019000120020008600780088
:102138001e407800bafe070000027800040078000c
:102148000080fa00000006000a00fa00881f7800e4
:102158000042eb00044f7800e80137001e40780089
:1021680067fa07000042eb00644798000002eb00a2
:10217800140798000002eb002407980045f580003a
:102188000420200004826200e00f520005003a009b
:1021980045f580000440200004826200e00f5200f0
:1021a8000b0032009f1d070000027800e00f52006c
:1021b8000700320004c1b3006447980044f580006a
:1021c8004a22de00614262000482fb001407980084
:1021d80045f580000402200004826200e00f5200ee
:1021e8000900320018f58000303c07000002be00ec
:1021f8000402780004025400e00f520002003c0080
:1022080004c1b3006447980045f580000404200029
:1022180004826200e00f52000900320028f58000b5
:10222800223c07000002be000402780004025400a9
:10223800e00f520002003c0004c1b300644798005c
:1022480034f58000eb0f52000b003a0028f58000af
:10225800163c07000002be00040278000402540085
:10226800e00f520004003c0014c1b300644798001a
:10227800c400200034f5880034f58000e40f5200d3
:1022880063003a000002eb00440798005b00370047
:102298004e0290007422b90004027800f002420055
:1022a80044e521000482420014027800e00f520045
:1022b800560032004e0290007422b90004027800e1
:1022c800f002420044e521000482420094027800b2
:1022d80054f58000848f520045003a0032fa070016
:1022e8004e0290007422b9008402780044e521006f
:1022f80004824200a20020008400780020e421002b
:102308002ef907004e0290007422b90004027800ea
:10231800ea02420044e521000482420014027800e7
:10232800d4f188004e0290007422b90004027800ab
:10233800ec02420044e52100048242001402be007f
:1023480061024200e0824a00a4f18800b5f18800e9
:1023580025f2800014f2800084824200d4f18000cb
:1023680084824200e4f1800004826a0054f5880007
:1023780024c1b300644798006400200034f5880045
:10238800ce029000c4fe2f0004aab900040278000f
:1023980087022000848343004e0290000402e80074
:1023a8007422b9008402780044e5210004824200c6
:1023b800040378004e0290007422b9008402780069
:1023c80044e5210004824200840278000702780074
:1023d80013c0b3000601780011c0b30005007800ef
:1023e800de0a07000002eb0064f4880008003700ea
:1023f8004e0290000402e800440798004e02900044
:10240800e20f5200a2ff3600010037000000000072
:102418006e429000e04f5200090032001e02900008
:1024280004f0a7000402ea000402e9004f22de00db
:1024380004427800844078006e409000d401070080
:1024480044f5800070026200e00f52002b003a0051
:1024580034f58000e70f520020013a007a3b07006c
:102468000003be00f4f4800005f580000402530068
:1024780085825b00e00f5200e08f5a001901350099
:1024880044f5800067026200e60f52000e003a0031
:1024980044f580004322de006142620064479800f0
:1024a8001e40780018fb07001e40780016fb070046
:1024b8006e429000e04f52000c013a00e400200008
:1024c80034f588000c013700b7f9070021c0b300c4
:1024d80000c1b300ae0107005b3b07000003be006c
:1024e80024bc2e00b50020000602420087824a0064
:1024f800f4f4880005f58800ff003700523b070018
:102508000003be00f4f4800005f5800004025300c7
:1025180085825b00e00f5200e08f5a00f50035001d
:10252800a1f9070034f580006123b800e4ff2f000b
:10253800f5ff2f000602420087824a00a60020000d
:1025480007002000860f5200878f5a00a2003e0025
:10255800046001000a00370012003700a0003700ad
:102568003a0037004a0037005e0037006b0037003a
:10257800780037007c0037005a00370088003700a1
:102588004a3b07000002be000402780014f58800e8
:1025980020e421005f3507003400200034f588006e
:1025a8009400370061e4210020e42100c6350700cb
:1025b80000027800e00f52001d003a003b3b070084
:1025c8000002be008402780014f5800004835200e3
:1025d80064f1800075f1800004027800840f5300d4
:1025e8008100360024e5210014427800e54f5200ae
:1025f8000c003e0024e52100144278000442e80063
:102608000002fd0052feb7000002fd0064f18000e8
:1026180075f180000402420085824a0064f1880056
:1026280075f188002400200034f588007100370017
:1026380024c0b300644798000002eb001407980018
:102648005400200034f588006a00370024c0b30025
:1026580064479800140020001407980024e521001e
:1026680014427800e34f52006100360044c0b300c2
:102678000002fd0052feb7000002fd00042d2100fb
:102688003501200064f1880075f188005900370091
:1026980024e5210014427800e14f520005003e0075
:1026a80024c1b30064479800140020001407980060
:1026b8005000370044f5800068026200e00f5200c5
:1026c8000500320044c1b30064479800140020009c
:1026d800240798004700370024c0b30064479800d7
:1026e8004400370024e5210014427800e44f5200ea
:1026f80005003e0004c1b3006447980014002000a0
:10270800140798003b0037008400200034f5880047
:1027180014c1b300644798003600370024e521004f
:1027280014427800e44f520005003e0014c1b30083
:102738006447980014002000140798002d00370003
:1027480044c1b3006447980014002000240798008f
:102758002800370044c1b3006447980014002000e3
:10276800240798002300370024e52100144278004c
:10277800e44f520005003e0004c1b30064479800ce
:1027880014002000140798001a00370044c1b30051
:1027980064479800140020002407980015003700ab
:1027a80024e5210014427800e44f520005003e0061
:1027b80014c1b3006447980014002000140798005f
:1027c8000c00370044c1b30064479800140020008f
:1027d80024079800070037000000000005003700b4
:1027e800000000000300370000000000010037006f
:1027f800000000006e429000e04f520032003200ac
:102808001e029000e00f52002c00320024e5210047
:10281800144278000442e8000002fd0052feb700ae
:102828000002fd0064f1800075f18000040242009e
:1028380085824a0064f1880075f18800c5f180003e
:10284800c4f480000482520044079800c5f1800057
:10285800c4f48000848f52000600310095f4800093
:1028680084f4800004825200ce0290000482420068
:102878004407980086f1800097f180004e0290008e
:10288800050020000402530085825b0084f1880063
:1028980095f18800f5f180004e0290000482420014
:1028a800f4f18800c4f48000c4f188008040eb0093
:1028b8006e409000b60007000300370011c0b30057
:1028c8006e409000b20007002e029000e00f520008
:1028d80009003200f303070007003700000000007a
:1028e800050037000000000003003700000000006a
:1028f80001003700000000001e4fe8001e4278006b
:10290800e04f520015fe32000002eb004407980029
:10291800380037004e0290007422b9000402780093
:10292800f002420044e521000482420014027800cb
:10293800e00f5200330032005c3a07000002be008c
:10294800040378004e0290007422b9000402780053
:10295800f202420044e52100048242001402780099
:102968008402530034392000848f52001e00360040
:10297800ce029000c4fe2f0004aab9000402780019
:1029880087022000848343004e0290000402e8007e
:102998007422b9008402780044e5210004824200d0
:1029a800040378004e0290007422b9008402780073
:1029b80044e521000482420084027800070278007e
:1029c80013c0b3000601780011c0b30005007800f9
:1029d800620907000002eb0064f488004e029000d0
:1029e8000402e900440798004e0290000402e8003f
:1029f800440798004e029000e20f5200c5ff3600cf
:102a080001003700000000004f0478000080fa0041
:102a1800000006002c00fa003017980041179800b3
:102a2800521798003e139000964078000180fb00f2
:102a3800964390008783fb00c83bdd0000027800c6
:102a4800070272008403780007027800a64390000a
:102a58008783fb00364390000683fb004833dd0084
:102a6800870078008680700001037800860278006d
:102a7800340f9800450f98004e1290001403be00c2
:102a8800560f9800670f98000042eb00645f9800ab
:102a980064c0b300745f9800de13900007179800b5
:102aa8000e12900004007800e32907000002780065
:102ab8000417980076024700c1002000040078003f
:102ac8001b2a0700000278000482ea001417980005
:102ad8005e109000771d0700000278002417980008
:102ae8009e1290002e129000848f52000300320034
:102af800581b070014002000220037000000eb00dc
:102b0800a43807000e82e800410120000400780084
:102b1800eb1e07000e82e800040078002803070077
:102b28007e0290004422de006f42620025002000f1
:102b38000522dd00744f52009e4078000182fb00a0
:102b4800de1290000482520074025200541798005a
:102b58000e82e800be10900004007800ea01070029
:102b680000027800e00f5200040032000e82e800f4
:102b7800de10900004007800ee030700351b070004
:102b880014002000040078000080fa00000006000d
:102b98002a00fa00006f9800116f980002f80700e9
:102ba8000e6a90000482fb00610262000442780011
:102bb800e04f520005003200a97ea8008e6a9000fe
:102bc800e4cfb30004c26200046f9800a8bea90055
:102bd800a8dea900a8fea900a93ea900a95ea9002f
:102be800a91ea900000000000e1b070000027800c3
:102bf800e00f5200fcff32000e6a90000482fb00d6
:102c080066026200e00f5200030032000002eb008f
:102c1800040f780077003700b5f48000c4f1800015
:102c2800848f520003003a000002eb00040f780082
:102c380062003700b5f48000c4f18000848f520030
:102c48001b003600b5f48000c4f18000048f5200e8
:102c5800f4f180009e0f520002003100f1f1800073
:102c6800010f780084f280009e0f520003003100ab
:102c780084f28000040f7800a95ea800c5ea21004c
:102c880095427800c6f180001e02780085417800e0
:102c9800060178008040eb0000772100af080700ac
:102ca800c4f180001e024200c4f1880043003700ce
:102cb80095f48000c4f18000048252003417980013
:102cc800be129000b4f480008482420084f4800034
:102cd800048f5200f4f180009e0f52000200310070
:102ce800f5f18000050f780084f280009e0f5200f5
:102cf8000300310081f28000010f7800a95ea8006e
:102d08003e1290009e0f5200020036001e0278000c
:102d1800341798003e129000c5ea210095427800c9
:102d2800c6f1800085417800060178008040eb00fc
:102d380000772100890807003e1290001e02120049
:102d4800341798003e129000e00f52000e00320037
:102d58003e129000c5ea21009542780087f4800071
:102d680090f48000c6f1800006005000067721002c
:102d78000603400085417800070178008040eb0099
:102d88000600780075080700c4f180001e024200a2
:102d9800c4f18800c5f1800094f48000848f52004b
:102da80006003900c5f1800086f4800094f48000a4
:102db8000402530004824200c4f1880045f58000f3
:102dc8000480200004826200e00f520009003200f3
:102dd800f4f180009e0f52000600320084f2800059
:102de8009e0f5200030032000e6a90000404a000f7
:102df800046f98001e027800e00f520005003a00a8
:102e08000e6a90000482fb0063026200e00f520029
:102e180021003200f4f180001e025200f4f1880013
:102e28001e027800e00f5200030032000e6a900084
:102e38000434a000046f98001e6a90000482fb000e
:102e48006102620004427800e04f5200080032003c
:102e58000042eb000002fd0052feb7000002fd0038
:102e6800d41223001500200064f1880075f1880051
:102e7800f53807000003be0064f1800075f180009a
:102e88000602420087824a00f4f4880005f58800ab
:102e9800a89ea8003a0037001e6a90000482fb0032
:102ea80062026200e00f52001400320044f5800014
:102eb800674262000442e800674262000482fb0045
:102ec8006702620046f5800085ff2f0085026300d7
:102ed8000502720044f5880084f1800095f18000b5
:102ee80061025200e0825a0084f1880095f188005e
:102ef80014002000040f78002100370044f58000fa
:102f080070026200e00f52001d0032001e6a90003d
:102f18000482fb0061026200e00f520010003a00d8
:102f280024e5210014427800e04f52000c003200e2
:102f380024e52100144278000442e9000002fd0063
:102f480052feb7000002fd0064f1800075f18000b8
:102f58008502d1000482d30064f1880075f18800ed
:102f6800b93807000003be0064f1800075f18000e5
:102f78000602420087824a00f4f4880005f58800ba
:102f8800e4f1800024079800d4f180003407980009
:102f980084f1800095f18000440798005507980057
:102fa800a4f18000b5f180006407980075079800c7
:102fb8000e0a900004e0a10004f0a100040f98009c
:102fc8000e0a90000400a1000410a1000420a10032
:102fd8000430a100040f98008e6a900015579800dd
:102fe8000002eb00340f980086f1800097f1800012
:102ff8001e027800050020000602420087824a006f
:1030080084f1880095f188000e6a90000482fb0024
:1030180062026200e00f52001a0032000e6a90004d
:103028000482fb0070026200e00f520003003a00c5
:103038006022b800640798007507980074f2800051
:1030480062026200e00f5200070032004e02900058
:10305800de02900061025200e0825a0044079800a4
:10306800550798000700370084f1800095f180002b
:1030780061024200e0824a0084f1880095f18800ec
:103088004e3ea8000e6a90000482fb0061026200b6
:1030980004427800e04f5200010032004e1ea800a2
:1030a800d5f48000e4f48000848f520009003900d0
:1030b800a5f4800094f4800084825200e6f4800035
:1030c800d4f480000402530004824200140f9800d4
:1030d80005003700e5f48000d4f480000482520033
:1030e8000402e900140f9800f8190700000278009c
:1030f800140798009e029000f4032000848f520069
:1031080003003e000002eb0014079800030037009c
:103118001e0290000404b100140798009e0a900053
:103128001e029000848f5200020036001e0290009a
:10313800140f98006402470004007800a0010700fb
:103148009e007800748f40000e0a90000440a00092
:103158000450a1000460a0000470a100040f9800ae
:103168000e6a90000482fb0062026200e00f5200c7
:10317800150032001e027800640f420024c0b3001c
:10318800045f980044c0b300145f980024802100b5
:10319800540f98000e0a90004422de006f4262002d
:1031a8000442e8006f4262000482fb006f02620082
:1031b8004422dd000e0b9000f5f02f00850263001d
:1031c80005027200040f9800c637210016437800e4
:1031d8008683fb00d6372100164378000683fb0060
:1031e8004833dd0087027800868272000503780084
:1031f80006027800e6372100164378008683fb0034
:10320800f6372100164378000683fb004833dd00bb
:1032180087007800868070000103780086027800b5
:10322800640f9800750f980014f2800025f2800052
:1032380004179800151798000042eb00446798009f
:1032480064c0b300546798009e0278003517980050
:103258003e12900004007800f7270700000278006b
:10326800341798007c024700c10020000400780051
:103278002f280700000278000482ea00240f980033
:1032880080742100221b07001e01780061c0b30072
:1032980020e4210061360700640247004101200054
:1032a80004007800911d07000e6a90000482fb005c
:1032b80062026200e00f5200040032007802470008
:1032c8004100200004007800881d0700c075210017
:1032d8002a1b07001e007800761b070000027800f2
:1032e80014079800c0762100091b07000e82e80029
:1032f80021002000040078007c1d07004a1a0700fe
:103308000080fa00000006000a00fa003007980062
:10331800410798003e02900014029000e00f52000e
:1033280002003a000002eb0022013700e4cfb300ac
:1033380014479800ce029000254290000483fb00b9
:10334800354290000482fb004822dd0086007800a8
:103358008480700001027800840278004e02900098
:10336800144178000283fb00144290000482fb00a1
:103378004822dd0086037800848373000702780002
:10338800848242003e029000140278008482420047
:103398003e0290001402900004826a0024079800fc
:1033a8000042eb00044f78003f0037001e407800d1
:1033b800d3f5070034f58000ed0f520034003200d9
:1033c80034f58000e40f520008003a0055f58000fb
:1033d8003e02900014029000848f52002e003a00a2
:1033e8009e407800114798002e00370055f5800060
:1033f8002e029000848f520029003a00eaf5070057
:103408003e02900094029000e4f18000848f520004
:1034180024003a003e02900094027800d4f1800023
:10342800848f52001f003a004e0390001641780026
:103438000280fb00964390008783fb00c83bdd00b9
:1034480000027800070272008403780007027800ff
:10345800a64390008783fb00364390000683fb0059
:103468004833dd008700780086807000010378000b
:103478008602780016f2800027f28000860f52003c
:10348800878f5a0007003a0014002000c90037004f
:1034980000000000030037000000000001003700b2
:1034a800000000001e4fe8001e427800e04f520066
:1034b800beff32001e429000e24f4200160032006a
:1034c8001e4090008ef50700b7f507001e429000d9
:1034d800e24f4200100032002e01900052f58800a1
:1034e800a2002000ce00900020e42100b3f40700e1
:1034f8003e02900014027800d4f188003e02900049
:1035080014029000e4f1880084f48000c4f188007b
:1035180014002000a70037003e029000e40290004b
:103528000420200004826200e00f520002003a00ea
:103538000002eb009f00370064f48000e00f5200a7
:10354800020032000002eb009a0037000002eb0094
:10355800140798004e0037001e0290007422b9002c
:1035680004027800f002420044e52100048242008f
:1035780014027800e00f5200490032001e02900049
:103588007422b90004027800f002420044e52100e8
:1035980004824200940278003e02900014029000d7
:1035a800848f520032003a001e0290007422b90043
:1035b80004027800ea02420044e521000482420045
:1035c800940278003e02900014027800848f520022
:1035d80029003a001e0290007422b9008402780083
:1035e80044e52100048242001403be004e0090000e
:1035f800104278000481fb00904090008180fb001d
:10360800c808dd0082027800818272008500780097
:1036180001027800a04090008180fb0030409000bb
:103628000080fb004800dd00010178000001710006
:103638000200780080027800840f5300858f5b00b9
:103648000f003a00193707000002be000403780093
:103658001e0290007422b9008402780064e62100fa
:1036680004824200060a78000002eb00510037008d
:1036780000000000030037000000000001003700d0
:10368800000000001e0290000402e80014079800e1
:103698001e029000e20f5200afff36000100370013
:1036a800000000000042eb00044f78003d003700a6
:1036b8001e40780012f5070044f580006802620099
:1036c800e00f52003300320037f50700e5f18000c3
:1036d8003e02900014029000848f52002f003a009e
:1036e8001e0290007422b9008402780044e521008b
:1036f80004824200a2002000ce009000040078005e
:103708002ef407003e029000140378001e02900079
:103718007422b90084027800e4e5210004824200a2
:10372800060a78003e029000b4029000240290003d
:103738001e0390007433b9008603780006e6210062
:1037480006834300048bbe003e02900014039000e1
:103758001e0290007422b9008402780044e6210019
:1037680004824200060a7800d03607000002be0034
:10377800040378001e0290007422b90084027800c5
:1037880064e6210004824200060a78000002eb0089
:1037980008003700000000000100370000000000aa
:1037a8001e4fe8001e427800e04f5200c0ff320072
:1037b8000002eb00040078000080fa000000060018
:1037c8000200fa00000f78001e0278001402780048
:1037d8000400780098260700000278009e0278000e
:1037e800840a78001e027800140290000400780011
:1037f80091260700000278009e0278009402980043
:103808001e027800b4029000240290000400be005a
:10381800972607000002be001e03780024039800c4
:10382800350398001e027800d402900044029000ec
:103838000400be008e2607000002be001e037800aa
:1038480044039800550398001e0278007402900003
:103858000400780078260700000278009e027800ad
:10386800f40298001e027800040a90000400780010
:1038780071260700000278009e027800840a9800ea
:103888001e027800140a9000040078006a260700d7
:10389800000278009e027800940a98000080fa00de
:1038a800000006000000fa00881f7800bef4070038
:1038b800e4f1800054f5880084f48000b4f48800b2
:1038c80084f48000c4f4880094f48000d4f4880060
:1038d80094f48000e4f4880044f5800068026200f3
:1038e800e00f5200020032004400200001003700bf
:1038f800d400200034f58800a81ea900a83ea9001d
:10390800a85ea900a89ea900a8bea900a8dea900d3
:10391800a8fea900a91ea900a93ea900a95ea900a0
:10392800a97ea900a99ea8004e1ea9004e3ea90086
:103938004e7ea9004e9ea90084f48000c4f1880040
:1039480008e32100df23070000027800040c780058
:1039580008e32100db230700000278001404980024
:103968000082eb0064f2880014002000f4f1880063
:103978004f0478000080fa00000006000400fa00f6
:10398800881f7800c000200002350700331b07009d
:1039980000427800044f78001e4278008482fb00c1
:1039a800040f20000482620042a2de000442780074
:1039b800744f52001e427800e04f520002003a0055
:1039c8008421200057003700710020000000eb0020
:1039d8003b1b070040003700201b0700004278000f
:1039e800144798001e429000e04f520043003200f6
:1039f8001e429000e14f5200360032001e429000f5
:103a0800e24f520020003a001e427800e24f520076
:103a18003c0036000002eb00140798000f1b07005b
:103a280000427800144798001e429000e44f52006c
:103a380009003a000e82e8000404e800071b0700aa
:103a480000427800044c78000e84e800031b07004d
:103a580000427800044c78009e02900074212000f7
:103a6800848f5200290036009e029000445b20009b
:103a7800848f520002003600445b20002900370082
:103a88001e029000270037001e427800e14f5200c6
:103a980020003600f11a0700004278001447980009
:103aa8001e4290009e42780084cf52001b003900cd
:103ab8001e4290000482fb00840078000000eb00a6
:103ac800ff1a07009e4278001e42900004cf520061
:103ad80001003700000000009e4278000582fb00cc
:103ae8000402ea004f22de00044278001e4fe9007b
:103af800e04f5200b8ff3a0009003700000000000c
:103b08000700370000000000050037000000000033
:103b1800030037000000000001003700000000002b
:103b280084212000040078004f0478000080fa0007
:103b3800000006002200fa00700f98000117980094
:103b48007e0a9000d44a9000055798007e0a90009b
:103b580044039000d4039000460798005707980044
:103b68007e0a900024039000b4039000160f98007a
:103b7800270f9800a81ea900a83ea900a85ea900c2
:103b880044f5800070026200e00f520008003a001d
:103b9800ad3507000003be0024bc2e00b500200090
:103ba8000602420087824a00f4f4880005f588007e
:103bb80034f58000e40f520003003200e50f520094
:103bc8002c003200770037000e5290000482fb0070
:103bd80064026200e00f52000200320031ff070069
:103be800270437000e5290000482fb007002620026
:103bf800e00f5200090032004e029000de029000f1
:103c080084f1880095f188008040eb0040c0b30043
:103c1800dffb070023ff0700190437000e5290004e
:103c28000482fb0062026200e00f52000f003200c3
:103c38001e0a9000ae0a900061024200e0824a002b
:103c4800a4f18800b5f188004cff07000002780055
:103c580084f2880011c0b30020c1b300ccfb070078
:103c68006400200034f58800050437000dff0700c4
:103c7800030437000e5290000482fb0064026200c5
:103c8800e00f5200eb033a000e5290000482fb0052
:103c980070026200e00f52001700320086f18000c7
:103ca80097f180004e029000de029000840f5300ce
:103cb800858f5b001000320086f1800097f180004c
:103cc800160f9800270f98004e029000de02900011
:103cd80084f1880095f1880011c0b30040c0b3009a
:103ce800abfb07001e0b9000ae0b900086f188001e
:103cf80097f18800e20337000e5290000482fb001f
:103d080062026200e00f5200cc0332001e0a9000eb
:103d1800ae0a900061024200e0824a00a4f18800e5
:103d2800b5f188007e0a900074029000f4f18800d2
:103d380012ff07000002780084f288000e529000fb
:103d48000482fb0070026200e00f52000f00320094
:103d580011c0b30000c1b3008dfb07007400200040
:103d680034f58800383507000003be0024bc2e0057
:103d7800b50020000602420087824a00f4f4880059
:103d880005f58800a89ea900bd03370011c0b3003f
:103d980020c1b3007efb07006400200034f58800d2
:103da800b70337008e139000670798000e529000f3
:103db8000482fb006102620004427800e04f520076
:103dc800030032006e0290000402e80064079800c5
:103dd8000e5290000482fb0062026200e00f520063
:103de800030032006e0290000402e80064079800a5
:103df800d5f48000e4f48000848f52000900390073
:103e0800a5f4800094f4800084825200e6f48000d7
:103e1800d4f480000402530004824200340798005e
:103e280005003700e5f48000d4f4800004825200d5
:103e38000402e90034079800a4f18000b5f180007d
:103e48001e0b9000ae0b90000402530085825b00ad
:103e5800340f9800450f98003e0a9000540f9800c0
:103e68000002eb00740798006e029000e00f520009
:103e7800350032003e029000e00f52004800320048
:103e88003e0a9000ce0a9000e00f5200e08f5a00e0
:103e98000a0035003e0290006123b8003e0a9000f7
:103ea800ce0a9000840f5300858f5b000300360014
:103eb8001400200074079800140037006e02900068
:103ec8006123b8003e0a9000ce0a90000602420024
:103ed80087824a00e00f5200e08f5a000b0034003e
:103ee800be0290006e029000048252006123b90065
:103ef8003e0a9000ce0a9000840f5300858f5b0025
:103f08000200350014002000740798003e0290005b
:103f18006123b8003e0a9000ce0a9000840f530037
:103f2800858f5b001e003400de0a90006e02900050
:103f380004824200e00f52001900340014002000ef
:103f480074079800160037003e0a9000ce0a9000c9
:103f5800e00f5200e08f5a0003003a0014002000de
:103f6800740798000e0037003e0a9000ce0a9000b1
:103f7800e00f5200e08f5a00090035003e02900021
:103f88006123b8003e0a9000ce0a9000840f5300c7
:103f9800858f5b000200360014002000740798002b
:103fa8007e029000e00f520009003a000e52900085
:103fb8000482fb0064026200e00f520021033a0011
:103fc80011c0b30000c1b300f1fa07002c03370099
:103fd8000e5290000482fb0066026200e00f52005d
:103fe800020032002ffe0700250337000e52900012
:103ff8000482fb0070026200e00f520013033200db
:1040080034f580006123b800a4ff2f00f5ff2f00ce
:104018000602420087824a0066002000070020004e
:10402800860f5200878f5a0059013e000460010034
:10403800060037001e0037001d0037001c0037003f
:104048001b0037001a0037004601370086f1800050
:1040580097f180004e029000de029000840f53001a
:10406800858f5b001000320086f1800097f1800098
:10407800160f9800270f98004e029000de0290005d
:1040880084f1880095f1880011c0b30040c0b300e6
:10409800bffa07001e0b9000ae0b900086f1880057
:1040a80097f18800f60237007400200034f5880084
:1040b800b5f48000c4f180000482520024079800ff
:1040c8002e029000e00f520006003d0095f480009b
:1040d80084f4800004825200ae0290000482420000
:1040e8002407980086f1800097f180002e02900046
:1040f80005002000041f430005974b004e03900065
:10410800de0390001e02be000402530085825b009d
:10411800048fbe001e02be00e00f5200e08f5a005e
:104128001400340074f2800061026200e00f520053
:10413800060032001e03be00140020000500200007
:10414800840f5300858f5b00040032008040eb0031
:1041580000c1b3008efa0700c90237004e02900072
:10416800de02900061025200e0825a004407980083
:104178005507980086f1800097f18000c5f180000e
:10418800c4f4800004825200cfa2de00041f530052
:1041980005975b00c5f18000c4f48000848f52004d
:1041a8000600310095f4800084f4800004825200f7
:1041b800050020001e1f12001e971a004e029000d4
:1041c800de0290001e1f52001e975a001e02be00fb
:1041d800e00f5200e08f5a005000340095f4800040
:1041e80084f480000482520005002000be0f5200b3
:1041f800ae8f5a00490039004e7ea9004e9ea90094
:10420800a91ea900c7f4800027079800c5f48000fc
:104218001e02780004824200c4f48800c5f18000c0
:104228002e029000848f520011003900c5f18000e1
:10423800c4f48000848f52002300310086f180008e
:1042480097f18000c5f48000c4f180000482520018
:10425800050020000602420087824a0084f1880097
:1042680095f18800c4f48000c4f188001600370076
:10427800c5f1800096f4800084f4800004025300a5
:104288000482420024079800c5f480002e029000a2
:10429800848f52000c00360086f1800097f1800070
:1042a800c5f480002e029000048252000500200010
:1042b8000602420087824a0084f1880095f188004e
:1042c800c4f48000c4f18800c5f4800094f4800030
:1042d800848f520006003900c5f4800086f48000ff
:1042e80094f480000402530004824200c4f488005d
:1042f800c5f1800094f48000848f520030003900aa
:10430800c5f1800086f4800094f480000402530014
:1043180004824200c4f1880029003700c5f48000f7
:10432800c4f18000848f52002500320074f28000ae
:1043380068026200e00f52002000320074f2800030
:1043480070026200e00f52001b00320086f180000c
:1043580097f18000c5f18000c4f480000482520007
:10436800cfa2de000402530085825b0084f188003e
:1043780095f18800c5f18000c4f48000848f520054
:104388000a00310086f1800097f1800095f48000e2
:1043980084f4800004825200cfa2de00040253009d
:1043a80085825b0084f1880095f18800c4f4800060
:1043b800c4f18800a95ea8004e9ea8004e7ea80001
:1043c800c5f48000b4f48000848f52001c003a00c9
:1043d80045f580000480200004826200e00f52004e
:1043e8000a003a00983307000003be0024bc2e00e0
:1043f800b50020000602420087824a00f4f48800d3
:1044080005f58800a89ea9000d00370086f18000f8
:1044180097f180004e029000de029000840f530056
:10442800858f5b0006003a0074f28000610262002a
:10443800e00f520002003200a89ea900a97ea90040
:104448007e0a900074039000ce03900084f18000ef
:1044580095f18000040278000482530004024300ae
:10446800640f9800f4f18000e00f520004003a0055
:104478006e0a9000e00f520001003200a93ea80029
:104488006e0a9000f4f1880034f58000e80f5200bd
:1044980017003a0086f1800097f180004e029000e4
:1044a800de029000840f5300858f5b003a003a00cb
:1044b80074f2800061026200e00f5200380032009e
:1044c800613307000003be00145e2f005500200072
:1044d8000602420087824a00f4f4880005f5880045
:1044e800a89ea8009400200034f588003100370009
:1044f80034f58000e90f52000e003a000e52900089
:104508000482fb0061026200e00f520026003a00bc
:104518004e039000de03900086f1880097f1880032
:104528008040eb0040c1b30099f90700ddfc0700ab
:10453800d301370034f58000ea0f52001c003a001e
:1045480086f1800097f180004e029000de02900014
:10455800840f5300858f5b00be013a00d1fc070031
:10456800c701370084f1800095f1800061034200a3
:10457800e0834a004e029000de029000840f530050
:10458800858f5b00b5013a00c6fc0700bc01370007
:104598000000000007003700000000000500370099
:1045a8000000000003003700000000000100370091
:1045b800000000000e5290008482fb0004022000dc
:1045c80004826200e00f5200a6013a0034f5800030
:1045d800eb0f5200a501320034f58000ea0f5200bb
:1045e800a401320034f58000ec0f5200a301320020
:1045f8000e129000e00f5200200132005e0a900077
:10460800e00f52007f003c007e0a90006402900098
:104618004422de006f4262000482fb004222dd0079
:10462800840278005e0a9000048252000400780038
:10463800d83107008e1290005e0a90000482420072
:10464800041798008e1290003e029000848f52004a
:1046580002003600be03900007179800a6f18000fc
:10466800b7f180000e1290000500200006024200fb
:1046780087824a00a4f18800b5f18800d5f480004b
:104688000e12900084824200a4f48000848f5200ad
:1046980020003600a5f48000d4f480000482520083
:1046a8000402e80024079800c5ea21009542780032
:1046b800d6f480002e0290008041eb000081eb00d0
:1046c8008540780006007800240207008e129000ca
:1046d8002e02900004825200c5ea2100954278001b
:1046e80096f480008041eb000081eb008540780063
:1046f800060078001902070095f480000e13900058
:104708002e0290000402530004824200d4f4880070
:104718000d003700c5ea210095427800d6f48000e4
:104728000e1290008041eb000081eb00854078007c
:104738000600780009020700d5f480000e129000e8
:1047480004824200d4f4880064f28000e10f420041
:10475800ca00320064f28000840278000e129000d1
:104768000482520064f2880005f2800064f280003e
:1047780004824200240798002e029000e00f5200a5
:1047880003003d000082eb0064f28800bb003700a4
:1047980064f28000e00f5200b8003c00a6f18000ef
:1047a800b7f180002e0290000500200006024200aa
:1047b80087824a00a4f18800b5f18800d5f480000a
:1047c8002e02900004824200d4f48800d5f48000c0
:1047d800a4f48000848f520007003600d5f48000ce
:1047e800a6f4800094f48000040253000482ea00d6
:1047f80004824200d4f488000082eb0064f288004e
:104808009e0037005e0a9000e00f52009b003400c3
:104818008e1290005e0a9000848242003e02900050
:10482800848f520004003600be0290005e0a900099
:1048380004825200041798007e0a900064029000d7
:104848004422de006f4262000482fb004222dd0047
:10485800040078004f310700d5f480005e0a90000c
:10486800848242000e12900084824200a4f48000e8
:10487800848f520033003600a5f48000d4f4800001
:10488800848252005e0a90000402ea000482420018
:104898000402e800240798002e029000e00f52005e
:1048a80017003500c5ea210095427800d6f480004b
:1048b8005e0a9000040343002e0290008041eb0042
:1048c8000081eb008540780006007800a30107000e
:1048d8008e1290002e02900004825200c5ea210038
:1048e8009542780096f480008041eb000081eb004f
:1048f8008540780006007800980107001c00370002
:10490800c5ea210095427800d6f480005e0a90003e
:1049180004034300a7f4800094f480000482530049
:104928000482ea00040343000e1290008041eb0069
:104938000081eb00854078000600780087010700b9
:104948000b003700c5ea210095427800d6f48000b4
:104958005e0a9000040343000e1290008041eb00b1
:104968000081eb0085407800060078007b01070095
:1049780064f28000e10f420005003a005e0a9000f0
:1049880064f288000e12900004f288003b003700a1
:1049980064f28000840278005e0a9000848f5200de
:1049a8001c003600de0a90000e129000848242003d
:1049b80064f280000403780004f2800004024300db
:1049c800848f520006003e00de0a90000e1290000e
:1049d8008482420064f28000848f52000300310018
:1049e8008e12900005f288000700370064f28000fc
:1049f8008402780004f28000848242005e0a9000fb
:104a08000482520004f288005e0a900064f2880072
:104a18001a003700de0a90000e12900084824200cd
:104a280064f280000403780004f28000040243006a
:104a3800848f52001100360064f2800084027800ee
:104a480004f28000848242005e0a9000848f520043
:104a58000a00390005f280005e0b90000e129000eb
:104a68000403430064f280000403530004f280004e
:104a7800040253000482420004f288006e0290008f
:104a8800e00f52001b00320034f58000e70f52009f
:104a980002003200d4f48000e4f4880045f5800078
:104aa8000408200004826200e00f52000500320072
:104ab80011c0b30000c1b30035f807003af0070091
:104ac8000c003700a8fea80045f58000040420006b
:104ad80004826200e00f520006003a00a8dea80037
:104ae800f23107000002be00040278007e02420094
:104af80024f588000e5290000482fb0061026200d7
:104b080004427800e04f52005d003200a4f18000ba
:104b1800b5f1800061034200e0834a006e02900014
:104b28006120b8001e0a9000ae0a90000002420000
:104b380081824a00840f5300858f5b0050003a0041
:104b4800a4f18000b5f1800061024200e0824a00d1
:104b5800a4f18800b5f1880034f580006123b8001d
:104b6800a4ff2f00f5ff2f000602420087824a00ab
:104b78003600200007002000860f5200878f5a0059
:104b880027003e00046001000300370008003700da
:104b98000f0037001d003700c400200034f58800de
:104ba80011c0b30010c1b300f9f707003400370093
:104bb800b400200034f58800bc3107000002be00b4
:104bc80004027800d403b00024f5880015003700eb
:104bd80086f1800097f180004e029000de0290007e
:104be800840f5300858f5b0005003a008040eb007e
:104bf80000c1b300e6f707002afb070020003700d2
:104c0800a400200034f58800060037008040eb003f
:104c180000c1b300def7070022fb070018003700c9
:104c28000000000011c0b30000c1b300d8f70700ae
:104c380013003700000000001100370000000000da
:104c48000f003700000000000d00370000000000d2
:104c58000b003700000000000900370000000000ca
:104c680007003700000000000500370000000000c2
:104c780003003700000000000100370000000000ba
:104c88000080fa00000006000e00fa006047980055
:104c98004107980052079800434f98006e429000d1
:104ca800e04f5200020032000002eb00a80037007b
:104cb8006e40900092ef07004e029000e00f520005
:104cc80002003a001400200044079800a5f4800070
:104cd80084f48000048252000402e900240798004a
:104ce800ce0290005e029000848242002e02900064
:104cf800848f5200020036000002eb009400370057
:104d0800a9ef07004e4a90000482fb00630262008c
:104d1800e00f520003003a004e4a90003440b300be
:104d2800444f98005e02900014079800ce0290004d
:104d38005e02900004824200ae029000048252009b
:104d4800240798004e4a90000482fb006202620029
:104d5800e00f5200100032004e4a90000482fb001f
:104d68006102620004427800e04f520006003200ff
:104d78002e0290000402d1009e029000048242009c
:104d880014079800040037009e0290002e0290003d
:104d9800048242001407980085f480001e029000e7
:104da800048242000402e80024079800d4f480003a
:104db800040f780064f28000e10f42000d00320019
:104dc80064f280008402780004f2800004824200c9
:104dd8001e0f4200a4f480009e0f5200050031000f
:104de800a5f4800094f48000048252000482ea0052
:104df8001e0f4200e4f480009e0f520010003100a4
:104e0800e5f480002e029000848f520023003100c8
:104e18004e4a90000482fb0064026200e00f5200d8
:104e2800020032000002eb00490037002e02900019
:104e3800e4f488002e029000d4f4880017003700ac
:104e4800e4f480009e0f52001000360095f48000b4
:104e58002e029000848f5200100031004e4a9000bc
:104e68000482fb0064026200e00f5200020032007c
:104e78000002eb00360037002e029000e4f48800b0
:104e88002e029000d4f48800040037002e0290000f
:104e9800e4f488002e029000d4f48800e4f4800042
:104ea8009e0f52001b0036004e4a90000482fb0001
:104eb80064026200e00f52001600320094f4800091
:104ec8001e021200c6ea21001643780097f48000fb
:104ed800c5ea2100954278008641780007017800ec
:104ee800854078002e0090001c000700d5f4800053
:104ef800e4f48000848f520006003100d5f480006d
:104f080094f480002e0390000402530004824200af
:104f1800d4f488002e02900094f4880084f4800071
:104f2800c4f1880084f48000c4f4880084f480000c
:104f3800b4f4880034f58000e70f520003003a000b
:104f480011c0b30000c1b30011f70700140020001e
:104f5800040078000080fa00000006000a00fa0049
:104f6800000f7800214798002207980063479800af
:104f7800440798006e4290000482fb00e00f520044
:104f88001a003200e10f520037003a002e4290001a
:104f98000482fb00e00f520009003200e10f5200ca
:104fa8002e003a00ae0290001e0278004e019000da
:104fb800850078000400780000ee07000a0037003a
:104fc8001e027800e10f4200020032001e00780045
:104fd800cf1307002e029000ce0090000400780046
:104fe80042160700000000001f0037002e42900004
:104ff8000482fb00e00f52000c003200e10f520067
:1050080018003a002e029000e10f42000200320020
:105018002e009000d91307001e027800ce009000e1
:1050280004007800a61507000a0037004e0190001a
:10503800ae0090001e007800791407000000000000
:105048007a15070000027800e00f5200fcff3200da
:10505800000000000000000003003700000000000e
:1050680001003700000000000080fa000000060080
:105078000200fa00000f78000080fa000000060025
:105088000000fa0024fd80000402e80024fd8800e6
:1050980084a620008002eb00050a780084a6200080
:1050a800150020001502980084a620002500200085
:1050b8002502980084a620003500200035029800bb
:1050c80024fd80002450880034fd8000345388007b
:1050d8008f60a9008760a9000405800004c0a100b2
:1050e80004d0a10004e0a000040588000002eb0041
:1050f800b41c88009803a8009823a8009843a80027
:1051080098a3a800008020004b310700808a200067
:10511800493107000095200047310700044020006e
:10512800841c880000000000851c8000040e2000fc
:105138008482620004082000848f5200faff3a003b
:1051480034002000941c8800a4392000a41c880086
:10515800148021008419880054802100c419880013
:105168000002eb000418880004802100441888001d
:105178004400210084188800c47f2100c4188800d6
:10518800c47f210004198800c47f210044198800c5
:1051980014002000741b880024002000f41a8800e2
:1051a80034002000741a8800040c2000241b880096
:1051b800040c2000a41a8800040c2000241a88007b
:1051c8000002eb00741c88000002eb00f41b88004e
:1051d8000002eb00841c880000000000851c800091
:1051e800040e200004826200e00f5200fbff3a0028
:1051f80084a42000a49a8800c49f2000949a880060
:1052080084a32000b49a8800c4a22000849a88004d
:105218000002eb00c49a88008f60a80054fb2500a8
:1052280084088800147a2000640888000002eb00d3
:105238003408880084c0a9008cc0a90011e1a80026
:10524800d4fb250094088800b4c42400740888009e
:1052580084e0a9008ce0a90013e1a8000002eb009b
:10526800c4518800b4e92800d45188000002eb003a
:10527800e451880014042000f451880044062000fa
:10528800045288000080fa00000006000000fa00be
:10529800d51c800004f02f008482620046528000f2
:1052a80004f02f0004026300848f52000a003600c5
:1052b80045528000f40f20000482620044528800a6
:1052c80045528000d61c800004f02f0004026300c1
:1052d8000482420044528800d51c8000f40f20004c
:1052e8008482620046528000f40f200004026300aa
:1052f800848f52000a0036004552800004f02f00c7
:10530800048262004452880045528000d61c800006
:10531800f40f200004026300048242004452880013
:1053280054342c004450880034122f005450880004
:10533800043a8000e44f8800260007004c0007006c
:105348009a0207005607070084a6200094027800f6
:105358000400280004826200e00f520001003200bd
:1053680096080700345380000450880005508000d8
:1053780004538000048242000450880005508000d5
:1053880014538000048242000450880005508000b5
:105398002453800004824200045088000550800095
:1053a800e4528000048242000450880005508000c6
:1053b800d4528000048242000450880005508000c6
:1053c800c452800004824200045088000080fa0021
:1053d800000006000a00fa00180037008e00780066
:1053e800008020005b3007009e02780044f821000e
:1053f8008482620044402100848f520003003a00f6
:105408000e0078005b0107000c0037009e02780050
:1054180044f821008482620044502100848f5200a5
:1054280003003a000e0078007701070003003700f8
:10543800c45280000402e800c452880000802000a2
:10544800f62f070000027800e00f5200e3ff3a0051
:105458007445800004538800344080001453880049
:10546800b44a8000245388000080fa000000060037
:105478000000fa00655180000410200004826200d8
:10548800e00f520006003a0084a6200014027800bb
:1054980068026200e00f5200010032005500070068
:1054a800250480000404200004826200e00f5200fa
:1054b8004e00320084c0a9006551800004202000fd
:1054c80004826200e00f520002003a00490007001f
:1054d80046003700845380000402e80084538800a3
:1054e80084538000670262008453880084538000dc
:1054f800050020007600200007002000860f5200db
:10550800878f5a0039003e00046001000700370009
:1055180008003700090037000a0037000b00370081
:105528000c0037000d0037000e003700310007006f
:105538002e003700520007002c0037002d0007000e
:105548002a003700780007002800370029000700e4
:1055580026003700890007002400370025000700cf
:1055680022003700945380000402e8009453880016
:1055780094538000e50f5200020036000002eb0051
:105588009453880094538000e00f520001003a00c1
:105598008f00070094538000e10f520001003a0089
:1055a8004c00070094538000e20f520001003a00bb
:1055b8009c00070094538000e30f520001003a005a
:1055c800ad00070094538000e40f520001003a0038
:1055d800be00070094538000e50f520002003a0015
:1055e800cf00070001003700000000000080fa002b
:1055f800000006000a00fa0004002400040f7800e6
:1056080084a62000140278001407980084a62000bd
:10561800140290002407980084a620002402900019
:105628003407980084a620003402900044079800ac
:10563800e13520000e007800f52f07006452800045
:105648000402e8006452880084a62000140278004e
:105658004322de00614262000482fb0061026200b4
:105668004822dd0066518000f5ef2f0085026300b7
:1056780005027200645188000080fa0000000600ec
:105688000a00fa00040a2a00040f78000420240003
:1056980044079800447d800034079800347d8000da
:1056a800240798000002eb00140798008e00780089
:1056b800808a20008f2f0700741b80006802620018
:1056c800e00f520001003a008760a8000080fa004d
:1056d800000006000a00fa00840a2a00040f780075
:1056e80004202500440798000002eb0034079800c6
:1056f800d484800024079800c4848000140798008c
:105708008e007800808a20007a2f0700741b8000a2
:1057180068026200e00f520001003a008760a800aa
:105728000080fa00000006000a00fa00840b2a0034
:10573800040f780004202700440798000002eb00bb
:1057480034079800748d800024079800d48c80005a
:10575800140798008e007800808a2000652f0700c3
:10576800741b800068026200e00f520001003a00da
:105778008760a8000080fa00000006000a00fa000e
:10578800040c2a00040f780004202800440798001d
:105798000002eb0034079800f4908000240798007a
:1057a80004918000140798008e007800808a2000f9
:1057b800502f0700741b800068026200e00f52003f
:1057c80001003a008760a8000080fa000000060087
:1057d8000a00fa00040c2a00040f7800142028009c
:1057e800440798000002eb003407980024918000d9
:1057f8002407980014918000140798008e00780000
:10580800808a20003b2f0700741b8000680262001a
:10581800e00f520001003a008760a8000080fa00fb
:10582800000006000a00fa0084092a00040f780024
:1058380004202300440798000002eb003407980076
:105848000002eb00240798000002eb001407980000
:105858008e007800808a2000262f0700741b8000a5
:1058680068026200e00f520001003a008760a80059
:105878000080fa00000006000a00fa0084092a00e5
:10588800040f780014202300440798000002eb005e
:10589800340798000002eb00240798000002eb0090
:1058a800140798008e007800808a2000112f0700c6
:1058b800741b800068026200e00f520001003a0089
:1058c8008760a8000080fa00000006000a00fa00bd
:1058d80084092a00040f7800242023004407980034
:1058e8000002eb00340798000002eb002407980040
:1058f8000002eb00140798008e007800808a2000d0
:10590800fc2e0700741b800068026200e00f520042
:1059180001003a008760a8000080fa000000060035
:105928000a00fa0084092a00040f780034202300b2
:10593800440798000002eb00340798000002eb00cf
:10594800240798000002eb00140798008e007800e6
:10595800808a2000e72e0700741b8000680262001e
:10596800e00f520001003a008760a8000080fa00aa
:10597800000006000400fa00100798001e029000bc
:10598800c4029000f4ff2000048f620015c0b30029
:10599800f40f20001e037800840f530001003e001e
:1059a8008042eb0014c0b300f61f20009e0378006d
:1059b800868f5300010036000042eb0004c26200eb
:1059c800e04f52000b0032001e02900014039000ba
:1059d8001e029000a40290001e0290004402900053
:1059e800060178008500780004007800a1160700f9
:1059f80003003700d45280000402e800d452880023
:105a08000080fa00000006001400fa00100f980049
:105a18001e0a9000140278004322de001407980042
:105a28001e0290006f026200140798001e02900088
:105a380015002000042add00240798001e0a9000a3
:105a48000482e80094027800350798001e0a900046
:105a58006402420094027800450798001e0a9000ec
:105a680034029000540798001e0a900044029000e7
:105a7800640798000060fe003e0290000470a100d8
:105a8800340798001e0290006123b8000082eb00e2
:105a98008082eb000602420087824a0076002000de
:105aa80007002000860f5200878f5a0089003e00a9
